:1000000051C500006CC500006AC500000C94AF30FB
:1000100066C5000064C5000062C5000060C5000040
:100020005EC500005CC500000C9402140C94CF1A4D
:100030000C94632854C5000052C5000050C5000050
:100040004EC500004CC500004AC5000048C5000070
:1000500046C500000C94EA1442C5000040C50000EB
:100060003EC500003CC500003AC5000038C5000090
:1000700036C5000034C5000032C5000030C50000A0
:100080002EC500002CC500002AC5000028C50000B0
:1000900026C5000024C5000022C5000020C50000C0
:1000A0001EC500001CC500001AC500000400150094
:1000B00000001A00090000000C00120000001600E9
:1000C00017000000110008000000090013000000E4
:1000D0000F00180000000B003600000008000C00A4
:1000E00000001500160000002020202061626364DB
:1000F00065666768696A6B6C6D6E6F707172737438
:1001000075767778797A3132333435363738393015
:10011000524542545F2D3D5B5D5C233B27602C2E96
:100120002F2020202B0014001A00090013000500C6
:10013000A15204001500160017000A00A2521D006B
:100140001B000600070019000000000000002152FB
:1001500006282C00310033001C0018000F000D0091
:10016000340012000C000800110010001932380091
:10017000370036000B000E00000000000000225285
:100180002A00280029003A003B003C003D003E00C8
:10019000A1521E001F00200021002200A2520100D7
:1001A00001000100A4520100000000000000010055
:1001B000E3002C00350243004200410040003F00B4
:1001C00035002700260025002400230019323002C4
:1001D0002F0231022E022D0200000000000001005B
:1001E0004C00280029001E021F02200221022202C8
:1001F000A15201000100AE00AC00AB00A252010010
:100200000100A800AA00A9000000000000000100F1
:10021000E3002C00010027022602550024022302DD
:1002200035004F00510052005000010019323000DB
:100230002F0001002E002D00000000000000010032
:100240002A002800290044004500010001000100A7
:10025000A1524278437845784B784978A252407E43
:10026000447846784C784A7800000000000001008D
:10027000E3002C000100010001004D004A00210AAA
:100280000100010001005101520150010100010073
:1002900001004B004E004F01000000000000010073
:1002A0002A00280000DA0281FFD9F1DB20A4A62E63
:1002B000AF00A0C0D30000A1C8D30000AED580A875
:1002C0001F408D14200057504D3A2000556E646534
:1002D000660041646A757374005261697365004C0D
:1002E0006F7765720044656661756C74004C617966
:1002F00065723A20003A002C206B007800808182E1
:10030000838485868788898A8B8C8D8E8F90919245
:100310009394A0A1A2A3A4A5A6A7A8A9AAABACAD9B
:10032000AEAFB0B1B2B3B4C0C1C2C3C4C5C6C7C812
:10033000C9CACBCCCDCECFD0D1D2D3D4000001010D
:100340000101010101010102020202020202020294
:100350000303030303030303040404040404040564
:100360000505050506060606060707070707080828
:100370000808090909090A0A0A0B0B0B0C0C0C0DD9
:100380000D0D0E0E0E0F0F0F101011111112121372
:10039000131414151516161717181819191A1A1BED
:1003A0001B1C1D1D1E1E1F2020212222232424254C
:1003B0002626272829292A2B2C2D2D2E2F30313285
:1003C00032333435363738393A3B3C3D3E3F404195
:1003D00042434445464748494A4C4D4E4F5051537D
:1003E00054555658595A5B5D5E5F61626465666834
:1003F000696B6C6D6F7072737577787A7B7D7E80B8
:1004000082838587888A8C8E8F91939596989A9C03
:100410009EA0A2A3A5A7A9ABADAFB1B3B5B7BABC17
:10042000BEC0C2C4C6C9CBCDCFD1D4D6D8DBDDDFE8
:10043000E2E4E7E9EBEEF0F3F5F8FAFDFF00AF00D8
:10044000AE05010980A101850319012AB700150134
:1004500026B700950175108100C0050C0901A101A6
:10046000850419012AA002150126A0029501751024
:100470008100C005010906A1018506050719E029CB
:10048000E715002501950875018102050719002966
:10049000EF1500250195F075018102050819012964
:1004A00005950575019102950175039101C005013E
:1004B0000906A101050719E029E71500250195089E
:1004C000750181029501750881010507190029FF51
:1004D000150026FF009506750881000508190129F9
:1004E000051500250195057501910295017503918A
:1004F00001C009023B00020100A0FA09040000014A
:1005000003010100092111010001224400070581B6
:100510000308000109040100010300000009211182
:10052000010001226D000705820320000112010075
:100530000200000008534601000100010200010C06
:100540000343006F0072006E006500000010036638
:10055000006F006F007300740061006E0000000403
:100560000309040000000000003E5B4F5B3E003EBC
:100570006B4F6B3E001C3E7C3E1C00183C7E3C18C2
:10058000001C577D571C001C5E7F5E1C0000183C41
:10059000180000FFE7C3E7FF00001824180000FF61
:1005A000E7DBE7FF0030483A060E002629792926C6
:1005B00000407F05050700407F05253F005A3CE7C6
:1005C0003C5A007F3E1C1C0800081C1C3E7F001487
:1005D000227F2214005F5F005F5F0006097F017FBA
:1005E00000006689956A0060606060600094A2FF08
:1005F000A2940008047E04080010207E2010000849
:10060000082A1C0800081C2A0808001E10101010D8
:10061000000C1E0C1E0C0030383E383000060E3E1A
:100620000E060000000000000000005F0000000057
:100630000700070000147F147F1400242A7F2A1269
:100640000023130864620036495620500000080752
:10065000030000001C224100000041221C00002A6F
:100660001C7F1C2A0008083E08080000807030002B
:10067000000808080808000000606000002010085A
:100680000402003E5149453E0000427F4000007296
:1006900049494946002141494D33001814127F1041
:1006A000002745454539003C4A494931004121115F
:1006B000090700364949493600464949291E0000C4
:1006C0000014000000004034000000000814224123
:1006D00000141414141400004122140800020159DB
:1006E0000906003E415D594E007C1211127C007FCC
:1006F00049494936003E41414122007F4141413E46
:10070000007F49494941007F09090901003E4141F3
:100710005173007F0808087F0000417F41000020DE
:1007200040413F01007F08142241007F404040408B
:10073000007F021C027F007F0408107F003E4141C1
:10074000413E007F09090906003E4151215E007FBC
:10075000091929460026494949320003017F01034E
:10076000003F4040403F001F2040201F003F4038D6
:10077000403F00631408146300030478040300611D
:1007800059494D4300007F414141000204081020B7
:1007900000004141417F000402010204004040404A
:1007A0004040000003070800002054547840007FB8
:1007B0002844443800384444442800384444287FBE
:1007C0000038545454180000087E090200182424EC
:1007D0001C78007F080404780000447D400000205D
:1007E00040403D00007F102844000000417F400051
:1007F000007C04780478007C0804047800384444C1
:100800004438007C1824241800182424187C007C08
:10081000080404080048545454240004043F4424A9
:10082000003C4040207C001C2040201C003C40300C
:10083000403C004428102844004C9090907C004498
:1008400064544C440000083641000000007700006A
:10085000000041360800000201020402003C262389
:10086000263C000000000000000000000000000026
:10087000000000C0E0F0F8F81800C0F0FCFEFFFF38
:10088000FFFFFFFFFF7E000000000000000000806F
:10089000C0E0E0E0E0E0E0E0E0C0800000000080D8
:1008A000C0E0E0E0E0E0E0E0E0C080000000E0E088
:1008B000C0C0E0E0E0E00000E0E0C0C0E0E0E0E078
:1008C000E0C0800000000080C0E0E0E0E0E0E0E0A8
:1008D000E0C08000000000000000000000000000F8
:1008E00000E0F0F0F0E0ECEEF7F37020007C7C7CB0
:1008F0007E007E7E7E7F7F7F000080C0E07E5B4F3B
:100900005BFEC00000C000DCD7DEDEDED7DC00C04E
:1009100000000000000000000000000000000000D7
:10092000000000000000000000000000F8FCFEFFD6
:10093000E000FFFFFFFFFFFF80FFFFFFFFFFFFFF64
:10094000FFFF1F0701000000000000000000FFFF84
:10095000FF8100000000000081C3C3C30000FFFF4F
:10096000FF8100000000000081FFFFFF0000FFFF8B
:10097000FF01000000000000FFFFFF010000000079
:1009800001FFFFFF0000FFFFFF9D1C1C1C1C1C1C27
:100990009DDFDFDF0000000000000000000000001D
:1009A000000F1F3F7F7F7F7F7F3F1E0C001F1F1F99
:1009B0003F003F3F3F7F7F7F00307B7F78302020AC
:1009C00030787F3B0003000F7F0F0F0F7F0F000376
:1009D0000000000000000000000000000000000017
:1009E000000000000000000000000000030F1F3F97
:1009F0003F3F3F1F1F3F3F7F7F7F3F3F1F3F7F7F27
:100A00007F7F7C7878381C0F000000000000000118
:100A10000307070707070707070301000000000196
:100A20000307070707070707070301000000070779
:100A3000070000000000000007070700000000009A
:100A4000000707070000000103070707070707075C
:100A5000070301000000000000000000000000008B
:100A60000000000000000000000000000000000086
:100A70000000000000000000000000000000000076
:100A80000000000000000000000000000000000066
:100A90000000000000000000000000000000000056
:100AA0000000000011241FBECFEFDAE0DEBFCDBF93
:100AB00012E0A0E0B1E0EAE8F6E602C005900D928F
:100AC000AC3DB107D9F728E0ACEDB2E001C01D9212
:100AD000A733B207E1F70E948A280C94F63290CA35
:100AE00080912B06816080932B06089590912306B8
:100AF000937051F08093240660932506493708F0DF
:100B000048E740932606ECCF089590912306937012
:100B100041F0811107C09460909323061092AF01B9
:100B2000DFCF0895843010F09C60F6CF880F880FD7
:100B3000982BF2CF982FE0911F064091D60559E0EF
:100B4000E41302C080E008952E2F30E05E9FF00194
:100B50001124E952FA4F8181681306C080819813ED
:100B600003C085818111EFCFF9013196E770E8CF9D
:100B7000FC01AC014C5F5F4F8FEF91E32191822725
:100B800028E030E087FF09C0880F8927215031090C
:100B9000C9F7E417F50791F70895880FF7CFE8ED47
:100BA000F0E080818E7F80831092E2001092DA0064
:100BB0001092E100A0EEB0E08C9181608C93808176
:100BC0008F77808319BCA7EDB0E08C918E7F8C93DA
:100BD00080818F7E80831092BB0508952091E40070
:100BE0003091E50095E6A9012091EC00822F8170FB
:100BF00020FF06C08091E80080FF06C080E00895D5
:100C00002091E80022FD1AC08091C605882389F052
:100C1000853089F08091EB0085FD0FC02091E400C4
:100C20003091E50042175307F9F29150E1F684E064
:100C3000089582E0089583E0089581E00895809109
:100C4000C80587FF13C08091E80082FF06C080912D
:100C5000E8008B778093E80004C08091C60581117D
:100C6000F2CF08958091C6058823D9F38091E800DA
:100C700080FFF8CF8091E8008E77ECCF982F90938B
:100C8000E900242F762F50E0891731F07091EC00A5
:100C90002091ED005091F00021FD07C09F5F97303B
:100CA00071F78093E90081E008953091EB003E7F79
:100CB0003093EB003091ED003D7F3093ED003091AB
:100CC000EB0031603093EB007093EC002093ED006B
:100CD0005093F0002091EE0027FDE0CF80E00895D2
:100CE000B0E0A0E0E6E7F6E00C94DE31C8EDD0E03D
:100CF00088818F7E8883E7EDF0E08081816080834A
:100D000084E082BF81E08093BB0588818E7F8883E9
:100D100002EE10E0F80110821092DA0081EEC82E87
:100D2000D12CF601108288818F7788838881806832
:100D3000888388818F7D888319BC1092C6051092A4
:100D4000C7051092C5051092C40590EEE92EF12C4E
:100D5000F70180818B7F808388818160888342E076
:100D600060E080E08BDFF60180818E7F8083F80178
:100D7000808181608083808188608083F7018081A9
:100D80008E7F8083888180618883CDB7DEB7E8E07D
:100D90000C94FA31FC01CB012091CE053091CF05A6
:100DA0002617370790F0009729F42091E8002E7756
:100DB0002093E80040E0009751F4411108C0809171
:100DC000E80082FF31C080E00895C901F3CF20918F
:100DD000C6052223A9F12530A9F12091E80023FDC1
:100DE0002DC02091E80022FDEACF2091E80020FFED
:100DF000E2CF3091F3002091F200009719F02830F3
:100E0000310558F041E02830310509F040E02091EB
:100E1000E8002E772093E800CECF41914093F10077
:100E200001972F5F3F4FE9CF8091C605882341F09E
:100E3000853041F08091E80083FFC1CF81E00895C3
:100E400082E0089583E00895089587E797E79093F7
:100E500001088093000888E19AE00FB6F894A895FD
:100E6000809360000FBE90936000FFCFA4E0B0E0DD
:100E7000ECE3F7E00C94E4318FB7F8942091B705D8
:100E80003091B8054091B9055091BA0529833A834C
:100E90004B835C838FBF69817A818B819C8124968F
:100EA000E2E00C9400328091A90108959091AA018A
:100EB0009130E1F49091B40597FF18C0E82FE695C2
:100EC000E695E695803FF0F4F0E0EA51FD4F87703B
:100ED00021E030E0A90102C0440F551F8A95E2F7D6
:100EE000CA0180959281892382830895E0EEF2E021
:100EF0009191891303C0DF0111971C9252E0E63EE5
:100F0000F507B1F708959091AA019130C1F490913D
:100F1000B40597FF14C0E82FE695E695E695803F67
:100F2000F8F4F0E0EA51FD4F877021E030E001C0B5
:100F3000220F8A95EAF78281822B82830895A0EEA0
:100F4000B2E0EFEF90E02D91821751F0EF3F19F4EE
:100F5000211101C0E92F9F5F9630A9F7EF3F09F4F7
:100F600008950E2E000CFF0BE252FD4FE6CFA3E0DA
:100F7000B0E0EDEBF7E00C94E4319C018091B20518
:100F80009091B30582179307B1F03093B305209386
:100F9000B205E091B005F091B105309761F00084A1
:100FA000F185E02D309739F084E089833B832A83F3
:100FB000CE01019609952396E2E00C940032A3E05D
:100FC000B0E0E5EEF7E00C94E4319C018091AE05D1
:100FD0009091AF0582179307B1F03093AF0520933E
:100FE000AE05E091B005F091B105309761F0008455
:100FF000F185E02D309739F083E089833B832A83A4
:10100000CE01019609952396E2E00C94003280917E
:10101000D005882369F0E091B005F091B1053097D3
:1010200039F00190F081E02D309711F00995089585
:1010300080E008959C015091AA056091AB05452F71
:10104000641301C00895842F90E0FC01EE0FFF1F90
:10105000EE55FA4F0190F081E02DE217F307B9F455
:10106000F0E0E0E02A30310540F467E0629FF001F3
:10107000639FF00D1124EF59FE4F21E024834513A7
:10108000E1CF0196837099278093AA050895019670
:10109000482F4370D5CF1092360510923505E1E602
:1010A000F1E087EA91E02581211102C014821682C5
:1010B00037968E179F07B9F70895FC01EE0FFF1FB3
:1010C000E80FF91FE259FB4F6183408322830895A3
:1010D000539A0895E0912806EF3F89F0E53069F0D2
:1010E000E23019F0E1110DC0E3E0E150F0E0EB5F18
:1010F000FD4F808180932806F3CCE1E0F6CFE3E05A
:10110000F5CFE0E0F3CFE0912806EF3F61F0E53066
:1011100061F0E23061F4EF5FF0E0EB5FFD4F808162
:1011200080932806DDCCE0E0F6CFE1E0F4CFE0E00C
:10113000F3CFE3E2F6E024813AE0231B08F420E059
:101140002483CECCE3E2F6E024813AE0230F08F4D6
:101150002FEF2483C5CCE3E2F6E0438128E0421B75
:1011600008F440E08181628190E0C0CCE3E2F6E0E7
:10117000438128E0420F08F44FEF8181628190E0C3
:10118000B5CCE3E2F6E0628128E0621B08F460E09F
:101190008181438190E0AACCE3E2F6E0628128E01D
:1011A000620F08F46FEF8181438190E09FCCE3E20E
:1011B000F6E08181438162818850990B97CCE3E20C
:1011C000F6E0818190E04381628108968FCC909116
:1011D0002306969596958FEF890F913009F483E059
:1011E00094CC80912306869586958F5F843008F095
:1011F00081E08BCCE3E2F6E0808191E08927808377
:101200001092AF016DCC9BE0899F802D1124980F27
:10121000973308F096E32091D105222321F09C31E9
:1012200028F09BE108958B3108F48BE108958093B9
:101230005F0180912306837080935E0120D783E055
:101240008093AF010895622F08953091D105332323
:1012500021F08B3191052CF008958B31910514F01C
:101260004B972BCF0895FF920F931F93CF93DF934C
:10127000182F062FF42ED0E0C0E02F2D402F612F25
:10128000CE01E3DF2196C633D105B9F7CDB7DEB77E
:10129000E5E00C94FD31482F2695E22F26FDE095E0
:1012A0003E2F3F7026FD3F5FE695E695E695E6709A
:1012B000F0E0E350FE4F9181939F902D312D11244A
:1012C00092959F703295307F932B8081980F27FDE8
:1012D000919597FD9195990F292F249F020E20E05B
:1012E000211D1124822F0895B0E0A0E0EAE7F9E083
:1012F0000C94DC31262FD72EE82FF0E0E35CFC4F76
:1013000071110AC0E4918E2F9E2F6E2F792FCDB7C9
:10131000DEB7EAE00C94F831072F10E0E4914E2F8D
:1013200056E0659F70011124CFEFD0E0C701BE01E8
:101330000E94C031822F90E0880F991F55E5569F7B
:101340009001579F300D1124821B930B582F550F7E
:10135000580FCE01801B910BE89F9001E99F300D43
:101360001124932FD59ED0011124AB2FBB276E01E2
:10137000CA1ADB0AEC9DD001ED9DB00D11248B2F14
:101380005E01A51AB108A09E6001A19ED00CB09E7E
:10139000D00C1124CD2CDD24CC19DD09EC9F80016B
:1013A000ED9F100D112463307105D1F05CEFE5164F
:1013B00053E0F50670F461307105B1F062307105EB
:1013C000B9F04FEFE416F10408F09FCF832F912F6F
:1013D0009CCF6430710579F066307105B9F395CF13
:1013E000E32F9B2F842F91CFEB2F832F942F8DCF23
:1013F000812FE32FFBCF8E2FE12F87CFEF92FF922C
:101400000F931F93CF93DF937C018091AC01FBDEA0
:10141000192F309127063695369521E0320F08F4C2
:101420003FEF6091D2057091D30550E040E0639F9B
:10143000060E411D739F400D511D1124470F511D74
:10144000042FC82FD0E0C11748F08091D105882320
:10145000F1F081E01B31F0F080E01CC0FE01EB55A3
:10146000FD4F80819091AD01892379F06091240630
:101470007091250680912606202F4C2FF7010995A3
:1014800033DF472F282FCE01E0DE2196DCCF81E02D
:10149000163310F7CDB7DEB7E6E00C94FC31B0E0C0
:1014A000A0E0E5E5FAE00C94DF31C82F80915F0100
:1014B0008C1329C090912306937020915E0130E037
:1014C00081E09217130609F480E081708093AE01E9
:1014D000809128069091AD01981731F08093AD016D
:1014E00040E060E080E0BFDEC23009F455C068F43F
:1014F000C11113C08091AE01882341F140E060E04A
:1015000080E0B1DE08C081E0E0CFC33009F448C01C
:10151000CF3F09F448C080E019C08091AC0173DE70
:10152000082FD92F609124067091250680912606F8
:10153000DBDEF62EE72ED82E10E00D17C8F08091D6
:10154000D105882329F181E0DB3128F79091AC01A6
:101550009F5F9093AC0181114FC082E08093AF01F7
:101560008091AE01811148C0C11146C083E042C0E4
:10157000F801EB55FD4F80819091AD01892329F051
:101580002D2D4E2D6F2DC80160DE0F5F1F4FD5CF63
:1015900081E0D633D8F2BFCF8BE499E02FDFD6CFEE
:1015A00083E299E0FBCF8091D2059091D305A09181
:1015B000D405B091D5052AE0B695A795979587955E
:1015C0002A95D1F783709927AA27BB2782309105E6
:1015D000A105B105B1F083309105A105B105A1F0D8
:1015E00040E060E00197A105B10581F464E180E08D
:1015F0003ADE82E08093AF01CDB7DEB7E7E00C942E
:10160000FB3144E160E0F3CF44E164E184E1F0CFF9
:1016100080E00895F894E82FE295EF70F0E041A1A2
:101620008F7021E030E0B90102C0660F771F8A9504
:10163000E2F7CB01962F9095942391A392A1892B49
:1016400082A378940895A4E0B0E0E9E2FBE00C9472
:10165000E4318091D005882369F008DC69837A83BE
:101660008B839C8369817A818B819C812496E2E0C3
:101670000C940032FBDB69837A838B839C8380919B
:10168000B7039091B803A091B903B091BA0329812F
:101690003A814B815C81280F391F4A1F5B1F2983C8
:1016A0003A834B835C83DECF9091B40592FF10C0E8
:1016B00041E0282F2471243009F040E031E0282F48
:1016C0002871283009F030E0431711F02CE0822710
:1016D00093FF10C041E0282F2471243109F040E02D
:1016E00031E0282F2871283109F030E0431711F03C
:1016F0002CE082273091B50530FF10C051E0282F33
:101700002171213009F050E041E0282F2871283064
:1017100009F040E0541711F029E0822731FF10C092
:1017200041E0282F2171213109F040E031E0282FDC
:101730002871283109F030E0431711F029E08227A1
:1017400094FF02C083FD877E0895803E9105C1F11C
:10175000C8F48133910509F47DC048F489329105BC
:1017600009F46DC08A32910509F47BC0089589336C
:101770009105D1F082389105B9F08533910509F4CE
:1017800059C00895843E9105C1F138F4823E910517
:1017900021F1833E910531F10895863E9105C1F115
:1017A000873E9105E1F108952091B405237009F079
:1017B00065C02091B50523FF14C089E290E008952B
:1017C0002091B40520FD43C03091B50530FF09C01C
:1017D00024FF4EC090E080E008952091B40522FDE2
:1017E000F7CF08952091B40522FD45C03091B5058D
:1017F00030FD44C024FFF5CFEDCF2091B50521FF8A
:10180000F0CF8091B40584FDE5CF87EE90E0089598
:101810002091B40523FFE5CF24FDDCCFF6CF209146
:10182000B40523FD2EC03091B50531FFE3CF84EE22
:1018300090E008952091B40525FFD3CFBECF20912D
:10184000B40525FD21C02091B50523FFCACF89E34A
:1018500090E0C7CF2091B40526FFC3CF8AE290E085
:1018600008952091B40526FFBCCF81E390E0089550
:1018700083EE90E0089582EE90E0089580EE90E08F
:10188000089586EE90E0089585E390E0089578301D
:10189000B8F46630A8F48430B0F4E62FF0E096E0B7
:1018A000799FE00DF11D112490E3899FE00DF11D5A
:1018B0001124EE0FFF1FEC5DFE4F8591949108956A
:1018C00080E090E0089581E0FCCF1F93CF93DF93F9
:1018D0003CDFEC018115924508F05CC0C11580E544
:1018E000D80708F0D9C0C03ED10538F5CD3CD105A8
:1018F00008F0ABC0C83AD10580F4C53AD10508F06C
:10190000A1C0C130D10509F440C0CE010497813A8D
:101910009105D8F1D0E0C0E038C0CE01885A9109D5
:101920004B97C0F7C85AD0E0CC0FDD1FCD54DE4F27
:101930000990D881C02DD46428C0C11590E4D9077E
:10194000E0F4C11520E2D20708F0C0C0C83ED105BE
:10195000E0F0CE019A9581159F41E0F68D2FA4DE2F
:10196000182FCE019927F1DEC12FD0E0DC2FCC2734
:10197000CC27DF71C82BD92B08C0CE019927E5DE13
:10198000CC27DF70C82BD92BD06ACE01DF91CF9145
:101990001F910895C03882E5D807B8F5C03692E5A2
:1019A000D90708F05BC0C03422E5D207C8F4C032C2
:1019B00082E5D80708F04BC02C2F2695269590E29B
:1019C000299F900111248C2F8370C1E0D0E002C0C8
:1019D000CC0FDD1F8A95E2F7C22BD32BDD68D5CF64
:1019E0002C2F26952695277080E2289F90011124A0
:1019F0008C2F8370C1E0D0E002C0CC0FDD1F8A9530
:101A0000E2F7C22BD32BDC68C0CFC03C92E5D907EC
:101A100060F48C2F8F71C03AD245A8F5C82FD0E062
:101A2000DC2FCC27C46FD06AB0CFCE01805C92454A
:101A3000809708F06FCFDC2FCC27CC27DF71C06FE9
:101A4000D06AA3CFA497D064A0CFD0659ECFCF712A
:101A5000D0E0DC2FCC27C16FD06A97CF2C2F2695F2
:101A60002695277080E2289F900111248C2F837087
:101A7000C1E0D0E002C0CC0FDD1F8A95E2F7C22B97
:101A8000D32BDA6882CF10DEC82FD0E0DC2FCC2732
:101A9000CC27DF71D06279CF8C2F8F7105DE55E0B6
:101AA000D695C7955A95E1F7CF70D0E0DC2FCC27BB
:101AB000282F30E084FF06C044E0220F331F4A95F0
:101AC000E1F73327C22BD32BD0695FCF8D2F8F71D6
:101AD000EBDD182FCE01992738DEC12FD0E0DC2FA7
:101AE000CC27CC27DF71C82BD92BD4CF80915603BC
:101AF000882331F01092560310925503109254032C
:101B00000895982F90958091100589238093100552
:101B1000089580911F069091D605981301C00895ED
:101B20008F5F8770FACFB0E0A0E0E9E9FDE00C94A8
:101B3000DD318C01E0903004F09031048091C503D8
:101B40009091C603E82AF92ACFE0D0E0CC24C394D0
:101B5000D12CBC2EC6010C2E02C0880F991F0A94EE
:101B6000E2F78E219F21892B49F4219790F7B12C20
:101B70008B2DCDB7DEB7E9E00C94F931B8018C2F8D
:101B800086DEA3DE019789F3F3CFCF93DF93D82FBF
:101B9000C92FC9DF6D2F7C2F7ADE97DEDF91CF91C1
:101BA0000895983078F5863068F5E82FF0E086E003
:101BB000989FE00DF11D11249E2F977083E0F695FC
:101BC000E7958A95E1F7EE0FFF1FEE0FFF1FE85F25
:101BD000FC4F50E040E080E0219130E0092E02C04F
:101BE000369527950A94E2F721703327042E01C019
:101BF000220F0A94EAF7822B4F5F5F4F4430510562
:101C000059F7089580E00895983098F5863088F562
:101C1000E82FF0E086E0989FE00DF11D11248E2F53
:101C2000877041E001C0440F8A95EAF783E0F6959A
:101C3000E7958A95E1F7EE0FFF1FEE0FFF1FE85FB4
:101C4000FC4F30E020E070E05191DF011197CB01B3
:101C5000022E02C0969587950A94E2F781708195CD
:101C60008527842385278C932F5F3F4F24303105B0
:101C700059F708959C0186709927069731F42860DA
:101C800030933104209330040895277FF9CF21E069
:101C900030E002C0220F331F8A95E2F7209530957D
:101CA000809130049091310482239323E3CF90916B
:101CB0002B038095892380932B03282F277081F491
:101CC000891771F09091B50592FF0AC086958695A7
:101CD0008695DDDF10922B0310922A0310922903C0
:101CE000089521E030E002C0220F331F8A95E2F709
:101CF0008091300490913104822B932BBBCF909331
:101D0000C6038093C5030895FC0184818823A9F04C
:101D100087819085009799F0D8DD282F92959F7044
:101D20009630B1F080F4925F9F70923030F481E091
:101D3000203FA1F050F4283E50F080E008C08081A0
:101D4000918123DFEACF9A5FEFCF243FB1F7089567
:101D500081E0283E20F0213F81F7F9CF08950895D2
:101D6000A6E0B0E0E6EBFEE00C94E3319C01FC0160
:101D7000878190850097C9F486E0DE011196019075
:101D80000D928A95E1F7F901258189819A812223B3
:101D900081F0662371F0C7DE182F682F89819A8140
:101DA00033DF69817A81812F72DD2696E3E00C941E
:101DB000FF31F7DE182FF5CF9C019A9581159F41D1
:101DC00050F5D901AA27B170F901EE27F270B901D7
:101DD00066277470A9014427587034FF0EC080E153
:101DE000AB2B09F480E0EF2B09F08062672B09F040
:101DF0008064452B89F08068089581E0AB2B09F45D
:101E000080E0EF2B09F08260672B09F08460452B9E
:101E100019F08860089580E00895CF93DF93682FCC
:101E200081E06A3019F06D3029F480E082D0DF91D2
:101E3000CF910895809135089091360826E0FC01F5
:101E4000AFE2B8E001900D922A95E1F7603E08F408
:101E500058C026E0FC0111922A95E9F7C091350897
:101E6000D091360846E050E0BE018FE298E00E9433
:101E700096329E012F523640892B41F1C90145E02F
:101E8000969587954A95E1F741E050E0BA0102C086
:101E9000660F771F8A95E2F7CB0160912D0670914E
:101EA0002E06862B972BB9016B5F7F4FE5E0769569
:101EB0006795EA95E1F702C0440F551F6A95E2F76E
:101EC000842B952B90932E0680932D062A5F3F4FEF
:101ED00040912C06642F70E0C9010E94C031481B5C
:101EE000463010F4240F311D211572E0370710F031
:101EF00030E020E0215D394F3093360820933508DB
:101F000096CFF6E06F9FB00111246D597A4F46E0ED
:101F100050E00E948D32A2CFCF93DF93EC01FE01FF
:101F20008491811103C0DF91CF91089576DF2196CE
:101F3000F6CFCF93382FE0913508F0913608EF5265
:101F4000F64020912C06622F70E0CF010E94C03134
:101F5000281B822F332359F066E00E940B32C82FD2
:101F6000C15010F4CF91089580E257DFF9CF9F015F
:101F7000280F311D2115324018F080E0F0E0E0E03C
:101F80008E0F9F2F911D815D994F909336088093FE
:101F90003508E8CFC1DF81E0CCCF0F931F93CF93FB
:101FA000DF93EC01FC0101900020E9F78F01015063
:101FB0001109C017D10728F0DF91CF911F910F9120
:101FC000089589912ADFF5CF0F931F93CF93DF9365
:101FD0008B01EA019091C605943061F58093E90088
:101FE0008FEF9091E800815095FD06C095ED9A9590
:101FF000F1F700008111F5CF8091E80085FF1AC04C
:102000000E94EE05811111C08091E80085FD06C097
:102010008091E8008E778093E800F2CFF8018191FB
:102020008F018093F100219779F78091E8008E77F6
:102030008093E800DF91CF911F910F910895BC012B
:1020400043E050E082E0C0CFBC0140E250E082E0DB
:10205000BBCFCF93DF93D82FC92F48E050E0682F34
:10206000792F81E0B1DF88E0ED2FFC2FACEBB5E0FC
:1020700001900D928A95E1F7DF91CF9108953BB1E0
:10208000377F2BB128604FB7F8948EE694E0FC01BF
:102090000196508168E02BB9000000C057FF3BB9A2
:1020A000550F000000C000C000C03BB900C06A95D9
:1020B00091F755E08031950751F74FBF8FE594E0D8
:1020C0000197F1F700C000000895B0E0A0E0EBE652
:1020D000F0E10C94DC31F82EE92ED62EC72E8A01C1
:1020E0008091B603AA24A394B12C8A3018F48AE014
:1020F000A82EB12CC1E0D0E06D2D7C2D8F2D9E2D12
:10210000F8010995811104C02196AC16BD062CF486
:10211000CDB7DEB7EAE00C94F831CC9F9001CD9FAB
:10212000300D300D112490E080E045E34A95F1F741
:102130000000019682179307C1F7DECFAB0124E6BA
:1021400030E0BC0188E70E94852F9C0181E0232BB1
:1021500009F080E0089580916C0490916D049111D4
:1021600003C091E089270895882361F062E070E060
:102170008FE394E0E3DF811103C080916C04089544
:1021800010926C0480916C04ECCFA5E0B0E0EBEC15
:10219000F0E10C94E43180916C048D8380916D04A6
:1021A0008823E9F00E943607DC01CB01805D9A4864
:1021B000AF4FBF4F8093680490936904A0936A0463
:1021C000B0936B048D81811107C062E070E08DE3F4
:1021D00094E0B4DF811108C080916C048D838D81FF
:1021E0002596E2E00C94003281E080936C04F4CFF9
:1021F000CF92DF92EF92FF92CF93DF9300D000D087
:10220000CDB7DEB720DA60936304709364048093E3
:102210006504909366042091670429832091AF019F
:102220002230B9F1F0F4211129C01092AC01609371
:10223000D2057093D3058093D4059093D5058091F2
:102240006204811108C080912306282F237019F0A1
:10225000282F269526952093670481E08093AF016F
:1022600002C02330D1F00F900F900F900F90DF91AC
:10227000CF91FF90EF90DF90CF90089589810FD993
:102280008981882381F38091AC0181500E940309E8
:10229000EACF89810E941709E6CF80912B06882317
:1022A00051F048E050E067E170E083E296E00E9480
:1022B000C93210922B06C090D205D090D305E09081
:1022C000D405F090D5058091D005882381F00E9437
:1022D0003607DC01CB018C199D09AE09BF09409777
:1022E000A105B10508F4BFCF1092AF01BCCFABD9A7
:1022F000F0CFE3E2F6E085E080838091B001909139
:10230000B101A091B20181839283A3838FE784837B
:102310008FEF858348E050E067E170E0CF010E94D5
:10232000C93210922B0608959091B50592FB222791
:1023300020F9281771F080FB92F99093B505609110
:10234000B4057091B50584E090E00E94F23282E01D
:10235000AECC08954F925F926F927F92AF92BF92F0
:10236000CF92DF92EF92FF920F931F93CF93DF9361
:1023700000D000D000D0CDB7DEB78D837B01A42E76
:10238000B22E3E836801DB014D905D906D907C9094
:102390000E94360769837A838B839C83DC01CB019F
:1023A00084199509A609B70984369105A105B105D7
:1023B00010F4AA20E9F1BD810B2F0B2E000C110B9C
:1023C00088E0B802F0011124E050FF4F8181928132
:1023D00081599C4F408150E0C416D50608F4A601EF
:1023E0006B2D7E810E94A332C8010E9450318983E7
:1023F000882341F00E943607D7016D937D938D931A
:102400009C931397898126960FB6F894DEBF0FBE72
:10241000CDBFDF91CF911F910F91FF90EF90DF9093
:10242000CF90BF90AF907F906F905F904F90089546
:10243000B1E0B983E7CFA1E0B0E0E1E2F2E10C94D2
:10244000E23180916C0489832091890390E041E01E
:102450002817190609F440E001E010E09E012F5F03
:102460003F4F66EA73E087E075DF2196E4E00C9465
:10247000FE310F931F9341E020917C0330917D0347
:1024800080913004909131042817390709F440E015
:1024900002E010E020E334E06EE973E084E05ADF0C
:1024A0008823A9F041E020917E0330917F03809141
:1024B000C5039091C6032817390709F440E002E0EC
:1024C00010E025EC33E06AE973E085E043DF1F911B
:1024D0000F910895B0E0A0E0E0E7F2E10C94DF3165
:1024E000F82ED62EE72ED42FC52FB901A8018D2F97
:1024F0009C2F0E94963241E0892B09F440E02D2F59
:102500003C2F6D2D7E2D8F2D25DFCDB7DEB7E7E07B
:102510000C94FB31ACE0B0E0E0E9F2E10C94E23184
:102520008091E0039091E103A091E203B091E30375
:1025300089839A83AB83BC838091AA039091AB0378
:10254000A091AC03B091AD038D839E83AF83B88718
:102550008091AE039091AF03A091B003B091B1030D
:1025600089879A87AB87BC870CE010E02AE833E0C4
:10257000AE014F5F5F4F62EB73E088E0ABDF2C96FC
:10258000E4E00C94FE31A9E0B0E0E9ECF2E10C9457
:10259000E23188E0E3E2F6E0DE01119601900D926F
:1025A0008A95E1F780916204898709E010E020E8CC
:1025B00033E0AE014F5F5F4F62EA73E086E08ADF8F
:1025C0002996E4E00C94FE310F931F93AC0104E0D4
:1025D00010E024E733E06BE673E082E07BDF1F91DD
:1025E0000F910895CF92DF92EF92FF921F93CF93B6
:1025F000DF93CDB7DEB728970FB6F894DEBF0FBED6
:10260000CDBFC0909603D0909703E0909803F090D0
:1026100099030E943607DC01CB018C199D09AE0994
:10262000BF0911E084369105A105B10570F10BD801
:10263000DC01CB010296A11DB11D89839A83AB8376
:10264000BC838091190190911A0181599C4F20916E
:102650001801422F50E0253010F044E050E0BE0158
:102660006F5F7F4F0E94A33283E090E00E94503161
:10267000182F882351F00E943607609396037093B9
:1026800097038093980390939903812F28960FB610
:10269000F894DEBF0FBECDBFDF91CF911F91FF90A9
:1026A000EF90DF90CF9008958F929F92AF92BF925C
:1026B000EF92FF921F93CF93DF93CDB7DEB72997A9
:1026C0000FB6F894DEBF0FBECDBF7B0190E080E077
:1026D0000E945031182F882309F485C0809103018E
:1026E000482F50E0882311F041E050E06091040150
:1026F0007091050161597C4FCE0105960E94A3326D
:102700008090670390906803A0906903B0906A037B
:102710000E943607DC01CB0188199909AA09BB0977
:1027200084369105A105B10540F480E793E00E944D
:10273000B8059D81891709F456C081E090E00E9498
:10274000503181111FC010E08091630390916403A8
:10275000A0916503B0916603F70180839183A28302
:10276000B383812F29960FB6F894DEBF0FBECDBF7D
:10277000DF91CF911F91FF90EF90BF90AF909F900E
:102780008F90089580910B01482F50E0853010F014
:1027900044E050E060910C0170910D0161597C4F53
:1027A000CE0101960E94A33280E793E00E94B80513
:1027B0009D818913C8CF0E94360760936703709389
:1027C00068038093690390936A0389819A81AB813E
:1027D000BC818093630390936403A0936503B093DB
:1027E000660311E0B1CF8091700390917103A091C5
:1027F0007203B091730389839A83AB83BC831111F5
:10280000E4CFA2CF1F920F920FB60F9211242F93F5
:102810003F934F935F936F937F938F939F93AF9368
:10282000BF93EF93FF938091E10082FF09C08091F5
:10283000E20082FF05C08091E1008B7F8093E10080
:102840008091DA0080FF24C08091D80080FF20C0F2
:102850008091DA008E7F8093DA008091D90080FF2A
:10286000A9C080E189BD82E189BD09B400FEFDCF28
:1028700081E08093C6058091BB05811109C00E944B
:10288000CF050E9470068091E20084608093E20090
:102890008091E10080FF1AC08091E20080FF16C0A5
:1028A0008091E2008E7F8093E2008091E20080615F
:1028B0008093E2008091D80080628093D80019BC98
:1028C00085E08093C60583E08093AB018091E100B1
:1028D00084FF2FC08091E20084FF2BC080E189BD7E
:1028E00082E189BD09B400FEFDCF8091D8008F7DC3
:1028F0008093D8008091E1008F7E8093E1008091E9
:10290000E2008F7E8093E2008091E20081608093FC
:10291000E2008091C705882309F452C084E08093C7
:10292000C6058091C605843009F452C081E08093C9
:10293000AB018091E10083FF2CC08091E20083FF16
:1029400028C08091E100877F8093E10082E080933E
:10295000C6051092C7058091E1008E7F8093E1004B
:102960008091E2008E7F8093E2008091E20080619E
:102970008093E20042E060E080E00E943E068091A9
:10298000F00088608093F00081E08093AB01809339
:10299000AA01FF91EF91BF91AF919F918F917F918C
:1029A0006F915F914F913F912F910F900FBE0F90BC
:1029B0001F90189519BC1092C6051092BB0568CFE0
:1029C0008091E30087FD02C081E0A9CF83E0A7CF1B
:1029D00082E0ADCF78941F921FB61F9211248F937F
:1029E0009F93AF93BF938091B7059091B805A09145
:1029F000B905B091BA050196A11DB11D8093B70527
:102A00009093B805A093B905B093BA05BF91AF9163
:102A10009F918F911F901FBE1F9018952FB7F8940C
:102A20008091B7059091B805A091B905B091BA050C
:102A30002FBF0895CF93DF93EC01F0DF8C1B9D0B2C
:102A4000DF91CF910895A0E1B0E0E9E2F5E10C94C7
:102A5000DA311A821982FE01339686E0DF011D9277
:102A60008A95E9F78BEEE82E81E0F82E10E000E081
:102A7000CC24C394D12C25EFA22E21E0B22EF70155
:102A800081917F018F3F09F445C0F894E82FE295CA
:102A9000EF70F0E021A18F70A60102C0440F551F16
:102AA0008A95E2F7CA01922F982B91A392A1809563
:102AB000892382A3789400C0EFEEF1E031E0912CFD
:102AC00021912F3F09F4C1C0A22FA295AF70B0E0B1
:102AD00090968C9190E02F7002C0959587952A95DD
:102AE000E2F780FDB2C0832F982A330FAE16BF06DF
:102AF00039F7F701319780818F3F11F00E940A0B5F
:102B000050EA5A95F1F7E1E0F0E0EC0FFD1FE00F1D
:102B1000F11F90820F5F1F4F0430110509F0AFCFF6
:102B200048E050E0BE016F5F7F4F8BEB93E00E9467
:102B300096329C01892B49F088E0FE013196ABEB7F
:102B4000B3E001900D928A95E1F70091C40310E083
:102B500009531C4F232B09F47AC081E080935B0357
:102B60005DDF90935A0380935903F12CE090D005D8
:102B7000EE2009F4C7C01A8619861C861B86809130
:102B8000B6038A3008F088C044E553E1BE01675FB0
:102B90007F4FC8019ADA882309F4A4C044EE52E1B9
:102BA000BE01675F7F4FC80190DA882309F49AC09D
:102BB00042EF52E1BE01675F7F4FC80186DA88238A
:102BC00009F490C049E352E1BE01675F7F4FC8013D
:102BD0007CDA882309F486C043EC52E1BE01675FCA
:102BE0007F4FC80172DA882309F47CC04BE152E1BF
:102BF000BE01675F7F4FC80168DA882309F472C09D
:102C00004AE852E1BE01675F7F4FC8015EDA882360
:102C100009F468C01092B6038091C30390E044E0C9
:102C200050E0BE01675F7F4F89539C4F0E949632F0
:102C300021E020936203892B09F046C0E12C8E2D00
:102C40008F296096ECE00C94F63180E04DCFF09047
:102C50005B03FF2009F489CFC0905903D0905A0339
:102C6000DDDE8C199D09059708F47FCF44E050E024
:102C70006BEB73E0C8010E949632892B59F084E017
:102C8000EBEBF3E0D80101900D928A95E1F71092F9
:102C90005B036CCFF12CFBCFC0905C03D0905D0345
:102CA000BDDE8C199D09843F914008F06DCF809165
:102CB0006203882319F2FE01399684E0DF011D9238
:102CC0008A95E9F710926203E091C303F0E0E953BB
:102CD000FC4F89859A85AB85BC8580839183A283CF
:102CE000B383ADCF8091B6038F3F31F08F5F809378
:102CF000B6038A3008F490CF91DE90935D03809301
:102D00005C03D5CFC090C303D12CF601E953FC4F2F
:102D10006F01F80180819181A281B381809370035A
:102D200090937103A0937203B093730380E793E0D1
:102D30000E94B80580936F0380917403909175038E
:102D4000A0917603B0917703F60180839183A283EB
:102D5000B3838090780390907903A0907A03B09029
:102D60007B0380915E0390915F03A0916003B0911B
:102D7000610388169906AA06BB06B1F080925E032D
:102D800090925F03A0926003B09261030E943607A5
:102D9000861A970AA80AB90A8092B7039092B803D4
:102DA000A092B903B092BA0380917C0390917D0305
:102DB000909331048093300480917E0390917F033F
:102DC0009093C6038093C50388E0E0E8F3E0A3E2B4
:102DD000B6E001900D928A95E1F7109188031123D6
:102DE00049F080916204811105C00E944F0A80E081
:102DF0000E9417091093620480918903882391F13E
:102E0000C4D98091920390919303A0919403B091BF
:102E1000950340918E0350918F03609190037091C0
:102E2000910300918A0310918B0320918C033091C0
:102E30008D030093E0031093E1032093E2033093AA
:102E4000E3034093AA035093AB036093AC037093E6
:102E5000AD038093AE039093AF03A093B003B09300
:102E6000B103EDCE78D9CDCFCF93C82F8091B505E2
:102E700082FF0BC0809156038C1739F0CFDD909301
:102E8000550380935403C0935603CF910895CF9375
:102E9000C091100580913705C82B80915603882377
:102EA00001F1BCDD2091540330915503821B930B3B
:102EB000883E934010F00E94760D80915603C82BF7
:102EC0008091AA01813081F48091B40587FF0CC004
:102ED0002EE188EE92E030E0215050F431110E9452
:102EE000760D8C2FCF91089526E080EE92E0F3CFFF
:102EF000FC014191CF01442379F33F5FEDCF8091F5
:102F0000AA01813061F58091B40587FF28C0BFDF39
:102F10008093E70240E250E06CE273E086EE92E0DC
:102F20000E949632892BD1F080E2E6EEF2E0ACE22C
:102F3000B3E001900D928A95E1F7E091B005F09130
:102F4000B105309759F00480F581E02D309731F0CC
:102F500086E08093E60286EE92E00995089597DF79
:102F60008093DE0248E050E06CE473E08EED92E086
:102F70000E949632892B91F388E0EEEDF2E0ACE40A
:102F8000B3E001900D928A95E1F7E091B005F091E0
:102F9000B105309719F30280F381E02D3097F1F2FB
:102FA0008EED92E0DACF80916001877F809360019F
:102FB000909137059D7F9093370584FF08C08F7EE1
:102FC000809360018091100582608093100580914C
:102FD000600185FF08C08F7D80936001809110059E
:102FE0008062809310058BCF109210058091AA010A
:102FF0008130B1F48091B40587FF12C0E8EEF2E0B1
:103000008EE1DF011D928A95E9F790E080E00E9451
:10301000DF0790E080E00E94B707109237056FCF7E
:10302000E0EEF2E086E0EDCFAAE2B0E0EAE1F8E11E
:103030000C94E33188EC95E0FC0101962091F100BD
:10304000208325E0803D9207B9F78091C90589303A
:1030500009F459C0C8F4823009F4B5C0833009F4CA
:1030600084C0813089F18091E80083FF86C280911D
:10307000C8059091C9059A3008F07FC2E92FF0E0A9
:10308000E850FD4C0C9468328A3009F48BC08B30C8
:1030900051F78091C805813231F78091CC0590912C
:1030A000CD05892B01F78091E800877F8093E800A8
:1030B0000E941F0681E09091CA05911101C080E035
:1030C0008093AA0191DFCFCF8091C805813A59F64C
:1030D0008091E800877F8093E8008091CC059091F3
:1030E000CD05892B61F468E08CEB95E070E00E94DF
:1030F000CA068091E8008B778093E800B4CF60E047
:1031000090E080E0F3CF8091C805813209F0ABCF29
:103110008091CC059091CD05029708F0A4CF8091C5
:10312000E800877F8093E8008091E80082FF18C064
:103130009091F3008091F200029731F48091F100B8
:10314000813011F0863021F48091F1008093A90143
:103150008091E8008B778093E8000E941F0683CF60
:103160008091C6058111E0CF7ECF8091C805813A5C
:1031700009F079CF8091CC059091CD05892B09F08C
:1031800072CF8091E800877F8093E8008091E8000B
:1031900080FFFCCF8091AA018093F1008091E8002C
:1031A0008E77D9CF8091C805813209F05CCF8091AC
:1031B000E800877F8093E8000E941F068091CB057E
:1031C0008093A80150CF8091C805813A09F04BCF78
:1031D0008091E800877F8093E8008091E80080FF7D
:1031E000FCCF8091A801D8CF803899F0823809F0BF
:1031F000C4C18091CC058F70873008F0BEC1809328
:10320000E9008091EB0085FB882780F91092E900A6
:1032100006C08091C4059091C5059111826090917E
:10322000E800977F9093E8008093F1001092F100FE
:103230008091E8008E779DC1882309F48BC182308C
:1032400009F09BC18091CA0581118EC18091CC0586
:103250008F702FEF280F263008F08FC18093E90080
:103260002091EB0020FF80C1933031F48091EB007E
:1032700080628093EB0078C19091EB009061909315
:10328000EB0021E030E001C0220F8A95EAF720939D
:10329000EA001092EA008091EB008860EACF811189
:1032A0006CC11091CA051F778091E3008078812B53
:1032B0008093E3008091E800877F8093E8000E947C
:1032C0001F068091E80080FFFCCF8091E3008068BA
:1032D0008093E30082E0111183E08093C6054DC125
:1032E0008058823008F049C14091CA055091CB0501
:1032F0004C3D83E05807A1F583E08A838AE2898305
:103300004FB7F894DE01139620E03EE051E2E32F40
:10331000F0E050935700E49120FF03C0E295EF7076
:103320003F5FEF708E2F90E0EA30C0F0C7968D932C
:103330009D932F5F243159F74FBF8091E800877F1D
:103340008093E8006AE270E0CE0101960E94CA060E
:103350008091E8008B778093E8000FC1C096E7CF9B
:103360002091CC053091CD05852F9927833091058B
:1033700009F160F48130910509F472C0029709F0F7
:10338000FCC08BE390E0E2EFF4E029C081329105CC
:1033900009F45AC0829709F0F0C02115310509F4EB
:1033A00069C02130310509F0E8C08DE690E0E1E424
:1033B000F4E015C0CA0199274130B1F1823091057E
:1033C00009F43AC0892B09F0D8C0EFE5F5E0E491A3
:1033D0008E2F90E0EFE5F5E0009709F4CEC0209144
:1033E000E800277F2093E8002091CE053091CF059B
:1033F0008217930708F49C0140E02115310509F07C
:103400003EC041113CC08091E80082FDA1CF809177
:10341000C605882309F49CCF853009F499CF8091A3
:10342000E80083FFF0CF94CFEDE4F5E0E4918E2F38
:1034300090E0EDE4F5E0D0CFEFE3F5E0E4918E2FFE
:1034400090E0EFE3F5E0C8CF2115310571F02130B0
:10345000310509F092C089E090E0EDE1F5E0BFCFE1
:1034600082E190E0EDE2F5E0BACF89E090E0E4E0BF
:10347000F5E0B5CF84E490E0EEEAF4E0B0CF8091DF
:10348000C605882309F464CF853009F461CF8091A3
:10349000E80083FD5DCF8091E80082FDB4CF80918C
:1034A000E80080FFAACF9091F3008091F2002115EF
:1034B000310519F08830910550F041E0089709F086
:1034C00040E08091E8008E778093E80096CF4491A9
:1034D0004093F1003196215031090196E8CF8038B0
:1034E00009F04BC08091E800877F8093E8008091CD
:1034F000C7058093F1009CCE81113FC01091CA0591
:103500001230D8F58091E800877F8093E80010930F
:10351000C7050E941F06112311F084E005C08091A9
:10352000E30087FDFACF81E08093C60542E061ECBD
:1035300081E00E943E0642E261EC82E00E943E068B
:103540008091C605843021F081E08093AB0115C0E5
:1035500082E0FBCF8091CA05813079F481E093301D
:1035600009F080E08093C5051092E9008091E800A1
:10357000877F8093E8000E941F068091E80083FF08
:103580000AC08091E800877F8093E8008091EB007B
:1035900080628093EB00AA96E3E00C94FF311F92C7
:1035A0000F920FB60F9211242F933F934F935F9377
:1035B0006F937F938F939F93AF93BF93CF93DF933B
:1035C000EF93FF93D091E900DF708091EC00C82F5A
:1035D000C17080FDC0E81092E9008091F000877F03
:1035E0008093F000789420DD1092E9008091F00043
:1035F00088608093F000CD2BCF70C093E900FF91DD
:10360000EF91DF91CF91BF91AF919F918F917F917A
:103610006F915F914F913F912F910F900FBE0F903F
:103620001F901895E1DC88E19AE00FB6F894A89510
:10363000809360000FBE90936000FFCF882339F025
:1036400080959091370589238093370558CC08954C
:10365000882331F090913705892B809337054FCC23
:103660000895882319F00E94810D49CC089588237C
:1036700031F090911005892B8093100540CC08956E
:10368000882321F19CEF980F913A18F40E94560775
:1036900036CC90E2980F983050F4877091E001C0DA
:1036A000990F8A95EAF7892F0E94810DF1CF9BE54A
:1036B000980F933020F490E080E00C94DF07885A54
:1036C0008B3120F490E080E00C94B7070895CF93FD
:1036D000DF93EC01D5DFCE010E94DC0E9E01205E5F
:1036E00031092830310510F0CD2B21F4BADFDF91FC
:1036F000CF910895A3DFFBCFCF93C82F8823A9F1E3
:103700008CEF8C0F813A98F58091AA018130F9F401
:103710008091B40587FF1BC0EC2FE695E695E695F2
:10372000F0E0EA51FD4F828190E04C2F477021E09C
:1037300030E002C0220F331F4A95E2F78223932321
:10374000892B79F08C2F0E945607D9DB0AC0E0EE56
:10375000F2E086EE92E02191C217A1F38E179F0747
:10376000D1F78C2F0E948307CADBCF91089580E2A6
:103770008C0F883068F4C77021E030E001C0220F60
:10378000CA95EAF780911005822B80931005ECCF43
:103790008BE58C0F833038F42C2F2452330BC90166
:1037A0000E94DF07E2CFC85ACB31F8F6EC2FF0E0E9
:1037B000EE0FFF1FED54FE4F808191810E94B707ED
:1037C000D4CFEF92FF920F931F93CF93DF93C62F27
:1037D000D42F122FFC018581882399F06093220653
:1037E0001DD99093210680932006C77081E001C007
:1037F000880FCA95EAF73BDFCDB7DEB7E6E00C9459
:10380000FC318091220668132FC0E0902006F090D2
:10381000210604D98E199F09843B910528F500E201
:103820000D0FCD1799F0C770FF24F3948F2D01C0B1
:10383000880FCA95EAF715DF083040F48D2F87709E
:1038400001C0FF0C8A95EAF78F2D11DF812F54DF1D
:10385000812F16DF083080F6D77081E001C0880F15
:10386000DA95EAF7FEDEC8CFC77081E001C0880FA5
:10387000CA95EAF7F7CFCF93DF93EC010E94DC0EF5
:103880009E01205E31092830310510F0209731F477
:10389000EEDE8C2F31DFDF91CF910895D9DEF9CFA5
:1038A000B0E0A0E0E6E5FCE10C94DE31EC017B0148
:1038B0008091600182FF7CC0009133051091340536
:1038C0000C171D0719F0209709F072C08091600154
:1038D0008B7F80936001C1E081FD0CC08091310538
:1038E000909132059701281B390BC1E02C3D310521
:1038F00008F4C0E0C17080916001C0FB81F9809341
:1039000060016801DD24F60184E0F695E7958A956B
:10391000E1F7EE0FFF1FEF5EFA4F20813181A80122
:103920004F70552781E090E002C0880F991F4A959B
:10393000E2F7CC23C1F1822B932B9183808380917A
:10394000100581FF08C08091600180618093600153
:1039500082E00E94810D8091100585FF08C0809152
:10396000600180628093600180E20E94810DCC231F
:1039700029F080913705826080933705C801905205
:103980008115904308F48601C80175DF80913305E5
:10399000909134059C0130522115304308F4992749
:1039A00096DE01DB14C08095909582239323C5CFCA
:1039B000CE0190528115904398F4CE01992787DE6D
:1039C0008091330590913405C817D90751F3F092CF
:1039D0003205E0923105CDB7DEB7E8E00C94FA315C
:1039E000CE01EDCF0F931F93CF93DF938C01EB01AB
:1039F00042DF209739F4C8016ADEDF91CF911F9131
:103A00000F9108958FE99FE00197F1F700C0000042
:103A10002197EFCFB0E0A0E0E0E1FDE10C94DE31D2
:103A20008C01FC018481882309F4F1C061E0C801A4
:103A30000E94B00EEC01F8014581442309F47FC5D2
:103A40009C013A9599272115FFE43F0738F090E053
:103A500080E0CF3FD10509F008F4CE01BC016450ED
:103A600071096432710518F08B970E9780F4E0911C
:103A7000EA03F0E0EE0FFF1FE151FC4F80819181DE
:103A80008F3F5FE7950719F0019691838083F801D6
:103A9000818180933C04808180933B0480E2809309
:103AA0005601D0933A04C0933904CE019052811547
:103AB000904208F462C0CE0190548115904108F004
:103AC00077C0F8018681807F09F472C0FE01FF276C
:103AD000ED33F10508F46DC50E940E15D82EE92EC0
:103AE000F8018581882309F4AFC08091600182FFCD
:103AF00007C041E254E06D2D792F90E080E0D0DEE8
:103B0000C431FCE7DF0709F49BC0C5312CE7D207BD
:103B100009F48CC0C3313CE7D30729F480916001DC
:103B2000816080936001CE0190528115904308F02E
:103B300099C01092340510923305F80195819923AC
:103B400009F420C5109222069E0130572332310518
:103B500008F004C584E090E00E94C4329093B5055B
:103B60008093B405FE01E150F047E232F10508F020
:103B700015C1EE5FFC4C0C946832F8018681807FA1
:103B800009F40CC5FE01FF27CD3308F412C5C93175
:103B9000F2E3DF07B9F4F8018681807F09F49CCF56
:103BA000442309F499CF70E060E089E198E01FC0F8
:103BB00021153F4108F48ACFCE01805A9245809763
:103BC00008F0F2C4C0342EE7D20731F1C63038E233
:103BD000D30709F081CFF8018681807F09F47CCF7B
:103BE00070E060E086E098E0442309F475CFFADEE7
:103BF00080912B03877059F0F8018581882339F073
:103C00008091B50582FF03C082E00E94570ECDB7B8
:103C1000DEB7E8E00C94FA3180916C04882319F047
:103C20000E94AB10E5CF0E94C510E2CF90916001D9
:103C3000892F8E7F90FF816080936001B4D973CF0C
:103C4000809160018E7FF8CF809160018F7EC13EB0
:103C5000D10531F0C53ED105C1F4809160018F7D61
:103C6000809360018091600180FF14C0F80185811C
:103C70009E01245031092A313105B8F0882351F0D2
:103C8000109234051092330505C0CE019052811573
:103C9000904340F7FE01E851FC47E730F10508F09A
:103CA0004CCFEC5DFC4C0C946832882309F453C073
:103CB00080915603F0901005F82A9F2D9D7F51F1B9
:103CC0001092340510923305FE0124E0F695E79535
:103CD0002A95E1F7EE0FFF1FEF5EFA4F9E012F705E
:103CE000332781E090E002C0880F991F2A95E2F700
:103CF00080959095208131818223932391838083C5
:103D0000CE01B9DD809156038D7FAED882E00E944E
:103D1000570E6ECF99E0A1E2B4E001900D929A9512
:103D2000E1F710922404109223048D7F9DD8D09344
:103D30003405C0933305D0923105E09232058F2DC2
:103D400082708460F0906001FF2DF97FFF2EF82AC9
:103D5000F0926001DBCFA8016D2D7E2DCE01A0DD9C
:103D600047CF26E241EE61EEC8012BDD41CF27E2CD
:103D700045EE65EEF9CF26E241EE60EEF5CF27E2A3
:103D800045EE64EEF1CF26E241EE62EEEDCF27E2A2
:103D900045EE66EEE9CF28E241E0EBCF8091B40535
:103DA00081608093B4056091B4057091B50584E09D
:103DB00090E00E94F23218D91BCF8091B50588603F
:103DC0008093B505F0CF8091B4058260EACF8091F1
:103DD000B4058460E6CF8091B4058860E2CF80911D
:103DE000B5058160EDCF8091B5058260E9CF809106
:103DF000B4058061D6CF8091B4058062D2CF809126
:103E0000B4058064CECFF0D88091B4058068C9CF66
:103E10008091B4058C60C5CF8091B5058360D0CF0B
:103E20008091B4058E7FBDCF8091B505877FC8CFC7
:103E30008091B4058D7FB5CF8091B4058B7FB1CFD4
:103E40008091B405877FADCF8091B5058E7FB8CFC7
:103E50008091B5058D7FB4CF8091B4058F7EA1CFC1
:103E60008091B4058F7D9DCF8091B4058F7B99CFD4
:103E7000BBD88091B4058F7794CF8091B405837FB0
:103E800090CF8091B5058C7F9BCF8091B40582FB4C
:103E9000992790F921E0922790FB82F990FB83F912
:103EA00080CF8091B505982F909591708E7F892B4A
:103EB00090FB81F985CF9091B405892F8F7B96FF78
:103EC00080646FCF91D89091B405892F97FB87F9C3
:103ED000805867CF61E08EE090E00E94D83263CFD7
:103EE00060E0F9CF9091B405892F8F7E94FF8061B7
:103EF00058CF9091B405892F8E7F90FF816051CF6C
:103F00009091B505892F877F93FF886059CF85E30E
:103F100034C385E340C30E94FA086ACE882391F136
:103F20000E94E70865CE882391F10E94D70860CEF1
:103F3000882391F10E94C1085BCE882391F10E94F1
:103F4000AB0856CE882391F10E94990851CE8091FA
:103F50002306837011F41092AF01809123068C7FA9
:103F60008160809323060E94700542CE80912306D3
:103F7000837011F01092AF01809123068C7FF1CFF6
:103F8000882371F20E94F10833CE882371F20E94D7
:103F9000DF082ECE882371F20E94CC0829CE882318
:103FA00071F20E94B60824CE882371F20E94A20802
:103FB0001FCE882329F00E946A081ACE8823D9F3DD
:103FC0000E94830815CE9E01205E324520323105C5
:103FD000A8F4911122C0CF7181E090E09C0102C051
:103FE000220F331FCA95E2F7E901622F83E090E0C8
:103FF0000E94D832CE010E947F0EFACD992379F12A
:1040000080E0CB353CE7D307F1F0CC355CE7D50752
:1040100099F0CA358CE7D807C9F0C130ECE7DE0764
:10402000E9F0C330FCE7DF0799F0C115DC47B9F4CC
:104030000E94F4170E9425078091B50582FB88270E
:1040400080F991E089270E949411D2CD81E0FBCFC5
:104050006FEF7FEF90E080E00E94F232E3DAF80148
:10406000278130852115310509F456C0C9010E9408
:10407000650CD82FC92FF801C580F680F2949FE017
:10408000F92280912B03877001F1DC2CCC20F1F018
:104090008C2F807F803461F080E28D0F8830A8F013
:1040A0008C2F807E803221F4D23078F0FF2069F0AE
:1040B0008091B50582FF09C082E00E94570E809171
:1040C0002B038770DD24D3948111D12CEC2EE29444
:1040D0008FE0E822F8E0EF1609F41EC1FE1508F49F
:1040E00042C023E02E1570F18C2F807FCF7031E01D
:1040F0003E1508F04BC0803211F0C295C07FDD2321
:1041000009F479C0D13009F4CDC0CC2009F4D8C06D
:10411000FF2009F48CC04FC0E080F180992369F042
:10412000C7010E94930DC82F682FC7010E94040E7B
:10413000B7018C2F0E94470C9ACFC7010E94D10D66
:10414000C82FF6CF54E0E51609F4CAC0EE2DE850AA
:10415000FF0B349708F0DBC10E94070860E0C8013C
:104160000E94B00E54CD89E0E81609F45FC186E0E4
:104170008E0D8F70823050F7D23F09F065C18C2FC1
:104180008F71C1105EC10E94710EE0CF882311F0C3
:10419000C295C07FCC20B9F0CC2369F080E28D0FAE
:1041A000883010F0D11109C080911005C82BC09340
:1041B00010050E947F178D2F2EC080913705C82BC8
:1041C000C0933705F6CF8D2F5BDACC2309F4BECF31
:1041D00080E28D0F883010F0D11104C08C2F0E9426
:1041E000810D06C0C09580913705C823C09337055F
:1041F0000E947F17ABCF8091B50582FD14C0CC2003
:1042000061F0CC2339F080911005C82BC0931005C4
:104210000E947F1780E070DA99CF80E031DACC23FA
:1042200009F494CFDBCFCC20C9F0F11003C08C2F60
:104230001EDA8CCF91E0F91289CFD09156038C2FE2
:104240008D23C81709F482CF0E940E159093550351
:1042500080935403CD2BC093560378CFF11076CFC3
:104260008C2FFFD9909156038C2F892369F08C2FC6
:104270008095892380935603882389F00E940E1528
:104280008093540390935503809107039C2F9823A8
:1042900009F45CCFC095C823C093070357CF80E0D3
:1042A00090E0EECFCC2029F0E5E0EF1508F44ECFFA
:1042B000BECFF4E0FF1508F449CF8C2FD2D946CFFA
:1042C000FF20D9F3D93349F42FEF37EE53E02150D3
:1042D00030405040E1F700C000008D2FD1D936CFDB
:1042E0008C2F86958695837069F0813009F02ECFEA
:1042F0008D2F9C2F9370C11002C080E090E00E942F
:10430000B70724CF8D2F9C2F9370C11002C080E07F
:1043100090E00E94DF071ACF8C2F837009F040C015
:10432000C11014CF4D2F429546954770440F440F4E
:104330002D2F2F7030E0042E02C0220F331F0A945D
:10434000E2F790E080E0D4FF09C08FE090E002C087
:10435000880F991F4A95E2F780959095C695C69566
:10436000C370C230A1F0C33079F04091C5035091C1
:10437000C603C13039F0822B932B842395230E94EE
:104380007F0EE4CE242B352B822B932BF8CF822B60
:10439000932B2091C5033091C60382279327EFCF3B
:1043A0008695CC2011F08C2F8170882309F4CECE15
:1043B0004D2F429546954770440F440F2D2F2F7077
:1043C00030E0042E02C0220F331F0A94E2F790E07F
:1043D00080E0D4FF09C08FE090E002C0880F991FF1
:1043E0004A95E2F780959095C695C695C370C23000
:1043F000A1F0C33079F04091300450913104C130C4
:1044000039F0822B932B842395230E943A0E9ECE63
:10441000242B352B822B932BF8CF822B932B20919F
:1044200030043091310482279327EFCFCF70CC2016
:1044300029F08C2F0E94710E8D2FFACE8D2F11D95D
:104440008C2F0E94470E82CED33F60F4D03FB9F04C
:10445000D13F81F0CC2009F455C0F110ACCE8C2FA7
:104460008F7191CED33FF9F0D43FA1F79091B5056C
:1044700092FD27C08C2F8F71CC2019F384CECC20D5
:1044800069F084E08F1508F461CECF7181E090E08F
:1044900002C0880F991FCA95E2F7C1CF95E09F151A
:1044A00008F454CEF2CF90E080E0CC2009F4ADCFF8
:1044B000CF7181E090E002C0880F991FCA95E2F7A2
:1044C000A4CFCC20A1F08C2F8F7192FF5CCEE8E0BE
:1044D0008E9F90011124236020932B030E94710E64
:1044E0000E940E1590932A03809329032FCE81E01A
:1044F0000E94570EF1E0FF1508F028CE82E00E94DE
:10450000570E24CEF110DECE8C2F8F719ACFDD2086
:1045100009F424CE80912B0380FD20CEF801158272
:104520008695869586950E94710EC80173DA8091F2
:104530002B038695869586950E94470E0FCE89316E
:1045400022E3920709F427CB80343EE7930709F46E
:104550004FCB8630984209F0BFCA3DCB8091100501
:10456000C631ECE7DE0759F58A7A91E009F490E06C
:10457000909306038111CBCC89E20E9483070E94AD
:104580007F1736CBC631FCE7DF0729F5809106039C
:104590008111BFCC89E20E945607F1CFC93122E3D5
:1045A000D20709F013CBF7CAFE01CD33D10508F0CD
:1045B00009CBE851FF4FE491E0935601E8CA8272BB
:1045C000FE01E052F847EB30F10508F0FCCCE55D68
:1045D000FC4C0C946832809110058272FE01E0540C
:1045E000F847EF30F10508F0EECCEA5CFC4C0C9497
:1045F0006832CF93DF9380912603807F09F04CC00F
:1046000080912503882309F447C0E0911F0650914B
:10461000D605C0912103D0912003609122037091AF
:10462000230349E05E17C1F18E2F90E0E49FF00173
:104630001124E952FA4F2481222389F1489FF00185
:10464000499FF00D1124DF01A952BA4F11962C9108
:1046500011972C1324C02C912D1321C015962C9149
:10466000159721111CC012962D913C91261B370BDA
:10467000243B3105A0F4809126038F7080618093E4
:104680002603E352FA4F80818F708061808380E23D
:1046900093E0C0D90E94890DDF91CF910895FC016C
:1046A0003196E770BFCFAFE0B0E0E9E5F3E20C94FC
:1046B000DA318C0186E0F801DE011A9601900D9244
:1046C0008A95E1F7F8018481E58090E2A92E93E0D4
:1046D000B92E90912403911126C0882309F1EE2070
:1046E000E9F0C8010E94840EF82E8823B9F089E011
:1046F000F801D50101900D928A95E1F7809124038C
:10470000813031F480912003909121030E94C50DE6
:1047100070DF8F2D2F96ECE00C94F631C8017AD91A
:10472000FF24F394F6CFD080C18082809380F090F4
:1047300025032091220330912303A401421B530B34
:10474000FF2009F4E3C0443B510508F0B1C08823C1
:1047500001F39091210380912603282F207F09F0F7
:104760005DC0C9121CC090912003D91218C040919D
:10477000270350912803278130854217530779F486
:10478000E11046C08F7080618093260380E293E041
:1047900041D980912603F8018683F12CBACFE1102C
:1047A00037C06C2D8D2D0E949A056C2D8D2D0E9489
:1047B0009A05E82E8111F1CFDA86CB868A859B8512
:1047C0000E94C50D292F22952F70903458F49F70A8
:1047D000223080F0992391F0F8019681907F71F456
:1047E000FE2C97CF2A5F2F70223060F0C80112D9BB
:1047F000EF2CF6CF992311F0882391F3805E883057
:1048000078F3F4CF803F60F3815F833048F3EECFDD
:1048100080912603816080932603BFCFC9121BC0FD
:1048200090912003D91217C040912703509128037B
:10483000278130854217530771F4E1100CC086833D
:10484000C801E8D889E0F801A0E2B3E001900D9238
:104850008A95E1F75ECFC8010E94840E882309F48F
:104860005DCFEE2009F45ACF809126038032B0F05C
:1048700020912003309121033A8329839C828B82EB
:10488000909124039D831E828F83809127039091B2
:10489000280399878887CE010196BCD889E0F80162
:1048A000A0E2B3E001900D928A95E1F7A2DE38CF45
:1048B00090912603292F207F49F480E293E0AAD823
:1048C00089E0F50111928A95E9F767CF882309F409
:1048D00020CF809121038C11BECF80912003D8126C
:1048E000BACF409127035091280327813085421782
:1048F000530709F0B0CFE110AECF9683C8018AD834
:1049000089E0F50111928A95E9F703CF443B5105FF
:10491000B8F7882309F404CFFE2CEE2009F4FECE6C
:10492000809121038C110FC080912003D8120BC0FD
:104930002091270330912803878190852817390714
:1049400011F489E081CFC8010E94840E8111A6CFA5
:1049500080912603816080932603C8015BD8D9CE5D
:10496000A2E1B0E0E6EBF4E20C94E2310A871B87A7
:104970002C873D874E875F87688B798B8A8BCE012A
:104980000A9691DE81110CC089E0FE013A96DE01A3
:10499000119601900D928A95E1F74E8541110BC059
:1049A00019E080911F069091D605891332C0629656
:1049B000E4E00C94FE312091D60530E0C901019667
:1049C0008770992750911F0658171906A1F04D833B
:1049D00099E0929FD001939FB00D1124A952BA4F34
:1049E000FE01319601900D929A95E1F78093D605DC
:1049F0000E94890DD5CF0E94F4171092D60510920F
:104A00001F0689E0E0E2F3E0DF011D928A95E9F7F5
:104A1000C7CF819FC001112489529A4F44DE882359
:104A200031F280911F0690E001968770992780935C
:104A30001F06B7CFEF92FF920F931F93CF93DF9391
:104A400080913905882361F0E09138058DE0F82EDA
:104A500080913905E81748F0109239051092380511
:104A6000CDB7DEB7E6E00C94FC31EE24E394EE0E15
:104A7000E0923805CE2FD0E0EF9DF0011124E65CE6
:104A8000FA4F84818823E1F087819085892B21F476
:104A900081859285019651F40081118122813381B3
:104AA000448155816681778180855ADFFC9EF001C3
:104AB000FD9EF00D1124E65CFA4F1482109237052A
:104AC000EE2DC6CF1092AD051092AC051092A70145
:104AD0008091AB058093AA050E944B08ABCFA9E05B
:104AE000B0E0E5E7F5E20C94E0317B01DB011296E2
:104AF0008D919C91892BC1F087E0FE013196DF01F9
:104B00001D928A95E9F70E940E15282F8B839C83AE
:104B1000F70182819381782F09811A813C8144E0D9
:104B20005E816F81892F1CDFD70115961C92299613
:104B3000E6E00C94FC31B0E0A0E0E1EAF5E20C9490
:104B4000D431C091AA05E7E08E2EEE24E394F12C37
:104B5000ADE09A2EB4E02B2E8091AB058C1308C0EB
:104B600069DF0E944B08CDB7DEB7E2E10C94F0316B
:104B7000D0E0FE01EE0FFF1FEE55FA4F00811181CC
:104B8000B0E0A0E00A30110538F4809ED001819E8B
:104B9000B00D1124AF59BE4F14968C91149781110A
:104BA00058C0309039052AE335E090E080E0412C90
:104BB000831508F04BC0F901C384D4846D907C90B8
:104BC00011974FEF5FEF512CA52CB12CF501EE0F93
:104BD000FF1FE60DF71D65917491C616D70609F4FF
:104BE000A501672B11F05394EFCF4F3F5407B1F15C
:104BF000B70102C0660F771F4A95E2F7462AA70160
:104C0000052C02C0440F551F0A94E2F74150510988
:104C10004416150609F512962D913C911397989E0E
:104C2000F001999EF00D1124E65CFA4F308727833E
:104C30002482108211821287018771E015967C937D
:104C40001597571203C0BD01C80149DFC8010E9472
:104C50001A082196C37080CFF90114820196235F50
:104C60003F4FA6CFAAE1B0E0E8E3F6E20C94D431DE
:104C70004B8B5C8B6D8B7E8B8F8B988F91111092F1
:104C80003705188A198A1A8A86E0FE017396DE01B2
:104C90001A9601900D928A95E1F78091B50582FFF1
:104CA0001CC00E940E152091290330912A03821BFB
:104CB000930B883E934020F080912B0382FFDCC150
:104CC0000E940E152091540330915503821B930BC3
:104CD000883E934010F00E94760D8E858823C9F09F
:104CE00061E0CE010A960E94B00E61E0CE010A9604
:104CF0000E94B00E61E0CE010A960E94B00E80358F
:104D00004CE7940789F48F85882311F181E0809323
:104D1000A7010A851B852C853D854E855F856889A1
:104D200079898A891DDED3C081356CE7960729F41D
:104D30008F85882369F0C6DEECCF82359C4741F42D
:104D40008F85882329F08091A7018111F4CFDECFD0
:104D50006A857B8580E00E94470C1C0101E611E01A
:104D6000E12CD12CC12C88248394912CF8016081F2
:104D70007181AA24AA94BA2C20E0422F50E0FA01B3
:104D8000EE0FFF1FE60FF71F859194912816390645
:104D900009F45A01892B11F02F5FEFCF80E0FFEF6C
:104DA000AF16BF0609F455C0F8014481F090A70181
:104DB0008F2D411180E0F82FF170FF2E3F85F80113
:104DC00095818681332309F406C1FF2009F403C1CC
:104DD00078E2672E712CF8E0CF16D10419F46EE159
:104DE000662E712C911114C0A4010A2C01C0440F2D
:104DF0000A94EAF7842BF801868380913505909117
:104E000036058615970520F47092360560923505B3
:104E1000C40102C0880F991F2A95E2F70197F80193
:104E200026812817190609F0C9C0A090AC05B090DA
:104E3000AD05A114B10409F44EC00E940E158A19E3
:104E40009B096816790608F046C021E0F801248322
:104E500081E0E82AFFEFCF1ADF0A095F1F4F2AE03F
:104E6000C216D10409F082CF8F85882309F4F0C0DF
:104E7000EE2009F4EDC00E940E159093AD058093CD
:104E8000AC0580913905883010F591E0980F90932A
:104E9000390599E0FE013A96DE01119601900D92D6
:104EA0009A95E1F73DE0839FC0011124865C9A4FFB
:104EB00029E0FE013196DC0101900D922A95E1F77F
:104EC0002FEF3FEFFC0132872187348623866A96D5
:104ED000E2E10C94F0316091AA05B090AB05762F19
:104EE000F0E0E0E06B1115C07093AA05E017F10740
:104EF00009F464C070E0FB01EE0FFF1FEE55FA4F9E
:104F0000D182C0826F5F7F4F637077276093AB055C
:104F100055C0862F90E0FC01EE0FFF1FEE55FA4FB3
:104F200020813181B0E0A0E02A30310540F447E033
:104F3000429FD001439FB00D1124AF59BE4F2D9118
:104F40003C9111973A8F298F612CA12C712CE72D60
:104F5000F0E0EE0FFF1F298D3A8DE20FF31F259130
:104F6000349121153105B9F0F80140805180A12C10
:104F700005C02417350709F46F2CA394EA2DF0E03F
:104F8000EE0FFF1FE40DF51D45915491411551059C
:104F900081F77394DCCF662029F0A71430F0FD016F
:104FA000109721F4F0E0E0E012C0F80121E0248342
:104FB0000E171F0729F47093AA05F62C8F2D49CFE1
:104FC000671305C0AE17BF0711F47F5F73700196BA
:104FD000682F637087CF792E90E071101FC0B401E5
:104FE00002C0660F771F2A95E2F79B012150310915
:104FF0002817390729F4442349F1C6010E941A08E9
:10500000C4010A2C01C0880F0A94EAF7982F9095E2
:10501000F801868189238683F72CD0CFAC010A2C36
:1050200002C0559547950A94E2F79C012150310939
:1050300082239323892B31F440FF04C0B801C601B9
:105040004EDDDECF742F7170772EDACF7F2CD8CF64
:105050009091AA058091AB05981731F06CDDF1E0D5
:10506000EF1609F434CF55CEE5DC1092AD05109261
:10507000AC050E944B08F3CF82E00E94570E20CE71
:10508000A6E0B0E0E6E4F8E20C94E2310E940E15EE
:105090008C0180915703909158038017910779F004
:1050A00019821A820E940E15682F49815A81792F20
:1050B00080E090E0D7DD10935803009357032696C5
:1050C000E4E00C94FE311F921FB61F9211248F93BF
:1050D0009F93AF93BF938091B605811113C08091C8
:1050E000B7059091B805A091B905B091BA05419660
:1050F000A11DB11D8093B7059093B805A093B90584
:10510000B093BA05BF91AF919F918F911F901FBE31
:105110001F901895CDB7DEB72F970FB6F894DEBF66
:105120000FBECDBF85B7806885BF85B7806885BF56
:1051300084B7877F84BF0FB6F894A89580916000EC
:10514000886180936000109260000FBE80E890E05C
:105150000FB6F89480936100909361000FBE81E0D8
:105160008093AB0188E09BE09093DD028093DC02AA
:105170000E94CF050E9470068091E20084608093B7
:10518000E20078948091C6058823A1F01091E9008F
:105190001F709091EC00892F817090FD80E8182B92
:1051A0001092E9008091E80083FD0E9414181F709E
:1051B0001093E90082E084BD93E095BD9AEF97BD1E
:1051C00080936E001092B7031092B8031092B90347
:1051D0001092BA038091D80080618093D8002AE1B0
:1051E0002A95F1F700C08091D900182F117080FD29
:1051F00004C00E94CF051092C6051093D0051093ED
:10520000D10511119CC094E09093C40384E0891BE4
:105210008093C30384E90E940A0B86E60E940A0B6E
:1052200087E90E940A0B86EC0E940A0B0FEE11E040
:1052300055EFE52E51E0F52ED8018D918D018F3F70
:1052400011F00E940A0BE016F106B1F788E0E7ECD6
:10525000F3E0DF01282F1D922A95E9F7EBEBF3E04D
:10526000DF011D928A95E9F790E080E00E94C43248
:10527000833E9E4FB1F163EE7EEF90E080E00E94AE
:10528000F23260E082E090E00E94D83281E090E06B
:105290009093C6038093C50361E083E090E00E9491
:1052A000D83260E074E184E090E00E94F2320E9423
:1052B000791140E050E0BA018FE090E00E94EA32BC
:1052C00040E050E0BA0183E190E00E94EA3248E019
:1052D00050E067E170E083E296E00E94C9321092EC
:1052E0002B0682E090E00E94BC328093D70384E0DA
:1052F00090E00E94C4329093B5058093B4050E945B
:105300002315EFEFF6E721E0E150F0402040E1F710
:1053100000C000000E9423158091D105E4E08111B6
:10532000E0E0F0E0E953FC4F808181FF10C06FEFB7
:105330007FEF90E080E00E94F2320E942507CCD6F9
:105340008091D105882309F45ECF90E05DCF83E0A2
:1053500090E00E94BC3290E00E947F0E0E9468089C
:1053600081E080932B0648E050E067E170E083E243
:1053700096E00E94AC3210922B06809123068C7F1F
:1053800011F40E9479118091D0058111FAC082E058
:1053900080935D0480E880932C063ED56BE070E03E
:1053A0008BEB92E00E949E10882309F443C0809109
:1053B0005D0465E070E081FDE6C086EB92E00E944E
:1053C0009E108823B9F16DE070E084EA92E00E94BB
:1053D0009E10882379F10E9436076F83788789872A
:1053E0009A87DC01CB01805D9A48AF4FBF4F809315
:1053F000680490936904A0936A04B0936B04EFE28D
:10540000F6E080E092E0DF019C011D9221503040E7
:10541000E1F7F0933608E09335088FEF9FEF909314
:105420002E0680932D0681E080936D0480936C049A
:1054300010925E048091D005811101C050D688E49D
:1054400091E09093B1058093B0054AE0C42ED12C31
:10545000E12CF12C8091C605853089F411E000E43F
:1054600020E1B22E32E1A32E8091C605853009F4E9
:105470008DC00E94F4170E940708109262040E94D7
:10548000231598ED292E93E0392E87EC93E0988729
:105490008F83DC01F10191918D9123E0E03EF207D1
:1054A00009F4DBC09817B9F34090D0058FECA82E13
:1054B00083E0B82E912CAF81B8858D90B887AF83EB
:1054C000F10161901F01681409F447C0682410E0DD
:1054D00000E077247394872D8621A9F1572C58205A
:1054E000442011F1D5018C9190E021E030E0002EB4
:1054F00002C0220F331F0A94E2F782239323892BE1
:1055000099F409839A820E940E159C838B83B1E0E3
:10551000BD8391E0511001C090E09E8349815A8182
:105520006B817C818D819EDB51100DC081E090E00C
:10553000002E01C0880F0A94EAF7982F9095F50184
:10554000808189238083770C0F5F1F4F0630110500
:1055500009F0C1CFF101319780829394FFEFAF1A28
:10556000BF0A28E09212A7CF0E94230B6093E003AA
:105570007093E1038093E2039093E30331E03F876C
:1055800070C080E005CF81EB92E019CF8091C60515
:10559000843009F432C00E94F810809162048111B5
:1055A00005C00E944F0A80E00E9417091093620410
:1055B0000E94AB101092B60548E150E00FB6F89487
:1055C000A895409360000FBE0093600083B7817F71
:1055D000846083BF83B7816083BF7894889583B7E5
:1055E0008E7F83BF0FB6F894A89580916000886184
:1055F00080936000109260000FBE0E942315E7ECBC
:10560000F3E0AFECB3E080E021912D9391E0211124
:1056100001C090E0892B53E0EF3CF507A9F7882300
:1056200009F422CF8091C505882309F41DCFB9BCA8
:10563000A9BC09B400FEFDCF8091D8008F7D809376
:10564000D8008091E00082608093E0008091E000CB
:1056500081FDFCCF0E94F41707CF981325CF10DDF2
:105660001F868091D005882309F403C18091A7018A
:10567000882311F10091AC051091AD0501151105BC
:10568000D9F00E940E15801B910B209135053091A9
:1056900036052817390780F49091AA058091AB054B
:1056A000981709F4ADC147DA109236051092350506
:1056B0001092AD051092AC058090EF039090F0032E
:1056C000092C000CAA08BB0810915201212F30E0D0
:1056D000EFEEF3E081E090E03296281739070CF006
:1056E00093C14090EB035090EC036090ED037090F9
:1056F000EE030E943607DC01CB0184199509A60947
:10570000B7092C013D0199EC49165104610471045B
:105710000CF18091EA0390E0019669E170E087D690
:105720008093EA03880F991FFC01E151FC4F11821D
:105730001082812F183108F087E18F5F809352012A
:105740000E9436076093EB037093EC038093ED03A4
:105750009093EE03A2E08A169104A104B1040CF424
:105760005FC1A0E6BAEEA5019401B8D66F83788731
:1057700089879A87B8EC1B9F90011124032E000C97
:10578000440B550B240D351D461D571DA5E0B0E0FB
:10579000A5D66B877C878D879E876F817885898565
:1057A0009A852B853C854D855E8554D629013A0125
:1057B000E1EF4E165104610471042CF0B0EF4B2E52
:1057C000512C612C712C8090E6039090E703A090FF
:1057D000E803B090E9030E9436079B01AC01281949
:1057E00039094A095B0949015A0135E683169104D2
:1057F000A104B10484F00E9436076093E60370931D
:10580000E7038093E8039093E90380912A0480934F
:10581000E5034092E4031091E503A091E403A11B8A
:10582000BB0BA501940164D66F83788789879A871B
:1058300024E630E040E050E02FD6120F10932A0407
:105840008091600182FF15C00E940E15BC018091FD
:10585000310590913205AB01481B590B4C3D510568
:1058600040F041E254E080913305909134050E946C
:10587000501C0E94F81080916D04882309F442C1E5
:1058800000915F04109160040E940E15801B910B23
:10589000C29708F40DC10E940E1590936004809386
:1058A0005F048FE296E090933608809335088091EC
:1058B000D005882309F47DC186EC92E00E948C0F0C
:1058C00080912A0490915301981305C090912F0460
:1058D000903309F455C08093530190E390932F04C3
:1058E000282F30E050E040E02F83388749875A87DF
:1058F00010922E04CA01B901A7019601ABD5605DD3
:10590000603349F08F819885A985BA85892B8A2BC8
:105910008B2B09F460E360932D046F817885898572
:105920009A85A701960196D52B873C874D875E8780
:105930002F81388549855A8560E32A303105410534
:10594000510540F06B857C858D859E85A70196016C
:1059500081D5605D60932C048F819885A985BA8577
:1059600020E384369105A105B10540F06B857C8567
:105970008D859E85A70196016DD5205D20932B0412
:105980008BE294E00E94CD0F81E00E94990F8091FC
:10599000D005882309F40DC18DEE92E00E948C0F92
:1059A0002091300430913104832F99270097E1F141
:1059B0009C0188E0A901F4E056954795FA95E1F736
:1059C0004115510511F08C5F9A01A9015695479533
:1059D000569547954115510511F08E5F9A01369500
:1059E0002795232B09F08F5F823009F49EC0F0F4D5
:1059F000882309F1813009F495C08CEC92E01DC038
:105A000019D80E944B0854CE40815181052E000CBC
:105A1000660B770B840E951EA61EB71E01965CCEF4
:105A2000412C512C3201CFCE80E0C4CF833029F7F6
:105A300082ED92E002C085EE92E00E94CA0F809152
:105A40003C04805D0E940D0F8BEF92E00E948C0F52
:105A500080913B04805D0E940D0F87EF92E00E94D1
:105A60008C0F8091390490913A0420915401309127
:105A700055018217930709F05BC02091380420324A
:105A800009F056C022E334E0C9012F5F3F4FFC010B
:105A900040814032C9F30E94CD0F85EF92E00E9411
:105AA0008C0F809156010E940D0F81E00E94990F8A
:105AB00080912D0690912E06892B09F07FC0809150
:105AC0006C048823F9F00E9436076F8378878987F2
:105AD0009A878091680490916904A0916A04B091BA
