:1000000051C500006CC500006AC500000C944D2E5F
:1000100066C5000064C5000062C5000060C5000040
:100020005EC500005CC500000C948F130C945C1A34
:100030000C94F82754C5000052C5000050C50000BC
:100040004EC500004CC500004AC5000048C5000070
:1000500046C500000C94771442C5000040C500005E
:100060003EC500003CC500003AC5000038C5000090
:1000700036C5000034C5000032C5000030C50000A0
:100080002EC500002CC500002AC5000028C50000B0
:1000900026C5000024C5000022C5000020C50000C0
:1000A0001EC500001CC500001AC500000400150094
:1000B00000001A00090000000C00120000001600E9
:1000C00017000000110008000000090013000000E4
:1000D0000F00180000000B003600000008000C00A4
:1000E00000001500160000002020202061626364DB
:1000F00065666768696A6B6C6D6E6F707172737438
:1001000075767778797A3132333435363738393015
:10011000524542545F2D3D5B5D5C233B27602C2E96
:100120002F2020202B0014001A00090013000500C6
:10013000A15204001500160017000A00A2521D006B
:100140001B00060007001900000000000000777C7B
:1001500006282C00310033001C0018000F000D0091
:10016000340012000C000800110010001932380091
:10017000370036000B000E00000000000000787C05
:100180002A00280029003A003B003C003D003E00C8
:10019000A1521E001F00200021002200A2520100D7
:1001A00001000100A4520100000000000000010055
:1001B000E3002C00350243004200410040003F00B4
:1001C00035002700260025002400230019323002C4
:1001D0002F0231022E022D0200000000000001005B
:1001E0004C00280029001E021F02200221022202C8
:1001F000A15201000100AE00AC00AB00A252010010
:100200000100A800AA00A9000000000000000100F1
:10021000E3002C00010027022602550024022302DD
:1002200035004F00510052005000010019323000DB
:100230002F0001002E002D00000000000000010032
:100240002A002800290044004500010001000100A7
:10025000A15242784378457801000100A252407EC5
:100260000100010001000100000000000000010089
:10027000E3002C000100010001004D004A00210AAA
:100280000100010001005101520150010100010073
:1002900001004B004E004F01000000000000010073
:1002A0002A00280000DA0281FFD9F1DB20A4A62E63
:1002B000AF00A0C0D30000A1C8D30000AED580A875
:1002C0001F408D142000554E4B4E4F574E00414459
:1002D0004A5553540053594D424F4C004E554D42D0
:1002E000455200434F4C454D414B004C617965727E
:1002F0000A004B4545424D414B45520A0A00808158
:1003000082838485868788898A8B8C8D8E8F909155
:10031000929394A0A1A2A3A4A5A6A7A8A9AAABACB6
:10032000ADAEAFB0B1B2B3B4C0C1C2C3C4C5C6C72D
:10033000C8C9CACBCCCDCECFD0D1D2D3D400000146
:100340000101010101010101020202020202020295
:100350000203030303030303030404040404040467
:10036000050505050506060606060707070707082B
:10037000080808090909090A0A0A0B0B0B0C0C0CDE
:100380000D0D0D0E0E0E0F0F0F1010111111121278
:1003900013131414151516161717181819191A1AF5
:1003A0001B1B1C1D1D1E1E1F202021222223242456
:1003B000252626272829292A2B2C2D2D2E2F303192
:1003C0003232333435363738393A3B3C3D3E3F40A4
:1003D0004142434445464748494A4C4D4E4F50518F
:1003E0005354555658595A5B5D5E5F616264656649
:1003F00068696B6C6D6F7072737577787A7B7D7ED0
:100400008082838587888A8C8E8F91939596989A1F
:100410009C9EA0A2A3A5A7A9ABADAFB1B3B5B7BA37
:10042000BCBEC0C2C4C6C9CBCDCFD1D4D6D8DBDD0B
:10043000DFE2E4E7E9EBEEF0F3F5F8FAFDFF00AFF9
:1004400000AE05010980A101850319012AB7001535
:100450000126B700950175108100C0050C0901A1A6
:1004600001850419012AA002150126A00295017533
:10047000108100C005010906A1018506050719E0E4
:1004800029E7150025019508750181020507190066
:1004900029EF1500250195F0750181020508190164
:1004A0002905950575019102950175039101C00516
:1004B000010906A101050719E029E71500250195A5
:1004C0000875018102950175088101050719002948
:1004D000FF150026FF009506750881000508190123
:1004E00029051500250195057501910295017503F2
:1004F0009101C009023B00020100A0FA09040000BA
:100500000103010100092111010001224400070536
:100510008103080001090401000103000000092112
:1005200011010001226D0007058203200001120164
:100530000002000000085346010001000102000112
:100540000C0343006F0072006E0065000000100392
:1005500066006F006F007300740061006E000000A1
:10056000040309040000000000003E5B4F5B3E00F6
:100570003E6B4F6B3E001C3E7C3E1C00183C7E3C9C
:1005800018001C577D571C001C5E7F5E1C00001865
:100590003C180000FFE7C3E7FF0000182418000024
:1005A000FFE7DBE7FF0030483A060E0026297929ED
:1005B0002600407F05050700407F05253F005A3C87
:1005C000E73C5A007F3E1C1C0800081C1C3E7F00B4
:1005D00014227F2214005F5F005F5F0006097F0125
:1005E0007F00006689956A0060606060600094A288
:1005F000FFA2940008047E04080010207E20100052
:1006000008082A1C0800081C2A0808001E101010E0
:1006100010000C1E0C1E0C0030383E383000060E48
:100620003E0E060000000000000000005F00000019
:10063000000700070000147F147F1400242A7F2A7B
:100640001200231308646200364956205000000847
:1006500007030000001C224100000041221C000092
:100660002A1C7F1C2A0008083E0808000080703001
:100670000000080808080800000060600000201062
:10068000080402003E5149453E0000427F40000000
:100690007249494946002141494D33001814127FDF
:1006A00010002745454539003C4A49493100412160
:1006B00011090700364949493600464949291E00B3
:1006C0000000140000000040340000000008142264
:1006D00041001414141414000041221408000201F3
:1006E000590906003E415D594E007C1211127C00F2
:1006F0007F49494936003E41414122007F41414105
:100700003E007F49494941007F09090901003E41F6
:10071000415173007F0808087F0000417F410000BD
:100720002040413F01007F08142241007F404040AB
:1007300040007F021C027F007F0408107F003E41C2
:1007400041413E007F09090906003E4151215E00FA
:100750007F091929460026494949320003017F01D2
:1007600003003F4040403F001F2040201F003F400B
:1007700038403F0063140814630003047804030046
:100780006159494D4300007F414141000204081076
:100790002000004141417F0004020102040040406A
:1007A00040404000000307080000205454784000F7
:1007B0007F284444380038444444280038444428BE
:1007C0007F0038545454180000087E090200182491
:1007D000241C78007F080404780000447D40000059
:1007E0002040403D00007F102844000000417F4031
:1007F00000007C04780478007C0804047800384405
:10080000444438007C1824241800182424187C0040
:100810007C080404080048545454240004043F4451
:1008200024003C4040207C001C2040201C003C4018
:1008300030403C004428102844004C9090907C00AC
:100840004464544C44000008364100000000770026
:1008500000000041360800000201020402003C26AC
:1008600023263C0000000000000000000000000003
:1008700000000000C0E0F0F8F81800C0F0FCFEFF37
:10088000FFFFFFFFFFFF7E000000000000000000F0
:1008900080C0E0E0E0E0E0E0E0E0C08000000000D8
:1008A00080C0E0E0E0E0E0E0E0E0C080000000E0E8
:1008B000E0C0C0E0E0E0E00000E0E0C0C0E0E0E078
:1008C000E0E0C0800000000080C0E0E0E0E0E0E0A8
:1008D000E0E0C08000000000000000000000000018
:1008E0000000E0F0F0F0E0ECEEF7F37020007C7C2C
:1008F0007C7E007E7E7E7F7F7F000080C0E07E5B0E
:100900004F5BFEC00000C000DCD7DEDEDED7DC00BF
:10091000C000000000000000000000000000000017
:1009200000000000000000000000000000F8FCFED5
:10093000FFE000FFFFFFFFFFFF80FFFFFFFFFFFF64
:10094000FFFFFF1F0701000000000000000000FF84
:10095000FFFF8100000000000081C3C3C30000FF4F
:10096000FFFF8100000000000081FFFFFF0000FF8B
:10097000FFFF01000000000000FFFFFF010000007A
:100980000001FFFFFF0000FFFFFF9D1C1C1C1C1C43
:100990001C9DDFDFDF000000000000000000000001
:1009A00000000F1F3F7F7F7F7F7F3F1E0C001F1FB8
:1009B0001F3F003F3F3F7F7F7F00307B7F783020AD
:1009C0002030787F3B0003000F7F0F0F0F7F0F0059
:1009D0000300000000000000000000000000000014
:1009E00000000000000000000000000000030F1FD6
:1009F0003F3F3F3F1F1F3F3F7F7F7F3F3F1F3F7F67
:100A00007F7F7F7C7878381C0F000000000000009A
:100A10000103070707070707070703010000000096
:100A2000010307070707070707070301000000077F
:100A30000707000000000000000707070000000093
:100A40000000070707000000010307070707070763
:100A50000707030100000000000000000000000084
:100A60000000000000000000000000000000000086
:100A70000000000000000000000000000000000076
:100A80000000000000000000000000000000000066
:100A90000000000000000000000000000000000056
:100AA0000000000011241FBECFEFDAE0DEBFCDBF93
:100AB00012E0A0E0B1E0E6EEF0E602C005900D9293
:100AC000A03DB107D9F727E0A0EDB2E001C01D922B
:100AD000A13EB207E1F70E941F280C94243090CA6F
:100AE0008091D50581608093D50508959091CD05BD
:100AF000937051F08093CE056093CF05493708F08D
:100B000048E74093D005ECCF0895982FE091C905B0
:100B10004091800559E0E41302C080E008952E2F33
:100B200030E05E9FF0011124EF57FA4F8181681386
:100B300006C08081981303C085818111EFCFF90130
:100B40003196E770E8CFFC01AC014C5F5F4F8FEF4F
:100B500091E32191822728E030E087FF09C0880FC8
:100B6000892721503109C9F7E417F50791F708954E
:100B7000880FF7CFE8EDF0E080818E7F80831092C0
:100B8000E2001092DA001092E100A0EEB0E08C9149
:100B900081608C9380818F77808319BCA7EDB0E052
:100BA0008C918E7F8C9380818F7E808310926B05D9
:100BB00008952091E4003091E50095E6A901209187
:100BC000EC00822F817020FF06C08091E80080FF3A
:100BD00006C080E008952091E80022FD1AC08091AF
:100BE0007605882389F0853089F08091EB0085FDBA
:100BF0000FC02091E4003091E50042175307F9F24D
:100C00009150E1F684E0089582E0089583E008952C
:100C100081E008958091780587FF13C08091E800F6
:100C200082FF06C08091E8008B778093E80004C0C3
:100C3000809176058111F2CF089580917605882301
:100C4000D9F38091E80080FFF8CF8091E8008E779B
:100C5000ECCF982F9093E900242F762F50E089173E
:100C600031F07091EC002091ED005091F00021FDE9
:100C700007C09F5F973071F78093E90081E0089586
:100C80003091EB003E7F3093EB003091ED003D7FE3
:100C90003093ED003091EB0031603093EB007093B6
:100CA000EC002093ED005093F0002091EE0027FD22
:100CB000E0CF80E00895B0E0A0E0E1E6F6E00C943B
:100CC0007C2FC8EDD0E088818F7E8883E7EDF0E04F
:100CD00080818160808384E082BF81E080936B05A6
:100CE00088818E7F888302EE10E0F80110821092D6
:100CF000DA0081EEC82ED12CF601108288818F7720
:100D0000888388818068888388818F7D888319BCE7
:100D10001092760510927705109275051092740561
:100D200090EEE92EF12CF70180818B7F8083888102
:100D30008160888342E060E080E08BDFF6018081A3
:100D40008E7F8083F80180818160808380818860CC
:100D50008083F70180818E7F808388818061888392
:100D6000CDB7DEB7E8E00C94982FFC01CB012091C1
:100D70007E0530917F052617370790F0009729F4FC
:100D80002091E8002E772093E80040E0009751F48E
:100D9000411108C08091E80082FF31C080E00895D1
:100DA000C901F3CF209176052223A9F12530A9F1BD
:100DB0002091E80023FD2DC02091E80022FDEACF1C
:100DC0002091E80020FFE2CF3091F3002091F20063
:100DD000009719F02830310558F041E028303105EE
:100DE00009F040E02091E8002E772093E800CECF74
:100DF00041914093F10001972F5F3F4FE9CF8091E0
:100E00007605882341F0853041F08091E80083FF2A
:100E1000C1CF81E0089582E0089583E008950895A8
:100E200087E797E7909301088093000888E19AE0AC
:100E30000FB6F894A895809360000FBE9093600061
:100E4000FFCFA4E0B0E0E7E2F7E00C94822F8FB789
:100E5000F89420916705309168054091690550919B
:100E60006A0529833A834B835C838FBF69817A81CA
:100E70008B819C812496E2E00C949E2F8091A901A5
:100E800008959091AA019130E1F49091640597FF43
:100E900018C0E82FE695E695E695803FF0F4F0E07F
:100EA000E652FD4F877021E030E0A90102C0440FF7
:100EB000551F8A95E2F7CA01809592818923828322
:100EC0000895E4EDF2E09191891303C0DF011197D9
:100ED0001C9252E0EA3DF507B1F708959091AA01FE
:100EE0009130C1F49091640597FF14C0E82FE69506
:100EF000E695E695803FF8F4F0E0E652FD4F877006
:100F000021E030E001C0220F8A95EAF78281822B2E
:100F100082830895A4EDB2E0EFEF90E02D91821767
:100F200051F0EF3F19F4211101C0E92F9F5F963076
:100F3000A9F7EF3F09F408950E2E000CFF0BEE52B7
:100F4000FD4FE6CFA3E0B0E0E8EAF7E00C94822F93
:100F50009C01809162059091630582179307B1F01F
:100F60003093630520936205E0916005F09161057F
:100F7000309761F00084F185E02D309739F084E0FE
:100F800089833B832A83CE01019609952396E2E06B
:100F90000C949E2FA3E0B0E0E0EDF7E00C94822FDC
:100FA0009C0180915E0590915F0582179307B1F0D7
:100FB00030935F0520935E05E0916005F091610537
:100FC000309761F00084F185E02D309739F083E0AF
:100FD00089833B832A83CE01019609952396E2E01B
:100FE0000C949E2F80915C05882369F0E091600548
:100FF000F0916105309739F00190F081E02D309744
:1010000011F00995089580E008959C0150915805CC
:1010100060915905452F641301C00895842F90E015
:10102000FC01EE0FFF1FE05BFA4F0190F081E02D15
:10103000E217F307B9F4F0E0E0E02A30310540F4BC
:1010400067E0629FF001639FF00D1124EF59FE4F9E
:1010500021E024834513E1CF019683709927809383
:10106000580508950196482F4370D5CF1092E40497
:101070001092E304E1E6F1E087EA91E02581211195
:1010800002C01482168237968E179F07B9F708950B
:10109000FC01EE0FFF1FE80FF91FE45EFB4F6183B9
:1010A000408322830895539A0895E091D205EF3F3B
:1010B00089F0E53069F0E23019F0E1110DC0E3E0AC
:1010C000E150F0E0E553FD4F80818093D20508CDDB
:1010D000E1E0F6CFE3E0F5CFE0E0F3CFE091D20539
:1010E000EF3F61F0E53061F0E23061F4EF5FF0E096
:1010F000E553FD4F80818093D205F2CCE0E0F6CF3E
:10110000E1E0F4CFE0E0F3CFEDECF5E024813AE06C
:10111000231B08F420E02483E3CCEDECF5E02481EC
:101120003AE0230F08F42FEF2483DACCEDECF5E05E
:10113000438128E0421B08F440E08181628190E015
:10114000D5CCEDECF5E0438128E0420F08F44FEFF9
:101150008181628190E0CACCEDECF5E0628128E00B
:10116000621B08F460E08181438190E0BFCCEDEC2C
:10117000F5E0628128E0620F08F46FEF818143811E
:1011800090E0B4CCEDECF5E0818143816281885040
:10119000990BACCCEDECF5E0818190E0438162816C
:1011A0000896A4CC8091CD05837031F08460809343
:1011B000CD0510925F0194CC08958091CD05837088
:1011C00031F084608093CD0510925F0189CC089541
:1011D000EDECF5E0808191E08927808310925F013A
:1011E0007FCC9BE0899F802D1124980F973308F0C6
:1011F00096E320915D05222321F09C3128F09BE1AC
:1012000008958B3108F48BE1089580935B01809100
:10121000CD05837080935A01C0D683E080935F012F
:101220000895FF920F931F93CF93DF93182F062FEC
:10123000F42ED0E0C0E0CE0120915D05222359F0CC
:10124000CB3160F02196C633D105A9F7CDB7DEB713
:10125000E5E00C949B2FCB31A8F34B972F2D402F1B
:10126000612F16DFEFCFB0E0A0E0E9E3F9E00C94E6
:10127000782F082F80915B0180132BC09091CD05B2
:10128000937020915A0130E081E09217130609F41F
:1012900080E0817080935E018091D20590915D0124
:1012A000981731F080935D0140E060E080E0B9DFA5
:1012B000013089F00F3F09F4D5C0011108C08091B9
:1012C0005E01882349F140E060E080E0AADF80E031
:1012D00023C081E0DECF80915C0183DF982EB92EA0
:1012E0008090CE054091CF05E091D005F0E0E25C22
:1012F000FC4F411123C0C491DC2F1C2FE92CF12C91
:1013000080915D05EB1408F489C0882309F4A4C01A
:1013100081E0AAE1AB15D8F290915C019F5F9093B8
:101320005C018111C8C082E080935F0180915E0101
:101330008111C1C00111BFC083E0BBC0E42EF12CFC
:10134000C491AC2E26E0829EF00111242FEF30E0F4
:10135000CF01B9010E945E2F882D90E0880F991F60
:1013600055E5569FD001579FB00D11248A1B9B0B4A
:10137000882E880C880ED901AE19BF09CA9FC001FA
:10138000CB9F900D1124192F489DA0011124452FAA
:101390005527D901A41BB50BCA9F6001CB9FD00C68
:1013A0001124DD2DD901A819B109AE9DA001AF9D71
:1013B000500DBE9D500D1124452F5527241B350B74
:1013C000C29FA001C39F500D112463307105C1F06D
:1013D000EC3FB3E0FB0768F461307105A9F06230BF
:1013E0007105B1F0EF3FF10508F088CFD92F152F27
:1013F00085CF6430710579F066307105B9F37ECF21
:10140000C92F1D2DDA2D7ACFCD2DD92F1A2D76CFBC
:10141000D52FC92FFBCFDC2FC52F70CFF701D701F8
:10142000AB56BD4F9C9120915D01922331F08823F2
:1014300041F02BE1E216F1044CF09FEFE91AF90AB2
:101440005FCF7B978BE1E816F104BCF32D2F412F82
:101450006C2FCF011DDEF1CF81E0B5E3BB1508F0A5
:101460005BCF35CF8091110490911204A0911304A9
:10147000B09114042AE0B695A795979587952A957B
:10148000D1F783709927AA27BB2782309105A10540
:10149000B105B1F083309105A105B105A1F040E09F
:1014A00060E00197A105B10581F464E180E0B9DE57
:1014B00082E080935F01CDB7DEB7ECE00C94942F0F
:1014C00044E160E0F3CF44E164E184E1F0CF80E007
:1014D0000895F894E82FE295EF70F0E041A18F7045
:1014E00021E030E0B90102C0660F771F8A95E2F76C
:1014F000CB01962F9095942391A392A1892B82A33F
:1015000078940895A4E0B0E0E8E8FAE00C94822F23
:1015100080915C05882369F094DC69837A838B83EE
:101520009C8369817A818B819C812496E2E00C9472
:101530009E2F87DC69837A838B839C838091AB03A6
:101540009091AC03A091AD03B091AE0329813A8193
:101550004B815C81280F391F4A1F5B1F29833A8307
:101560004B835C83DECF9091640592FF10C041E015
:10157000282F2471243009F040E031E0282F287111
:10158000283009F030E0431711F02CE0822793FF58
:1015900010C041E0282F2471243109F040E031E0EF
:1015A000282F2871283109F030E0431711F02CE082
:1015B00082273091650530FF10C051E0282F21713E
:1015C000213009F050E041E0282F2871283009F03F
:1015D00040E0541711F029E0822731FF10C041E0AC
:1015E000282F2171213109F040E031E0282F2871A6
:1015F000283109F030E0431711F029E0822794FFE9
:1016000002C083FD877E0895803E9105C1F1C8F434
:101610008133910509F47DC048F48932910509F4BC
:101620006DC08A32910509F47BC008958933910514
:10163000D1F082389105B9F08533910509F459C08C
:101640000895843E9105C1F138F4823E910521F15F
:10165000833E910531F10895863E9105C1F1873EA3
:101660009105E1F1089520916405237009F065C0AA
:101670002091650523FF14C089E290E00895209130
:10168000640520FD43C03091650530FF09C024FF8B
:101690004EC090E080E008952091640522FDF7CFD0
:1016A00008952091640522FD45C03091650530FD07
:1016B00044C024FFF5CFEDCF2091650521FFF0CF89
:1016C0008091640584FDE5CF87EE90E00895209138
:1016D000640523FFE5CF24FDDCCFF6CF2091640520
:1016E00023FD2EC03091650531FFE3CF84EE90E0FD
:1016F00008952091640525FFD3CFBECF20916405C6
:1017000025FD21C02091650523FFCACF89E390E024
:10171000C7CF2091640526FFC3CF8AE290E00895E9
:101720002091640526FFBCCF81E390E0089583EE0D
:1017300090E0089582EE90E0089580EE90E00895A4
:1017400086EE90E0089585E390E008957830B8F44F
:101750006630A8F48430B0F4E62FF0E096E0799F8C
:10176000E00DF11D112490E3899FE00DF11D11247E
:10177000EE0FFF1FEC5DFE4F85919491089580E080
:1017800090E0089581E0FCCF1F93CF93DF933CDF7F
:10179000EC018115924508F05CC0C11580E5D807C1
:1017A00008F0D9C0C03ED10538F5CD3CD10508F0D0
:1017B000ABC0C83AD10580F4C53AD10508F0A1C044
:1017C000C130D10509F440C0CE010497813A91059A
:1017D000D8F1D0E0C0E038C0CE01885A91094B97CB
:1017E000C0F7C85AD0E0CC0FDD1FC155DE4F0990BD
:1017F000D881C02DD46428C0C11590E4D907E0F485
:10180000C11520E2D20708F0C0C0C83ED105E0F003
:10181000CE019A9581159F41E0F68D2FA4DE182FF9
:10182000CE019927F1DEC12FD0E0DC2FCC27CC27C9
:10183000DF71C82BD92B08C0CE019927E5DECC2754
:10184000DF70C82BD92BD06ACE01DF91CF911F91C9
:101850000895C03882E5D807B8F5C03692E5D907B3
:1018600008F05BC0C03422E5D207C8F4C03282E57C
:10187000D80708F04BC02C2F2695269590E2299F7B
:10188000900111248C2F8370C1E0D0E002C0CC0FF6
:10189000DD1F8A95E2F7C22BD32BDD68D5CF2C2F25
:1018A00026952695277080E2289F900111248C2F81
:1018B0008370C1E0D0E002C0CC0FDD1F8A95E2F753
:1018C000C22BD32BDC68C0CFC03C92E5D90760F4B3
:1018D0008C2F8F71C03AD245A8F5C82FD0E0DC2FED
:1018E000CC27C46FD06AB0CFCE01805C9245809780
:1018F00008F06FCFDC2FCC27CC27DF71C06FD06A08
:10190000A3CFA497D064A0CFD0659ECFCF71D0E0F5
:10191000DC2FCC27C16FD06A97CF2C2F2695269528
:10192000277080E2289F900111248C2F8370C1E0E2
:10193000D0E002C0CC0FDD1F8A95E2F7C22BD32B7B
:10194000DA6882CF10DEC82FD0E0DC2FCC27CC277E
:10195000DF71D06279CF8C2F8F7105DE55E0D6957F
:10196000C7955A95E1F7CF70D0E0DC2FCC27282F10
:1019700030E084FF06C044E0220F331F4A95E1F7B0
:101980003327C22BD32BD0695FCF8D2F8F71EBDD27
:10199000182FCE01992738DEC12FD0E0DC2FCC27BD
:1019A000CC27DF71C82BD92BD4CF80914A03882351
:1019B00031F010924A03109249031092480308959F
:1019C000982F90958091BE0489238093BE0408953A
:1019D0008091C90590918005981301C008958F5F8B
:1019E0008770FACFB0E0A0E0E8EFFCE00C947B2F2A
:1019F0008C01E090E103F090E2038091B9039091B3
:101A0000BA03E82AF92ACFE0D0E0CC24C394D12C41
:101A1000BC2EC6010C2E02C0880F991F0A94E2F753
:101A20008E219F21892B49F4219790F7B12C8B2D82
:101A3000CDB7DEB7E9E00C94972FB8018C2F86DE86
:101A4000A3DE019789F3F3CFCF93DF93D82FC92F6C
:101A5000C9DF6D2F7C2F7ADE97DEDF91CF9108955D
:101A6000983078F5863068F5E82FF0E086E0989FAA
:101A7000E00DF11D11249E2F977083E0F695E795F8
:101A80008A95E1F7EE0FFF1FEE0FFF1FE450FD4FA9
:101A900050E040E080E0219130E0092E02C0369510
:101AA00027950A94E2F721703327042E01C0220FF4
:101AB0000A94EAF7822B4F5F5F4F4430510559F784
:101AC000089580E00895983098F5863088F5E82FDD
:101AD000F0E086E0989FE00DF11D11248E2F8770B5
:101AE00041E001C0440F8A95EAF783E0F695E79557
:101AF0008A95E1F7EE0FFF1FEE0FFF1FE450FD4F39
:101B000030E020E070E05191DF011197CB01022E0F
:101B100002C0969587950A94E2F781708195852792
:101B2000842385278C932F5F3F4F2430310559F74D
:101B300008959093E2038093E1030895E091E10317
:101B4000F091E20321E030E0D90102C0AA0FBB1FEF
:101B50008A95E2F7CD01D90102C0AA0FBB1F6A9591
:101B6000E2F7BD018A2B972B02C0220F331F4A9543
:101B7000E2F7AF01482359238417950721F42E2B50
:101B80003F2BC901D6CF209530952E233F23F9CF87
:101B900021E030E002C0220F331F8A95E2F7209542
:101BA00030958091E1039091E20382239323C1CF8A
:101BB00090911F038095892380931F03282F2770FE
:101BC00081F4891771F09091650592FF0AC086959E
:101BD00086958695DDDF10921F0310921E031092EA
:101BE0001D03089521E030E002C0220F331F8A95C3
:101BF000E2F78091E1039091E203822B932B99CF3E
:101C00009093BA038093B9030895FC0184818823DB
:101C1000A9F087819085009799F0B6DD282F9295DD
:101C20009F709630B1F080F4925F9F70923030F4E4
:101C300081E0203FA1F050F4283E50F080E008C041
:101C40008081918101DFEACF9A5FEFCF243FB1F726
:101C5000089581E0283E20F0213F81F7F9CF0895D3
:101C600008959C01892F99270097E9F09C0188E04D
:101C7000A90174E0569547957A95E1F7411551050C
:101C800011F08C5F9A01A901569547955695479595
:101C90004115510511F08E5F9A0136952795232B3A
:101CA00009F08F5F089580E0E3CFA6E0B0E0EBE5B8
:101CB000FEE00C94812F9C01FC01878190850097A8
:101CC000C9F486E0DE01119601900D928A95E1F744
:101CD000F901258189819A81222381F0662371F09F
:101CE00081DE182F682F89819A81EDDE69817A81E2
:101CF000812F2CDD2696E3E00C949D2FB1DE182F6A
:101D0000F5CF9C019A9581159F4150F5D901AA27DD
:101D1000B170F901EE27F270B90166277470A9015C
:101D20004427587034FF0EC080E1AB2B09F480E0EB
:101D3000EF2B09F08062672B09F08064452B89F056
:101D40008068089581E0AB2B09F480E0EF2B09F067
:101D50008260672B09F08460452B19F08860089534
:101D600080E00895CF93DF93682F81E06A3019F007
:101D70006D3029F480E082D0DF91CF910895809179
:101D8000DF079091E00726E0FC01A9EDB7E00190A4
:101D90000D922A95E1F7603E08F458C026E0FC0158
:101DA00011922A95E9F7C091DF07D091E00746E04C
:101DB00050E0BE0189ED97E00E94C42F9E01295D8D
:101DC0003540892B41F1C90145E0969587954A95A3
:101DD000E1F741E050E0BA0102C0660F771F8A9533
:101DE000E2F7CB016091D7057091D805862B972B30
:101DF000B9016B5F7F4FE5E076956795EA95E1F76E
:101E000002C0440F551F6A95E2F7842B952B9093DF
:101E1000D8058093D7052A5F3F4F4091D605642FA0
:101E200070E0C9010E945E2F481B463010F4240F59
:101E3000311D211572E0370710F030E020E0275205
:101E40003A4F3093E0072093DF0796CFF6E06F9F7D
:101E5000B00111246C597A4F46E050E00E94BB2F2C
:101E6000A2CFCF93DF93EC01FE018491811103C0D7
:101E7000DF91CF91089576DF2196F6CFCF93382F5B
:101E8000E091DF07F091E007E95DF5402091D6058C
:101E9000622F70E0CF010E945E2F281B822F332318
:101EA00059F066E00E94A92FC82FC15010F4CF91BD
:101EB000089580E257DFF9CF9F01280F311D2115CA
:101EC000324018F080E0F0E0E0E08E0F9F2F911D8F
:101ED00087529A4F9093E0078093DF07E8CFC1DFE6
:101EE00081E0CCCF0F931F93CF93DF938B01EA0157
:101EF00090917605943061F58093E9008FEF909191
:101F0000E800815095FD06C095ED9A95F1F7000027
:101F10008111F5CF8091E80085FF1AC00E94D90594
:101F2000811111C08091E80085FD06C08091E80014
:101F30008E778093E800F2CFF80181918F01809332
:101F4000F100219779F78091E8008E778093E8007F
:101F5000DF91CF911F910F910895BC0143E050E0B4
:101F600082E0C0CFBC0140E250E082E0BBCFCF9323
:101F7000DF93D82FC92F48E050E0682F792F81E0F8
:101F8000B1DF88E0ED2FFC2FACE6B5E001900D92BB
:101F90008A95E1F7DF91CF9108953BB1377F2BB15F
:101FA00028604FB7F8948CE194E0FC0101965081D1
:101FB00068E02BB9000000C057FF3BB9550F000087
:101FC00000C000C000C03BB900C06A9591F754E062
:101FD0008E3B950751F74FBF8FE594E00197F1F7DE
:101FE00000C000000895B0E0A0E0E9EFFFE00C942D
:101FF0007A2FF82EE92ED62EC72E8A018091AA03B9
:10200000AA24A394B12C8A3018F48AE0A82EB12C0B
:10201000C1E0D0E06D2D7C2D8F2D9E2DF80109950E
:10202000811104C02196AC16BD062CF4CDB7DEB7E5
:10203000EAE00C94962FCC9F9001CD9F300D300D8F
:10204000112490E080E045E34A95F1F70000019605
:1020500082179307C1F7DECFAB0124E630E0BC0165
:1020600088E70E94232D9C0181E0232B09F080E06A
:10207000089580911A0490911B04911103C091E07E
:1020800089270895882361F062E070E080E494E09D
:10209000E3DF811103C080911A04089510921A049D
:1020A00080911A04ECCFA5E0B0E0E9E5F0E10C94F2
:1020B000822F80911A048D8380911B048823E9F07C
:1020C0000E942107DC01CB01805D9A48AF4FBF4FD2
:1020D0008093160490931704A0931804B0931904E6
:1020E0008D81811107C062E070E08EE394E0B4DF7F
:1020F000811108C080911A048D838D812596E2E0BC
:102100000C949E2F81E080931A04F4CFCF92DF923B
:10211000EF92FF92CF93DF9300D000D0CDB7DEB720
:10212000F1D960930D0470930E0480930F04909383
:10213000100420911504298320915F012230B1F110
:10214000F0F4211129C010925C0160931104709386
:102150001204809313049093140480910C04811151
:1021600008C08091CD05282F237019F0282F2695BF
:1021700026952093150481E080935F0102C02330EF
:10218000C1F00F900F900F900F90DF91CF91FF90C3
:10219000EF90DF90CF900895898165D88981882359
:1021A00081F380915C0181501CD8EBCF89812DD8BF
:1021B000E8CF8091D505882351F048E050E067E1F1
:1021C00070E08DEC95E00E94F72F1092D505C0903D
:1021D0001104D0901204E0901304F0901404809144
:1021E0005C05882381F00E942107DC01CB018C195A
:1021F0009D09AE09BF094097A105B10508F4C1CFFB
:1022000010925F01BECF7ED9F0CFEDECF5E085E016
:1022100080838091AC019091AD01A091AE0181834A
:102220009283A3838FE784838FEF858348E050E018
:1022300067E170E0CF010E94F72F1092D505089555
:102240009091650592FB222720F9281771F080FBF9
:1022500092F990936505609164057091650584E03D
:1022600090E00E94203082E0A3CC08954F925F92CC
:102270006F927F92AF92BF92CF92DF92EF92FF92D6
:102280000F931F93CF93DF9300D000D000D0CDB732
:10229000DEB78D837B01A42EB22E3E836801DB0165
:1022A0004D905D906D907C900E94210769837A83A8
:1022B0008B839C83DC01CB0184199509A609B7099E
:1022C00084369105A105B10510F4AA20E9F1BD817C
:1022D0000B2F0B2E000C110B88E0B802F00111241B
:1022E000E050FF4F818192818D599C4F408150E099
:1022F000C416D50608F4A6016B2D7E810E94D12F4D
:10230000C8010E94EE2E8983882341F00E94210794
:10231000D7016D937D938D939C9313978981269616
:102320000FB6F894DEBF0FBECDBFDF91CF911F91E6
:102330000F91FF90EF90DF90CF90BF90AF907F9084
:102340006F905F904F900895B1E0B983E7CFA1E01F
:10235000B0E0EDEAF1E10C94802F80911A048983BA
:1023600020917D0390E041E02817190609F440E030
:1023700001E010E09E012F5F3F4F6AE973E087E0C4
:1023800075DF2196E4E00C949C2F0F931F9341E09E
:1023900020917003309171038091E1039091E203E9
:1023A0002817390709F440E002E010E021EE33E09D
:1023B00062E973E084E05ADF8823A9F041E02091CC
:1023C0007203309173038091B9039091BA03281777
:1023D000390709F440E002E010E029EB33E06EE851
:1023E00073E085E043DF1F910F910895B0E0A0E016
:1023F000ECEFF1E10C947D2FF82ED62EE72ED42FA2
:10240000C52FB901A8018D2F9C2F0E94C42F41E038
:10241000892B09F440E02D2F3C2F6D2D7E2D8F2D23
:1024200025DFCDB7DEB7E7E00C94992FACE0B0E044
:10243000ECE1F2E10C94802F8091D4039091D503CC
:10244000A091D603B091D70389839A83AB83BC83D1
:1024500080919E0390919F03A091A003B091A1034E
:102460008D839E83AF83B8878091A2039091A3034D
:10247000A091A403B091A50389879A87AB87BC87F5
:102480000CE010E02EE733E0AE014F5F5F4F66EAED
:1024900073E088E0ABDF2C96E4E00C949C2FA9E07D
:1024A000B0E0E5E5F2E10C94802F88E0EDECF5E09A
:1024B000DE01119601900D928A95E1F780910C044E
:1024C000898709E010E024E733E0AE014F5F5F4FFA
:1024D00066E973E086E08ADF2996E4E00C949C2F9D
:1024E0000F931F93AC0104E010E028E633E06FE5A2
:1024F00073E082E07BDF1F910F910895CF92DF920E
:10250000EF92FF921F93CF93DF93CDB7DEB728975B
:102510000FB6F894DEBF0FBECDBFC0908A03D09037
:102520008B03E0908C03F0908D030E942107DC0167
:10253000CB018C199D09AE09BF0911E084369105C4
:10254000A105B10578F10E94820ADC01CB01029657
:10255000A11DB11D89839A83AB83BC83809119012E
:1025600090911A018D599C4F20911801422F50E0F3
:10257000253010F044E050E0BE016F5F7F4F0E94B5
:10258000D12F83E090E00E94EE2E182F882351F087
:102590000E94210760938A0370938B0380938C03BE
:1025A00090938D03812F28960FB6F894DEBF0FBE4F
:1025B000CDBFDF91CF911F91FF90EF90DF90CF9033
:1025C00008958F929F92AF92BF92EF92FF921F93C6
:1025D000CF93DF93CDB7DEB729970FB6F894DEBF60
:1025E0000FBECDBF7B0190E080E00E94EE2E182F41
:1025F000882309F485C080910301482F50E0882387
:1026000011F041E050E060910401709105016D59B5
:102610007C4FCE0105960E94D12F80905B03909055
:102620005C03A0905D03B0905E030E942107DC0173
:10263000CB0188199909AA09BB0984369105A1051E
:10264000B10540F484E693E00E94A3059D818917BB
:1026500009F456C081E090E00E94EE2E81111FC067
:1026600010E08091570390915803A0915903B091C5
:102670005A03F70180839183A283B383812F299624
:102680000FB6F894DEBF0FBECDBFDF91CF911F9183
:10269000FF90EF90BF90AF909F908F9008958091A2
:1026A0000B01482F50E0853010F044E050E060917D
:1026B0000C0170910D016D597C4FCE0101960E9465
:1026C000D12F84E693E00E94A3059D818913C8CF92
:1026D0000E94210760935B0370935C0380935D030A
:1026E00090935E0389819A81AB81BC81809357036B
:1026F00090935803A0935903B0935A0311E0B1CFBC
:102700008091640390916503A0916603B091670383
:1027100089839A83AB83BC831111E4CFA2CF1F922C
:102720000F920FB60F9211242F933F934F935F9305
:102730006F937F938F939F93AF93BF93EF93FF9389
:102740008091E10082FF09C08091E20082FF05C014
:102750008091E1008B7F8093E1008091DA0080FF1F
:1027600024C08091D80080FF20C08091DA008E7F45
:102770008093DA008091D90080FFA9C080E189BDF3
:1027800082E189BD09B400FEFDCF81E0809376052A
:1027900080916B05811109C00E94BA050E945B06F9
:1027A0008091E20084608093E2008091E10080FFEC
:1027B0001AC08091E20080FF16C08091E2008E7FF7
:1027C0008093E2008091E20080618093E20080913A
:1027D000D80080628093D80019BC85E0809376058C
:1027E00083E08093AB018091E10084FF2FC0809152
:1027F000E20084FF2BC080E189BD82E189BD09B47C
:1028000000FEFDCF8091D8008F7D8093D80080910D
:10281000E1008F7E8093E1008091E2008F7E8093C3
:10282000E2008091E20081608093E2008091770570
:10283000882309F452C084E0809376058091760560
:10284000843009F452C081E08093AB018091E100B3
:1028500083FF2CC08091E20083FF28C08091E100BB
:10286000877F8093E10082E0809376051092770560
:102870008091E1008E7F8093E1008091E2008E7F65
:102880008093E2008091E20080618093E20042E068
:1028900060E080E00E9429068091F00088608093CB
:1028A000F00081E08093AB018093AA01FF91EF914A
:1028B000BF91AF919F918F917F916F915F914F9158
:1028C0003F912F910F900FBE0F901F90189519BC3C
:1028D0001092760510926B0568CF8091E30087FD1A
:1028E00002C081E0A9CF83E0A7CF82E0ADCF78948A
:1028F0001F921FB61F9211248F939F93AF93BF9384
:102900008091670590916805A0916905B0916A056D
:102910000196A11DB11D8093670590936805A09352
:102920006905B0936A05BF91AF919F918F911F90F8
:102930001FBE1F9018952FB7F8948091670590914E
:102940006805A0916905B0916A052FBF0895CF93DE
:10295000DF93EC01F0DF8C1B9D0BDF91CF9108958D
:10296000A0E1B0E0E6EBF4E10C94782F1A82198232
:10297000FE01339686E0DF011D928A95E9F787EE26
:10298000E82E81E0F82E10E000E0CC24C394D12C96
:1029900021EFA22E21E0B22EF70181917F018F3F1E
:1029A00009F445C0F894E82FE295EF70F0E021A11A
:1029B0008F70A60102C0440F551F8A95E2F7CA0125
:1029C000922F982B91A392A18095892382A378942A
:1029D00000C0EBEEF1E031E0912C21912F3F09F4A2
:1029E000C1C0A22FA295AF70B0E090968C9190E0FC
:1029F0002F7002C0959587952A95E2F780FDB2C0A9
:102A0000832F982A330FAE16BF0639F7F701319797
:102A100080818F3F11F00E94690A50EA5A95F1F7C0
:102A2000E1E0F0E0EC0FFD1FE00FF11F90820F5F7F
:102A30001F4F0430110509F0AFCF48E050E0BE0150
:102A40006F5F7F4F8FEA93E00E94C42F9C01892B18
:102A500049F088E0FE013196AFEAB3E001900D92B3
:102A60008A95E1F70091B80310E005541C4F232B21
:102A700009F47AC081E080934F035DDF90934E03A9
:102A800080934D03F12CE0905C05EE2009F4C7C063
:102A90001A8619861C861B868091AA038A3008F044
:102AA00088C041EE52E1BE01675F7F4FC8019BDAEB
:102AB000882309F4A4C040E752E1BE01675F7F4F5D
:102AC000C80191DA882309F49AC04EE752E1BE01A9
:102AD000675F7F4FC80187DA882309F490C045EC0F
:102AE00051E1BE01675F7F4FC8017DDA882309F499
:102AF00086C04FE452E1BE01675F7F4FC80173DAC1
:102B0000882309F47CC047EA51E1BE01675F7F4F2B
:102B1000C80169DA882309F472C046E152E1BE01B6
:102B2000675F7F4FC8015FDA882309F468C010929D
:102B3000AA038091B70390E044E050E0BE01675FD4
:102B40007F4F85549C4F0E94C42F21E02093560351
:102B5000892B09F046C0E12C8E2D8F296096ECE080
:102B60000C94942F80E04DCFF0904F03FF2009F498
:102B700089CFC0904D03D0904E03DDDE8C199D09A6
:102B8000059708F47FCF44E050E06FEA73E0C80196
:102B90000E94C42F892B59F084E0EFEAF3E0D801BA
:102BA00001900D928A95E1F710924F036CCFF12CB2
:102BB000FBCFC0905003D0905103BDDE8C199D090E
:102BC000843F914008F06DCF80915603882319F21D
:102BD000FE01399684E0DF011D928A95E9F7109293
:102BE0005603E091B703F0E0E554FC4F89859A85E0
:102BF000AB85BC8580839183A283B383ADCF809165
:102C0000AA038F3F31F08F5F8093AA038A3008F4C4
:102C100090CF91DE9093510380935003D5CFC09015
:102C2000B703D12CF601E554FC4F6F01F801808108
:102C30009181A281B3818093640390936503A093F3
:102C40006603B093670384E693E00E94A305809334
:102C500063038091680390916903A0916A03B09126
:102C60006B03F60180839183A283B38380906C030E
:102C700090906D03A0906E03B0906F03809152030B
:102C800090915303A0915403B0915503881699066F
:102C9000AA06BB06B1F08092520390925303A09211
:102CA0005403B09255030E942107861A970AA80A76
:102CB000B90A8092AB039092AC03A092AD03B0929C
:102CC000AE0380917003909171039093E20380931F
:102CD000E10380917203909173039093BA03809300
:102CE000B90388E0E4E7F3E0ADECB5E001900D92C4
:102CF0008A95E1F710917C03112349F080910C042F
:102D0000811105C00E94330980E00E9405091093DB
:102D10000C0480917D03882391F1C5D980918603AD
:102D200090918703A0918803B09189034091820319
:102D300050918303609184037091850300917E0319
:102D400010917F0320918003309181030093D4037D
:102D50001093D5032093D6033093D70340939E035B
:102D600050939F036093A0037093A1038093A203E9
:102D70009093A303A093A403B093A503EDCE79D9B8
:102D8000CDCFCF93C82F8091650582FF0BC0809176
:102D90004A038C1739F0CFDD9093490380934803A1
:102DA000C0934A03CF910895CF93C091BE04809100
:102DB000E504C82B80914A03882301F1BCDD2091F2
:102DC000480330914903821B930B883E934010F0D7
:102DD0000E94D50C80914A03C82B8091AA018130B2
:102DE00081F48091640587FF0CC02EE18CED92E0A8
:102DF00030E0215050F431110E94D50C8C2FCF912E
:102E0000089526E084ED92E0F3CFFC014191CF01DB
:102E1000442379F33F5FEDCF8091AA01813061F5C2
:102E20008091640587FF28C0BFDF8093DB0240E20A
:102E300050E060E273E08AED92E00E94C42F892B9B
:102E4000D1F080E2EAEDF2E0A0E2B3E001900D9271
:102E50008A95E1F7E0916005F0916105309759F0AE
:102E60000480F581E02D309731F086E08093DA021E
:102E70008AED92E00995089597DF8093D20248E0A9
:102E800050E060E473E082ED92E00E94C42F892B51
:102E900091F388E0E2EDF2E0A0E4B3E001900D925E
:102EA0008A95E1F7E0916005F0916105309719F39B
:102EB0000280F381E02D3097F1F282ED92E0DACFDB
:102EC00080916001877F809360019091E5049D7FF0
:102ED0009093E50484FF08C08F7E80936001809109
:102EE000BE0482608093BE048091600185FF08C0AB
:102EF0008F7D809360018091BE0480628093BE04C8
:102F00008BCF1092BE048091AA018130B1F48091E0
:102F1000640587FF12C0ECEDF2E08EE1DF011D9247
:102F20008A95E9F790E080E00E94CA0790E080E08F
:102F30000E94A2071092E5046FCFE4EDF2E086E074
:102F4000EDCFAAE2B0E0E7EAF7E10C94812F88E741
:102F500095E0FC0101962091F100208325E0803866
:102F60009207B9F780917905893009F459C0C8F4FE
:102F7000823009F4B5C0833009F484C0813089F10E
:102F80008091E80083FF86C2809178059091790551
:102F90009A3008F07FC2E92FF0E0EA5DFF4C0C9414
:102FA000B52F8A3009F48BC08B3051F780917805AA
:102FB000813231F780917C0590917D05892B01F755
:102FC0008091E800877F8093E8000E940A0681E0F4
:102FD00090917A05911101C080E08093AA0191DF60
:102FE000CFCF80917805813A59F68091E800877FAC
:102FF0008093E80080917C0590917D05892B61F498
:1030000068E08CE695E070E00E94B5068091E800EB
:103010008B778093E800B4CF60E090E080E0F3CF5E
:1030200080917805813209F0ABCF80917C05909139
:103030007D05029708F0A4CF8091E800877F8093F8
:10304000E8008091E80082FF18C09091F300809121
:10305000F200029731F48091F100813011F0863056
:1030600021F48091F1008093A9018091E8008B7791
:103070008093E8000E940A0683CF80917605811133
:10308000E0CF7ECF80917805813A09F079CF8091A9
:103090007C0590917D05892B09F072CF8091E80025
:1030A000877F8093E8008091E80080FFFCCF8091CB
:1030B000AA018093F1008091E8008E77D9CF8091AA
:1030C0007805813209F05CCF8091E800877F80939A
:1030D000E8000E940A0680917B058093A80150CFEA
:1030E00080917805813A09F04BCF8091E800877F85
:1030F0008093E8008091E80080FFFCCF8091A801D8
:10310000D8CF803899F0823809F0C4C180917C050D
:103110008F70873008F0BEC18093E9008091EB008A
:1031200085FB882780F91092E90006C0809174051C
:1031300090917505911182609091E800977F90932E
:10314000E8008093F1001092F1008091E8008E7702
:103150009DC1882309F48BC1823009F09BC1809105
:103160007A0581118EC180917C058F702FEF280F19
:10317000263008F08FC18093E9002091EB0020FFFA
:1031800080C1933031F48091EB0080628093EB003A
:1031900078C19091EB0090619093EB0021E030E0DA
:1031A00001C0220F8A95EAF72093EA001092EA0004
:1031B0008091EB008860EACF81116CC110917A0593
:1031C0001F778091E3008078812B8093E3008091CA
:1031D000E800877F8093E8000E940A068091E8005B
:1031E00080FFFCCF8091E30080688093E30082E061
:1031F000111183E0809376054DC18058823008F02C
:1032000049C140917A0550917B054C3D83E05807B8
:10321000A1F583E08A838AE289834FB7F894DE01BF
:10322000139620E03EE051E2E32FF0E05093570088
:10323000E49120FF03C0E295EF703F5FEF708E2FA7
:1032400090E0EA30C0F0C7968D939D932F5F2431B4
:1032500059F74FBF8091E800877F8093E8006AE2CA
:1032600070E0CE0101960E94B5068091E8008B7750
:103270008093E8000FC1C096E7CF20917C05309184
:103280007D05852F99278330910509F160F4813000
:10329000910509F472C0029709F0FCC08BE390E03D
:1032A000E3EFF4E029C08132910509F45AC0829716
:1032B00009F0F0C02115310509F469C0213031054C
:1032C00009F0E8C08DE690E0E2E4F4E015C0CA0140
:1032D00099274130B1F18230910509F43AC0892B28
:1032E00009F0D8C0E0E6F5E0E4918E2F90E0E0E64A
:1032F000F5E0009709F4CEC02091E800277F2093E5
:10330000E80020917E0530917F058217930708F42D
:103310009C0140E02115310509F03EC041113CC03F
:103320008091E80082FDA1CF80917605882309F481
:103330009CCF853009F499CF8091E80083FFF0CFCE
:1033400094CFEEE4F5E0E4918E2F90E0EEE4F5E02A
:10335000D0CFE0E4F5E0E4918E2F90E0E0E4F5E0FA
:10336000C8CF2115310571F02130310509F092C027
:1033700089E090E0EEE1F5E0BFCF82E190E0EEE29F
:10338000F5E0BACF89E090E0E5E0F5E0B5CF84E480
:1033900090E0EFEAF4E0B0CF80917605882309F45D
:1033A00064CF853009F461CF8091E80083FD5DCF63
:1033B0008091E80082FDB4CF8091E80080FFAACF21
:1033C0009091F3008091F2002115310519F08830B9
:1033D000910550F041E0089709F040E08091E80045
:1033E0008E778093E80096CF44914093F100319618
:1033F000215031090196E8CF803809F04BC0809107
:10340000E800877F8093E800809177058093F10042
:103410009CCE81113FC010917A051230D8F5809171
:10342000E800877F8093E800109377050E940A06E2
:10343000112311F084E005C08091E30087FDFACFED
:1034400081E08093760542E061EC81E00E942906EC
:1034500042E261EC82E00E94290680917605843088
:1034600021F081E08093AB0115C082E0FBCF809119
:103470007A05813079F481E0933009F080E080931F
:1034800075051092E9008091E800877F8093E8003D
:103490000E940A068091E80083FF0AC08091E8003C
:1034A000877F8093E8008091EB0080628093EB003F
:1034B000AA96E3E00C949D2F1F920F920FB60F92E5
:1034C00011242F933F934F935F936F937F938F9329
:1034D0009F93AF93BF93CF93DF93EF93FF93D091DD
:1034E000E900DF708091EC00C82FC17080FDC0E85A
:1034F0001092E9008091F000877F8093F00078942B
:1035000020DD1092E9008091F00088608093F00047
:10351000CD2BCF70C093E900FF91EF91DF91CF9158
:10352000BF91AF919F918F917F916F915F914F91DB
:103530003F912F910F900FBE0F901F901895E1DCD7
:1035400088E19AE00FB6F894A895809360000FBECA
:1035500090936000FFCF882339F080959091E50427
:1035600089238093E50458CC0895882331F0909105
:10357000E504892B8093E5044FCC0895882319F046
:103580000E94E00C49CC0895882331F09091BE044C
:10359000892B8093BE0440CC0895882321F19CEFB1
:1035A000980F913A18F40E94410736CC90E2980F98
:1035B000983050F4877091E001C0990F8A95EAF72E
:1035C000892F0E94E00CF1CF9BE5980F933020F4F7
:1035D00090E080E00C94CA07885A8B3120F490E088
:1035E00080E00C94A2070895CF93DF93EC01D5DF20
:1035F000CE010E94810E9E01205E310928303105E6
:1036000010F0CD2B21F4BADFDF91CF910895A3DF25
:10361000FBCFCF93C82F8823A9F18CEF8C0F813A71
:1036200098F58091AA018130F9F48091640587FFB3
:103630001BC0EC2FE695E695E695F0E0E652FD4FCF
:10364000828190E04C2F477021E030E002C0220FD1
:10365000331F4A95E2F782239323892B79F08C2F2D
:103660000E944107D9DB0AC0E4EDF2E08AED92E066
:103670002191C217A1F38E179F07D1F78C2F0E94BB
:103680006E07CADBCF91089580E28C0F883068F412
:10369000C77021E030E001C0220FCA95EAF780919F
:1036A000BE04822B8093BE04ECCF8BE58C0F83305D
:1036B00038F42C2F2452330BC9010E94CA07E2CFE1
:1036C000C85ACB31F8F6EC2FF0E0EE0FFF1FE155B2
:1036D000FE4F808191810E94A207D4CFEF92FF928A
:1036E0000F931F93CF93DF93C62FD42F122FFC017C
:1036F0008581882399F06093CC051DD99093CB05E3
:103700008093CA05C77081E001C0880FCA95EAF7A7
:103710003BDFCDB7DEB7E6E00C949A2F8091CC0565
:1037200068132FC0E090CA05F090CB0504D98E191C
:103730009F09843B910528F500E20D0FCD1799F004
:10374000C770FF24F3948F2D01C0880FCA95EAF744
:1037500015DF083040F48D2F877001C0FF0C8A956B
:10376000EAF78F2D11DF812F54DF812F16DF08300C
:1037700080F6D77081E001C0880FDA95EAF7FEDEA7
:10378000C8CFC77081E001C0880FCA95EAF7F7CFAC
:10379000CF93DF93EC010E94810E9E01205E3109E0
:1037A0002830310510F0209731F4EEDE8C2F31DF18
:1037B000DF91CF910895D9DEF9CFB0E0A0E0E3EE3C
:1037C000FBE10C947C2FEC017B018091600182FF76
:1037D0007CC00091E1041091E2040C171D0719F060
:1037E000209709F072C0809160018B7F8093600107
:1037F000C1E081FD0CC08091DF049091E00497014D
:10380000281B390BC1E02C3D310508F4C0E0C17024
:1038100080916001C0FB81F9809360016801DD2423
:10382000F60184E0F695E7958A95E1F7EE0FFF1F24
:10383000E154FB4F20813181A8014F70552781E071
:1038400090E002C0880F991F4A95E2F7CC23C1F19E
:10385000822B932B918380838091BE0481FF08C0CB
:103860008091600180618093600182E00E94E00CA1
:103870008091BE0485FF08C08091600180628093C2
:10388000600180E20E94E00CCC2329F08091E504E5
:1038900082608093E504C80190528115904308F43A
:1038A0008601C80175DF8091E1049091E2049C01DA
:1038B00030522115304308F4992796DE01DB14C0FD
:1038C0008095909582239323C5CFCE019052811588
:1038D000904398F4CE01992787DE8091E10490917E
:1038E000E204C817D90751F3F092E004E092DF0434
:1038F000CDB7DEB7E8E00C94982FCE01EDCF0F9353
:103900001F93CF93DF938C01EB0142DF209739F4B3
:10391000C8016ADEDF91CF911F910F9108958FE961
:103920009FE00197F1F700C000002197EFCFB0E0D2
:10393000A0E0EDE9FCE10C947C2F8C01FC0184817A
:10394000882309F465C561E0C8010E94550EEC01A9
:10395000F8018581882309F431C591819093E603AC
:1039600090819093E50390E290935201D093E40309
:10397000C093E3039E01305221153042C8F4F80190
:103980009681907F09F479C5FE01FF27CD3308F4B5
:1039900083C0C93192E3D90709F474C5C034EEE796
:1039A000DE0709F47FC0C630F8E2DF0791F414C5E2
:1039B0009E0130542115304108F05CC0F801968119
:1039C000907F09F464C0FE01FF27ED33F10508F490
:1039D00063C00E949B14D82EE92EF80185818823AC
:1039E00009F478C08091600182FF07C048ED53E080
:1039F0006D2D792F90E080E0E0DEC431FCE7DF0739
:103A000009F464C0C5312CE7D20709F455C0C331AD
:103A10003CE7D30729F480916001816080936001C5
:103A2000CE0190528115904308F062C01092E204DA
:103A30001092E104F8019581992309F411C51092BF
:103A4000CC059E0130572332310508F0F4C484E0E0
:103A500090E00E94F22F9093650580936405FE012B
:103A6000E150F047E232F10508F0DEC0E05DFF4CC6
:103A70000C94B52F9E013A9521153F4108F4A3CF30
:103A80009E01205A32452032310508F487CFFE01CD
:103A9000CD33D10508F082CFE851FF4FE491E09398
:103AA000520177CF80911A04882319F00E943910AF
:103AB000A0C40E9453109DC490916001892F8E7FF5
:103AC00090FF816080936001FBD9AACF8091600153
:103AD0008E7FF8CF809160018F7EC13ED10531F09D
:103AE000C53ED105C1F4809160018F7D8093600156
:103AF0008091600180FF14C0F80185819E012450EF
:103B000031092A313105B8F0882351F01092E204CE
:103B10001092E10405C0CE0190528115904340F708
:103B2000FE01E851FC47E730F10508F083CFEE5A7B
:103B3000FF4C0C94B52F882309F453C080914A039D
:103B4000F090BE04F82A9F2D9D7F51F11092E2045F
:103B50001092E104FE0124E0F695E7952A95E1F73D
:103B6000EE0FFF1FE154FB4F9E012F70332781E0C2
:103B700090E002C0880F991F2A95E2F780959095F2
:103B8000208131818223932391838083CE0100DEC3
:103B900080914A038D7FF5D882E00E94D80D29C418
:103BA00099E0A8EDB3E001900D929A95E1F710929B
:103BB000DB031092DA038D7FE4D8D093E204C09344
:103BC000E104D092DF04E092E0048F2D82708460E3
:103BD000F0906001FF2DF97FFF2EF82AF09260012E
:103BE000DBCFA8016D2D7E2DCE01E7DD02C426E2DC
:103BF00041EE61EEC80172DDFCC327E245EE65EEE1
:103C0000F9CF26E241EE60EEF5CF27E245EE64EE15
:103C1000F1CF26E241EE62EEEDCF27E245EE66EE11
:103C2000E9CF28E241E0EBCF809164058160809389
:103C30006405609164057091650584E090E00E94E0
:103C400020305FD9D6C38091650588608093650573
:103C5000F0CF809164058260EACF80916405846032
:103C6000E6CF809164058860E2CF80916505816030
:103C7000EDCF809165058260E9CF80916405806118
:103C8000D6CF809164058062D2CF80916405806434
:103C9000CECF37D9809164058068C9CF8091640503
:103CA0008C60C5CF809165058360D0CF809164051D
:103CB0008E7FBDCF80916505877FC8CF80916405D9
:103CC0008D7FB5CF809164058B7FB1CF80916405E6
:103CD000877FADCF809165058E7FB8CF80916505D8
:103CE0008D7FB4CF809164058F7EA1CF80916405D4
:103CF0008F7D9DCF809164058F7B99CF02D9809174
:103D000064058F7794CF80916405837F90CF8091F5
:103D100065058C7F9BCF8091640582FB992790F984
:103D200021E0922790FB82F990FB83F980CF80916C
:103D30006505982F909591708E7F892B90FB81F966
:103D400085CF90916405892F8F7B96FF80646FCF1C
:103D5000D8D890916405892F97FB87F9805867CF51
:103D600061E08EE090E00E94063063CF60E0F9CF22
:103D700090916405892F8F7E94FF806158CF909138
:103D80006405892F8E7F90FF816051CF90916505EA
:103D9000892F877F93FF886059CF85E35CC385E3D4
:103DA00069C30E94E80825C3882391F10E94D208C4
:103DB00020C3882391F10E94C2081BC3882391F17C
:103DC0000E94AC0816C3882391F10E94960811C383
:103DD000882391F10E9484080CC38091CD058370E3
:103DE00011F410925F018091CD058C7F81608093EA
:103DF000CD050E947005FDC28091CD05837011F044
:103E000010925F018091CD058C7FF1CF882371F2F4
:103E10000E94DD08EEC2882371F20E94CA08E9C23E
:103E2000882371F20E94B708E4C2882371F20E94CD
:103E3000A108DFC2882371F20E948D08DAC28823AC
:103E400029F00E945508D5C28823D9F30E946E0834
:103E5000D0C2C737FCE7DF0709F027C381E00E9423
:103E6000C80DE3C282E0FBCF992369F180E0CB3536
:103E70003CE7D307F1F0CC358CE7D80799F081E027
:103E8000CA35ECE7DE07A9F0C130FCE7DF07D1F067
:103E9000C3302CE7D20781F0C115DC47A1F431D83B
:103EA0000E9410078091650582FB882780F991E0C8
:103EB00089270E9420119DC26FEF7FEF90E080E084
:103EC0000E9420303CDBF801278130852115310527
:103ED00009F456C0C9010E94C40BD82FC92FF8019C
:103EE000C580F680F2949FE0F92280911F038770CD
:103EF00001F1DC2CCC20F1F08C2F807F803461F03C
:103F000080E28D0F8830A8F08C2F807E803221F4E3
:103F1000D23078F0FF2069F08091650582FF09C0FA
:103F200082E00E94D80D80911F038770DD24D39416
:103F30008111D12CEC2EE2948FE0E822F8E0EF160C
:103F400009F41EC1FE1508F442C023E02E1570F1DD
:103F50008C2F807FCF7031E03E1508F04BC080324F
:103F600011F0C295C07FDD2309F479C0D13009F486
:103F7000CDC0CC2009F4D8C0FF2009F48CC04FC0BC
:103F8000E080F180992369F0C7010E94F20CC82FEC
:103F9000682FC7010E94630DB7018C2F0E94A60BEA
:103FA0009ACFC7010E94300DC82FF6CF84E0E816E3
:103FB00009F4CAC0EE2DE850FF0B349708F0E6C1B3
:103FC0000E94F20760E0C8010E94550E21C299E0EC
:103FD000E91609F45FC186E08E0D8F70823050F7CC
:103FE000D23F09F065C18C2F8F71C1105EC10E9454
:103FF000F20DE0CF882311F0C295C07FCC20B9F03C
:10400000CC2369F080E28D0F883010F0D11109C007
:104010008091BE04C82BC093BE040E940C178D2F44
:104020002EC08091E504C82BC093E504F6CF8D2FF8
:10403000B4DACC2309F4BECF80E28D0F883010F0C3
:10404000D11104C08C2F0E94E00C06C0C095809155
:10405000E504C823C093E5040E940C17ABCF809100
:10406000650582FD14C0CC2061F0CC2339F080912D
:10407000BE04C82BC093BE040E940C1780E0C9DAAE
:1040800099CF80E08ADACC2309F494CFDBCFCC201F
:10409000C9F0F11003C08C2F77DA8CCFE1E0FE126B
:1040A00089CFD0914A038C2F8D23C81709F482CF72
:1040B0000E949B149093490380934803CD2BC09397
:1040C0004A0378CFF11076CF8C2F58DA90914A03BB
:1040D0008C2F892369F08C2F8095892380934A0344
:1040E000882389F00E949B1480934803909349038E
:1040F0008091FB029C2F982309F45CCFC095C823C4
:10410000C093FB0257CF80E090E0EECFCC2029F0A7
:10411000F5E0FF1508F44ECFBECF24E02F1508F4CC
:1041200049CF8C2F2BDA46CFFF20D9F3D93349F46E
:104130003FEF87EE93E0315080409040E1F700C0C0
:1041400000008D2F2ADA36CF8C2F869586958370C6
:1041500069F0813009F02ECF8D2F9C2F9370C11004
:1041600002C080E090E00E94A20724CF8D2F9C2FF8
:104170009370C11002C080E090E00E94CA071ACF7D
:104180008C2F837009F040C0C11014CF4D2F429581
:1041900046954770440F440F2D2F2F7030E0042EAA
:1041A00002C0220F331F0A94E2F790E080E0D4FFB0
:1041B00009C08FE090E002C0880F991F4A95E2F78E
:1041C00080959095C695C695C370C230A1F0C33056
:1041D00079F04091B9035091BA03C13039F0822B84
:1041E000932B842395230E94000EE4CE242B352BA1
:1041F000822B932BF8CF822B932B2091B9033091F4
:10420000BA0382279327EFCF8695CC2011F08C2F0D
:104210008170882309F4CECE4D2F42954695477084
:10422000440F440F2D2F2F7030E0042E02C0220FB8
:10423000331F0A94E2F790E080E0D4FF09C08FE0DA
:1042400090E002C0880F991F4A95E2F780959095FB
:10425000C695C695C370C230A1F0C33079F04091C5
:10426000E1035091E203C13039F0822B932B842378
:1042700095230E94990D9ECE242B352B822B932BB8
:10428000F8CF822B932B2091E1033091E203822718
:104290009327EFCFCF70CC2029F08C2F0E94F20D06
:1042A0008D2FFACE8D2F6AD98C2F0E94C80D82CE09
:1042B000D33F60F4D03FB9F0D13F81F0CC2009F476
:1042C00055C0F110ACCE8C2F8F7191CED33FF9F049
:1042D000D43FA1F79091650592FD27C08C2F8F7177
:1042E000CC2019F384CECC2069F0E4E0EF1508F47B
:1042F00061CECF7181E090E002C0880F991FCA950E
:10430000E2F7C1CFF5E0FF1508F454CEF2CF90E00C
:1043100080E0CC2009F4ADCFCF7181E090E002C005
:10432000880F991FCA95E2F7A4CFCC20A1F08C2F5B
:104330008F7192FF5CCE98E0899F900111242360D9
:1043400020931F030E94F20D0E949B1490931E0362
:1043500080931D032FCE81E00E94D80DE1E0EF1580
:1043600008F028CE82E00E94D80D24CEFF2059F01C
:10437000D93309F0E6CEFFEF27EE33E0F1502040CD
:104380003040E1F7DCCE8C2F8F718FCFDD2009F428
:1043900019CE80911F0380FD15CEF80115828695F8
:1043A000869586950E94F20DC801C1DA80911F039F
:1043B0008695869586950E94C80D04CEC931F2E394
:1043C000DF0709F45FC0C0342EE7D20791F0C63092
:1043D00038E2D30709F0FDCAF8019681907F09F40D
:1043E000F8CA882309F4F5CA70E060E086E098E036
:1043F00086DA80911F03877059F0F8018581882340
:1044000039F08091650582FF03C082E00E94D80DDB
:10441000CDB7DEB7E8E00C94982FC7372CE7D2076A
:1044200009F03DC081E00E94F20D43E062E081E0CE
:104430000E949E0DDECF8091BE04C6313CE7D307BB
:1044400009F054C08A7A91E009F490E09093FA025E
:104450008111A3CC89E20E946E070E940C17C9CF7C
:10446000C6318CE7D80709F04DC08091FA0281115E
:1044700096CC89E20E944107F0CFC93192E3D90777
:1044800009F091CAF8019681907F09F4A2CA8823A5
:1044900009F49FCA70E060E089E198E0A9CFC837CD
:1044A000ECE7DE0739F482E0BECFC837FCE7DF0770
:1044B00009F4D8CC9E01205E32452032310508F047
:1044C000D3CC9111E5CCCF7181E090E09C0102C08A
:1044D000220F331FCA95E2F7E901622F83E090E0D3
:1044E0000E940630CE010E94000E83CF8272FE0130
:1044F000E052F847EB30F10508F08FCFE75AFF4C58
:104500000C94B52F8091BE048272FE01E054F847EE
:10451000EF30F10508F09DCCEC59FF4C0C94B52F11
:10452000CF93DF9380911A03807F09F04CC0809174
:104530001903882309F447C0E091C905509180050B
:10454000C0911503D0911403609116037091170365
:1045500049E05E17C1F18E2F90E0E49FF001112435
:10456000EF57FA4F2481222389F1489FF001499F98
:10457000F00D1124DF01AF57BA4F11962C9111970E
:104580002C1324C02C912D1321C015962C91159716
:1045900021111CC012962D913C91261B370B243BF8
:1045A0003105A0F480911A038F70806180931A0303
:1045B000E957FA4F80818F708061808384E193E0B6
:1045C000B6D90E94E80CDF91CF910895FC01319695
:1045D000E770BFCFAFE0B0E0E0EFF2E20C94782FED
:1045E0008C0186E0F801DE011A9601900D928A9501
:1045F000E1F7F8018481E58094E1A92E93E0B92EDA
:1046000090911803911126C0882309F1EE20E9F05A
:10461000C8010E94050EF82E8823B9F089E0F80140
:10462000D50101900D928A95E1F7809118038130B0
:1046300031F480911403909115030E94240D70DFD2
:104640008F2D2F96ECE00C94942FC80170D9FF2485
:10465000F394F6CFD080C18082809380F0901903CC
:104660002091160330911703A401421B530BFF2026
:1046700009F4E3C0443B510508F0B1C0882301F3BD
:104680009091150380911A03282F207F09F05DC0B7
:10469000C9121CC090911403D91218C040911B0379
:1046A00050911C03278130854217530779F4E1109C
:1046B00046C08F70806180931A0384E193E037D9FC
:1046C00080911A03F8018683F12CBACFE11037C02C
:1046D0006C2D8D2D0E9485056C2D8D2D0E948505DC
:1046E000E82E8111F1CFDA86CB868A859B850E94E0
:1046F000240D292F22952F70903458F49F7022306A
:1047000080F0992391F0F8019681907F71F4FE2C4E
:1047100097CF2A5F2F70223060F0C80108D9EF2CA4
:10472000F6CF992311F0882391F3805E883078F3D7
:10473000F4CF803F60F3815F833048F3EECF809108
:104740001A03816080931A03BFCFC9121BC09091D6
:104750001403D91217C040911B0350911C032781E9
:1047600030854217530771F4E1100CC08683C801ED
:10477000DED889E0F801A4E1B3E001900D928A95BA
:10478000E1F75ECFC8010E94050E882309F45DCFD2
:10479000EE2009F45ACF80911A038032B0F02091B4
:1047A0001403309115033A8329839C828B82909164
:1047B00018039D831E828F8380911B0390911C039D
:1047C00099878887CE010196B2D889E0F801A4E1E3
:1047D000B3E001900D928A95E1F7A2DE38CF909177
:1047E0001A03292F207F49F484E193E0A0D889E0BF
:1047F000F50111928A95E9F767CF882309F420CF54
:10480000809115038C11BECF80911403D812BACFBA
:1048100040911B0350911C03278130854217530799
:1048200009F0B0CFE110AECF9683C80180D889E0FF
:10483000F50111928A95E9F703CF443B5105B8F78A
:10484000882309F404CFFE2CEE2009F4FECE8091DB
:1048500015038C110FC080911403D8120BC0209146
:104860001B0330911C03878190852817390711F4A9
:1048700089E081CFC8010E94050E8111A6CF8091E9
:104880001A03816080931A03C80151D8D9CEA2E1DE
:10489000B0E0EDE4F4E20C94802F0A871B872C87AC
:1048A0003D874E875F87688B798B8A8BCE010A960E
:1048B00091DE81110CC089E0FE013A96DE0111966D
:1048C00001900D928A95E1F74E8541110BC019E0D8
:1048D0008091C90590918005891332C06296E4E009
:1048E0000C949C2F2091800530E0C90101968770BF
:1048F00099275091C90558171906A1F04D8399E0E1
:10490000929FD001939FB00D1124AF57BA4FFE0173
:10491000319601900D929A95E1F7809380050E945F
:10492000E80CD5CF0E948117109280051092C9051E
:1049300089E0E4E1F3E0DF011D928A95E9F7C7CF52
:10494000819FC00111248F579A4F44DE882331F292
:104950008091C90590E00196877099278093C905D9
:10496000B7CFEF92FF920F931F93CF93DF93809176
:10497000E704882361F0E091E6048DE0F82E809151
:10498000E704E81748F01092E7041092E604CDB768
:10499000DEB7E6E00C949A2FEE24E394EE0EE0925C
:1049A000E604CE2FD0E0EF9DF0011124E851FB4F3B
:1049B00084818823E1F087819085892B21F481858A
:1049C0009285019651F400811181228133814481C5
:1049D00055816681778180855ADFFC9EF001FD9EBE
:1049E000F00D1124E851FB4F14821092E504EE2DD6
:1049F000C6CF10925B0510925A051092A7018091C4
:104A00005905809358050E943608ABCFA9E0B0E065
:104A1000ECE0F5E20C947E2F7B01DB0112968D9188
:104A20009C91892BC1F087E0FE013196DF011D9238
:104A30008A95E9F70E949B14282F8B839C83F701AA
:104A400082819381782F09811A813C8144E05E81C3
:104A50006F81892F1CDFD70115961C922996E6E0FD
:104A60000C949A2FB0E0A0E0E8E3F5E20C94722FEA
:104A7000C0915805E7E08E2EEE24E394F12CADE0D2
:104A80009A2EB4E02B2E809159058C1308C069DF53
:104A90000E943608CDB7DEB7E2E10C948E2FD0E04D
:104AA000FE01EE0FFF1FE05BFA4F00811181B0E0C5
:104AB000A0E00A30110538F4809ED001819EB00D2F
:104AC0001124AF59BE4F14968C911497811158C080
:104AD0003090E70428EE34E090E080E0412C83152C
:104AE00008F04BC0F901C384D4846D907C90119779
:104AF0004FEF5FEF512CA52CB12CF501EE0FFF1FEE
:104B0000E60DF71D65917491C616D70609F4A50147
:104B1000672B11F05394EFCF4F3F5407B1F1B7011A
:104B200002C0660F771F4A95E2F7462AA701052CB7
:104B300002C0440F551F0A94E2F741505109441630
:104B4000150609F512962D913C911397989EF00148
:104B5000999EF00D1124E851FB4F30872783248262
:104B6000108211821287018771E015967C93159748
:104B7000571203C0BD01C80149DFC8010E940508E2
:104B80002196C37080CFF90114820196235F3F4FB5
:104B9000A6CFAAE1B0E0EFECF5E20C94722F4B8BBC
:104BA0005C8B6D8B7E8B8F8B988F91111092E504AF
:104BB000188A198A1A8A86E0FE017396DE011A960F
:104BC00001900D928A95E1F78091650582FF1CC0E6
:104BD0000E949B1420911D0330911E03821B930B96
:104BE000883E934020F080911F0382FFDCC10E9429
:104BF0009B142091480330914903821B930B883EFC
:104C0000934010F00E94D50C8E858823C9F061E096
:104C1000CE010A960E94550E61E0CE010A960E94CE
:104C2000550E61E0CE010A960E94550E80354CE784
:104C3000940789F48F85882311F181E08093A7017F
:104C40000A851B852C853D854E855F856889798918
:104C50008A891DDED3C081356CE7960729F48F85DC
:104C6000882369F0C6DEECCF82359C4741F48F85FE
:104C7000882329F08091A7018111F4CFDECF6A85C6
:104C80007B8580E00E94A60B1C0101E611E0E12C6F
:104C9000D12CC12C88248394912CF80160817181DE
:104CA000AA24AA94BA2C20E0422F50E0FA01EE0F79
:104CB000FF1FE60FF71F859194912816390609F416
:104CC0005A01892B11F02F5FEFCF80E0FFEFAF1675
:104CD000BF0609F455C0F8014481F090A7018F2D5B
:104CE000411180E0F82FF170FF2E3F85F80195818A
:104CF0008681332309F406C1FF2009F403C178E259
:104D0000672E712CF8E0CF16D10419F46EE1662EEF
:104D1000712C911114C0A4010A2C01C0440F0A94F3
:104D2000EAF7842BF80186838091E3049091E404F0
:104D30008615970520F47092E4046092E304C401A0
:104D400002C0880F991F2A95E2F70197F801268182
:104D50002817190609F0C9C0A0905A05B0905B0544
:104D6000A114B10409F44EC00E949B148A199B0936
:104D70006816790608F046C021E0F801248381E036
:104D8000E82AFFEFCF1ADF0A095F1F4F2AE0C21699
:104D9000D10409F082CF8F85882309F4F0C0EE207A
:104DA00009F4EDC00E949B1490935B0580935A0513
:104DB0008091E704883010F591E0980F9093E70414
:104DC00099E0FE013A96DE01119601900D929A95B6
:104DD000E1F73DE0839FC001112488519B4F29E0FA
:104DE000FE013196DC0101900D922A95E1F72FEF3B
:104DF0003FEFFC0132872187348623866A96E2E101
:104E00000C948E2F60915805B0905905762FF0E0E4
:104E1000E0E06B1115C070935805E017F10709F435
:104E200064C070E0FB01EE0FFF1FE05BFA4FD18220
:104E3000C0826F5F7F4F637077276093590555C0BD
:104E4000862F90E0FC01EE0FFF1FE05BFA4F208100
:104E50003181B0E0A0E02A30310540F447E0429FC4
:104E6000D001439FB00D1124AF59BE4F2D913C91FD
:104E700011973A8F298F612CA12C712CE72DF0E02E
:104E8000EE0FFF1F298D3A8DE20FF31F259134910C
:104E900021153105B9F0F80140805180A12C05C0E1
:104EA0002417350709F46F2CA394EA2DF0E0EE0FD8
:104EB000FF1FE40DF51D459154914115510581F7F2
:104EC0007394DCCF662029F0A71430F0FD01109711
:104ED00021F4F0E0E0E012C0F80121E024830E1795
:104EE0001F0729F470935805F62C8F2D49CF6713AF
:104EF00005C0AE17BF0711F47F5F73700196682F6E
:104F0000637087CF792E90E071101FC0B40102C08A
:104F1000660F771F2A95E2F79B0121503109281768
:104F2000390729F4442349F1C6010E940508C40148
:104F30000A2C01C0880F0A94EAF7982F9095F8017F
:104F4000868189238683F72CD0CFAC010A2C02C03E
:104F5000559547950A94E2F79C0121503109822327
:104F60009323892B31F440FF04C0B801C6014EDD04
:104F7000DECF742F7170772EDACF7F2CD8CF90913F
:104F8000580580915905981731F06CDDF1E0EF1666
:104F900009F434CF55CEE5DC10925B0510925A052A
:104FA0000E943608F3CF82E00E94D80D20CEA6E002
:104FB000B0E0ECEDF7E2A4C70E949B148C01809155
:104FC0004B0390914C038017910779F019821A8254
:104FD0000E949B14682F49815A81792F80E090E0CC
:104FE000D8DD10934C0300934B032696E4E0A4C74E
:104FF0001F921FB61F9211248F939F93AF93BF935D
:1050000080916605811113C08091670590916805B4
:10501000A0916905B0916A054196A11DB11D8093CB
:10502000670590936805A0936905B0936A05BF91E1
:10503000AF919F918F911F901FBE1F901895CDB774
:10504000DEB72A970FB6F894DEBF0FBECDBF85B787
:10505000806885BF85B7806885BF84B7877F84BF38
:105060000FB6F894A89580916000886180936000E5
:10507000109260000FBE80E890E00FB6F894809325
:105080006100909361000FBE81E08093AB0187E6E1
:105090009AE09093D1028093D0020E94BA050E94B8
:1050A0005B068091E20084608093E20078948091B6
:1050B00076058823A1F01091E9001F709091EC0013
:1050C000892F817090FD80E8182B1092E900809163
:1050D000E80083FD0E94A1171F701093E90082E091
:1050E00084BD93E095BD9AEF97BD80936E001092BA
:1050F000AB031092AC031092AD031092AE038091FB
:10510000D80080618093D8002AE12A95F1F700C089
:105110008091D900182F117080FD04C00E94BA053B
:105120001092760510935C0510935D05111191C0E6
:1051300094E09093B80384E0891B8093B70384E9DB
:105140000E94690A86E60E94690A87E90E94690A44
:1051500086EC0E94690A0BEE11E0F1EFEF2EF1E010
:10516000FF2ED8018D918D018F3F11F00E94690AA9
:10517000E016F106B1F788E0EBEBF3E0DF01282F52
:105180001D922A95E9F7EFEAF3E0DF011D928A9577
:10519000E9F790E080E026D7833E9E4F79F163EEF9
:1051A0007EEF90E080E04CD760E082E090E02ED788
:1051B00081E090E09093BA038093B90361E083E0CB
:1051C00090E024D760E074E184E090E039D70E9459
:1051D000051140E050E0BA018FE090E029D740E0AF
:1051E00050E0BA0183E190E023D748E050E067E166
:1051F00070E08DEC95E0FBD61092D50582E090E052
:10520000E9D68093CB0384E090E0ECD690936505DB
:10521000809364050E94B014EFEFF6E721E0E150BF
:10522000F0402040E1F700C000000E94B0148091DF
:105230005D05E4E08111E0E0F0E0E554FC4F8081A1
:1052400081FF0FC06FEF7FEF90E080E0F9D60E9402
:105250001007E0D480915D05882309F469CF90E0C0
:1052600068CF83E090E0B6D690E00E94000E0E94E6
:10527000530881E08093D50548E050E067E170E095
:105280008DEC95E097D61092D5058091CD058C7F59
:1052900011F40E94051180915C058111E6C082E045
:1052A0008093070480E88093D60554D36BE070E0C8
:1052B0008BEB92E00E942C10882309F443C080916C
:1052C000070465E070E081FDD2C086EB92E00E94A9
:1052D0002C108823B9F16DE070E084EA92E00E941E
:1052E0002C10882379F10E9421076F8378878987A2
:1052F0009A87DC01CB01805D9A48AF4FBF4F809306
:10530000160490931704A0931804B0931904E9EDC0
:10531000F5E080E092E0DF019C011D9221503040D9
:10532000E1F7F093E007E093DF078FEF9FEF9093B3
:10533000D8058093D70581E080931B0480931A04DD
:105340001092080480915C05811101C066D488E444
:1053500091E09093610580936005CC24C394D12C97
:105360008091760510E402E1853009F4E9C00E94DD
:10537000B0146CECA62E63E0B62E7BEB872E73E0A8
:10538000972E24ED33E0D401F50191918D912E17E4
:105390003F0709F4E1C09817C1F320905C0553EC76
:1053A000E52E53E0F52E712CD4016D904D01F501E1
:1053B00041905F01461409F444C0462410E000E027
:1053C00055245394852D842199F1352C36202220A3
:1053D00009F1D7018C9190E09601002E02C0220FB6
:1053E000331F0A94E2F782239323892B99F40983CC
:1053F0007A820E949B149C838B83B1E0BD8391E0F1
:10540000311001C090E09E8349815A816B817C817B
:105410008D81BFDB31100CC0C601002E01C0880F8A
:105420000A94EAF7982F9095F70180818923808369
:10543000550C0F5F1F4F0630110521F6F50131970E
:1054400060827394FFEFEF1AFF0A28E07212ACCF6C
:105450000E94820A6093D4037093D5038093D6038D
:105460009093D703FF24F3947BC080E019CF81EBA6
:1054700092E02DCF80917605843009F433C00E94EC
:10548000861080910C04811105C00E94330980E0D0
:105490000E94050931E030930C040E9439101092EB
:1054A000660548E150E00FB6F894A8954093600077
:1054B0000FBE1093600083B7817F846083BF83B782
:1054C000816083BF7894889583B78E7F83BF0FB642
:1054D000F894A89580916000886180936000109294
:1054E00060000FBE0E94B014EBEBF3E0A3ECB3E05E
:1054F00080E021912D9391E0211101C090E0892B52
:1055000053E0E33CF507A9F78823D1F080917505B6
:105510008823B1F080E189BD09BD09B400FEFDCF4B
:105520008091D8008F7D8093D8008091E0008260C8
:105530008093E0008091E00081FDFCCF0E94811704
:1055400080917605853009F495CF0E9481170E94DD
:10555000F20710920C040BCF98131FCF28DDF12C0B
:1055600080915C05882309F43FC08091A7018823BE
:1055700011F100915A0510915B0501151105D9F043
:105580000E949B14801B910B2091E3043091E40452
:105590002817390780F4909158058091590598177C
:1055A00009F496C05FDA1092E4041092E3041092BA
:1055B0005B0510925A058091600182FF15C00E9420
:1055C0009B14BC018091DF049091E004AB01481B67
:1055D000590B4C3D510540F048ED53E08091E104FA
:1055E0009091E2040E94DD1B0E94861080911B04B2
:1055F000882309F45EC00091090410910A040E94F6
:105600009B14801B910BC29750F10E949B149093A6
:105610000A048093090489ED95E09093E007809354
:10562000DF0780915C05882309F464C082EF92E073
:105630000E94310F8BEE92E00E94310F8091E103C6
:105640009091E2030E94310E823009F44DC008F0BF
:1056500043C0811146C083EE92E00E946F0F80919B
:10566000D7059091D805892B09F049C080911A047B
:105670008823F9F00E9421076F83788789879A87AA
:105680008091160490911704A0911804B091190408
:105690002F81388549855A85281B390B4A0B5B0BAE
:1056A000DA01C9018F3F9F4FAF4FBF4710F40E94EF
:1056B0003910F1100E9453100E94F20790910B04D0
:1056C000891709F44DCE80930B040E94210748CE20
:1056D00048D90E9436086BCF833049F086EC92E0BF
:1056E000BCCF8CED92E0B9CF85ED92E0B6CF8EECD9
:1056F00092E0B3CF8EEF92E00E94310FB0CF809155
:105700001B04882309F4B2CF809108048111AECF25
:105710000E9453102091D7053091D80521153105ED
:1057200009F4A4CF80E0082F10E02601082E02C063
:10573000440C551C0A94E2F7A20142235323452B43
:1057400011F48F5FF0CF9091070490FF96C0880FFF
:10575000880F880F8093550110925801895F8093BC
:10576000560183E08093590124E630E047E050E0A1
:1057700063E571E088E724D1892B09F077CFA80190
:1057800095E0440F551F9A95E1F78091070480FF3B
:1057900086C0E7EEF3E080E2DF011D928A95E9F72B
:1057A000E5EFF1E0F887EF8361EF71E087E0982E95
:1057B000AF81B8852D91B887AF83FB012190BF01E0
:1057C000240E352E311CC10187529A4F1C01E22F45
:1057D000F0E0E951FC4F90E080E0792C781AAC2C95
:1057E000082E01C0AA0C0A94EAF78101B12CD80155
:1057F000ED908D01EA20272D2B192770822E022E85
:10580000000C330BBE2D01C0BB0F8A94EAF78B2E20
:105810003195219531092770332701C0E6942A95E7
:10582000EAF78E28E0808E288082B39428E0B212B6
:10583000DECF019631968830910579F68F81988573
:10584000895F914009F0B4CF04E610E020E230E037
:1058500047EE53E060E488E73BD1892B09F006CF9F
:10586000409450948091D7059091D80548225922B0
:105870005092D8054092D705F9CE8295880F807650
:105880008093550198013695279536952795209355
:105890005801815E809356012093590165CF47528C
:1058A0005A4F04E610E020E230E0D4CFFF920F938D
:1058B0001F93CF93DF93182FEB011092BC0084EA63
:1058C0008093BC000E949B14082FF92E8091BC008D
:1058D00087FF28C08091B900887F883029F08091A7
:1058E000B900887F803199F51093BB0084E88093DC
:1058F000BC000E949B14182F092F8091BC0087FFC9
:105900001EC02091B900287F90E080E0283199F0F6
:1059100081E090E0203411F490E080E09195819551
:10592000910909C0802F9F2D0E94A714C817D9077D
:1059300068F68EEF9FEFCDB7DEB7E5E0FCC2812FB2
:10594000902F0E94A714C817D907B8F6F2CF8FEF8F
:105950009FEFF1CF1092B9008CE08093B8000895CA
:105960000F931F93CF93DF93EB018093BB0084E8E9
:105970008093BC000E949B14182F092F8091BC00BB
:1059800087FF11C02091B900287F81E090E0283284
:1059900011F490E080E0919581959109DF91CF918C
:1059A0001F910F910895CF3FDC0741F3812F902F76
:1059B0000E94A714C817D90708F78EEF9FEFEECF04
:1059C000B0E0A0E0E5EEFCE292C2782E5B016A0155
:1059D00089010E949B147C0188248394912C0431BA
:1059E000110558F085E0882E912C0F3F100729F003
:1059F000C80164E170E062D24B01B401872D56DF2B
:105A0000EC0197FF09C00F3F1007B9F3C7010E94CF
:105A1000A7140817190788F77501CA0CDB1CEC14CA
:105A2000FD0411F0D7FF08C084E98093BC00CE01CB
:105A3000CDB7DEB7EDE077C2B801F70181917F0104
:105A40008FDFEC01ECCFB0E0A0E0E8E2FDE24FC276
:105A5000782E5B016A0189010E949B147C018824D5
:105A60008394912C0431110558F085E0882E912CF7
:105A70000F3F100729F0C80164E170E01FD24B010D
:105A8000B401872D13DFEC0197FF09C00F3F10070A
:105A9000B9F3C7010E94A7140817190788F7750101
:105AA000CA0CDB1CEC14FD0411F0D7FF08C084E91C
:105AB0008093BC00CE01CDB7DEB7EDE034C2F70174
:105AC0008491B8014DDFEC01FFEFEF1AFF0AEACF36
:105AD000B0E0A0E0EDE6FDE209C2682E962E5A0184
