:100000005EC5000079C5000077C500000C9415316D
:1000100073C5000071C500006FC500006DC500000C
:100020006BC5000069C500000C94B6140C94831BCA
:100030000C943E2961C500005FC500005DC500004D
:100040005BC5000059C5000057C5000055C500003C
:1000500053C500000C949E154FC500004DC500000F
:100060004BC5000049C5000047C5000045C500005C
:1000700043C5000041C500003FC500003DC500006C
:100080003BC5000039C5000037C5000035C500007C
:1000900033C5000031C500002FC500002DC500008C
:1000A0002BC5000029C5000027C50000040015006D
:1000B00000001A00090000000C00120000001600E9
:1000C00017000000110008000000090013000000E4
:1000D0000F00180000000B003600000008000C00A4
:1000E00000001500160000002020202061626364DB
:1000F00065666768696A6B6C6D6E6F707172737438
:1001000075767778797A3132333435363738393015
:10011000524542545F2D3D5B5D5C233B27602C2E96
:100120002F2020202B0014001A00090013000500C6
:10013000A15204001500160017000A00A2521D006B
:100140001B00060007001900000000000000777C7B
:1001500006282C00310033001C0018000F000D0091
:10016000340012000C000800110010001932380091
:10017000370036000B000E00000000000000787C05
:100180002A00280029003A003B003C003D003E00C8
:10019000A1521E001F00200021002200A2520100D7
:1001A00001000100A4520100000000000000010055
:1001B000E3002C00350243004200410040003F00B4
:1001C00035002700260025002400230019323002C4
:1001D0002F0231022E022D0200000000000001005B
:1001E0004C00280029001E021F02200221022202C8
:1001F000A15201000100AE00AC00AB00A252010010
:100200000100A800AA00A9000000000000000100F1
:10021000E3002C00010027022602550024022302DD
:1002200035004F00510052005000010019323000DB
:100230002F0001002E002D00000000000000010032
:100240002A002800290044004500010001000100A7
:10025000A1524278437845784B784978A252407E43
:10026000447846784C784A7800000000000001008D
:10027000E3002C000100010001004D004A00210AAA
:100280000100010001005101520150010100010073
:1002900001004B004E004F01000000000000010073
:1002A0002A00280000DA0281FFD9F1DB20A4A62E63
:1002B000AF00A0C0D30000A1C8D30000AED580A875
:1002C0001F408D14200057504D3A2000436F646545
:1002D0003A20002020202020202020202000200064
:1002E00078004B65793A2000554E4B4E4F574E00E3
:1002F00041444A555354200053594D424F4C20001D
:100300004E554D4245522000434F4C454D414B0008
:100310004C617965723A200080818283848586876A
:1003200088898A8B8C8D8E8F9091929394A0A1A2B4
:10033000A3A4A5A6A7A8A9AAABACADAEAFB0B1B215
:10034000B3B4C0C1C2C3C4C5C6C7C8C9CACBCCCD6B
:10035000CECFD0D1D2D3D4000001010101010101DF
:10036000010102020202020202020203030303036A
:100370000303030404040404040405050505050639
:1003800006060606070707070708080808090909F7
:10039000090A0A0A0B0B0B0C0C0C0D0D0D0E0E0EA0
:1003A0000F0F0F1010111111121213131414151531
:1003B00016161717181819191A1A1B1B1C1D1D1EA3
:1003C0001E1F2020212222232424252626272829F7
:1003D000292A2B2C2D2D2E2F303132323334353625
:1003E0003738393A3B3C3D3E3F4041424344454625
:1003F0004748494A4C4D4E4F505153545556585901
:100400005A5B5D5E5F616264656668696B6C6D6FA7
:100410007072737577787A7B7D7E8082838587881A
:100420008A8C8E8F91939596989A9C9EA0A2A3A554
:10043000A7A9ABADAFB1B3B5B7BABCBEC0C2C4C655
:10044000C9CBCDCFD1D4D6D8DBDDDFE2E4E7E9EB11
:10045000EEF0F3F5F8FAFDFF00AF00AE05010980FC
:10046000A101850319012AB700150126B7009501DE
:1004700075108100C0050C0901A101850419012A2C
:10048000A002150126A002950175108100C005018A
:100490000906A1018506050719E029E715002501D0
:1004A0009508750181020507190029EF150025013E
:1004B00095F0750181020508190129059505750159
:1004C0009102950175039101C005010906A101057D
:1004D0000719E029E71500250195087501810295A6
:1004E00001750881010507190029FF150026FF0085
:1004F00095067508810005081901290515002501D3
:10050000950575019102950175039101C009023BA2
:1005100000020100A0FA0904000001030101000922
:10052000211101000122440007058103080001098F
:100530000401000103000000092111010001226DE6
:1005400000070582032000011201000200000008DC
:10055000534601000100010200010C0343006F003B
:1005600072006E0065000000100366006F006F00EF
:100570007300740061006E000000040309040000B1
:10058000000000003E5B4F5B3E003E6B4F6B3E0049
:100590001C3E7C3E1C00183C7E3C18001C577D57BE
:1005A0001C001C5E7F5E1C0000183C180000FFE76A
:1005B000C3E7FF00001824180000FFE7DBE7FF0097
:1005C00030483A060E00262979292600407F050585
:1005D0000700407F05253F005A3CE73C5A007F3E1C
:1005E0001C1C0800081C1C3E7F0014227F221400E3
:1005F0005F5F005F5F0006097F017F0000668995ED
:100600006A0060606060600094A2FFA29400080429
:100610007E04080010207E20100008082A1C080014
:10062000081C2A0808001E10101010000C1E0C1EBA
:100630000C0030383E383000060E3E0E060000003A
:100640000000000000005F0000000007000700003D
:10065000147F147F1400242A7F2A120023130864B5
:100660006200364956205000000807030000001CB5
:10067000224100000041221C00002A1C7F1C2A008D
:1006800008083E08080000807030000008080808CC
:1006900008000000606000002010080402003E51C5
:1006A00049453E0000427F400000724949494600EA
:1006B0002141494D33001814127F1000274545454C
:1006C00039003C4A494931004121110907003649A6
:1006D00049493600464949291E000000140000001F
:1006E00000403400000000081422410014141414C7
:1006F00014000041221408000201590906003E417D
:100700005D594E007C1211127C007F494949360028
:100710003E41414122007F4141413E007F494949DC
:1007200041007F09090901003E41415173007F08E2
:1007300008087F0000417F4100002040413F010048
:100740007F08142241007F40404040007F021C028D
:100750007F007F0408107F003E4141413E007F0939
:10076000090906003E4151215E007F091929460012
:1007700026494949320003017F0103003F404040C0
:100780003F001F2040201F003F4038403F006314BF
:10079000081463000304780403006159494D4300C1
:1007A000007F414141000204081020000041414106
:1007B0007F0004020102040040404040400000036A
:1007C000070800002054547840007F284444380033
:1007D000384444442800384444287F003854545452
:1007E000180000087E0902001824241C78007F08E5
:1007F0000404780000447D4000002040403D00009B
:100800007F102844000000417F4000007C047804F1
:1008100078007C08040478003844444438007C188C
:1008200024241800182424187C007C0804040800E0
:1008300048545454240004043F4424003C404020C5
:100840007C001C2040201C003C4030403C004428E0
:10085000102844004C9090907C004464544C440018
:100860000008364100000000770000000041360813
:1008700000000201020402003C2623263C00000086
:100880000000000000000000000000000000C0E0C8
:10089000F0F8F81800C0F0FCFEFFFFFFFFFFFFFFBD
:1008A0007E00000000000000000080C0E0E0E0E00A
:1008B000E0E0E0E0C0800000000080C0E0E0E0E0B8
:1008C000E0E0E0E0C080000000E0E0C0C0E0E0E088
:1008D000E00000E0E0C0C0E0E0E0E0E0C080000058
:1008E000000080C0E0E0E0E0E0E0E0E0C080000088
:1008F000000000000000000000000000E0F0F0F048
:10090000E0ECEEF7F37020007C7C7C7E007E7E7E47
:100910007F7F7F000080C0E07E5B4F5BFEC00000F9
:10092000C000DCD7DEDEDED7DC00C0000000000047
:1009300000000000000000000000000000000000B7
:1009400000000000000000F8FCFEFFE000FFFFFFD9
:10095000FFFFFF80FFFFFFFFFFFFFFFFFF1F0701FC
:10096000000000000000000000FFFFFF8100000009
:1009700000000081C3C3C30000FFFFFF810000002F
:1009800000000081FFFFFF0000FFFFFF01000000EB
:10099000000000FFFFFF010000000001FFFFFF005B
:1009A00000FFFFFF9D1C1C1C1C1C1C9DDFDFDF00CB
:1009B0000000000000000000000000000F1F3F7F4B
:1009C0007F7F7F7F3F1E0C001F1F1F3F003F3F3F69
:1009D0007F7F7F00307B7F7830202030787F3B0026
:1009E00003000F7F0F0F0F7F0F00030000000000B8
:1009F00000000000000000000000000000000000F7
:100A000000000000000000030F1F3F3F3F3F1F1F7B
:100A10003F3F7F7F7F3F3F1F3F7F7F7F7F7C787897
:100A2000381C0F0000000000000001030707070743
:100A30000707070703010000000001030707070776
:100A40000707070703010000000707070000000071
:100A5000000000070707000000000000070707006C
:100A60000000010307070707070707070301000046
:100A70000000000000000000000000000000000076
:100A80000000000000000000000000000000000066
:100A90000000000000000000000000000000000056
:100AA0000000000000000000000000000000000046
:100AB0000000000000000000000000000000112401
:100AC0001FBECFEFDAE0DEBFCDBF12E0A0E0B1E0A5
:100AD000E6E5F7E602C005900D92AC3DB107D9F707
:100AE00028E0ACEDB2E001C01D92A733B207E1F7F8
:100AF0000E9465290C945C3383CAA6E0B0E0E3E869
:100B0000F5E00C9444329C018091AE019091AF01CC
:100B10008217930729F480912B06803209F447C08D
:100B20003093AF012093AE0180E280932B06C90180
:100B3000B0E0A0E089839A83AB83BC8310922A063D
:100B40000AE216E01E821D828AE0C82ED12CE12C1A
:100B5000F12C69817A818B819C81A70196010E9489
:100B60009032605D603321F4AD81BE81AB2B49F0E2
:100B700089819A81AB81BC81892B8A2B8B2B09F4CB
:100B800060E2D8016E938D0169817A818B819C81AD
:100B9000A70196010E94903229833A834B835C839C
:100BA000ED81FE813196FE83ED83359791F685E2E6
:100BB00096E02696E8E00C946032809124068160ED
:100BC00080932406089590911C06937051F08093B1
:100BD0001D0660931E06493708F048E740931F063C
:100BE000ECCF089590911C06937041F0811107C0DD
:100BF000946090931C061092AD01DFCF089584306D
:100C000010F09C60F6CF880F880F982BF2CF982FAA
:100C1000E09118064091CF0559E0E41302C080E04E
:100C200008952E2F30E05E9FF0011124E053FA4F1B
:100C30008181681306C08081981303C0858181116A
:100C4000EFCFF9013196E770E8CFFC01AC014C5FC2
:100C50005F4F8FEF91E32191822728E030E087FFFB
:100C600009C0880F892721503109C9F7E417F50712
:100C700091F70895880FF7CFE8EDF0E080818E7F3F
:100C800080831092E2001092DA001092E100A0EE50
:100C9000B0E08C9181608C9380818F77808319BCC8
:100CA000A7EDB0E08C918E7F8C9380818F7E8083C6
:100CB0001092B40508952091E4003091E50095E686
:100CC000A9012091EC00822F817020FF06C0809145
:100CD000E80080FF06C080E008952091E80022FD32
:100CE0001AC08091BF05882389F0853089F08091F2
:100CF000EB0085FD0FC02091E4003091E500421724
:100D00005307F9F29150E1F684E0089582E00895E6
:100D100083E0089581E008958091C10587FF13C0A5
:100D20008091E80082FF06C08091E8008B77809375
:100D3000E80004C08091BF058111F2CF0895809131
:100D4000BF058823D9F38091E80080FFF8CF809118
:100D5000E8008E77ECCF982F9093E900242F762F20
:100D600050E0891731F07091EC002091ED00509126
:100D7000F00021FD07C09F5F973071F78093E90075
:100D800081E008953091EB003E7F3093EB0030918D
:100D9000ED003D7F3093ED003091EB0031603093FA
:100DA000EB007093EC002093ED005093F000209145
:100DB000EE0027FDE0CF80E00895B0E0A0E0E3EE94
:100DC000F6E00C944432C8EDD0E088818F7E8883B1
:100DD000E7EDF0E080818160808384E082BF81E084
:100DE0008093B40588818E7F888302EE10E0F8013D
:100DF00010821092DA0081EEC82ED12CF6011082FA
:100E000088818F77888388818068888388818F7DB7
:100E1000888319BC1092BF051092C0051092BE05C0
:100E20001092BD0590EEE92EF12CF70180818B7FA9
:100E3000808388818160888342E060E080E08BDF8E
:100E4000F60180818E7F8083F801808181608083BC
:100E5000808188608083F70180818E7F8083888194
:100E600080618883CDB7DEB7E8E00C946032FC0186
:100E7000CB012091C7053091C8052617370790F0A0
:100E8000009729F42091E8002E772093E80040E0B5
:100E9000009751F4411108C08091E80082FF31C0F1
:100EA00080E00895C901F3CF2091BF052223A9F165
:100EB0002530A9F12091E80023FD2DC02091E80004
:100EC00022FDEACF2091E80020FFE2CF3091F3002D
:100ED0002091F200009719F02830310558F041E0D8
:100EE0002830310509F040E02091E8002E7720936A
:100EF000E800CECF41914093F10001972F5F3F4F23
:100F0000E9CF8091BF05882341F0853041F0809181
:100F1000E80083FFC1CF81E0089582E0089583E077
:100F20000895089587E797E7909301088093000854
:100F300088E19AE00FB6F894A895809360000FBE00
:100F400090936000FFCFA4E0B0E0E9EAF7E00C94F2
:100F50004A328FB7F8942091B0053091B105409195
:100F6000B2055091B30529833A834B835C838FBFCD
:100F700069817A818B819C812496E2E00C946632AF
:100F80008091A70108959091A8019130E1F490918A
:100F9000AD0597FF18C0E82FE695E695E695803FEA
:100FA000F0F4F0E0EA51FD4F877021E030E0A90154
:100FB00002C0440F551F8A95E2F7CA0180959281BD
:100FC000892382830895E0EEF2E09191891303C0B2
:100FD000DF0111971C9252E0E63EF507B1F7089544
:100FE0009091A8019130C1F49091AD0597FF14C084
:100FF000E82FE695E695E695803FF8F4F0E0EA51B3
:10100000FD4F877021E030E001C0220F8A95EAF79A
:101010008281822B82830895A0EEB2E0EFEF90E010
:101020002D91821751F0EF3F19F4211101C0E92FE2
:101030009F5F9630A9F7EF3F09F408950E2E000C3C
:10104000FF0BE252FD4FE6CFA3E0B0E0EAE2F8E0AA
:101050000C944A329C018091AB059091AC058217AB
:101060009307B1F03093AC052093AB05E091A9054F
:10107000F091AA05309761F00084F185E02D30975A
:1010800039F084E089833B832A83CE010196099558
:101090002396E2E00C946632A3E0B0E0E2E5F8E0EB
:1010A0000C944A329C018091A7059091A805821763
:1010B0009307B1F03093A8052093A705E091A90507
:1010C000F091AA05309761F00084F185E02D30970A
:1010D00039F083E089833B832A83CE010196099509
:1010E0002396E2E00C9466328091C905882369F06A
:1010F000E091A905F091AA05309739F00190F081AF
:10110000E02D309711F00995089580E008959C0135
:101110005091A3056091A405452F641301C0089563
:10112000842F90E0FC01EE0FFF1FE556FA4F01906F
:10113000F081E02DE217F307B9F4F0E0E0E02A30A7
:10114000310540F467E0629FF001639FF00D1124C8
:10115000E15AFE4F21E024834513E1CF01968370CD
:1011600099278093A30508950196482F4370D5CF02
:1011700010922F0510922E05EFE5F1E085EA91E03F
:101180002581211102C01482168237968E179F077F
:10119000B9F70895FC01EE0FFF1FE80FF91FE95999
:1011A000FB4F6183408322830895539A0895E09111
:1011B0002106EF3F89F0E53069F0E23019F0E111E6
:1011C0000DC0E3E0E150F0E0EB5FFD4F80818093E4
:1011D0002106F3CCE1E0F6CFE3E0F5CFE0E0F3CF9A
:1011E000E0912106EF3F61F0E53061F0E23061F41B
:1011F000EF5FF0E0EB5FFD4F808180932106DDCC57
:10120000E0E0F6CFE1E0F4CFE0E0F3CFECE1F6E0B0
:1012100024813AE0231B08F420E02483CECCECE1C7
:10122000F6E024813AE0230F08F42FEF2483C5CCA5
:10123000ECE1F6E0438128E0421B08F440E08181C4
:10124000628190E0C0CCECE1F6E0438128E0420FFF
:1012500008F44FEF8181628190E0B5CCECE1F6E0DB
:10126000628128E0621B08F460E08181438190E0A4
:10127000AACCECE1F6E0628128E0620F08F46FEF9F
:101280008181438190E09FCCECE1F6E08181438154
:1012900062818850990B97CCECE1F6E0818190E077
:1012A0004381628108968FCC90911C069695969505
:1012B0008FEF890F913009F483E094CC80911C0664
:1012C000869586958F5F843008F081E08BCCECE1C9
:1012D000F6E0808191E0892780831092AD016DCC8A
:1012E0009BE0899F802D1124980F973308F096E397
:1012F0002091CA05222321F09C3128F09BE108951A
:101300008B3108F48BE1089580935D0180911C0678
:10131000837080935C0166D783E08093AD0108956C
:10132000622F08953091CA05332321F08B31910546
:101330002CF008958B31910514F04B972BCF089525
:10134000FF920F931F93CF93DF93182F062FF42E46
:10135000D0E0C0E02F2D402F612FCE01E3DF21969A
:10136000C633D105B9F7CDB7DEB7E5E00C946332EB
:10137000482F2695E22F26FDE0953E2F3F7026FD53
:101380003F5FE695E695E695E670F0E0E350FE4FA8
:101390009181939F902D312D112492959F703295BC
:1013A000307F932B8081980F27FD919597FD919524
:1013B000990F292F249F020E20E0211D1124822F36
:1013C0000895B0E0A0E0E7EEF9E00C944232262F59
:1013D000D72EE82FF0E0E85AFC4F71110AC0E491D3
:1013E0008E2F9E2F6E2F792FCDB7DEB7EAE00C94AB
:1013F0005E32072F10E0E4914E2F56E0659F70019A
:101400001124CFEFD0E0C701BE010E942632822F07
:1014100090E0880F991F55E5569F9001579F300D1A
:101420001124821B930B582F550F580FCE01801B90
:10143000910BE89F9001E99F300D1124932FD59EC9
:10144000D0011124AB2FBB276E01CA1ADB0AEC9D19
:10145000D001ED9DB00D11248B2F5E01A51AB108AE
:10146000A09E6001A19ED00CB09ED00C1124CD2C6A
:10147000DD24CC19DD09EC9F8001ED9F100D1124B6
:1014800063307105D1F05CEFE51653E0F50670F4BA
:1014900061307105B1F062307105B9F04FEFE416BB
:1014A000F10408F09FCF832F912F9CCF64307105FA
:1014B00079F066307105B9F395CFE32F9B2F842F18
:1014C00091CFEB2F832F942F8DCF812FE32FFBCF45
:1014D0008E2FE12F87CFEF92FF920F931F93CF9321
:1014E000DF937C018091AA01FBDE192F3091200649
:1014F0003695369521E0320F08F43FEF6091CB0529
:101500007091CC0550E040E0639F060E411D739F33
:10151000400D511D1124470F511D042FC82FD0E03D
:10152000C11748F08091CA058823F1F081E01B3192
:10153000F0F080E01CC0FE01EB55FD4F80819091E2
:10154000AB01892379F060911D0670911E06809190
:101550001F06202F4C2FF701099533DF472F282F27
:10156000CE01E0DE2196DCCF81E0163310F7CDB757
:10157000DEB7E6E00C946232B0E0A0E0E2ECFAE024
:101580000C944532C82F80915D018C1329C0909135
:101590001C06937020915C0130E081E092171306E5
:1015A00009F480E081708093AC01809121069091D4
:1015B000AB01981731F08093AB0140E060E080E030
:1015C000BFDEC23009F455C068F4C11113C0809168
:1015D000AC01882341F140E060E080E0B1DE08C06A
:1015E00081E0E0CFC33009F448C0CF3F09F448C0E0
:1015F00080E019C08091AA0173DE082FD92F609175
:101600001D0670911E0680911F06DBDEF62EE72E6A
:10161000D82E10E00D17C8F08091CA05882329F153
:1016200081E0DB3128F79091AA019F5F9093AA0196
:1016300081114FC082E08093AD018091AC01811196
:1016400048C0C11146C083E042C0F801EB55FD4FD0
:1016500080819091AB01892329F02D2D4E2D6F2D86
:10166000C80160DE0F5F1F4FD5CF81E0D633D8F2BF
:10167000BFCF88EB99E02FDFD6CF80E999E0FBCF91
:101680008091CB059091CC05A091CD05B091CE0570
:101690002AE0B695A795979587952A95D1F78370F7
:1016A0009927AA27BB2782309105A105B105B1F082
:1016B00083309105A105B105A1F040E060E00197FC
:1016C000A105B10581F464E180E03ADE82E0809317
:1016D000AD01CDB7DEB7E7E00C94613244E160E0E4
:1016E000F3CF44E164E184E1F0CF80E00895F89421
:1016F000E82FE295EF70F0E041A18F7021E030E03B
:10170000B90102C0660F771F8A95E2F7CB01962FC9
:101710009095942391A392A1892B82A37894089504
:10172000A4E0B0E0E6E9FBE00C944A328091C90500
:10173000882369F008DC69837A838B839C836981C1
:101740007A818B819C812496E2E00C946632FBDBEB
:1017500069837A838B839C838091B7039091B803CC
:10176000A091B903B091BA0329813A814B815C8180
:10177000280F391F4A1F5B1F29833A834B835C83E1
:10178000DECF9091AD0592FF10C041E0282F24716B
:10179000243009F040E031E0282F2871283009F08A
:1017A00030E0431711F02CE0822793FF10C041E096
:1017B000282F2471243109F040E031E0282F2871CE
:1017C000283109F030E0431711F02CE082273091E6
:1017D000AE0530FF10C051E0282F2171213009F0F3
:1017E00050E041E0282F2871283009F040E05417DC
:1017F00011F029E0822731FF10C041E0282F21712C
:10180000213109F040E031E0282F2871283109F01A
:1018100030E0431711F029E0822794FF02C083FDD6
:10182000877E0895803E9105C1F1C8F4813391050A
:1018300009F47DC048F48932910509F46DC08A32FB
:10184000910509F47BC0089589339105D1F0823860
:101850009105B9F08533910509F459C00895843E86
:101860009105C1F138F4823E910521F1833E910545
:1018700031F10895863E9105C1F1873E9105E1F170
:1018800008952091AD05237009F065C02091AE0543
:1018900023FF14C089E290E008952091AD0520FD5A
:1018A00043C03091AE0530FF09C024FF4EC090E028
:1018B00080E008952091AD0522FDF7CF0895209195
:1018C000AD0522FD45C03091AE0530FD44C024FF7A
:1018D000F5CFEDCF2091AE0521FFF0CF8091AD0582
:1018E00084FDE5CF87EE90E008952091AD0523FFBC
:1018F000E5CF24FDDCCFF6CF2091AD0523FD2EC032
:101900003091AE0531FFE3CF84EE90E00895209151
:10191000AD0525FFD3CFBECF2091AD0525FD21C05C
:101920002091AE0523FFCACF89E390E0C7CF209175
:10193000AD0526FFC3CF8AE290E008952091AD0562
:1019400026FFBCCF81E390E0089583EE90E00895F8
:1019500082EE90E0089580EE90E0089586EE90E0AB
:10196000089585E390E008957830B8F46630A8F4DF
:101970008430B0F4E62FF0E096E0799FE00DF11DA1
:10198000112490E3899FE00DF11D1124EE0FFF1F3C
:10199000EC5DFE4F85919491089580E090E008956C
:1019A00081E0FCCF1F93CF93DF933CDFEC018115E7
:1019B000924508F05CC0C11580E5D80708F0D9C091
:1019C000C03ED10538F5CD3CD10508F0ABC0C83AD2
:1019D000D10580F4C53AD10508F0A1C0C130D105C8
:1019E00009F440C0CE010497813A9105D8F1D0E0C6
:1019F000C0E038C0CE01885A91094B97C0F7C85A49
:101A0000D0E0CC0FDD1FCD54DE4F0990D881C02D22
:101A1000D46428C0C11590E4D907E0F4C11520E2D0
:101A2000D20708F0C0C0C83ED105E0F0CE019A95BB
:101A300081159F41E0F68D2FA4DE182FCE01992746
:101A4000F1DEC12FD0E0DC2FCC27CC27DF71C82BF3
:101A5000D92B08C0CE019927E5DECC27DF70C82B33
:101A6000D92BD06ACE01DF91CF911F910895C03854
:101A700082E5D807B8F5C03692E5D90708F05BC013
:101A8000C03422E5D207C8F4C03282E5D80708F096
:101A90004BC02C2F2695269590E2299F900111246A
:101AA0008C2F8370C1E0D0E002C0CC0FDD1F8A957F
:101AB000E2F7C22BD32BDD68D5CF2C2F26952695A8
:101AC000277080E2289F900111248C2F8370C1E041
:101AD000D0E002C0CC0FDD1F8A95E2F7C22BD32BDA
:101AE000DC68C0CFC03C92E5D90760F48C2F8F71C1
:101AF000C03AD245A8F5C82FD0E0DC2FCC27C46F60
:101B0000D06AB0CFCE01805C9245809708F06FCF4D
:101B1000DC2FCC27CC27DF71C06FD06AA3CFA4976E
:101B2000D064A0CFD0659ECFCF71D0E0DC2FCC2782
:101B3000C16FD06A97CF2C2F26952695277080E20B
:101B4000289F900111248C2F8370C1E0D0E002C047
:101B5000CC0FDD1F8A95E2F7C22BD32BDA6882CF38
:101B600010DEC82FD0E0DC2FCC27CC27DF71D0626D
:101B700079CF8C2F8F7105DE55E0D695C7955A9594
:101B8000E1F7CF70D0E0DC2FCC27282F30E084FFA6
:101B900006C044E0220F331F4A95E1F73327C22BDA
:101BA000D32BD0695FCF8D2F8F71EBDD182FCE0136
:101BB000992738DEC12FD0E0DC2FCC27CC27DF716E
:101BC000C82BD92BD4CF80915603882331F01092A3
:101BD000560310925503109254030895982F909530
:101BE000809109058923809309050895809118063D
:101BF0009091CF05981301C008958F5F8770FACF39
:101C0000B0E0A0E0E6E0FEE00C9443328C01E0900E
:101C10003004F09031048091C5039091C603E82A06
:101C2000F92ACFE0D0E0CC24C394D12CBC2EC6013D
:101C30000C2E02C0880F991F0A94E2F78E219F2173
:101C4000892B49F4219790F7B12C8B2DCDB7DEB7B6
:101C5000E9E00C945F32B8018C2F86DEA3DE019799
:101C600089F3F3CFCF93DF93D82FC92FC9DF6D2F1F
:101C70007C2F7ADE97DEDF91CF910895983078F54A
:101C8000863068F5E82FF0E086E0989FE00DF11DC2
:101C900011249E2F977083E0F695E7958A95E1F7DA
:101CA000EE0FFF1FEE0FFF1FE85FFC4F50E040E01C
:101CB00080E0219130E0092E02C0369527950A94E4
:101CC000E2F721703327042E01C0220F0A94EAF7AD
:101CD000822B4F5F5F4F4430510559F7089580E0E4
:101CE0000895983098F5863088F5E82FF0E086E082
:101CF000989FE00DF11D11248E2F877041E001C0E7
:101D0000440F8A95EAF783E0F695E7958A95E1F71F
:101D1000EE0FFF1FEE0FFF1FE85FFC4F30E020E0EB
:101D200070E05191DF011197CB01022E02C0969510
:101D300087950A94E2F7817081958527842385270A
:101D40008C932F5F3F4F2430310559F708959093BE
:101D50003104809330040895E0913004F09131040F
:101D600021E030E0D90102C0AA0FBB1F8A95E2F73B
:101D7000CD01D90102C0AA0FBB1F6A95E2F7BD01D0
:101D80008A2B972B02C0220F331F4A95E2F7AF012F
:101D9000482359238417950721F42E2B3F2BC90183
:101DA000D6CF209530952E233F23F9CF21E030E088
:101DB00002C0220F331F8A95E2F72095309580915B
:101DC00030049091310482239323C1CF90912B034F
:101DD0008095892380932B03282F277081F48917FE
:101DE00071F09091AE0592FF0AC086958695869512
:101DF000DDDF10922B0310922A031092290308951D
:101E000021E030E002C0220F331F8A95E2F7809173
:101E1000300490913104822B932B99CF9093C60379
:101E20008093C5030895FC0184818823A9F08781EC
:101E30009085009799F0B6DD282F92959F70963087
:101E4000B1F080F4925F9F70923030F481E0203FD7
:101E5000A1F050F4283E50F080E008C080819181CC
:101E600001DFEACF9A5FEFCF243FB1F7089581E019
:101E7000283E20F0213F81F7F9CF089508959C0175
:101E8000892F99270097E9F09C0188E0A90174E067
:101E9000569547957A95E1F74115510511F08C5FFC
:101EA0009A01A901569547955695479541155105B3
:101EB00011F08E5F9A0136952795232B09F08F5FDD
:101EC000089580E0E3CFA6E0B0E0E9E6FFE00C94FF
:101ED00049329C01FC01878190850097C9F486E016
:101EE000DE01119601900D928A95E1F7F9012581A5
:101EF00089819A81222381F0662371F081DE182F77
:101F0000682F89819A81EDDE69817A81812F2CDDAC
:101F10002696E3E00C946532B1DE182FF5CF9C01D4
:101F20009A9581159F4150F5D901AA27B170F90101
:101F3000EE27F270B90166277470A9014427587022
:101F400034FF0EC080E1AB2B09F480E0EF2B09F0E9
:101F50008062672B09F08064452B89F080680895C2
:101F600081E0AB2B09F480E0EF2B09F08260672B56
:101F700009F08460452B19F08860089580E0089589
:101F8000CF93DF93682F81E06A3019F06D3029F428
:101F900080E082D0DF91CF910895809135089091B3
:101FA000360826E0FC01AFE2B8E001900D922A95D8
:101FB000E1F7603E08F458C026E0FC0111922A9532
:101FC000E9F7C0913508D091360846E050E0BE01EF
:101FD0008FE298E00E94FC329E012F523640892BFE
:101FE00041F1C90145E0969587954A95E1F741E0B1
:101FF00050E0BA0102C0660F771F8A95E2F7CB0165
:1020000060912D0670912E06862B972BB9016B5F80
:102010007F4FE5E076956795EA95E1F702C0440FBA
:10202000551F6A95E2F7842B952B90932E0680938B
:102030002D062A5F3F4F40912C06642F70E0C901A6
:102040000E942632481B463010F4240F311D211502
:1020500072E0370710F030E020E0215D394F309317
:1020600036082093350896CFF6E06F9FB001112413
:1020700062587A4F46E050E00E94F332A2CFCF93ED
:10208000DF93EC01FE018491811103C0DF91CF91B8
:10209000089576DF2196F6CFCF93382FE09135085B
:1020A000F0913608EF52F64020912C06622F70E036
:1020B000CF010E942632281B822F332359F066E07D
:1020C0000E947132C82FC15010F4CF91089580E260
:1020D00057DFF9CF9F01280F311D2115324018F02D
:1020E00080E0F0E0E0E08E0F9F2F911D815D994F21
:1020F0009093360880933508E8CFC1DF81E0CCCFDC
:102100000F931F93CF93DF93EC01FC01019000200C
:10211000E9F78F0101501109C017D10728F0DF91AD
:10212000CF911F910F91089589912ADFF5CF0F93D9
:102130001F93CF93DF938B01EA019091BF059430F9
:1021400061F58093E9008FEF9091E800815095FD53
:1021500006C095ED9A95F1F700008111F5CF8091B9
:10216000E80085FF1AC00E945B06811111C08091B2
:10217000E80085FD06C08091E8008E778093E80036
:10218000F2CFF80181918F018093F100219779F7C7
:102190008091E8008E778093E800DF91CF911F91C6
:1021A0000F910895BC0143E050E082E0C0CFBC0134
:1021B00040E250E082E0BBCFCF93DF93D82FC92F0E
:1021C00048E050E0682F792F81E0B1DF88E0ED2F03
:1021D000FC2FA5EBB5E001900D928A95E1F7DF9118
:1021E000CF9108953BB1377F2BB128604FB7F8945A
:1021F00087E694E0FC010196508168E02BB900006D
:1022000000C057FF3BB9550F000000C000C000C020
:102210003BB900C06A9591F755E08930950751F7B1
:102220004FBF8FE594E00197F1F700C000000895DB
:10223000B0E0A0E0EEE1F1E10C944232F82EE92E9C
:10224000D62EC72E8A018091B603AA24A394B12C5E
:102250008A3018F48AE0A82EB12CC1E0D0E06D2DB0
:102260007C2D8F2D9E2DF8010995811104C021969A
:10227000AC16BD062CF4CDB7DEB7EAE00C945E32A6
:10228000CC9F9001CD9F300D300D112490E080E067
:1022900045E34A95F1F70000019682179307C1F7CD
:1022A000DECFAB0124E630E0BC0188E70E94EB2FD3
:1022B0009C0181E0232B09F080E008958091650462
:1022C00090916604911103C091E0892708958823B5
:1022D00061F062E070E08AE594E0E3DF811103C021
:1022E0008091650408951092650480916504ECCF97
:1022F000A5E0B0E0EEE7F1E10C944A32809165048C
:102300008D83809166048823E9F00E94A307DC0195
:10231000CB01805D9A48AF4FBF4F8093610490938B
:102320006204A0936304B09364048D81811107C09B
:1023300062E070E088E594E0B4DF811108C080912C
:1023400065048D838D812596E2E00C94663281E0F0
:1023500080936504F4CFCF92DF92EF92FF92CF93F8
:10236000DF9300D000D0CDB7DEB7DAD960935C043C
:1023700070935D0480935E0490935F0420916004E9
:1023800029832091AD012230B9F1F0F4211129C047
:102390001092AA016093CB057093CC058093CD0574
:1023A0009093CE0580915B04811108C080911C063A
:1023B000282F237019F0282F269526952093600446
:1023C00081E08093AD0102C02330D1F00F900F90D7
:1023D0000F900F90DF91CF91FF90EF90DF90CF9013
:1023E00008958981C9D88981882381F38091AA01C0
:1023F00081500E947009EACF89810E948409E6CF4A
:1024000080912406882351F048E050E067E170E0B5
:102410008CE196E00E942F3310922406C090CB05E9
:10242000D090CC05E090CD05F090CE058091C90507
:10243000882381F00E94A307DC01CB018C199D0940
:10244000AE09BF094097A105B10508F4BFCF1092AE
:10245000AD01BCCF65D9F0CFECE1F6E085E080833B
:102460008091B0019091B101A091B20181839283DA
:10247000A3838FE784838FEF858348E050E067E193
:1024800070E0CF010E942F3310922406089590919E
:10249000AE0592FB222720F9281771F080FB92F9F4
:1024A0009093AE056091AD057091AE0584E090E02B
:1024B0000E94583382E08ACC08954F925F926F92C7
:1024C0007F92AF92BF92CF92DF92EF92FF920F93E3
:1024D0001F93CF93DF9300D000D000D0CDB7DEB7ED
:1024E0008D837B01A42EB22E3E836801DB014D90CB
:1024F0005D906D907C900E94A30769837A838B83A3
:102500009C83DC01CB0184199509A609B70984369F
:102510009105A105B10510F4AA20E9F1BD810B2FA9
:102520000B2E000C110B88E0B802F0011124E050D2
:10253000FF4F8181928181599C4F408150E0C416A8
:10254000D50608F4A6016B2D7E810E940933C801CF
:102550000E94B6318983882341F00E94A307D701E6
:102560006D937D938D939C931397898126960FB6D7
:10257000F894DEBF0FBECDBFDF91CF911F910F91B9
:10258000FF90EF90DF90CF90BF90AF907F906F90D3
:102590005F904F900895B1E0B983E7CFA1E0B0E03C
:1025A000E4EDF2E10C944832809165048983209136
:1025B000890390E041E02817190609F440E001E0A2
:1025C00010E09E012F5F3F4F66EA73E087E075DF02
:1025D0002196E4E00C9464320F931F9341E0209124
:1025E0007C0330917D038091300490913104281751
:1025F000390709F440E002E010E020E334E06EE93E
:1026000073E084E05ADF8823A9F041E020917E0343
:1026100030917F038091C5039091C6032817390735
:1026200009F440E002E010E025EC33E06AE973E0F1
:1026300085E043DF1F910F910895B0E0A0E0E3E251
:10264000F3E10C944532F82ED62EE72ED42FC52F69
:10265000B901A8018D2F9C2F0E94FC3241E0892BEB
:1026600009F440E02D2F3C2F6D2D7E2D8F2D25DF81
:10267000CDB7DEB7E7E00C946132ACE0B0E0E3E464
:10268000F3E10C9448328091E0039091E103A09132
:10269000E203B091E30389839A83AB83BC83809187
:1026A000AA039091AB03A091AC03B091AD038D83CD
:1026B0009E83AF83B8878091AE039091AF03A091C2
:1026C000B003B091B10389879A87AB87BC870CE0D0
:1026D00010E02AE833E0AE014F5F5F4F62EB73E03A
:1026E00088E0ABDF2C96E4E00C946432A9E0B0E023
:1026F000ECE7F3E10C94483288E0ECE1F6E0DE012F
:10270000119601900D928A95E1F780915B0489877B
:1027100009E010E020E833E0AE014F5F5F4F62EA6E
:1027200073E086E08ADF2996E4E00C9464320F932C
:102730001F93AC0104E010E024E733E06BE673E0A4
:1027400082E07BDF1F910F910895CF92DF92EF928D
:10275000FF921F93CF93DF93CDB7DEB728970FB6C5
:10276000F894DEBF0FBECDBFC0909603D090970304
:10277000E0909803F09099030E94A307DC01CB013D
:102780008C199D09AE09BF0911E084369105A10598
:10279000B10578F10E94900BDC01CB010296A11DDE
:1027A000B11D89839A83AB83BC8380911901909179
:1027B0001A0181599C4F20911801422F50E0253079
:1027C00010F044E050E0BE016F5F7F4F0E9409337C
:1027D00083E090E00E94B631182F882351F00E94C8
:1027E000A307609396037093970380939803909345
:1027F0009903812F28960FB6F894DEBF0FBECDBF88
:10280000DF91CF911F91FF90EF90DF90CF900895CF
:102810008F929F92AF92BF92EF92FF921F93CF93AE
:10282000DF93CDB7DEB729970FB6F894DEBF0FBEA2
:10283000CDBF7B0190E080E00E94B631182F882345
:1028400009F485C080910301482F50E0882311F0DE
:1028500041E050E0609104017091050161597C4FA5
:10286000CE0105960E94093380906703909068031B
:10287000A0906903B0906A030E94A307DC01CB011A
:1028800088199909AA09BB0984369105A105B105E2
:1028900040F480E793E00E9425069D81891709F4A2
:1028A00056C081E090E00E94B63181111FC010E057
:1028B0008091630390916403A0916503B0916603D6
:1028C000F70180839183A283B383812F29960FB66A
:1028D000F894DEBF0FBECDBFDF91CF911F91FF9067
:1028E000EF90BF90AF909F908F90089580910B01D3
:1028F000482F50E0853010F044E050E060910C012A
:1029000070910D0161597C4FCE0101960E940933EF
:1029100080E793E00E9425069D818913C8CF0E941D
:10292000A307609367037093680380936903909390
:102930006A0389819A81AB81BC8180936303909300
:102940006403A0936503B093660311E0B1CF809157
:10295000700390917103A0917203B0917303898306
:102960009A83AB83BC831111E4CFA2CF1F920F9245
:102970000FB60F9211242F933F934F935F936F9352
:102980007F938F939F93AF93BF93EF93FF93809128
:10299000E10082FF09C08091E20082FF05C08091C2
:1029A000E1008B7F8093E1008091DA0080FF24C0FA
:1029B0008091D80080FF20C08091DA008E7F8093C4
:1029C000DA008091D90080FFA9C080E189BD82E151
:1029D00089BD09B400FEFDCF81E08093BF058091E1
:1029E000B405811109C00E943C060E94DD06809159
:1029F000E20084608093E2008091E10080FF1AC0D1
:102A00008091E20080FF16C08091E2008E7F80936B
:102A1000E2008091E20080618093E2008091D80022
:102A200080628093D80019BC85E08093BF0583E065
:102A30008093A9018091E10084FF2FC08091E20082
:102A400084FF2BC080E189BD82E189BD09B400FE0D
:102A5000FDCF8091D8008F7D8093D8008091E100D8
:102A60008F7E8093E1008091E2008F7E8093E20070
:102A70008091E20081608093E2008091C00588230C
:102A800009F452C084E08093BF058091BF05843073
:102A900009F452C081E08093A9018091E10083FF95
:102AA0002CC08091E20083FF28C08091E100877FE5
:102AB0008093E10082E08093BF051092C005809171
:102AC000E1008E7F8093E1008091E2008E7F809311
:102AD000E2008091E20080618093E20042E060E0E9
:102AE00080E00E94AB068091F00088608093F00047
:102AF00081E08093A9018093A801FF91EF91BF919C
:102B0000AF919F918F917F916F915F914F913F9185
:102B10002F910F900FBE0F901F90189519BC109217
:102B2000BF051092B40568CF8091E30087FD02C015
:102B300081E0A9CF83E0A7CF82E0ADCF78941F9248
:102B40001FB61F9211248F939F93AF93BF938091D1
:102B5000B0059091B105A091B205B091B305019671
:102B6000A11DB11D8093B0059093B105A093B2054E
:102B7000B093B305BF91AF919F918F911F901FBEEE
:102B80001F9018952FB7F8948091B0059091B105DA
:102B9000A091B205B091B3052FBF0895CF93DF93F5
:102BA000EC01F0DF8C1B9D0BDF91CF910895A0E12C
:102BB000B0E0EDEDF5E10C9440321A821982FE018D
:102BC000339686E0DF011D928A95E9F78BEEE82EB9
:102BD00081E0F82E10E000E0CC24C394D12C25EF46
:102BE000A22E21E0B22EF70181917F018F3F09F4DF
:102BF00045C0F894E82FE295EF70F0E021A18F70C6
:102C0000A60102C0440F551F8A95E2F7CA01922F10
:102C1000982B91A392A18095892382A3789400C0D8
:102C2000EFEEF1E031E0912C21912F3F09F4C1C08A
:102C3000A22FA295AF70B0E090968C9190E02F708B
:102C400002C0959587952A95E2F780FDB2C0832F43
:102C5000982A330FAE16BF0639F7F70131978081F6
:102C60008F3F11F00E94770B50EA5A95F1F7E1E09F
:102C7000F0E0EC0FFD1FE00FF11F90820F5F1F4F80
:102C80000430110509F0AFCF48E050E0BE016F5F9E
:102C90007F4F8BEB93E00E94FC329C01892B49F023
:102CA00088E0FE013196ABEBB3E001900D928A957E
:102CB000E1F70091C40310E009531C4F232B09F4E2
:102CC0007AC081E080935B035DDF90935A03809329
:102CD0005903F12CE090C905EE2009F4C7C01A860B
:102CE00019861C861B868091B6038A3008F088C03E
:102CF00048E054E1BE01675F7F4FC80199DA88233D
:102D000009F4A4C047E953E1BE01675F7F4FC801E2
:102D10008FDA882309F49AC045EA53E1BE01675F60
:102D20007F4FC80185DA882309F490C04CEE52E148
:102D3000BE01675F7F4FC8017BDA882309F486C034
:102D400046E753E1BE01675F7F4FC80171DA882310
:102D500009F47CC04EEC52E1BE01675F7F4FC801B1
:102D600067DA882309F472C04DE353E1BE01675F5F
:102D70007F4FC8015DDA882309F468C01092B6035A
:102D80008091C30390E044E050E0BE01675F7F4F55
:102D900089539C4F0E94FC3221E020936203892BCF
:102DA00009F046C0E12C8E2D8F296096ECE00C9442
:102DB0005C3280E04DCFF0905B03FF2009F489CFB7
:102DC000C0905903D0905A03DDDE8C199D090597F8
:102DD00008F47FCF44E050E06BEB73E0C8010E9441
:102DE000FC32892B59F084E0EBEBF3E0D801019041
:102DF0000D928A95E1F710925B036CCFF12CFBCF1B
:102E0000C0905C03D0905D03BDDE8C199D09843FAA
:102E1000914008F06DCF80916203882319F2FE0182
:102E2000399684E0DF011D928A95E9F710926203DA
:102E3000E091C303F0E0E953FC4F89859A85AB85A7
:102E4000BC8580839183A283B383ADCF8091B60389
:102E50008F3F31F08F5F8093B6038A3008F490CFB4
:102E600091DE90935D0380935C03D5CFC090C30344
:102E7000D12CF601E953FC4F6F01F801808191815B
:102E8000A281B3818093700390937103A093720326
:102E9000B093730380E793E00E94250680936F034D
:102EA0008091740390917503A0917603B09177039C
:102EB000F60180839183A283B383809078039090FE
:102EC0007903A0907A03B0907B0380915E03909188
:102ED0005F03A0916003B091610388169906AA066A
:102EE000BB06B1F080925E0390925F03A0926003F4
:102EF000B09261030E94A307861A970AA80AB90A2A
:102F00008092B7039092B803A092B903B092BA032B
:102F100080917C0390917D039093310480933004E1
:102F200080917E0390917F039093C6038093C503A5
:102F300088E0E0E8F3E0ACE1B6E001900D928A951C
:102F4000E1F710918803112349F080915B0481110E
:102F500005C00E94BC0A80E00E94840910935B04B3
:102F600080918903882391F1C3D980919203909134
:102F70009303A0919403B091950340918E035091D7
:102F80008F03609190037091910300918A031091D7
:102F90008B0320918C0330918D030093E0031093F9
:102FA000E1032093E2033093E3034093AA03509399
:102FB000AB036093AC037093AD038093AE03909327
:102FC000AF03A093B003B093B103EDCE77D9CDCFCB
:102FD000CF93C82F8091AE0582FF0BC0809156031E
:102FE0008C1739F0CFDD9093550380935403C09331
:102FF0005603CF910895CF93C09109058091300574
:10300000C82B80915603882301F1BCDD2091540325
:1030100030915503821B930B883E934010F00E9421
:10302000E30D80915603C82B8091A801813081F473
:103030008091AD0587FF0CC02EE188EE92E030E074
:10304000215050F431110E94E30D8C2FCF9108953F
:1030500026E080EE92E0F3CFFC014191CF014423C2
:1030600079F33F5FEDCF8091A801813061F58091C8
:10307000AD0587FF28C0BFDF8093E70240E250E044
:103080006CE273E086EE92E00E94FC32892BD1F074
:1030900080E2E6EEF2E0ACE2B3E001900D928A95B8
:1030A000E1F7E091A905F091AA05309759F0048065
:1030B000F581E02D309731F086E08093E60286EED0
:1030C00092E00995089597DF8093DE0248E050E092
:1030D0006CE473E08EED92E00E94FC32892B91F358
:1030E00088E0EEEDF2E0ACE4B3E001900D928A9559
:1030F000E1F7E091A905F091AA05309719F3028054
:10310000F381E02D3097F1F28EED92E0DACF8091ED
:103110005E01877F80935E01909130059D7F909343
:10312000300584FF08C08F7E80935E018091090581
:1031300082608093090580915E0185FF08C08F7DC4
:1031400080935E01809109058062809309058BCF91
:10315000109209058091A8018130B1F48091AD05EC
:1031600087FF12C0E8EEF2E08EE1DF011D928A9542
:10317000E9F790E080E00E944C0890E080E00E9437
:103180002408109230056FCFE0EEF2E086E0EDCF3C
:10319000AAE2B0E0EEECF8E10C94493281EC95E063
:1031A000FC0101962091F100208325E0893C9207E3
:1031B000B9F78091C205893009F459C0C8F482304A
:1031C00009F4B5C0833009F484C0813089F180915D
:1031D000E80083FF86C28091C1059091C2059A30B4
:1031E00008F07FC2E92FF0E0E25AFC4C0C94CE329A
:1031F0008A3009F48BC08B3051F78091C105813240
:1032000031F78091C5059091C605892B01F7809112
:10321000E800877F8093E8000E948C0681E090910F
:10322000C305911101C080E08093A80191DFCFCF49
:103230008091C105813A59F68091E800877F80939B
:10324000E8008091C5059091C605892B61F468E07E
:1032500085EB95E070E00E9437078091E8008B775E
:103260008093E800B4CF60E090E080E0F3CF8091FD
:10327000C105813209F0ABCF8091C5059091C6059B
:10328000029708F0A4CF8091E800877F8093E80040
:103290008091E80082FF18C09091F3008091F200C5
:1032A000029731F48091F100813011F0863021F4E1
:1032B0008091F1008093A7018091E8008B77809343
:1032C000E8000E948C0683CF8091BF058111E0CF7A
:1032D0007ECF8091C105813A09F079CF8091C505F3
:1032E0009091C605892B09F072CF8091E800877F05
:1032F0008093E8008091E80080FFFCCF8091A801D6
:103300008093F1008091E8008E77D9CF8091C1053C
:10331000813209F05CCF8091E800877F8093E800DC
:103320000E948C068091C4058093A60150CF8091A5
:10333000C105813A09F04BCF8091E800877F8093E7
:10334000E8008091E80080FFFCCF8091A601D8CFF3
:10335000803899F0823809F0C4C18091C5058F701A
:10336000873008F0BEC18093E9008091EB0085FBB7
:10337000882780F91092E90006C08091BD059091E0
:10338000BE05911182609091E800977F9093E800CC
:103390008093F1001092F1008091E8008E779DC13A
:1033A000882309F48BC1823009F09BC18091C30549
:1033B00081118EC18091C5058F702FEF280F2630A7
:1033C00008F08FC18093E9002091EB0020FF80C1BD
:1033D000933031F48091EB0080628093EB0078C1F0
:1033E0009091EB0090619093EB0021E030E001C000
:1033F000220F8A95EAF72093EA001092EA00809162
:10340000EB008860EACF81116CC11091C3051F7772
:103410008091E3008078812B8093E3008091E80025
:10342000877F8093E8000E948C068091E80080FFEF
:10343000FCCF8091E30080688093E30082E011116B
:1034400083E08093BF054DC18058823008F049C1A8
:103450004091C3055091C4054C3D83E05807A1F548
:1034600083E08A838AE289834FB7F894DE0113965A
:1034700020E03EE051E2E32FF0E050935700E4916A
:1034800020FF03C0E295EF703F5FEF708E2F90E05A
:10349000EA30C0F0C7968D939D932F5F243159F782
:1034A0004FBF8091E800877F8093E8006AE270E078
:1034B000CE0101960E9437078091E8008B778093B8
:1034C000E8000FC1C096E7CF2091C5053091C60531
:1034D000852F99278330910509F160F4813091059A
:1034E00009F472C0029709F0FCC08BE390E0EDE0B4
:1034F000F5E029C08132910509F45AC0829709F09C
:10350000F0C02115310509F469C02130310509F0F9
:10351000E8C08DE690E0ECE5F4E015C0CA0199271B
:103520004130B1F18230910509F43AC0892B09F09C
:10353000D8C0EAE7F5E0E4918E2F90E0EAE7F5E005
:10354000009709F4CEC02091E800277F2093E8007F
:103550002091C7053091C8058217930708F49C0194
:1035600040E02115310509F03EC041113CC0809179
:10357000E80082FDA1CF8091BF05882309F49CCF8C
:10358000853009F499CF8091E80083FFF0CF94CF84
:10359000E8E6F5E0E4918E2F90E0E8E6F5E0D0CFA4
:1035A000EAE5F5E0E4918E2F90E0EAE5F5E0C8CF9A
:1035B0002115310571F02130310509F092C089E003
:1035C00090E0E8E3F5E0BFCF82E190E0E8E4F5E0E9
:1035D000BACF89E090E0EFE1F5E0B5CF84E490E088
:1035E000E9ECF4E0B0CF8091BF05882309F464CF03
:1035F000853009F461CF8091E80083FD5DCF809133
:10360000E80082FDB4CF8091E80080FFAACF9091BE
:10361000F3008091F2002115310519F088309105F1
:1036200050F041E0089709F040E08091E8008E7783
:103630008093E80096CF44914093F1003196215059
:1036400031090196E8CF803809F04BC08091E8003D
:10365000877F8093E8008091C0058093F1009CCE25
:1036600081113FC01091C3051230D8F58091E80058
:10367000877F8093E8001093C0050E948C06112379
:1036800011F084E005C08091E30087FDFACF81E06E
:103690008093BF0542E061EC81E00E94AB0642E20C
:1036A00061EC82E00E94AB068091BF05843021F07E
:1036B00081E08093A90115C082E0FBCF8091C30512
:1036C000813079F481E0933009F080E08093BE0589
:1036D0001092E9008091E800877F8093E8000E94C3
:1036E0008C068091E80083FF0AC08091E800877F04
:1036F0008093E8008091EB0080628093EB00AA96B3
:10370000E3E00C9465321F920F920FB60F921124D2
:103710002F933F934F935F936F937F938F939F93D9
:10372000AF93BF93CF93DF93EF93FF93D091E900D3
:10373000DF708091EC00C82FC17080FDC0E810924E
:10374000E9008091F000877F8093F000789420DD7D
:103750001092E9008091F00088608093F000CD2BFA
:10376000CF70C093E900FF91EF91DF91CF91BF91AE
:10377000AF919F918F917F916F915F914F913F9109
:103780002F910F900FBE0F901F901895E1DC88E1EC
:103790009AE00FB6F894A895809360000FBE9093BE
:1037A0006000FFCF882339F0809590913005892300
:1037B0008093300558CC0895882331F090913005DE
:1037C000892B809330054FCC0895882319F00E94EF
:1037D000EE0D49CC0895882331F090910905892B8D
:1037E0008093090540CC0895882321F19CEF980F20
:1037F000913A18F40E94C30736CC90E2980F9830A3
:1038000050F4877091E001C0990F8A95EAF7892FEB
:103810000E94EE0DF1CF9BE5980F933020F490E0DD
:1038200080E00C944C08885A8B3120F490E080E0C2
:103830000C9424080895CF93DF93EC01D5DFCE01DB
:103840000E948F0F9E01205E31092830310510F053
:10385000CD2B21F4BADFDF91CF910895A3DFFBCF09
:10386000CF93C82F8823A9F18CEF8C0F813A98F55C
:103870008091A8018130F9F48091AD0587FF1BC0CC
:10388000EC2FE695E695E695F0E0EA51FD4F828152
:1038900090E04C2F477021E030E002C0220F331F30
:1038A0004A95E2F782239323892B79F08C2F0E948B
:1038B000C307D9DB0AC0E0EEF2E086EE92E0219188
:1038C000C217A1F38E179F07D1F78C2F0E94F00724
:1038D000CADBCF91089580E28C0F883068F4C770FE
:1038E00021E030E001C0220FCA95EAF78091090576
:1038F000822B80930905ECCF8BE58C0F833038F455
:103900002C2F2452330BC9010E944C08E2CFC85A15
:10391000CB31F8F6EC2FF0E0EE0FFF1FED54FE4F29
:10392000808191810E942408D4CFEF92FF920F935F
:103930001F93CF93DF93C62FD42F122FFC018581C5
:10394000882399F060931B061DD990931A068093E3
:103950001906C77081E001C0880FCA95EAF73BDFFE
:10396000CDB7DEB7E6E00C94623280911B06681397
:103970002FC0E0901906F0901A0604D98E199F09FD
:10398000843B910528F500E20D0FCD1799F0C77023
:10399000FF24F3948F2D01C0880FCA95EAF715DF35
:1039A000083040F48D2F877001C0FF0C8A95EAF72C
:1039B0008F2D11DF812F54DF812F16DF083080F625
:1039C000D77081E001C0880FDA95EAF7FEDEC8CF34
:1039D000C77081E001C0880FCA95EAF7F7CFCF938F
:1039E000DF93EC010E948F0F9E01205E3109283089
:1039F000310510F0209731F4EEDE8C2F31DFDF91AE
:103A0000CF910895D9DEF9CFB0E0A0E0EAE0FDE182
:103A10000C944432EC017B0180915E0182FF7CC0FA
:103A200000912C0510912D050C171D0719F02097FA
:103A300009F072C080915E018B7F80935E01C1E0CE
:103A400081FD0CC080912A0590912B059701281BC0
:103A5000390BC1E02C3D310508F4C0E0C170809104
:103A60005E01C0FB81F980935E016801DD24F601EF
:103A700084E0F695E7958A95E1F7EE0FFF1FE65F84
:103A8000FA4F20813181A8014F70552781E090E0E5
:103A900002C0880F991F4A95E2F7CC23C1F1822B0F
:103AA000932B918380838091090581FF08C08091C9
:103AB0005E01806180935E0182E00E94EE0D809144
:103AC000090585FF08C080915E01806280935E01D8
:103AD00080E20E94EE0DCC2329F0809130058260B7
:103AE00080933005C80190528115904308F48601F7
:103AF000C80175DF80912C0590912D059C013052F5
:103B00002115304308F4992796DE01DB14C0809517
:103B1000909582239323C5CFCE0190528115904377
:103B200098F4CE01992787DE80912C0590912D0580
:103B3000C817D90751F3F0922B05E0922A05CDB7AB
:103B4000DEB7E8E00C946032CE01EDCF0F931F9307
:103B5000CF93DF938C01EB0142DF209739F4C8014A
:103B60006ADEDF91CF911F910F9108958FE99FE059
:103B70000197F1F700C000002197EFCFB0E0A0E07F
:103B8000E4ECFDE10C9444328C01FC018481882337
:103B900009F4F1C061E0C8010E94630FEC01F80173
:103BA0004581442309F46FC59C013A959927211555
:103BB000FFE43F0738F090E080E0CF3FD10509F007
:103BC00008F4CE01BC01645071096432710518F02B
:103BD0008B970E9780F4E091EA03F0E0EE0FFF1F61
:103BE000E151FC4F808191818F3F5FE7950719F08C
:103BF000019691838083F8018181809335048081CF
:103C00008093340480E280935401D0933304C093B2
:103C10003204CE0190528115904208F462C0CE0168
:103C200090548115904108F077C0F8018681807F1B
:103C300009F472C0FE01FF27ED33F10508F46DC5EC
:103C40000E94C215D82EE92EF8018581882309F437
:103C5000AFC080915E0182FF07C041E254E06D2D4C
:103C6000792F90E080E0D0DEC431FCE7DF0709F473
:103C70009BC0C5312CE7D20709F48CC0C3313CE7A7
:103C8000D30729F480915E01816080935E01CE01AB
:103C900090528115904308F099C010922D05109212
:103CA0002C05F8019581992309F41FC510921B0674
:103CB0009E0130572332310508F002C584E090E0C0
:103CC0000E942A339093AE058093AD05FE01E1502A
:103CD000F047E232F10508F015C1E859FC4C0C94AC
:103CE000CE32F8018681807F09F40CC5FE01FF27E2
:103CF000CD3308F412C5C931F2E3DF07B9F4F80196
:103D00008681807F09F49CCF442309F499CF70E029
:103D100060E089E198E01FC021153F4108F48ACF97
:103D2000CE01805A9245809708F0F2C4C0342EE745
:103D3000D20731F1C63038E2D30709F081CFF8015C
:103D40008681807F09F47CCF70E060E086E098E0B7
:103D5000442309F475CFFADE80912B03877059F064
:103D6000F8018581882339F08091AE0582FF03C078
:103D700082E00E94E60ECDB7DEB7E8E00C94603238
:103D800080916504882319F00E945E11E5CF0E949E
:103D90007811E2CF90915E01892F8E7F90FF816034
:103DA00080935E01B4D973CF80915E018E7FF8CF8E
:103DB00080915E018F7EC13ED10531F0C53ED105B7
:103DC000C1F480915E018F7D80935E0180915E01E0
:103DD00080FF14C0F80185819E01245031092A31E9
:103DE0003105B8F0882351F010922D0510922C0562
:103DF00005C0CE0190528115904340F7FE01E85175
:103E0000FC47E730F10508F04CCFE657FC4C0C942A
:103E1000CE32882309F453C080915603F0900905EF
:103E2000F82A9F2D9D7F51F110922D0510922C059F
:103E3000FE0124E0F695E7952A95E1F7EE0FFF1FC6
:103E4000E65FFA4F9E012F70332781E090E002C0B9
:103E5000880F991F2A95E2F78095909520813181EE
:103E60008223932391838083CE01B9DD8091560311
:103E70008D7FAED882E00E94E60E6ECF99E0A1E27F
:103E8000B4E001900D929A95E1F7109224041092FB
:103E900023048D7F9DD8D0932D05C0932C05D092FF
:103EA0002A05E0922B058F2D82708460F0905E01D0
:103EB000FF2DF97FFF2EF82AF0925E01DBCFA801DB
:103EC0006D2D7E2DCE01A0DD47CF26E241EE61EEC5
:103ED000C8012BDD41CF27E245EE65EEF9CF26E2A2
:103EE00041EE60EEF5CF27E245EE64EEF1CF26E23B
:103EF00041EE62EEEDCF27E245EE66EEE9CF28E235
:103F000041E0EBCF8091AD0581608093AD0560917C
:103F1000AD057091AE0584E090E00E94583318D949
:103F20001BCF8091AE0588608093AE05F0CF809165
:103F3000AD058260EACF8091AD058460E6CF8091C7
:103F4000AD058860E2CF8091AE058160EDCF8091B4
:103F5000AE058260E9CF8091AD058061D6CF8091BA
:103F6000AD058062D2CF8091AD058064CECFF0D810
:103F70008091AD058068C9CF8091AD058C60C5CFBB
:103F80008091AE058360D0CF8091AD058E7FBDCF8F
:103F90008091AE05877FC8CF8091AD058D7FB5CF6D
:103FA0008091AD058B7FB1CF8091AD05877FADCF7F
:103FB0008091AE058E7FB8CF8091AE058D7FB4CF56
:103FC0008091AD058F7EA1CF8091AD058F7D9DCF76
:103FD0008091AD058F7B99CFBBD88091AD058F7750
:103FE00094CF8091AD05837F90CF8091AE058C7F7B
:103FF0009BCF8091AD0582FB992790F921E0922714
:1040000090FB82F990FB83F980CF8091AE05982FC9
:10401000909591708E7F892B90FB81F985CF90913F
:10402000AD05892F8F7B96FF80646FCF91D89091DB
:10403000AD05892F97FB87F9805867CF61E08EE047
:1040400090E00E943E3363CF60E0F9CF9091AD05E0
:10405000892F8F7E94FF806158CF9091AD05892F75
:104060008E7F90FF816051CF9091AE05892F877F21
:1040700093FF886059CF85E333C385E340C30E9433
:1040800067096ACE882391F10E94540965CE88237E
:1040900091F10E94440960CE882391F10E942E097B
:1040A0005BCE882391F10E94180956CE882391F1A6
:1040B0000E94060951CE80911C06837011F4109263
:1040C000AD0180911C068C7F816080931C060E944C
:1040D000DD0542CE80911C06837011F01092AD0177
:1040E00080911C068C7FF1CF882371F20E945E09BB
:1040F00033CE882371F20E944C092ECE882371F2B0
:104100000E94390929CE882371F20E94230924CE06
:10411000882371F20E940F091FCE882329F00E9484
:10412000D7081ACE8823D9F30E94F00815CEC737D6
:10413000FCE7DF0709F0FDC281E00E94D60EBAC29B
:1041400082E0FBCF992379F180E0CB353CE7D307C0
:10415000F1F0CC355CE7D50799F0CA358CE7D80784
:10416000C9F0C130ECE7DE07E9F0C330FCE7DF0758
:1041700099F0C115DC47B9F40E94A8180E94920773
:104180008091AE0582FB882780F991E089270E9403
:104190004712E2CD81E0FBCF6FEF7FEF90E080E050
:1041A0000E945833F3DAF801278130852115310553
:1041B00009F456C0C9010E94D20CD82FC92FF801AA
:1041C000C580F680F2949FE0F92280912B038770DE
:1041D00001F1DC2CCC20F1F08C2F807F803461F059
:1041E00080E28D0F8830A8F08C2F807E803221F401
:1041F000D23078F0FF2069F08091AE0582FF09C0CF
:1042000082E00E94E60E80912B038770DD24D39418
:104210008111D12CEC2EE2948FE0E822F8E0EF1629
:1042200009F41EC1FE1508F442C023E02E1570F1FA
:104230008C2F807FCF7031E03E1508F04BC080326C
:1042400011F0C295C07FDD2309F479C0D13009F4A3
:10425000CDC0CC2009F4D8C0FF2009F48CC04FC0D9
:10426000E080F180992369F0C7010E94000EC82FF9
:10427000682FC7010E94710EB7018C2F0E94B40CE9
:104280009ACFC7010E943E0EC82FF6CF54E0E51624
:1042900009F4CAC0EE2DE850FF0B349708F0DBC1DB
:1042A0000E94740860E0C8010E94630F64CD89E039
:1042B000E81609F45FC186E08E0D8F70823050F7EA
:1042C000D23F09F065C18C2F8F71C1105EC10E9471
:1042D000000FE0CF882311F0C295C07FCC20B9F049
:1042E000CC2369F080E28D0F883010F0D11109C025
:1042F00080910905C82BC09309050E9433188D2FA2
:104300002EC080913005C82BC0933005F6CF8D2F7D
:104310006BDACC2309F4BECF80E28D0F883010F029
:10432000D11104C08C2F0E94EE0D06C0C095809163
:104330003005C823C09330050E943318ABCF80915D
:10434000AE0582FD14C0CC2061F0CC2339F0809101
:104350000905C82BC09309050E94331880E080DA54
:1043600099CF80E041DACC2309F494CFDBCFCC2085
:10437000C9F0F11003C08C2F2EDA8CCF91E0F91226
:1043800089CFD09156038C2F8D23C81709F482CF83
:104390000E94C2159093550380935403CD2BC09374
:1043A000560378CFF11076CF8C2F0FDA9091560309
:1043B0008C2F892369F08C2F809589238093560355
:1043C000882389F00E94C21580935403909355036B
:1043D000809107039C2F982309F45CCFC095C823D4
:1043E000C093070357CF80E090E0EECFCC2029F0B8
:1043F000E5E0EF1508F44ECFBECFF4E0FF1508F46A
:1044000049CF8C2FE2D946CFFF20D9F3D93349F4D5
:104410002FEF37EE53E0215030405040E1F700C01D
:1044200000008D2FE1D936CF8C2F8695869583702D
:1044300069F0813009F02ECF8D2F9C2F9370C11021
:1044400002C080E090E00E94240824CF8D2F9C2F92
:104450009370C11002C080E090E00E944C081ACF17
:104460008C2F837009F040C0C11014CF4D2F42959E
:1044700046954770440F440F2D2F2F7030E0042EC7
:1044800002C0220F331F0A94E2F790E080E0D4FFCD
:1044900009C08FE090E002C0880F991F4A95E2F7AB
:1044A00080959095C695C695C370C230A1F0C33073
:1044B00079F04091C5035091C603C13039F0822B89
:1044C000932B842395230E940E0FE4CE242B352BAF
:1044D000822B932BF8CF822B932B2091C503309105
:1044E000C60382279327EFCF8695CC2011F08C2F1F
:1044F0008170882309F4CECE4D2F429546954770A2
:10450000440F440F2D2F2F7030E0042E02C0220FD5
:10451000331F0A94E2F790E080E0D4FF09C08FE0F7
:1045200090E002C0880F991F4A95E2F78095909518
:10453000C695C695C370C230A1F0C33079F04091E2
:10454000300450913104C13039F0822B932B8423F5
:1045500095230E94A70E9ECE242B352B822B932BC6
:10456000F8CF822B932B2091300430913104822795
:104570009327EFCFCF70CC2029F08C2F0E94000F13
:104580008D2FFACE8D2F21D98C2F0E94D60E82CE60
:10459000D33F60F4D03FB9F0D13F81F0CC2009F493
:1045A00055C0F110ACCE8C2F8F7191CED33FF9F066
:1045B000D43FA1F79091AE0592FD27C08C2F8F714B
:1045C000CC2019F384CECC2069F084E08F1508F458
:1045D00061CECF7181E090E002C0880F991FCA952B
:1045E000E2F7C1CF95E09F1508F454CEF2CF90E0EA
:1045F00080E0CC2009F4ADCFCF7181E090E002C023
:10460000880F991FCA95E2F7A4CFCC20A1F08C2F78
:104610008F7192FF5CCEE8E08E9F900111242360A1
:1046200020932B030E94000F0E94C21590932A032F
:10463000809329032FCE81E00E94E60EF1E0FF1562
:1046400008F028CE82E00E94E60E24CEF110DECEE5
:104650008C2F8F719ACFDD2009F424CE80912B030B
:1046600080FD20CEF80115828695869586950E945C
:10467000000FC80183DA80912B0386958695869575
:104680000E94D60E0FCE893122E3920709F437CB70
:1046900080343EE7930709F45FCB8630984209F0F7
:1046A000CFCA4DCBC7378CE7D80709F03CC081E0B3
:1046B0000E94000F43E062E081E00E94AC0E4CCB10
:1046C00080910905C631ECE7DE0709F053C08A7A0C
:1046D00091E009F490E0909306038111CCCC89E23B
:1046E0000E94F0070E94331837CBC631FCE7DF0782
:1046F00009F04CC0809106038111BFCC89E20E9471
:10470000C307F0CFC93122E3D20709F013CBF7CAB0
:10471000FE01CD33D10508F009CBE851FF4FE491FC
:10472000E0935401E8CAC8373CE7D30739F482E084
:10473000BFCFC8375CE7D50709F402CD9E01205EE4
:1047400032452032310508F0FDCC91110ECDCF71EC
:1047500081E090E09C0102C0220F331FCA95E2F76E
:10476000E901622F83E090E00E943E33CE010E9477
:104770000E0FF2CA8272FE01E052F847EB30F105EB
:1047800008F090CFEF56FC4C0C94CE328091090586
:104790008272FE01E054F847EF30F10508F0C7CC13
:1047A000E456FC4C0C94CE32CF93DF9380912603D9
:1047B000807F09F04CC080912503882309F447C00D
:1047C000E09118065091CF05C0912103D0912003AC
:1047D000609122037091230349E05E17C1F18E2F8F
:1047E00090E0E49FF0011124E053FA4F248122234A
:1047F00089F1489FF001499FF00D1124DF01A0537A
:10480000BA4F11962C9111972C1324C02C912D1373
:1048100021C015962C91159721111CC012962D912F
:104820003C91261B370B243B3105A0F480912603D5
:104830008F70806180932603EA52FA4F80818F70D7
:104840008061808380E293E099D90E94F60DDF9128
:10485000CF910895FC013196E770BFCFAFE0B0E093
:10486000E4E3F4E20C9440328C0186E0F801DE01CE
:104870001A9601900D928A95E1F7F8018481E580FE
:1048800090E2A92E93E0B92E90912403911126C0B5
:10489000882309F1EE20E9F0C8010E94130FF82ED9
:1048A0008823B9F089E0F801D50101900D928A952D
:1048B000E1F780912403813031F4809120039091BD
:1048C00021030E94320E70DF8F2D2F96ECE00C94A6
:1048D0005C32C80153D9FF24F394F6CFD080C18055
:1048E00082809380F090250320912203309123034E
:1048F000A401421B530BFF2009F4E3C0443B5105C4
:1049000008F0B1C0882301F3909121038091260320
:10491000282F207F09F05DC0C9121CC09091200390
:10492000D91218C040912703509128032781308560
:104930004217530779F4E11046C08F70806180936D
:10494000260380E293E01AD980912603F80186833A
:10495000F12CBACFE11037C06C2D8D2D0E940706C7
:104960006C2D8D2D0E940706E82E8111F1CFDA867D
:10497000CB868A859B850E94320E292F22952F7027
:10498000903458F49F70223080F0992391F0F80110
:104990009681907F71F4FE2C97CF2A5F2F70223082
:1049A00060F0C801EBD8EF2CF6CF992311F08823E3
:1049B00091F3805E883078F3F4CF803F60F3815FBD
:1049C000833048F3EECF80912603816080932603E5
:1049D000BFCFC9121BC090912003D91217C04091BC
:1049E000270350912803278130854217530771F41C
:1049F000E1100CC08683C801C1D889E0F801A0E2AB
:104A0000B3E001900D928A95E1F75ECFC8010E9454
:104A1000130F882309F45DCFEE2009F45ACF80915B
:104A200026038032B0F020912003309121033A8395
:104A300029839C828B82909124039D831E828F8385
:104A4000809127039091280399878887CE0101964A
:104A500095D889E0F801A0E2B3E001900D928A9523
:104A6000E1F7A2DE38CF90912603292F207F49F469
:104A700080E293E083D889E0F50111928A95E9F705
:104A800067CF882309F420CF809121038C11BECFFA
:104A900080912003D812BACF409127035091280368
:104AA000278130854217530709F0B0CFE110AECF10
:104AB0009683C80163D889E0F50111928A95E9F7D8
:104AC00003CF443B5105B8F7882309F404CFFE2CEB
:104AD000EE2009F4FECE809121038C110FC080914D
:104AE0002003D8120BC0209127033091280387811F
:104AF00090852817390711F489E081CFC8010E94F9
:104B0000130F8111A6CF8091260381608093260325
:104B1000C80134D8D9CEA2E1B0E0E1E9F5E20C94C5
:104B200048320A871B872C873D874E875F87688BB3
:104B3000798B8A8BCE010A9691DE81110CC089E0B7
:104B4000FE013A96DE01119601900D928A95E1F7E9
:104B50004E8541110BC019E0809118069091CF0548
:104B6000891332C06296E4E00C9464322091CF0540
:104B700030E0C9010196877099275091180658179F
:104B80001906A1F04D8399E0929FD001939FB00D3B
:104B90001124A053BA4FFE01319601900D929A95BF
:104BA000E1F78093CF050E94F60DD5CF0E94A8189B
:104BB0001092CF051092180689E0E0E2F3E0DF01E1
:104BC0001D928A95E9F7C7CF819FC00111248053B8
:104BD0009A4F44DE882331F28091180690E00196C6
:104BE0008770992780931806B7CFEF92FF920F93A3
:104BF0001F93CF93DF9380913205882361F0E0917A
:104C000031058DE0F82E80913205E81748F01092BA
:104C1000320510923105CDB7DEB7E6E00C94623272
:104C2000EE24E394EE0EE0923105CE2FD0E0EF9D1E
:104C3000F0011124ED5CFA4F84818823E1F0878133
:104C40009085892B21F481859285019651F400810C
:104C500011812281338144815581668177818085EC
:104C60005ADFFC9EF001FD9EF00D1124ED5CFA4F21
:104C7000148210923005EE2DC6CF1092A605109228
:104C8000A5051092A5018091A4058093A3050E941B
:104C9000B808ABCFA9E0B0E0E0E5F6E20C9446320C
:104CA0007B01DB0112968D919C91892BC1F087E0ED
:104CB000FE013196DF011D928A95E9F70E94C21527
:104CC000282F8B839C83F70182819381782F098120
:104CD0001A813C8144E05E816F81892F1CDFD701FE
:104CE00015961C922996E6E00C946232B0E0A0E0A2
:104CF000ECE7F6E20C943A32C091A305E7E08E2E81
:104D0000EE24E394F12CADE09A2EB4E02B2E8091AA
:104D1000A4058C1308C069DF0E94B808CDB7DEB7C0
:104D2000E2E10C945632D0E0FE01EE0FFF1FE55693
:104D3000FA4F00811181B0E0A0E00A30110538F48B
:104D4000809ED001819EB00D1124A15ABE4F1496B1
:104D50008C911497811158C03090320523E335E0CF
:104D600090E080E0412C831508F04BC0F901C3842A
:104D7000D4846D907C9011974FEF5FEF512CA52C50
:104D8000B12CF501EE0FFF1FE60DF71D6591749133
:104D9000C616D70609F4A501672B11F05394EFCF7F
:104DA0004F3F5407B1F1B70102C0660F771F4A9514
:104DB000E2F7462AA701052C02C0440F551F0A94AA
:104DC000E2F7415051094416150609F512962D9146
:104DD0003C911397989EF001999EF00D1124ED5C83
:104DE000FA4F30872783248210821182128701872D
:104DF00071E015967C931597571203C0BD01C80149
:104E000049DFC8010E9487082196C37080CFF9014D
:104E100014820196235F3F4FA6CFAAE1B0E0E3E101
:104E2000F7E20C943A324B8B5C8B6D8B7E8B8F8BC5
:104E3000988F911110923005188A198A1A8A86E083
:104E4000FE017396DE011A9601900D928A95E1F7A4
:104E50008091AE0582FF1CC00E94C21520912903DB
:104E600030912A03821B930B883E934020F080915F
:104E70002B0382FFDCC10E94C215209154033091A4
:104E80005503821B930B883E934010F00E94E30D64
:104E90008E858823C9F061E0CE010A960E94630FD7
:104EA00061E0CE010A960E94630F61E0CE010A968E
:104EB0000E94630F80354CE7940789F48F8588231F
:104EC00011F181E08093A5010A851B852C853D8524
:104ED0004E855F85688979898A891DDED3C08135D1
:104EE0006CE7960729F48F85882369F0C6DEECCF3E
:104EF00082359C4741F48F85882329F08091A50154
:104F00008111F4CFDECF6A857B8580E00E94B40CEE
:104F10001C010FE511E0E12CD12CC12C88248394D5
:104F2000912CF80160817181AA24AA94BA2C20E006
:104F3000422F50E0FA01EE0FFF1FE60FF71F859199
:104F400094912816390609F45A01892B11F02F5F24
:104F5000EFCF80E0FFEFAF16BF0609F455C0F801B0
:104F60004481F090A5018F2D411180E0F82FF17060
:104F7000FF2E3F85F80195818681332309F406C110
:104F8000FF2009F403C178E2672E712CF8E0CF16F8
:104F9000D10419F46EE1662E712C911114C0A40194
:104FA0000A2C01C0440F0A94EAF7842BF801868387
:104FB00080912E0590912F058615970520F470920B
:104FC0002F0560922E05C40102C0880F991F2A95F3
:104FD000E2F70197F80126812817190609F0C9C0E0
:104FE000A090A505B090A605A114B10409F44EC087
:104FF0000E94C2158A199B096816790608F046C0F6
:1050000021E0F801248381E0E82AFFEFCF1ADF0ACC
:10501000095F1F4F2AE0C216D10409F082CF8F85A5
:10502000882309F4F0C0EE2009F4EDC00E94C215F7
:105030009093A6058093A50580913205883010F5E0
:1050400091E0980F9093320599E0FE013A96DE01C7
:10505000119601900D929A95E1F73DE0839FC00172
:1050600011248D5C9A4F29E0FE013196DC010190FC
:105070000D922A95E1F72FEF3FEFFC013287218750
:10508000348623866A96E2E10C9456326091A30539
:10509000B090A405762FF0E0E0E06B1115C070939E
:1050A000A305E017F10709F464C070E0FB01EE0FFF
:1050B000FF1FE556FA4FD182C0826F5F7F4F63704A
:1050C00077276093A40555C0862F90E0FC01EE0F72
:1050D000FF1FE556FA4F20813181B0E0A0E02A3071
:1050E000310540F447E0429FD001439FB00D1124A9
:1050F000A15ABE4F2D913C9111973A8F298F612C67
:10510000A12C712CE72DF0E0EE0FFF1F298D3A8DB9
:10511000E20FF31F2591349121153105B9F0F80103
:1051200040805180A12C05C02417350709F46F2C4D
:10513000A394EA2DF0E0EE0FFF1FE40DF51D45915D
:1051400054914115510581F77394DCCF662029F005
:10515000A71430F0FD01109721F4F0E0E0E012C058
:10516000F80121E024830E171F0729F47093A3058B
:10517000F62C8F2D49CF671305C0AE17BF0711F46A
:105180007F5F73700196682F637087CF792E90E0F0
:1051900071101FC0B40102C0660F771F2A95E2F795
:1051A0009B01215031092817390729F4442349F17B
:1051B000C6010E948708C4010A2C01C0880F0A9406
:1051C000EAF7982F9095F801868189238683F72C3A
:1051D000D0CFAC010A2C02C0559547950A94E2F74E
:1051E0009C012150310982239323892B31F440FF04
:1051F00004C0B801C6014EDDDECF742F7170772E6A
:10520000DACF7F2CD8CF9091A3058091A405981771
:1052100031F06CDDF1E0EF1609F434CF55CEE5DC6A
:105220001092A6051092A5050E94B808F3CF82E05F
:105230000E94E60E20CEA6E0B0E0E1E2F9E20C9496
:1052400048320E94C2158C018091570390915803F7
:105250008017910779F019821A820E94C215682F6F
:1052600049815A81792F80E090E0D7DD109358036F
:10527000009357032696E4E00C9464321F921FB605
:105280001F9211248F939F93AF93BF938091AF058B
:10529000811113C08091B0059091B105A091B20524
:1052A000B091B3054196A11DB11D8093B0059093B7
:1052B000B105A093B205B093B305BF91AF919F9193
:1052C0008F911F901FBE1F901895CDB7DEB72F97F7
:1052D0000FB6F894DEBF0FBECDBF85B7806885BF1F
:1052E00085B7806885BF84B7877F84BF0FB6F89481
:1052F000A8958091600088618093600010926000A2
:105300000FBE80E890E00FB6F89480936100909310
:1053100061000FBE81E08093A90185E79BE0909337
:10532000DD028093DC020E943C060E94DD06809133
:10533000E20084608093E20078948091BF05882326
:10534000A1F01091E9001F709091EC00892F8170FD
:1053500090FD80E8182B1092E9008091E80083FD11
:105360000E94C8181F701093E90082E084BD93E08A
:1053700095BD9AEF97BD80936E001092B70310927F
:10538000B8031092B9031092BA038091D8008061DB
:105390008093D8002AE12A95F1F700C08091D900C6
:1053A000182F117080FD04C00E943C061092BF05AA
:1053B0001093C9051093CA05111199C094E09093F8
:1053C000C40384E0891B8093C30384E90E94770BA4
:1053D00086E60E94770B87E90E94770B86EC0E9495
:1053E000770B0FEE11E0D8018D918D018F3F11F0F9
:1053F0000E94770BB1E0053F1B07A9F788E0E7ECB7
:10540000F3E0DF01282F1D922A95E9F7EBEBF3E09B
:10541000DF011D928A95E9F790E080E00E942A332F
:10542000833E9E4FB1F163EE7EEF90E080E00E94FC
:10543000583360E082E090E00E943E3381E090E0EB
:105440009093C6038093C50361E083E090E00E94DF
:105450003E3360E074E184E090E00E9458330E94A3
:105460002C1240E050E0BA018FE090E00E945033EF
:1054700040E050E0BA0183E190E00E94503348E000
:1054800050E067E170E08CE196E00E942F331092CB
:10549000240682E090E00E9422338093D70384E0C8
:1054A00090E00E942A339093AE058093AD050E9450
:1054B000D715EFEFF6E721E0E150F0402040E1F7AB
:1054C00000C000000E94D7158091CA05E4E0811158
:1054D000E0E0F0E0E953FC4F808181FF10C06FEF06
:1054E0007FEF90E080E00E9458330E9492075AD6E6
:1054F0008091CA05882309F461CF90E060CF83E0F2
:1055000090E00E94223390E00E940E0F0E94D50886
:1055100081E08093240648E050E067E170E08CE190
:1055200096E00E9412331092240680911C068C7F14
:1055300011F40E942C128091C9058111FAC082E0F9
:105540008093560480E880932C06CCD46BE070E006
:105550008BEB92E00E945111882309F443C08091A3
:10556000560465E070E081FDE6C086EB92E00E94A3
:1055700051118823B9F16DE070E084EA92E00E9455
:105580005111882379F10E94A3076F837887898757
:105590009A87DC01CB01805D9A48AF4FBF4F809363
:1055A000610490936204A0936304B0936404EFE2F7
:1055B000F6E080E092E0DF019C011D922150304036
:1055C000E1F7F0933608E09335088FEF9FEF909363
:1055D0002E0680932D0681E08093660480936504F7
:1055E000109257048091C905811101C0DED588E46D
:1055F00091E09093AA058093A9051AE0812E912C41
:10560000A12CB12C8091BF05853089F411E000E414
:10561000A0E1FA2EB2E1EB2E8091BF05853009F4AE
:105620008DC00E94A8180E94740810925B040E940A
:10563000D715F8ED2F2EF3E03F2E47EC53E05887B7
:105640004F83DA01F10191918D9153E0E03EF5072E
:1056500009F4DCC09817B9F34090C905EFECEE2EC1
:10566000E3E0FE2ED12CAF81B885CD90B887AF8313
:10567000F10161901F016C1409F447C06C2410E023
:1056800000E077247394862D8721A9F15C2C5720A4
:10569000442011F1D7018C9190E021E030E0002E00
:1056A00002C0220F331F0A94E2F782239323892B2F
:1056B00099F40983DA820E94C2159C838B83B1E03E
:1056C000BD8391E0511001C090E09E8349815A81D1
:1056D0006B817C818D81A1DB51100DC081E090E058
:1056E000002E01C0880F0A94EAF7982F9095F701D1
:1056F000808189238083770C0F5F1F4F063011054F
:1057000009F0C1CFF1013197C082D394FFEFEF1AB6
:10571000FF0A28E0D212A7CF0E94900B6093E0030B
:105720007093E1038093E2039093E30331E03F87BA
:1057300071C080E005CF81EB92E019CF8091BF0569
:10574000843009F432C00E94AB1180915B04811156
:1057500005C00E94BC0A80E00E94840910935B048B
:105760000E945E111092AF0548E150E00FB6F89428
:10577000A895409360000FBE0093600083B7817FBF
:10578000846083BF83B7816083BF7894889583B733
:105790008E7F83BF0FB6F894A895809160008861D2
:1057A00080936000109260000FBE0E94D715E7EC56
:1057B000F3E0AFECB3E080E021912D9391E0211173
:1057C00001C090E0892B2FEC33E02E173F07A1F7A3
:1057D000882309F421CF8091BE05882309F41CCFCA
:1057E000F9BCE9BC09B400FEFDCF8091D8008F7DE3
:1057F0008093D8008091E00082608093E0008091E7
:10580000E00081FDFCCF0E94A81806CF981324CF9A
:1058100012DD1F868091C905882309F403C1809198
:10582000A501882311F10091A5051091A605011588
:105830001105D9F00E94C215801B910B20912E05F5
:1058400030912F052817390780F49091A305809196
:10585000A405981709F4F0C149DA10922F051092A7
:105860002E051092A6051092A505C090EF03D090CA
:10587000F0030D2C000CEE08FF0810915201212FAF
:1058800030E0EFEEF3E081E090E032962817390740
:105890000CF0D7C14090EB035090EC036090ED0307
:1058A0007090EE030E94A307DC01CB0184199509D7
:1058B000A609B7092C013D0199EC49165104610470
:1058C00071040CF18091EA0390E0019669E170E0C7
:1058D00014D68093EA03880F991FFC01E151FC4F15
:1058E00011821082812F183108F087E18F5F809339
:1058F00052010E94A3076093EB037093EC03809323
:10590000ED039093EE03A2E0CA16D104E104F10482
:105910000CF4A3C1A0E6BAEEA701960145D66F83A9
:10592000788789879A87B8EC1B9F90011124032EF2
:10593000000C440B550B240D351D461D571DA5E0CD
:10594000B0E032D66B877C878D879E876F817885A4
:1059500089859A852B853C854D855E85E1D5290114
:105960003A01E1EF4E165104610471042CF060EF2E
:10597000462E512C612C712CC090E603D090E70389
:10598000E090E803F090E9030E94A3079B01AC01BB
:105990002C193D094E095F0969017A0135E6C316E4
:1059A000D104E104F10484F00E94A3076093E603AC
:1059B0007093E7038093E8039093E90380912A04AE
:1059C0008093E5034092E4031091E503A091E40382
:1059D000A11BBB0BA7019601F1D56F83788789873F
:1059E0009A8724E630E040E050E0BCD5120F1093D7
:1059F0002A0480915E0182FF15C00E94C215BC017D
:105A000080912A0590912B05AB01481B590B4C3D09
:105A1000510540F041E254E080912C0590912D0514
:105A20000E94041D0E94AB1180916604882309F432
:105A3000F3C000915804109159040E94C215801BB4
:105A4000910BC29708F4BEC00E94C21590935904EE
:105A5000809358048FE296E090933608809335083F
:105A60008091C905882309F40AC180E193E00E946E
:105A70003F1080913004909131040E943F0F82309A
:105A800009F4F7C008F0EDC08111F0C088E093E0A0
:105A90000E947D1082EE92E00E943F1080913504BA
:105AA000805D0E94C00F80EE92E00E943F108091C6
:105AB0003404805D0E94C00F8EED92E00E943F1082
:105AC000809154010E94C00F83ED92E00E947D10EE
:105AD0008CEC92E00E943F1080913204909133044C
