:10000000B1C40000CCC40000CAC400000C940F2985
:10001000C6C40000C4C40000C2C40000C0C40000C4
:10002000BEC40000BCC400000C946D0F0C94CD1530
:100030000C94EF22B4C40000B2C40000B0C40000AD
:10004000AEC40000ACC40000AAC40000A8C40000F4
:10005000A6C400000C945510A2C40000A0C4000067
:100060009EC400009CC400009AC4000098C4000014
:1000700096C4000094C4000092C4000090C4000024
:100080008EC400008CC400008AC4000088C4000034
:1000900086C4000084C4000082C4000080C4000044
:1000A0007EC400007CC400007AC400000400150077
:1000B00000001A00090000000C00120000001600E9
:1000C00017000000110008000000090013000000E4
:1000D0000F00180000000B003600000008000C00A4
:1000E00000001500160000002020202061626364DB
:1000F00065666768696A6B6C6D6E6F707172737438
:1001000075767778797A3132333435363738393015
:10011000524542545F2D3D5B5D5C233B27602C2E96
:100120002F2020202B0014001A00090013000500C6
:10013000A15204001500160017000A00A2521D006B
:100140001B00060007001900000000000000777C7B
:1001500006282C00310033001C0018000F000D0091
:10016000340012000C000800110010001932380091
:10017000370036000B000E00000000000000787C05
:100180002A00280029003A003B003C003D003E00C8
:10019000A1521E001F00200021002200A2520100D7
:1001A00001000100A4520100000000000000010055
:1001B000E3002C00350243004200410040003F00B4
:1001C00035002700260025002400230019323002C4
:1001D0002F0231022E022D0200000000000001005B
:1001E0004C00280029001E021F02200221022202C8
:1001F000A15201000100AE00AC00AB00A252010010
:100200000100A800AA00A9000000000000000100F1
:10021000E3002C00010027022602550024022302DD
:1002200035004F00510052005000010019323000DB
:100230002F0001002E002D00000000000000010032
:100240002A002800290044004500010001000100A7
:10025000A15242784378457849784A78A252407E44
:100260000100010001000100000000000000010089
:10027000E3002C000100010001004D004A00210AAA
:100280000100010001005101520150010100010073
:1002900001004B004E004F01000000000000010073
:1002A0002A00280000DA0281FFD9F1DB20A4A62E63
:1002B000AF00A0C0D30000A1C8D30000AED580A875
:1002C0001F408D142000554E4B4E4F574E00414459
:1002D0004A5553540053594D424F4C004E554D42D0
:1002E000455200434F4C454D414B004C617965727E
:1002F0000A004B4545424D414B45520A0A0000AFAA
:1003000000AE05010980A101850319012AB7001576
:100310000126B700950175108100C0050C0901A1E7
:1003200001850419012AA002150126A00295017574
:10033000108100C005010906A1018506050719E025
:1003400029E71500250195087501810205071900A7
:1003500029EF1500250195F07501810205081901A5
:100360002905950575019102950175039101C00557
:10037000010906A101050719E029E71500250195E6
:100380000875018102950175088101050719002989
:10039000FF150026FF009506750881000508190164
:1003A0002905150025019505750191029501750333
:1003B0009101C009023B00020100A0FA09040000FB
:1003C0000103010100092111010001224400070578
:1003D0008103080001090401000103000000092154
:1003E00011010001226D00070582032000011201A6
:1003F0000002000000085346010001000102000154
:100400000C0343006F0072006E00650000001003D3
:1004100066006F006F007300740061006E000000E2
:10042000040309040000000000003E5B4F5B3E0037
:100430003E6B4F6B3E001C3E7C3E1C00183C7E3CDD
:1004400018001C577D571C001C5E7F5E1C000018A6
:100450003C180000FFE7C3E7FF0000182418000065
:10046000FFE7DBE7FF0030483A060E00262979292E
:100470002600407F05050700407F05253F005A3CC8
:10048000E73C5A007F3E1C1C0800081C1C3E7F00F5
:1004900014227F2214005F5F005F5F0006097F0166
:1004A0007F00006689956A0060606060600094A2C9
:1004B000FFA2940008047E04080010207E20100093
:1004C00008082A1C0800081C2A0808001E10101022
:1004D00010000C1E0C1E0C0030383E383000060E8A
:1004E0003E0E060000000000000000005F0000005B
:1004F000000700070000147F147F1400242A7F2ABD
:100500001200231308646200364956205000000888
:1005100007030000001C224100000041221C0000D3
:100520002A1C7F1C2A0008083E0808000080703042
:1005300000000808080808000000606000002010A3
:10054000080402003E5149453E0000427F40000041
:100550007249494946002141494D33001814127F20
:1005600010002745454539003C4A494931004121A1
:1005700011090700364949493600464949291E00F4
:1005800000001400000000403400000000081422A5
:100590004100141414141400004122140800020134
:1005A000590906003E415D594E007C1211127C0033
:1005B0007F49494936003E41414122007F41414146
:1005C0003E007F49494941007F09090901003E4138
:1005D000415173007F0808087F0000417F410000FF
:1005E0002040413F01007F08142241007F404040ED
:1005F00040007F021C027F007F0408107F003E4104
:1006000041413E007F09090906003E4151215E003B
:100610007F091929460026494949320003017F0113
:1006200003003F4040403F001F2040201F003F404C
:1006300038403F0063140814630003047804030087
:100640006159494D4300007F4141410002040810B7
:100650002000004141417F000402010204004040AB
:100660004040400000030708000020545478400038
:100670007F284444380038444444280038444428FF
:100680007F0038545454180000087E0902001824D2
:10069000241C78007F080404780000447D4000009A
:1006A0002040403D00007F102844000000417F4072
:1006B00000007C04780478007C0804047800384446
:1006C000444438007C1824241800182424187C0082
:1006D0007C080404080048545454240004043F4493
:1006E00024003C4040207C001C2040201C003C405A
:1006F00030403C004428102844004C9090907C00EE
:100700004464544C44000008364100000000770067
:1007100000000041360800000201020402003C26ED
:1007200023263C0000000000000000000000000044
:1007300000000000C0E0F0F8F81800C0F0FCFEFF78
:10074000FFFFFFFFFFFF7E00000000000000000031
:1007500080C0E0E0E0E0E0E0E0E0C0800000000019
:1007600080C0E0E0E0E0E0E0E0E0C080000000E029
:10077000E0C0C0E0E0E0E00000E0E0C0C0E0E0E0B9
:10078000E0E0C0800000000080C0E0E0E0E0E0E0E9
:10079000E0E0C08000000000000000000000000059
:1007A0000000E0F0F0F0E0ECEEF7F37020007C7C6D
:1007B0007C7E007E7E7E7F7F7F000080C0E07E5B4F
:1007C0004F5BFEC00000C000DCD7DEDEDED7DC0001
:1007D000C000000000000000000000000000000059
:1007E00000000000000000000000000000F8FCFE17
:1007F000FFE000FFFFFFFFFFFF80FFFFFFFFFFFFA6
:10080000FFFFFF1F0701000000000000000000FFC5
:10081000FFFF8100000000000081C3C3C30000FF90
:10082000FFFF8100000000000081FFFFFF0000FFCC
:10083000FFFF01000000000000FFFFFF01000000BB
:100840000001FFFFFF0000FFFFFF9D1C1C1C1C1C84
:100850001C9DDFDFDF000000000000000000000042
:1008600000000F1F3F7F7F7F7F7F3F1E0C001F1FF9
:100870001F3F003F3F3F7F7F7F00307B7F783020EE
:100880002030787F3B0003000F7F0F0F0F7F0F009A
:100890000300000000000000000000000000000055
:1008A00000000000000000000000000000030F1F17
:1008B0003F3F3F3F1F1F3F3F7F7F7F3F3F1F3F7FA8
:1008C0007F7F7F7C7878381C0F00000000000000DC
:1008D00001030707070707070707030100000000D8
:1008E00001030707070707070707030100000007C1
:1008F00007070000000000000007070700000000D5
:1009000000000707070000000103070707070707A4
:1009100007070301000000000000000000000000C5
:1009200000000000000000000000000000000000C7
:1009300000000000000000000000000000000000B7
:1009400000000000000000000000000000000000A7
:100950000000000000000000000000000000000097
:100960000000000011241FBECFEFDAE0DEBFCDBFD4
:1009700011E0A0E0B1E0E2E2F6E502C005900D92E0
:10098000A83DB107D9F726E0A8EDB1E001C01D925E
:10099000A630B207E1F70E9416230C94DC2A30CB74
:1009A000982FE091F7034091AE0359E0E41302C0A1
:1009B00080E008952E2F30E05E9FF0011124E15574
:1009C000FC4F8181681306C08081981303C0858124
:1009D0008111EFCFF9013196E770E8CFFC01AC014E
:1009E0004C5F5F4F8FEF91E32191822728E030E049
:1009F00087FF09C0880F892721503109C9F7E417FB
:100A0000F50791F70895880FF7CFE8EDF0E08081C2
:100A10008E7F80831092E2001092DA001092E10043
:100A2000A0EEB0E08C9181608C9380818F77808381
:100A300019BCA7EDB0E08C918E7F8C9380818F7E66
:100A400080831092990308952091E4003091E5008D
:100A500095E6A9012091EC00822F817020FF06C04D
:100A60008091E80080FF06C080E008952091E800B2
:100A700022FD1AC08091A403882389F0853089F073
:100A80008091EB0085FD0FC02091E4003091E500DE
:100A900042175307F9F29150E1F684E0089582E09D
:100AA000089583E0089581E008958091A60387FF6B
:100AB00013C08091E80082FF06C08091E8008B7728
:100AC0008093E80004C08091A4038111F2CF0895BF
:100AD0008091A4038823D9F38091E80080FFF8CFA8
:100AE0008091E8008E77ECCF982F9093E900242F27
:100AF000762F50E0891731F07091EC002091ED00D5
:100B00005091F00021FD07C09F5F973071F78093EF
:100B1000E90081E008953091EB003E7F3093EB00D7
:100B20003091ED003D7F3093ED003091EB0031606E
:100B30003093EB007093EC002093ED005093F000A5
:100B40002091EE0027FDE0CF80E00895B0E0A0E026
:100B5000ECEAF5E00C943E2AC8EDD0E088818F7E67
:100B60008883E7EDF0E080818160808384E082BF4C
:100B700081E08093990388818E7F888302EE10E064
:100B8000F80110821092DA0081EEC82ED12CF60105
:100B9000108288818F7788838881806888838881A4
:100BA0008F7D888319BC1092A4031092A503109224
:100BB000A3031092A20390EEE92EF12CF70180819D
:100BC0008B7F808388818160888342E060E080E061
:100BD0008BDFF60180818E7F8083F80180818160C8
:100BE0008083808188608083F70180818E7F80830D
:100BF000888180618883CDB7DEB7E8E00C945A2AFB
:100C0000FC01CB012091AC033091AD0326173707CF
:100C100090F0009729F42091E8002E772093E800C7
:100C200040E0009751F4411108C08091E80082FF34
:100C300031C080E00895C901F3CF2091A40322239D
:100C4000A9F12530A9F12091E80023FD2DC02091C4
:100C5000E80022FDEACF2091E80020FFE2CF3091AA
:100C6000F3002091F200009719F02830310558F078
:100C700041E02830310509F040E02091E8002E776E
:100C80002093E800CECF41914093F10001972F5F70
:100C90003F4FE9CF8091A403882341F0853041F094
:100CA0008091E80083FFC1CF81E0089582E008953C
:100CB00083E00895089587E797E79093010880936C
:100CC000000888E19AE00FB6F894A8958093600038
:100CD0000FBE90936000FFCFA4E0B0E0E2E7F6E043
:100CE0000C94442A8FB7F894209195033091960381
:100CF000409197035091980329833A834B835C83F7
:100D00008FBF69817A818B819C812496E2E00C946B
:100D1000602A80918B01089590918C019130E1F4CB
:100D20009091920397FF18C0E82FE695E695E69517
:100D3000803FF0F4F0E0EE51FE4F877021E030E0AC
:100D4000A90102C0440F551F8A95E2F7CA01809598
:100D50009281892382830895ECEDF1E091918913CA
:100D600003C0DF0111971C9251E0E23EF507B1F795
:100D7000089590918C019130C1F49091920397FF66
:100D800014C0E82FE695E695E695803FF8F4F0E08C
:100D9000EE51FE4F877021E030E001C0220F8A95AE
:100DA000EAF78281822B82830895ACEDB1E0EFEF08
:100DB00090E02D91821751F0EF3F19F4211101C0FD
:100DC000E92F9F5F9630A9F7EF3F09F408950E2EA3
:100DD000000CFF0BE652FE4FE6CFA3E0B0E0E3EFDE
:100DE000F6E00C94442A9C01809190039091910329
:100DF00082179307B1F03093910320939003E09111
:100E00008E03F0918F03309761F00084F185E02D1F
:100E1000309739F084E089833B832A83CE010196A1
:100E200009952396E2E00C94602AA3E0B0E0EBE1A0
:100E3000F7E00C94442A9C0180918C0390918D03DF
:100E400082179307B1F030938D0320938C03E091C8
:100E50008E03F0918F03309761F00084F185E02DCF
:100E6000309739F083E089833B832A83CE01019652
:100E700009952396E2E00C94602A80918A038823E6
:100E800069F0E0918E03F0918F03309739F0019073
:100E9000F081E02D309711F00995089580E00895D4
:100EA0009C015091860360918703452F641301C014
:100EB0000895842F90E0FC01EE0FFF1FE258FC4FD5
:100EC0000190F081E02DE217F307B9F4F0E0E0E0E3
:100ED0002A30310540F467E0629FF001639FF00D16
:100EE0001124ED5BFE4F21E024834513E1CF0196F1
:100EF000837099278093860308950196482F437045
:100F0000D5CF1092120310921103E3E4F1E089E8C7
:100F100091E02581211102C01482168237968E1726
:100F20009F07B9F7089580E00895F894E82FE295B7
:100F3000EF70F0E041A18F7021E030E0B90102C014
:100F4000660F771F8A95E2F7CB01962F9095942331
:100F500091A392A1892B82A378940895A4E0B0E094
:100F6000E4EBF7E00C94442A80918A03882369F02B
:100F7000B3DE69837A838B839C8369817A818B81D9
:100F80009C812496E2E00C94602AA6DE69837A8331
:100F90008B839C838091890290918A02A0918B021D
:100FA000B0918C0229813A814B815C81280F391FD5
:100FB0004A1F5B1F29833A834B835C83DECF90916A
:100FC000920392FF10C041E0282F2471243009F0D1
:100FD00040E031E0282F2871283009F030E0431735
:100FE00011F02CE0822793FF10C041E0282F2471DC
:100FF000243109F040E031E0282F2871283109F030
:1010000030E0431711F02CE082273091930330FF3A
:1010100010C051E0282F2171213009F050E041E04B
:10102000282F2871283009F040E0541711F029E0EA
:10103000822731FF10C041E0282F2171213109F0B2
:1010400040E031E0282F2871283109F030E04317C3
:1010500011F029E0822794FF02C083FD877E089566
:10106000803E9105C1F1C8F48133910509F47DC03A
:1010700048F48932910509F46DC08A32910509F46A
:101080007BC0089589339105D1F082389105B9F07C
:101090008533910509F459C00895843E9105C1F145
:1010A00038F4823E910521F1833E910531F1089596
:1010B000863E9105C1F1873E9105E1F108952091A9
:1010C0009203237009F065C02091930323FF14C09D
:1010D00089E290E008952091920320FD43C0309171
:1010E000930330FF09C024FF4EC090E080E00895D4
:1010F0002091920322FDF7CF08952091920322FDC3
:1011000045C03091930330FD44C024FFF5CFEDCFAF
:101110002091930321FFF0CF8091920384FDE5CFCE
:1011200087EE90E008952091920323FFE5CF24FD00
:10113000DCCFF6CF2091920323FD2EC03091930394
:1011400031FFE3CF84EE90E008952091920325FFD4
:10115000D3CFBECF2091920325FD21C020919303D0
:1011600023FFCACF89E390E0C7CF2091920326FFE7
:10117000C3CF8AE290E008952091920326FFBCCF6E
:1011800081E390E0089583EE90E0089582EE90E090
:10119000089580EE90E0089586EE90E0089585E34E
:1011A00090E008957830B8F46630A8F48430B0F454
:1011B000E62FF0E096E0799FE00DF11D112490E319
:1011C000899FE00DF11D1124EE0FFF1FEC5DFE4F16
:1011D00085919491089580E090E0089581E0FCCF9E
:1011E0001F93CF93DF933CDFEC018115924508F00C
:1011F0005CC0C11580E5D80708F0D9C0C03ED10554
:1012000038F5CD3CD10508F0ABC0C83AD10580F423
:10121000C53AD10508F0A1C0C130D10509F440C0DC
:10122000CE010497813A9105D8F1D0E0C0E038C0F2
:10123000CE01885A91094B97C0F7C85AD0E0CC0F1D
:10124000DD1FC257DE4F0990D881C02DD46428C05D
:10125000C11590E4D907E0F4C11520E2D20708F0E7
:10126000C0C0C83ED105E0F0CE019A9581159F41DE
:10127000E0F68D2FA4DE182FCE019927F1DEC12FC5
:10128000D0E0DC2FCC27CC27DF71C82BD92B08C0AE
:10129000CE019927E5DECC27DF70C82BD92BD06A89
:1012A000CE01DF91CF911F910895C03882E5D80714
:1012B000B8F5C03692E5D90708F05BC0C03422E526
:1012C000D207C8F4C03282E5D80708F04BC02C2FF3
:1012D0002695269590E2299F900111248C2F8370EA
:1012E000C1E0D0E002C0CC0FDD1F8A95E2F7C22B2F
:1012F000D32BDD68D5CF2C2F26952695277080E23D
:10130000289F900111248C2F8370C1E0D0E002C08F
:10131000CC0FDD1F8A95E2F7C22BD32BDC68C0CF40
:10132000C03C92E5D90760F48C2F8F71C03AD2454A
:10133000A8F5C82FD0E0DC2FCC27C46FD06AB0CF7F
:10134000CE01805C9245809708F06FCFDC2FCC27D0
:10135000CC27DF71C06FD06AA3CFA497D064A0CF91
:10136000D0659ECFCF71D0E0DC2FCC27C16FD06A83
:1013700097CF2C2F26952695277080E2289F9001E5
:1013800011248C2F8370C1E0D0E002C0CC0FDD1F90
:101390008A95E2F7C22BD32BDA6882CF10DEC82FF2
:1013A000D0E0DC2FCC27CC27DF71D06279CF8C2F17
:1013B0008F7105DE55E0D695C7955A95E1F7CF7048
:1013C000D0E0DC2FCC27282F30E084FF06C044E09B
:1013D000220F331F4A95E1F73327C22BD32BD06955
:1013E0005FCF8D2F8F71EBDD182FCE01992738DE5F
:1013F000C12FD0E0DC2FCC27CC27DF71C82BD92B15
:10140000D4CF80915202882331F010925202109270
:101410005102109250020895982F90958091EC02FD
:1014200089238093EC0208958091F7039091AE0395
:10143000981301C008958F5F8770FACFB0E0A0E0E5
:10144000E4E2FAE00C943D2A8C01E090BB02F090BB
:10145000BC028091970290919802E82AF92ACFE085
:10146000D0E0CC24C394D12CBC2EC6010C2E02C0DB
:10147000880F991F0A94E2F78E219F21892B49F446
:10148000219790F7B12C8B2DCDB7DEB7E9E00C9406
:10149000592AB8018C2F86DEA3DE019789F3F3CF9A
:1014A000CF93DF93D82FC92FC9DF6D2F7C2F7ADE22
:1014B00097DEDF91CF910895983078F5863068F502
:1014C000E82FF0E086E0989FE00DF11D11249E2F9B
:1014D000977083E0F695E7958A95E1F7EE0FFF1F89
:1014E000EE0FFF1FEC5FFD4F50E040E080E02191E8
:1014F00030E0092E02C0369527950A94E2F7217054
:101500003327042E01C0220F0A94EAF7822B4F5F83
:101510005F4F4430510559F7089580E008959830A1
:1015200098F5863088F5E82FF0E086E0989FE00D8A
:10153000F11D11248E2F877041E001C0440F8A9560
:10154000EAF783E0F695E7958A95E1F7EE0FFF1F3E
:10155000EE0FFF1FEC5FFD4F30E020E070E0519197
:10156000DF011197CB01022E02C0969587950A9450
:10157000E2F7817081958527842385278C932F5FDF
:101580003F4F2430310559F708959093BC02809362
:10159000BB020895E091BB02F091BC0221E030E073
:1015A000D90102C0AA0FBB1F8A95E2F7CD01D9016C
:1015B00002C0AA0FBB1F6A95E2F7BD018A2B972BC9
:1015C00002C0220F331F4A95E2F7AF014823592387
:1015D0008417950721F42E2B3F2BC901D6CF2095D8
:1015E00030952E233F23F9CF21E030E002C0220FB7
:1015F000331F8A95E2F7209530958091BB02909138
:10160000BC0282239323C1CF909127028095892326
:1016100080932702282F277081F4891771F0909109
:10162000930392FF0AC0869586958695DDDF10921A
:1016300027021092260210922502089521E030E040
:1016400002C0220F331F8A95E2F78091BB0290916E
:10165000BC02822B932B99CF909398028093970290
:101660000895FC0184818823A9F0878190850097E3
:1016700099F0B6DD282F92959F709630B1F080F4E6
:10168000925F9F70923030F481E0203FA1F050F4DF
:10169000283E50F080E008C08081918101DFEACFD0
:1016A0009A5FEFCF243FB1F7089581E0283E20F004
:1016B000213F81F7F9CF089508959C01892F99273B
:1016C0000097E9F09C0188E0A90174E056954795E0
:1016D0007A95E1F74115510511F08C5F9A01A90146
:1016E00056954795569547954115510511F08E5FD2
:1016F0009A0136952795232B09F08F5F089580E096
:10170000E3CFA6E0B0E0E7E8FBE00C94432A9C01BD
:10171000FC01878190850097C9F486E0DE0111966F
:1017200001900D928A95E1F7F901258189819A81CD
:10173000222381F0662371F081DE182F682F8981C2
:101740009A81EDDE69817A81812F2CDD2696E3E096
:101750000C945F2AB1DE182FF5CF9C019A95811564
:101760009F4150F5D901AA27B170F901EE27F27017
:10177000B90166277470A9014427587034FF0EC060
:1017800080E1AB2B09F480E0EF2B09F08062672B3E
:1017900009F08064452B89F08068089581E0AB2BC7
:1017A00009F480E0EF2B09F08260672B09F0846078
:1017B000452B19F08860089580E00895CF93DF935A
:1017C000682F81E06A3019F06D3029F480E082D012
:1017D000DF91CF910895809104069091050626E04F
:1017E000FC01AEEFB5E001900D922A95E1F7603E65
:1017F00008F458C026E0FC0111922A95E9F7C0913F
:101800000406D091050646E050E0BE018EEF95E05B
:101810000E94862A9E012E5F3340892B41F1C90127
:1018200045E0969587954A95E1F741E050E0BA0189
:1018300002C0660F771F8A95E2F7CB016091FC0327
:101840007091FD03862B972BB9016B5F7F4FE5E00D
:1018500076956795EA95E1F702C0440F551F6A95A2
:10186000E2F7842B952B9093FD038093FC032A5F72
:101870003F4F4091FB03642F70E0C9010E94202A72
:10188000481B463010F4240F311D211572E0370734
:1018900010F030E020E022503C4F309305062093BA
:1018A000040696CFF6E06F9FB00111246C5D7B4F6C
:1018B00046E050E00E947D2AA2CFCF93DF93EC0157
:1018C000FE018491811103C0DF91CF91089576DFED
:1018D0002196F6CFCF93382FE0910406F0910506BC
:1018E000EE5FF3402091FB03622F70E0CF010E9476
:1018F000202A281B822F332359F066E00E946B2A8E
:10190000C82FC15010F4CF91089580E257DFF9CF6E
:101910009F01280F311D2115324018F080E0F0E0C2
:10192000E0E08E0F9F2F911D82509C4F90930506F3
:1019300080930406E8CFC1DF81E0CCCF0F931F93E3
:10194000CF93DF938B01EA019091A403943059F572
:101950008093E9008FEF9091E800815095FD06C0DB
:1019600095ED9A95F1F700008111F5CF8091E8008F
:1019700085FF19C069D8811111C08091E80085FDEB
:1019800006C08091E8008E778093E800F3CFF801DD
:1019900081918F018093F100219779F78091E80080
:1019A0008E778093E800DF91CF911F910F9108957A
:1019B000BC0143E050E082E0C1CFBC0140E250E016
:1019C00082E0BCCFCF93DF93D82FC92F48E050E0FF
:1019D000682F792F81E0B2DF88E0ED2FFC2FAAE994
:1019E000B3E001900D928A95E1F7DF91CF910895D0
:1019F000B0E0A0E0EEEFFCE00C943C2AF82EE92EDB
:101A0000D62EC72E8A0180918802AA24A394B12CD5
:101A10008A3018F48AE0A82EB12CC1E0D0E06D2DF8
:101A20007C2D8F2D9E2DF8010995811104C02196E2
:101A3000AC16BD062CF4CDB7DEB7EAE00C94582AFC
:101A4000CC9F9001CD9F300D300D112490E080E0AF
:101A500045E34A95F1F70000019682179307C1F715
:101A6000DECFAB0124E630E0BC0188E70E94E52729
:101A70009C0181E0232B09F080E008958091EA0227
:101A80009091EB02911103C091E08927089588237A
:101A900061F062E070E080E093E0E3DF811103C079
:101AA0008091EA0208951092EA028091EA02ECCF56
:101AB000A5E0B0E0EEE5FDE00C94442A8091EA0256
:101AC0008D838091EB028823E1F006D9DC01CB0104
:101AD000805D9A48AF4FBF4F8093E6029093E70234
:101AE000A093E802B093E9028D81811107C062E002
:101AF00070E08EEF92E0B5DF811108C08091EA02BC
:101B00008D838D812596E2E00C94602A81E080939C
:101B1000EA02F4CF9091930392FB222720F9281731
:101B200071F080FB92F9909393036091920370910E
:101B3000930384E090E00E94C82A82E065CD089576
:101B40004F925F926F927F92AF92BF92CF92DF924D
:101B5000EF92FF920F931F93CF93DF9300D000D0AB
:101B600000D0CDB7DEB78D837B01A42EB22E3E838D
:101B70006801DB014D905D906D907C90ADD86983DC
:101B80007A838B839C83DC01CB0184199509A60998
:101B9000B70984369105A105B10510F4AA20E1F139
:101BA000BD810B2F0B2E000C110B88E0B802F00149
:101BB0001124E050FF4F8181928185599D4F4081D2
:101BC00050E0C416D50608F4A6016B2D7E810E9454
:101BD000932AC8010E94B0298983882339F07CD8D0
:101BE000D7016D937D938D939C931397898126964E
:101BF0000FB6F894DEBF0FBECDBFDF91CF911F911E
:101C00000F91FF90EF90DF90CF90BF90AF907F90BB
:101C10006F905F904F900895B1E0B983E7CF0F9335
:101C20001F9341E020917802309179028091BB02AC
:101C30009091BC022817390709F440E002E010E057
:101C40002BEB32E064E872E084E07ADF8823A9F0CD
:101C500041E020917A0230917B028091970290912D
:101C600098022817390709F440E002E010E027E95C
:101C700032E060E872E085E063DF1F910F91089524
:101C80000F931F93CF93DF93D82FC92F44E050E0D9
:101C900060E772E00E94862A41E0892B09F440E067
:101CA00004E010E02D2F3C2F67E672E082E048DF71
:101CB000DF91CF911F910F910895CF92DF92EF9214
:101CC000FF921F93CF93DF93CDB7DEB728970FB660
:101CD000F894DEBF0FBECDBFC0907C02D0907D02D5
:101CE000E0907E02F0907F020E946C06DC01CB0146
:101CF0008C199D09AE09BF0911E084369105A10533
:101D0000B10570F12BD9DC01CB010296A11DB11DEB
:101D100089839A83AB83BC838091190190911A01C6
:101D200085599D4F20911801422F50E0253010F029
:101D300044E050E0BE016F5F7F4F0E94932A83E032
:101D400090E00E94B029182F882351F00E946C0661
:101D500060937C0270937D0280937E0290937F0259
:101D6000812F28960FB6F894DEBF0FBECDBFDF914E
:101D7000CF911F91FF90EF90DF90CF9008958F92B9
:101D80009F92AF92BF92EF92FF921F93CF93DF93F8
:101D9000CDB7DEB729970FB6F894DEBF0FBECDBF23
:101DA0007B0190E080E00E94B029182F882309F47D
:101DB00085C080910301482F50E0882311F041E055
:101DC00050E0609104017091050165597D4FCE018D
:101DD00005960E94932A8090630290906402A090DE
:101DE0006502B09066020E946C06DC01CB01881986
:101DF0009909AA09BB0984369105A105B10540F4EA
:101E00008CE692E00E94EE049D81891709F456C089
:101E100081E090E00E94B02981111FC010E0809104
:101E20005F0290916002A0916102B0916202F7019D
:101E300080839183A283B383812F29960FB6F89470
:101E4000DEBF0FBECDBFDF91CF911F91FF90EF900E
:101E5000BF90AF909F908F90089580910B01482F75
:101E600050E0853010F044E050E060910C0170913A
:101E70000D0165597D4FCE0101960E94932A8CE693
:101E800092E00E94EE049D818913C8CF0E946C06E7
:101E9000609363027093640280936502909366027C
:101EA00089819A81AB81BC8180935F0290936002AB
:101EB000A0936102B093620211E0B1CF80916C02F5
:101EC00090916D02A0916E02B0916F0289839A8306
:101ED000AB83BC831111E4CFA2CF1F920F920FB638
:101EE0000F9211242F933F934F935F936F937F93A0
:101EF0008F939F93AF93BF93EF93FF938091E100F4
:101F000082FF09C08091E20082FF05C08091E1005C
:101F10008B7F8093E1008091DA0080FF24C0809164
:101F2000D80080FF20C08091DA008E7F8093DA0095
:101F30008091D90080FFA9C080E189BD82E189BD7F
:101F400009B400FEFDCF81E08093A4038091990342
:101F5000811109C00E9405050E94A6058091E2003A
:101F600084608093E2008091E10080FF1AC080913C
:101F7000E20080FF16C08091E2008E7F8093E20035
:101F80008091E20080618093E2008091D8008062BD
:101F90008093D80019BC85E08093A40383E08093EC
:101FA0008D018091E10084FF2FC08091E20084FFC9
:101FB0002BC080E189BD82E189BD09B400FEFDCF5F
:101FC0008091D8008F7D8093D8008091E1008F7E32
:101FD0008093E1008091E2008F7E8093E200809107
:101FE000E20081608093E2008091A503882309F4D8
:101FF00052C084E08093A4038091A403843009F448
:1020000052C081E080938D018091E10083FF2CC05C
:102010008091E20083FF28C08091E100877F809358
:10202000E10082E08093A4031092A5038091E10077
:102030008E7F8093E1008091E2008E7F8093E200AA
:102040008091E20080618093E20042E060E080E005
:102050000E9474058091F00088608093F00081E018
:1020600080938D0180938C01FF91EF91BF91AF918F
:102070009F918F917F916F915F914F913F912F91A0
:102080000F900FBE0F901F90189519BC1092A403CB
:102090001092990368CF8091E30087FD02C081E030
:1020A000A9CF83E0A7CF82E0ADCF78941F921FB66F
:1020B0001F9211248F939F93AF93BF9380919503A9
:1020C00090919603A0919703B09198030196A11D5A
:1020D000B11D8093950390939603A0939703B093BB
:1020E0009803BF91AF919F918F911F901FBE1F903A
:1020F00018952FB7F8948091950390919603A0912D
:102100009703B09198032FBF0895CF93DF93EC010D
:10211000F0DF8C1B9D0BDF91CF910895A0E1B0E023
:10212000E4E9F0E10C943A2A1A821982FE0133960E
:1021300086E0DF011D928A95E9F786ECE82E81E0C2
:10214000F82E10E000E0CC24C394D12C20EDA22E78
:1021500021E0B22EF70181917F018F3F09F445C044
:10216000F894E82FE295EF70F0E021A18F70A601BE
:1021700002C0440F551F8A95E2F7CA01922F982B8F
:1021800091A392A18095892382A3789400C0EAEC60
:10219000F1E031E0912C21912F3F09F4A3C0A22F4F
:1021A000A295AF70B0E090968C9190E02F7002C035
:1021B000959587952A95E2F780FD94C0832F982AFC
:1021C000330FAE16BF0639F7F701319780818F3F85
:1021D00011F00E94950750EA5A95F1F7E1E0F0E01E
:1021E000EC0FFD1FE00FF11F90820F5F1F4F0430B7
:1021F000110509F0AFCF48E050E0BE016F5F7F4F9F
:102200008DE892E00E94862A9C01892B49F088E0A3
:10221000FE013196ADE8B2E001900D928A95E1F7AA
:102220000091960210E007561D4F232B09F45CC065
:1022300081E0809357025DDF9093560280935502B0
:10224000F12CE0908A03EE2009F4A9C01A861986C1
:102250001C861B86809188028A3008F06AC04FEB8A
:102260005EE0BE01675F7F4FC801C2DB882309F4CF
:1022700086C040E45EE0BE01675F7F4FC801B8DB07
:10228000882309F47CC04DE55EE0BE01675F7F4FA7
:10229000C801AEDB882309F472C04FE05EE0BE01E6
:1022A000675F7F4FC801A4DB882309F468C01092E0
:1022B00088028091950290E044E050E0BE01675FA3
:1022C0007F4F87569D4F0E94862A21E020935E0211
:1022D000892B09F046C0E12C8E2D8F296096ECE009
:1022E0000C94562A80E06BCFF0905702FF2009F43F
:1022F000A7CFC0905502D0905602FBDE8C199D09E5
:10230000059708F49DCF44E050E06DE872E0C80105
:102310000E94862A892B59F084E0EDE8F2E0D8018A
:1023200001900D928A95E1F7109257028ACFF12C15
:10233000FBCFC0905802D0905902DBDE8C199D096A
:10234000843F914008F08BCF80915E02882319F280
:10235000FE01399684E0DF011D928A95E9F710921B
:102360005E02E0919502F0E0E756FD4F89859A857F
:10237000AB85BC8580839183A283B383ADCF8091ED
:1023800088028F3F31F08F5F809388028A3008F493
:1023900090CFAFDE9093590280935802D5CFC09072
:1023A0009502D12CF601E756FD4F6F01F8018081AF
:1023B0009181A281B38180936C0290936D02A0936E
:1023C0006E02B0936F028CE692E00E94EE0480935E
:1023D0006B028091700290917102A0917202B09193
:1023E0007302F60180839183A283B3838090740289
:1023F00090907502A0907602B090770280915A0278
:1024000090915B02A0915C02B0915D0288169906E2
:10241000AA06BB06B1F080925A0290925B02A0928B
:102420005C02B0925D020E946C06861A970AA80AA6
:10243000B90A8092890290928A02A0928B02B0928D
:102440008C0280917802909179029093BC028093E3
:10245000BB0280917A0290917B02909398028093C4
:1024600097023ACFCF93C82F8091930382FF0BC07E
:10247000809152028C1739F03CDE90935102809388
:102480005002C0935202CF910895CF93C091EC02B5
:1024900080911303C82B80915202882301F129DE19
:1024A0002091500230915102821B930B883E934041
:1024B00010F00E94010A80915202C82B80918C0179
:1024C000813081F48091920387FF0CC02EE184EE6D
:1024D00091E030E0215050F431110E94010A8C2F1C
:1024E000CF91089526E08CED91E0F3CFFC0141916E
:1024F000CF01442379F33F5FEDCF80918C01813090
:1025000061F58091920387FF28C0BFDF8093E301CC
:1025100040E250E068E272E082EE91E00E94862A9A
:10252000892BD1F080E2E2EEF1E0A8E2B2E0019086
:102530000D928A95E1F7E0918E03F0918F03309729
:1025400059F00480F581E02D309731F086E08093DA
:10255000E20182EE91E00995089597DF8093DA0118
:1025600048E050E068E472E08AED91E00E94862A3B
:10257000892B91F388E0EAEDF1E0A8E4B2E0019064
:102580000D928A95E1F7E0918E03F0918F033097D9
:1025900019F30280F381E02D3097F1F28AED91E09A
:1025A000DACF80914201877F80934201909113039B
:1025B0009D7F9093130384FF08C08F7E8093420118
:1025C0008091EC0282608093EC028091420185FF51
:1025D00008C08F7D809342018091EC0280628093DD
:1025E000EC028BCF1092EC0280918C018130B1F41F
:1025F0008091920387FF12C0E4EEF1E08EE1DF01EB
:102600001D928A95E9F790E080E00E94150790E01E
:1026100080E00E94ED06109213036FCFECEDF1E025
:1026200086E0EDCFAAE2B0E0E8E1F3E10C94432AC2
:1026300086EA93E0FC0101962091F100208323E0DB
:102640008E3A9207B9F78091A703893009F459C0EF
:10265000C8F4823009F4B5C0833009F484C08130F5
:1026600089F18091E80083FF86C28091A603909152
:10267000A7039A3008F07FC2E92FF0E0E252F54D4F
:102680000C94772A8A3009F48BC08B3051F78091F3
:10269000A603813231F78091AA039091AB03892B75
:1026A00001F78091E800877F8093E8000E9455053C
:1026B00081E09091A803911101C080E080938C018A
:1026C00091DFCFCF8091A603813A59F68091E8003F
:1026D000877F8093E8008091AA039091AB03892BB8
:1026E00061F468E08AE993E070E00E94000680915E
:1026F000E8008B778093E800B4CF60E090E080E062
:10270000F3CF8091A603813209F0ABCF8091AA0369
:102710009091AB03029708F0A4CF8091E800877FE7
:102720008093E8008091E80082FF18C09091F30048
:102730008091F200029731F48091F100813011F024
:10274000863021F48091F10080938B018091E80024
:102750008B778093E8000E94550583CF8091A40376
:102760008111E0CF7ECF8091A603813A09F079CF25
:102770008091AA039091AB03892B09F072CF8091CD
:10278000E800877F8093E8008091E80080FFFCCF1D
:1027900080918C018093F1008091E8008E77D9CFF1
:1027A0008091A603813209F05CCF8091E800877F99
:1027B0008093E8000E9455058091A90380938A01C7
:1027C00050CF8091A603813A09F04BCF8091E80069
:1027D000877F8093E8008091E80080FFFCCF8091A4
:1027E0008A01D8CF803899F0823809F0C4C180912D
:1027F000AA038F70873008F0BEC18093E9008091F2
:10280000EB0085FB882780F91092E90006C08091D3
:10281000A2039091A303911182609091E800977FA9
:102820009093E8008093F1001092F1008091E8000D
:102830008E779DC1882309F48BC1823009F09BC13A
:102840008091A80381118EC18091AA038F702FEF10
:10285000280F263008F08FC18093E9002091EB000B
:1028600020FF80C1933031F48091EB00806280932F
:10287000EB0078C19091EB0090619093EB0021E028
:1028800030E001C0220F8A95EAF72093EA00109207
:10289000EA008091EB008860EACF81116CC1109151
:1028A000A8031F778091E3008078812B8093E30059
:1028B0008091E800877F8093E8000E945505809111
:1028C000E80080FFFCCF8091E30080688093E30004
:1028D00082E0111183E08093A4034DC180588230BF
:1028E00008F049C14091A8035091A9034C3D83E0F1
:1028F0005807A1F583E08A838AE289834FB7F89469
:10290000DE01139620E03EE051E2E32FF0E0509329
:102910005700E49120FF03C0E295EF703F5FEF7036
:102920008E2F90E0EA30C0F0C7968D939D932F5F75
:10293000243159F74FBF8091E800877F8093E800EA
:102940006AE270E0CE0101960E9400068091E800E4
:102950008B778093E8000FC1C096E7CF2091AA0340
:102960003091AB03852F99278330910509F160F4ED
:102970008130910509F472C0029709F0FCC08BE325
:1029800090E0E3EBF3E029C08132910509F45AC0ED
:10299000829709F0F0C02115310509F469C0213092
:1029A000310509F0E8C08DE690E0E2E0F3E015C003
:1029B000CA0199274130B1F18230910509F43AC03A
:1029C000892B09F0D8C0E0E2F4E0E4918E2F90E08A
:1029D000E0E2F4E0009709F4CEC02091E800277F00
:1029E0002093E8002091AC033091AD038217930748
:1029F00008F49C0140E02115310509F03EC0411169
:102A00003CC08091E80082FDA1CF8091A40388237F
:102A100009F49CCF853009F499CF8091E80083FFB9
:102A2000F0CF94CFEEE0F4E0E4918E2F90E0EEE072
:102A3000F4E0D0CFE0E0F4E0E4918E2F90E0E0E02D
:102A4000F4E0C8CF2115310571F02130310509F0CE
:102A500092C089E090E0EEEDF3E0BFCF82E190E03C
:102A6000EEEEF3E0BACF89E090E0E5ECF3E0B5CF2D
:102A700084E490E0EFE6F3E0B0CF8091A4038823F4
:102A800009F464CF853009F461CF8091E80083FDBB
:102A90005DCF8091E80082FDB4CF8091E80080FF97
:102AA000AACF9091F3008091F2002115310519F021
:102AB0008830910550F041E0089709F040E080919E
:102AC000E8008E778093E80096CF44914093F10020
:102AD0003196215031090196E8CF803809F04BC07A
:102AE0008091E800877F8093E8008091A503809320
:102AF000F1009CCE81113FC01091A8031230D8F58F
:102B00008091E800877F8093E8001093A5030E94DE
:102B10005505112311F084E005C08091E30087FD85
:102B2000FACF81E08093A40342E061EC81E00E944F
:102B3000740542E261EC82E00E9474058091A40376
:102B4000843021F081E080938D0115C082E0FBCFBD
:102B50008091A803813079F481E0933009F080E01E
:102B60008093A3031092E9008091E800877F80930F
:102B7000E8000E9455058091E80083FF0AC080911B
:102B8000E800877F8093E8008091EB00806280936B
:102B9000EB00AA96E3E00C945F2A1F920F920FB607
:102BA0000F9211242F933F934F935F936F937F93D3
:102BB0008F939F93AF93BF93CF93DF93EF93FF9345
:102BC000D091E900DF708091EC00C82FC17080FDCA
:102BD000C0E81092E9008091F000877F8093F000B8
:102BE000789420DD1092E9008091F0008860809355
:102BF000F000CD2BCF70C093E900FF91EF91DF91F2
:102C0000CF91BF91AF919F918F917F916F915F9184
:102C10004F913F912F910F900FBE0F901F901895DD
:102C2000E1DC88E19AE00FB6F894A8958093600003
:102C30000FBE90936000FFCF882339F0809590916C
:102C4000130389238093130358CC0895882331F00C
:102C500090911303892B809313034FCC08958823FD
:102C600019F00E940C0A49CC0895882331F0909104
:102C7000EC02892B8093EC0240CC0895882321F14B
:102C80009CEF980F913A18F40E948C0636CC90E293
:102C9000980F983050F4877091E001C0990F8A9591
:102CA000EAF7892F0E940C0AF1CF9BE5980F933029
:102CB00020F490E080E00C941507885A8B3120F4C2
:102CC00090E080E00C94ED060895CF93DF93EC0143
:102CD000D5DFCE010E94AD0B9E01205E3109283068
:102CE000310510F0CD2B21F4BADFDF91CF9108959B
:102CF000A3DFFBCFCF93C82F8823A9F18CEF8C0FD4
:102D0000813A98F580918C018130F9F48091920399
:102D100087FF1BC0EC2FE695E695E695F0E0EE51B7
:102D2000FE4F828190E04C2F477021E030E002C0DE
:102D3000220F331F4A95E2F782239323892B79F0E0
:102D40008C2F0E948C06D9DB0AC0ECEDF1E082EEFC
:102D500091E02191C217A1F38E179F07D1F78C2F15
:102D60000E94B906CADBCF91089580E28C0F8830AB
:102D700068F4C77021E030E001C0220FCA95EAF77D
:102D80008091EC02822B8093EC02ECCF8BE58C0FD0
:102D9000833038F42C2F2452330BC9010E941507BD
:102DA000E2CFC85ACB31F8F6EC2FF0E0EE0FFF1F60
:102DB000E257FE4F808191810E94ED06D4CFEF92C1
:102DC000FF920F931F93CF93DF93C62FD42F122F11
:102DD000FC018581882399F06093FA038AD9909346
:102DE000F9038093F803C77081E001C0880FCA958A
:102DF000EAF73BDFCDB7DEB7E6E00C945C2A8091C2
:102E0000FA0368132FC0E090F803F090F90371D92A
:102E10008E199F09843B910528F500E20D0FCD170F
:102E200099F0C770FF24F3948F2D01C0880FCA95C5
:102E3000EAF715DF083040F48D2F877001C0FF0CD2
:102E40008A95EAF78F2D11DF812F54DF812F16DF4E
:102E5000083080F6D77081E001C0880FDA95EAF774
:102E6000FEDEC8CFC77081E001C0880FCA95EAF7BF
:102E7000F7CFCF93DF93EC010E94AD0B9E01205E54
:102E800031092830310510F0209731F4EEDE8C2F17
:102E900031DFDF91CF910895D9DEF9CFB0E0A0E026
:102EA000E4E5F7E10C943E2AEC017B0180914201BC
:102EB00082FF7CC000910F03109110030C171D07B7
:102EC00019F0209709F072C0809142018B7F8093A6
:102ED0004201C1E081FD0CC080910D0390910E0371
:102EE0009701281B390BC1E02C3D310508F4C0E0E7
:102EF000C17080914201C0FB81F980934201680159
:102F0000DD24F60184E0F695E7958A95E1F7EE0F6A
:102F1000FF1FE351FD4F20813181A8014F705527DC
:102F200081E090E002C0880F991F4A95E2F7CC2318
:102F3000C1F1822B932B918380838091EC0281FFDE
:102F400008C08091420180618093420182E00E942A
:102F50000C0A8091EC0285FF08C0809142018062DA
:102F60008093420180E20E940C0ACC2329F08091D8
:102F70001303826080931303C8019052811590431C
:102F800008F48601C80175DF80910F03909110034A
:102F90009C0130522115304308F4992796DE01DB5D
:102FA00014C08095909582239323C5CFCE01905273
:102FB0008115904398F4CE01992787DE80910F0305
:102FC00090911003C817D90751F3F0920E03E092C5
:102FD0000D03CDB7DEB7E8E00C945A2ACE01EDCF51
:102FE0000F931F93CF93DF938C01EB0142DF209768
:102FF00039F4C8016ADEDF91CF911F910F910895D6
:103000008FE99FE00197F1F700C000002197EFCF13
:10301000B0E0A0E0EEE0F8E10C943E2A8C01FC0167
:103020008481882309F425C561E0C8010E94810BD1
:10303000EC01F8018581882309F4F1C49181909312
:10304000C00290819093BF0290E290933A01D09396
:10305000BE02C093BD029E01305221153042C8F419
:10306000F8019681907F09F429C5FE01FF27CD3331
:1030700008F482C0C93192E3D90709F424C5C034E9
:10308000EEE7DE0709F47EC0C630F8E2DF0791F410
:10309000D4C49E0130542115304108F05BC0F801C2
:1030A0009681907F09F463C0FE01FF27ED33F1059F
:1030B00008F462C01ED8D82EE92EF8018581882335
:1030C00009F478C08091420182FF07C042EB52E0D0
:1030D0006D2D792F90E080E0E1DEC431FCE7DF0761
:1030E00009F464C0C5312CE7D20709F455C0C331D7
:1030F0003CE7D30729F4809142018160809342012B
:10310000CE0190528115904308F062C010921003D6
:1031100010920F03F8019581992309F4C3C410920A
:10312000FA039E0130572332310508F0A7C484E02A
:1031300090E00E94A92A9093930380939203FE014A
:10314000E150F047E232F10508F0DEC0E851F54DFC
:103150000C94772A9E013A9521153F4108F4A4CF9B
:103160009E01205A32452032310508F488CFFE01F5
:10317000CD33D10508F083CFE851FF4FE491E093C0
:103180003A0178CF8091EA02882319F00E943E0D1F
:1031900061C40E94580D5EC490914201892F8E7FB8
:1031A00090FF816080934201FCD9AACF80914201B7
:1031B0008E7FF8CF809142018F7EC13ED10531F0E4
:1031C000C53ED105C1F4809142018F7D80934201BB
:1031D0008091420180FF14C0F80185819E01245036
:1031E00031092A313105B8F0882351F010921003CB
:1031F00010920F0305C0CE0190528115904340F705
:10320000FE01E851FC47E730F10508F083CFE65FA7
:10321000F44D0C94772A882309F453C0809152020C
:10322000F090EC02F82A9F2D9D7F51F1109210032F
:1032300010920F03FE0124E0F695E7952A95E1F739
:10324000EE0FFF1FE351FD4F9E012F70332781E0EA
:1032500090E002C0880F991F2A95E2F7809590951B
:10326000208131818223932391838083CE0101DEEB
:10327000809152028D7FF6D882E00E94040BEAC34F
:1032800099E0A2EBB2E001900D929A95E1F71092CD
:10329000B5021092B4028D7FE5D8D0931003C0938D
:1032A0000F03D0920D03E0920E038F2D8270846085
:1032B000F0904201FF2DF97FFF2EF82AF092420193
:1032C000DBCFA8016D2D7E2DCE01E8DDC3C326E244
:1032D00041EE61EEC80173DDBDC327E245EE65EE48
:1032E000F9CF26E241EE60EEF5CF27E245EE64EE3F
:1032F000F1CF26E241EE62EEEDCF27E245EE66EE3B
:10330000E9CF28E241E0EBCF809192038160809386
:103310009203609192037091930384E090E00E9485
:10332000C82A60D997C380919303886080939303E0
:10333000F0CF809192038260EACF80919203846003
:10334000E6CF809192038860E2CF80919303816001
:10335000EDCF809193038260E9CF809192038061E9
:10336000D6CF809192038062D2CF80919203806405
:10337000CECF38D9809192038068C9CF80919203D3
:103380008C60C5CF809193038360D0CF80919203EE
:103390008E7FBDCF80919303877FC8CF80919203AA
:1033A0008D7FB5CF809192038B7FB1CF80919203B7
:1033B000877FADCF809193038E7FB8CF80919303A9
:1033C0008D7FB4CF809192038F7EA1CF80919203A5
:1033D0008F7D9DCF809192038F7B99CF03D9809170
:1033E00092038F7794CF80919203837F90CF8091C7
:1033F00093038C7F9BCF8091920382FB992790F956
:1034000021E0922790FB82F990FB83F980CF809195
:103410009303982F909591708E7F892B90FB81F963
:1034200085CF90919203892F8F7B96FF80646FCF19
:10343000D9D890919203892F97FB87F9805867CF4D
:1034400061E08EE090E00E94AE2A63CF60E0F9CFA9
:1034500090919203892F8F7E94FF806158CF909135
:103460009203892F8E7F90FF816051CF90919303BB
:10347000892F877F93FF886059CF85E30EC385E34B
:103480001AC3C837FCE7DF07D9F09E01205E32453A
:1034900020323105D0F491112CC0CF7181E090E041
:1034A0009C0102C0220F331FCA95E2F7E901622F87
:1034B00083E090E00E94AE2ACE010E942C0BCAC28B
:1034C00082E0992309F420C311C3992369F180E0B4
:1034D000CB353CE7D307F1F0CC358CE7D80799F032
:1034E00081E0CA35ECE7DE07A9F0C130FCE7DF0771
:1034F000D1F0C3302CE7D20781F0C115DC47A1F42D
:1035000071D80E945B068091930382FB882780F923
:1035100091E089270E948A0D9DC26FEF7FEF90E0B6
:1035200080E00E94C82A7CDBF801278130852115C4
:10353000310509F456C0C9010E94F008D82FC92FDF
:10354000F801C580F680F2949FE0F922809127026D
:10355000877001F1DC2CCC20F1F08C2F807F80343F
:1035600061F080E28D0F8830A8F08C2F807E803251
:1035700021F4D23078F0FF2069F08091930382FF2C
:1035800009C082E00E94040B809127028770DD242D
:10359000D3948111D12CEC2EE2948FE0E822F8E054
:1035A000EF1609F41EC1FE1508F442C023E02E15E3
:1035B00070F18C2F807FCF7031E03E1508F04BC04A
:1035C000803211F0C295C07FDD2309F479C0D1307B
:1035D00009F4CDC0CC2009F4D8C0FF2009F48CC078
:1035E0004FC0E080F180992369F0C7010E941E0A54
:1035F000C82F682FC7010E948F0AB7018C2F0E9425
:10360000D2089ACFC7010E945C0AC82FF6CF84E087
:10361000E81609F4CAC0EE2DE850FF0B349708F005
:10362000E6C10E943D0760E0C8010E94810B21C2F3
:1036300099E0E91609F45FC186E08E0D8F70823043
:1036400050F7D23F09F065C18C2F8F71C1105EC158
:103650000E941E0BE0CF882311F0C295C07FCC20C2
:10366000B9F0CC2369F080E28D0F883010F0D111D1
:1036700009C08091EC02C82BC093EC020E947D121D
:103680008D2F2EC080911303C82BC0931303F6CF48
:103690008D2FF4DACC2309F4BECF80E28D0F883071
:1036A00010F0D11104C08C2F0E940C0A06C0C095E6
:1036B00080911303C823C09313030E947D12ABCFE4
:1036C0008091930382FD14C0CC2061F0CC2339F0AB
:1036D0008091EC02C82BC093EC020E947D1280E026
:1036E00009DB99CF80E0CADACC2309F494CFDBCF91
:1036F000CC20C9F0F11003C08C2FB7DA8CCFE1E0F9
:10370000FE1289CFD09152028C2F8D23C81709F455
:1037100082CF0E9479109093510280935002CD2B5A
:10372000C093520278CFF11076CF8C2F98DA909117
:1037300052028C2F892369F08C2F809589238093E6
:103740005202882389F00E9479108093500290934E
:103750005102809103029C2F982309F45CCFC095FD
:10376000C823C093030257CF80E090E0EECFCC2077
:1037700029F0F5E0FF1508F44ECFBECF24E02F1559
:1037800008F449CF8C2F6BDA46CFFF20D9F3D93319
:1037900049F43FEF87EE93E0315080409040E1F7ED
:1037A00000C000008D2F6ADA36CF8C2F8695869563
:1037B000837069F0813009F02ECF8D2F9C2F93708C
:1037C000C11002C080E090E00E94ED0624CF8D2F52
:1037D0009C2F9370C11002C080E090E00E941507FA
:1037E0001ACF8C2F837009F040C0C11014CF4D2F19
:1037F000429546954770440F440F2D2F2F7030E0AF
:10380000042E02C0220F331F0A94E2F790E080E0FA
:10381000D4FF09C08FE090E002C0880F991F4A953D
:10382000E2F780959095C695C695C370C230A1F019
:10383000C33079F04091970250919802C13039F02D
:10384000822B932B842395230E942C0BE4CE242BD4
:10385000352B822B932BF8CF822B932B2091970221
:103860003091980282279327EFCF8695CC2011F0D4
:103870008C2F8170882309F4CECE4D2F429546952A
:103880004770440F440F2D2F2F7030E0042E02C0DC
:10389000220F331F0A94E2F790E080E0D4FF09C0C2
:1038A0008FE090E002C0880F991F4A95E2F780955B
:1038B0009095C695C695C370C230A1F0C33079F01B
:1038C0004091BB025091BC02C13039F0822B932B46
:1038D000842395230E94C50A9ECE242B352B822B50
:1038E000932BF8CF822B932B2091BB023091BC02FB
:1038F00082279327EFCFCF70CC2029F08C2F0E9406
:103900001E0B8D2FFACE8D2FAAD98C2F0E94F40A70
:1039100082CED33F60F4D03FB9F0D13F81F0CC20CC
:1039200009F455C0F110ACCE8C2F8F7191CED33FDE
:10393000F9F0D43FA1F79091930392FD27C08C2F0B
:103940008F71CC2019F384CECC2069F0E4E0EF1520
:1039500008F461CECF7181E090E002C0880F991F1A
:10396000CA95E2F7C1CFF5E0FF1508F454CEF2CFC7
:1039700090E080E0CC2009F4ADCFCF7181E090E001
:1039800002C0880F991FCA95E2F7A4CFCC20A1F0FE
:103990008C2F8F7192FF5CCE98E0899F900111244B
:1039A0002360209327020E941E0B0E94791090939F
:1039B0002602809325022FCE81E00E94040BE1E0D5
:1039C000EF1508F028CE82E00E94040B24CEFF20E1
:1039D00059F0D93309F0E6CEFFEF27EE33E0F1508E
:1039E00020403040E1F7DCCE8C2F8F718FCFDD206F
:1039F00009F419CE8091270280FD15CEF8011582B9
:103A00008695869586950E941E0BC80101DB8091E4
:103A100027028695869586950E94F40A04CEC931C0
:103A2000F2E3DF0709F44FC0C0342EE7D20791F06C
:103A3000C63038E2D30709F03DCBF8019681907F7C
:103A400009F438CB882309F435CB70E060E086E0D8
:103A500098E0C6DA80912702877059F0F8018581D5
:103A6000882339F08091930382FF03C082E00E9493
:103A7000040BCDB7DEB7E8E00C945A2AC6312CE728
:103A8000D20771F58091EC028A7A91E009F490E016
:103A9000909302028111F1CC89E20E94B9060E9442
:103AA0007D12D8CFC6313CE7D30741F580910202A1
:103AB0008111E5CC89E20E948C06F1CFC93192E3F5
:103AC000D90709F0E1CAF8019681907F09F4F2CA9A
:103AD000882309F4EFCA70E060E089E198E0B9CF8B
:103AE000C737ECE7DE0709F0CCCC81E00E941E0B63
:103AF00043E062E081E00E94CA0AACCFC737FCE72E
:103B0000DF0709F0BECC81E00E94F40AF1CFCF9329
:103B1000DF9380912202807F09F04CC080912102C6
:103B2000882309F447C0E091F7035091AE03C09198
:103B30001D02D0911C0260911E0270911F0249E08B
:103B40005E17C1F18E2F90E0E49FF0011124E15542
:103B5000FC4F2481222389F1489FF001499FF00DF9
:103B60001124DF01A155BC4F11962C9111972C13F4
:103B700024C02C912D1321C015962C91159721113D
:103B80001CC012962D913C91261B370B243B31050E
:103B9000A0F4809122028F70806180932202EB5406
:103BA000FC4F80818F70806180838CE192E030DAFD
:103BB0000E94140ADF91CF910895FC013196E770BD
:103BC000BFCFAFE0B0E0E7EEFDE10C943A2A8C0104
:103BD00086E0F801DE011A9601900D928A95E1F7D0
:103BE000F8018481E5809CE1A92E92E0B92E9091A4
:103BF0002002911126C0882309F1EE20E9F0C801C6
:103C00000E94310BF82E8823B9F089E0F801D50124
:103C100001900D928A95E1F780912002813031F474
:103C200080911C0290911D020E94500A70DF8F2D1E
:103C30002F96ECE00C94562AC801EAD9FF24F3949D
:103C4000F6CFD080C18082809380F09021022091B5
:103C50001E0230911F02A401421B530BFF2009F4E6
:103C6000E3C0443B510508F0B1C0882301F39091B3
:103C70001D0280912202282F207F09F05DC0C91209
:103C80001CC090911C02D91218C04091230250917F
:103C90002402278130854217530779F4E11046C08A
:103CA0008F708061809322028CE192E0B1D9809183
:103CB0002202F8018683F12CBACFE11037C06C2DB7
:103CC0008D2D0E94D0046C2D8D2D0E94D004E82EE5
:103CD0008111F1CFDA86CB868A859B850E94500AB6
:103CE000292F22952F70903458F49F70223080F045
:103CF000992391F0F8019681907F71F4FE2C97CF73
:103D00002A5F2F70223060F0C80182D9EF2CF6CFE5
:103D1000992311F0882391F3805E883078F3F4CFF3
:103D2000803F60F3815F833048F3EECF80912202C1
:103D3000816080932202BFCFC9121BC090911C02E8
:103D4000D91217C040912302509124022781308557
:103D50004217530771F4E1100CC08683C80158D98B
:103D600089E0F801ACE1B2E001900D928A95E1F7AB
:103D70005ECFC8010E94310B882309F45DCFEE208D
:103D800009F45ACF809122028032B0F020911C02B7
:103D900030911D023A8329839C828B82909120026C
:103DA0009D831E828F8380912302909124029987A4
:103DB0008887CE0101962CD989E0F801ACE1B2E008
:103DC00001900D928A95E1F7A2DE38CF9091220200
:103DD000292F207F49F48CE192E01AD989E0F5017E
:103DE00011928A95E9F767CF882309F420CF809153
:103DF0001D028C11BECF80911C02D812BACF409107
:103E0000230250912402278130854217530709F07D
:103E1000B0CFE110AECF9683C801FAD889E0F501A2
:103E200011928A95E9F703CF443B5105B8F78823EF
:103E300009F404CFFE2CEE2009F4FECE80911D0281
:103E40008C110FC080911C02D8120BC0209123024C
:103E500030912402878190852817390711F489E071
:103E600081CFC8010E94310B8111A6CF809122021F
:103E7000816080932202C801CBD8D9CEA2E1B0E004
:103E8000E4E4FFE10C94422A0A871B872C873D87D4
:103E90004E875F87688B798B8A8BCE010A9691DE7D
:103EA00081110CC089E0FE013A96DE011196019065
:103EB0000D928A95E1F74E8541110BC019E0809172
:103EC000F7039091AE03891332C06296E4E00C943C
:103ED0005E2A2091AE0330E0C901019687709927D0
:103EE0005091F70358171906A1F04D8399E0929F5E
:103EF000D001939FB00D1124A155BC4FFE01319606
:103F000001900D929A95E1F78093AE030E94140AF6
:103F1000D5CF0E94F2121092AE031092F70389E0FF
:103F2000ECE1F2E0DF011D928A95E9F7C7CF819FAE
:103F3000C001112481559C4F44DE882331F28091C9
:103F4000F70390E00196877099278093F703B7CF26
:103F5000EF92FF920F931F93CF93DF9380911503FE
:103F6000882361F0E09114038DE0F82E8091150311
:103F7000E81748F01092150310921403CDB7DEB77E
:103F8000E6E00C945C2AEE24E394EE0EE092140337
:103F9000CE2FD0E0EF9DF0011124EA5EFC4F84812A
:103FA0008823E1F087819085892B21F48185928592
:103FB000019651F400811181228133814481558120
:103FC0006681778180855ADFFC9EF001FD9EF00DB1
:103FD0001124EA5EFC4F148210921303EE2DC6CF1B
:103FE00010928903109288031092890180918703AF
:103FF000809386030E948107ABCFA9E0B0E0E3E0A5
:10400000F0E20C94402A7B01DB0112968D919C9189
:10401000892BC1F087E0FE013196DF011D928A9560
:10402000E9F70E947910282F8B839C83F701828106
:104030009381782F09811A813C8144E05E816F81F0
:10404000892F1CDFD70115961C922996E6E00C9467
:104050005C2AB0E0A0E0EFE2F0E20C94342AC091D8
:104060008603E7E08E2EEE24E394F12CADE09A2E49
:10407000B4E02B2E809187038C1308C069DF0E9467
:104080008107CDB7DEB7E2E10C94502AD0E0FE0103
:10409000EE0FFF1FE258FC4F00811181B0E0A0E05D
:1040A0000A30110538F4809ED001819EB00D112494
:1040B000AD5BBE4F14968C911497811158C030900F
:1040C000150326E133E090E080E0412C831508F0F1
:1040D0004BC0F901C384D4846D907C9011974FEF4D
:1040E0005FEF512CA52CB12CF501EE0FFF1FE60D53
:1040F000F71D65917491C616D70609F4A501672BC3
:1041000011F05394EFCF4F3F5407B1F1B70102C004
:10411000660F771F4A95E2F7462AA701052C02C0D1
:10412000440F551F0A94E2F74150510944161506F1
:1041300009F512962D913C911397989EF001999E46
:10414000F00D1124EA5EFC4F308727832482108211
:1041500011821287018771E015967C93159757128B
:1041600003C0BD01C80149DFC8010E945007219664
:10417000C37080CFF90114820196235F3F4FA6CF11
:10418000AAE1B0E0E6ECF0E20C94342A4B8B5C8BB5
:104190006D8B7E8B8F8B988F911110921303188AE1
:1041A000198A1A8A86E0FE017396DE011A9601903A
:1041B0000D928A95E1F78091930382FF1CC00E94C3
:1041C00079102091250230912602821B930B883EA4
:1041D000934020F08091270282FFDCC10E94791079
:1041E0002091500230915102821B930B883E9340E4
:1041F00010F00E94010A8E858823C9F061E0CE018B
:104200000A960E94810B61E0CE010A960E94810B02
:1042100061E0CE010A960E94810B80354CE794073D
:1042200089F48F85882311F181E0809389010A85C3
:104230001B852C853D854E855F85688979898A89AE
:104240001DDED3C081356CE7960729F48F8588235E
:1042500069F0C6DEECCF82359C4741F48F85882318
:1042600029F0809189018111F4CFDECF6A857B85A9
:1042700080E00E94D2081C0103E411E0E12CD12C63
:10428000C12C88248394912CF80160817181AA2427
:10429000AA94BA2C20E0422F50E0FA01EE0FFF1F43
:1042A000E60FF71F859194912816390609F45A01F3
:1042B000892B11F02F5FEFCF80E0FFEFAF16BF0625
:1042C00009F455C0F8014481F09089018F2D411106
:1042D00080E0F82FF170FF2E3F85F80195818681EF
:1042E000332309F406C1FF2009F403C178E2672EE5
:1042F000712CF8E0CF16D10419F46EE1662E712C02
:10430000911114C0A4010A2C01C0440F0A94EAF7C9
:10431000842BF801868380911103909112038615F6
:10432000970520F47092120360921103C40102C039
:10433000880F991F2A95E2F70197F801268128171F
:10434000190609F0C9C0A0908803B0908903A11490
:10435000B10409F44EC00E9479108A199B096816AD
:10436000790608F046C021E0F801248381E0E82ABC
:10437000FFEFCF1ADF0A095F1F4F2AE0C216D104F0
:1043800009F082CF8F85882309F4F0C0EE2009F46C
:10439000EDC00E94791090938903809388038091E7
:1043A0001503883010F591E0980F9093150399E06C
:1043B000FE013A96DE01119601900D929A95E1F771
:1043C0003DE0839FC00111248A5E9C4F29E0FE01DD
:1043D0003196DC0101900D922A95E1F72FEF3FEF26
:1043E000FC0132872187348623866A96E2E10C94A9
:1043F000502A60918603B0908703762FF0E0E0E0CA
:104400006B1115C070938603E017F10709F464C0BF
:1044100070E0FB01EE0FFF1FE258FC4FD182C0821B
:104420006F5F7F4F637077276093870355C0862F38
:1044300090E0FC01EE0FFF1FE258FC4F208131811C
:10444000B0E0A0E02A30310540F447E0429FD001BF
:10445000439FB00D1124AD5BBE4F2D913C91119740
:104460003A8F298F612CA12C712CE72DF0E0EE0FF3
:10447000FF1F298D3A8DE20FF31F259134912115ED
:104480003105B9F0F80140805180A12C05C02417F6
:10449000350709F46F2CA394EA2DF0E0EE0FFF1F0F
:1044A000E40DF51D459154914115510581F7739423
:1044B000DCCF662029F0A71430F0FD01109721F41D
:1044C000F0E0E0E012C0F80121E024830E171F079E
:1044D00029F470938603F62C8F2D49CF671305C0FE
:1044E000AE17BF0711F47F5F73700196682F63707A
:1044F00087CF792E90E071101FC0B40102C0660F03
:10450000771F2A95E2F79B012150310928173907B7
:1045100029F4442349F1C6010E945007C4010A2C22
:1045200001C0880F0A94EAF7982F9095F8018681C8
:1045300089238683F72CD0CFAC010A2C02C0559575
:1045400047950A94E2F79C01215031098223932375
:10455000892B31F440FF04C0B801C6014EDDDECF27
:10456000742F7170772EDACF7F2CD8CF909186037D
:1045700080918703981731F06CDDF1E0EF1609F4B4
:1045800034CF55CEE5DC10928903109288030E9447
:104590008107F3CF82E00E94040B20CEA6E0B0E0BA
:1045A000E3EDF2E26FC70E9479108C018091530213
:1045B000909154028017910779F019821A820E9413
:1045C0007910682F49815A81792F80E090E0D8DDF9
:1045D00010935402009353022696E4E06FC71F9293
:1045E0001FB61F9211248F939F93AF93BF93809117
:1045F0009403811113C08091950390919603A0912B
:104600009703B09198034196A11DB11D8093950326
:1046100090939603A0939703B0939803BF91AF91A3
:104620009F918F911F901FBE1F901895CDB7DEB739
:104630002A970FB6F894DEBF0FBECDBF85B780684E
:1046400085BF85B7806885BF84B7877F84BF0FB675
:10465000F894A89580916000886180936000109222
:1046600060000FBE80E890E00FB6F8948093610080
:10467000909361000FBE81E080938D0183E997E004
:104680009093D9018093D8010E9405050E94A60548
:104690008091E20084608093E20078948091A4038A
:1046A0008823A1F01091E9001F709091EC00892FF0
:1046B000817090FD80E8182B1092E9008091E8004D
:1046C00083FD0E9412131F701093E90082E084BDE5
:1046D00093E095BD9AEF97BD80936E00109289028A
:1046E00010928A0210928B0210928C028091D80054
:1046F00080618093D8002AE12A95F1F700C080916B
:10470000D900182F117080FD04C00E940505109279
:10471000A40310938A0310938B03111186C094E0B5
:104720009093960284E0891B8093950284E90E940D
:10473000950786E60E94950787E90E94950786EC13
:104740000E9495070AEC11E0F0EDEF2EF1E0FF2E4C
:10475000D8018D918D018F3F11F00E949507E016D1
:10476000F106B1F788E0E9E9F2E0DF01282F1D92B8
:104770002A95E9F7EDE8F2E0DF011D928A95E9F765
:1047800090E080E0E6D6833E9E4F21F163EE7EEF1F
:1047900090E080E0FDD660E082E090E0DFD681E04E
:1047A00090E0909398028093970261E083E090E01C
:1047B000D5D660E074E184E090E0EAD640E050E0D5
:1047C000BA018FE090E0DCD640E050E0BA0183E12E
:1047D00090E0D6D682E090E0AFD68093A90284E044
:1047E00090E0B7D690939303809392030E948E102B
:1047F000EFEFF6E721E0E150F0402040E1F700C0A4
:1048000000000E948E1080918B03E4E08111E0E0B3
:10481000F0E0E756FD4F808181FF0FC06FEF7FEF23
:1048200090E080E0B5D60E945B06B6D480918B0301
:10483000882309F474CF90E073CF83E090E07CD6B6
:1048400090E00E942C0B80918A038111EDC082E0E0
:104850008093E10280E88093FB033ED36BE070E03D
:104860008BEB92E00E94310D882309F43FC08091C8
:10487000E10265E070E081FDD9C086EB92E00E9424
:10488000310D882399F16DE070E084EA92E00E9496
:10489000310D882359F10E946C06DC01CB01805D4B
:1048A0009A48AF4FBF4F8093E6029093E702A093E0
:1048B000E802B093E902EEEFF3E080E092E0DF017E
:1048C0009C011D9221503040E1F7F0930506E093E2
:1048D00004068FEF9FEF9093FD038093FC0381E02C
:1048E0008093EB028093EA021092E20280918A03A5
:1048F000811101C054D483E190E026D66F8378877C
:1049000089879A87633177408642904239F043E144
:1049100057E066E270E283E190E032D680E391E016
:1049200090938F0380938E03EE24E394F12C809177
:10493000A40310E402E1853009F4D2C00E948E1075
:104940006AEAA62E62E0B62E79E9872E72E0972EEB
:1049500022EB32E0D401F50191918D912E173F07A2
:1049600009F4C8C09817C1F360908A0351EAC52EB4
:1049700052E0D52E712CD4015D904D01F50131909E
:104980005F01351409F444C0352410E000E04424EC
:104990004394832D842199F1252C2420662009F14C
:1049A000D6018C9190E09701002E02C0220F331F98
:1049B0000A94E2F782239323892B99F409837A825C
:1049C0000E9479109C838B83B1E0BD8391E021101C
:1049D00001C090E09E8349815A816B817C818D81E9
:1049E000CFDB21100CC0C701002E01C0880F0A9434
:1049F000EAF7982F9095F601808189238083440CF3
:104A00000F5F1F4F0630110521F6F50131975082D7
:104A10007394FFEFCF1ADF0A28E07212ACCF0E9426
:104A2000AE07DD24D3946AC080E012CF81EB92E020
:104A300026CF8091A403843029F10E943E0D10926C
:104A4000940348E150E00FB6F894A89540936000B5
:104A50000FBE1093600083B7817F846083BF83B7EC
:104A6000816083BF7894889583B78E7F83BF0FB6AC
:104A7000F894A895809160008861809360001092FE
:104A800060000FBE0E948E10E9E9F2E0A1EAB2E0F8
:104A900080E021912D9391E0211101C090E0892BBC
:104AA00052E0E13AF507A9F78823D1F08091A303FA
:104AB0008823B1F080E189BD09BD09B400FEFDCFB6
:104AC0008091D8008F7D8093D8008091E000826033
:104AD0008093E0008091E00081FDFCCF0E94F21203
:104AE0008091A403853009F4A4CF0E94F2120E94A1
:104AF0003D0724CF981338CF51DDD12C80918A0304
:104B0000882309F43FC080918901882311F1009125
:104B100088031091890301151105D9F00E947910BD
:104B2000801B910B20911103309112032817390734
:104B300080F49091860380918703981709F48FC0C1
:104B400088DA1092120310921103109289031092C6
:104B500088038091420182FF15C00E947910BC0138
:104B600080910D0390910E03AB01481B590B4C3DF6
:104B7000510540F042EB52E080910F0390911003F9
:104B80000E944E178091EB02882309F459C00091CE
:104B9000E3021091E4020E947910801B910BC297EE
:104BA00028F10E9479109093E4028093E3028EEF43
:104BB00093E0909305068093040682EF92E00E94B2
:104BC0005D0C8BEE92E00E945D0C8091BB02909197
:104BD000BC020E945D0B823009F44DC008F043C056
:104BE000811146C083EE92E00E949B0C8091FC03F1
:104BF0009091FD03892B09F044C08091EA0288233B
:104C0000F9F00E946C066F83788789879A87809174
:104C1000E6029091E702A091E802B091E9022F81AB
:104C2000388549855A85281B390B4A0B5B0BDA01FD
:104C3000C9018F3F9F4FAF4FBF4710F40E943E0DF9
:104C4000D1100E94580D0E943D079091E5028917EE
:104C500009F46DCE8093E5020E946C0668CE78D987
:104C60000E94810772CF833049F086EC92E0BCCF7E
:104C70008CED92E0B9CF85ED92E0B6CF8EEC92E06C
:104C8000B3CF8091EB02882309F4B7CF8091E20281
:104C90008111B3CF0E94580D2091FC033091FD0388
:104CA0002115310509F4A9CF80E0082F10E0270174
:104CB000082E02C0440C551C0A94E2F7A2014223BC
:104CC0005323452B11F48F5FF0CF9091E10290FFB9
:104CD00096C0880F880F880F80933D011092400185
:104CE000895F80933E0183E08093410124E630E0B8
:104CF00047E050E06BE371E088E724D1892B09F0AD
:104D00007CCFA80195E0440F551F9A95E1F780915B
:104D1000E10280FF86C0E1ECF2E080E2DF011D925B
:104D20008A95E9F7E4EDF1E0F887EF8300ED11E013
:104D300087E0982EAF81B8852D91B887AF83F801B1
:104D400021908F01240E352E311CC10182509C4FC1
:104D50001C01E22FF0E0EF53FD4F30E020E0792C12
:104D6000721ACE2C022E01C0CC0C0A94EAF7510123
:104D700090E0D5018D915D018C21672D691B6770D5
:104D8000862E062E000C770BB82F01C0BB0F8A941D
:104D9000EAF78B2E7195619571096770772701C0CD
:104DA00086956A95EAF7882A8081882A80829F5FA3
:104DB0009830F9F62F5F3F4F31962830310579F65C
:104DC000EF81F885E85DF14009F0B4CF04E610E02A
:104DD00020E230E041EC52E060E488E73BD1892BEF
:104DE00009F00BCF409450948091FC039091FD0307
:104DF000482259225092FD034092FC03FECE829538
:104E0000880F807680933D019801369527953695D9
:104E1000279520934001815E80933E0120934101BC
:104E200065CF42505C4F04E610E020E230E0D4CF82
:104E3000FF920F931F93CF93DF93182FEB011092E4
:104E4000BC0084EA8093BC000E947910082FF92EE0
:104E50008091BC0087FF28C08091B900887F88308E
:104E600029F08091B900887F803199F51093BB00BB
:104E700084E88093BC000E947910182F092F80913C
:104E8000BC0087FF1EC02091B900287F90E080E021
:104E9000283199F081E090E0203411F490E080E036
:104EA00091958195910909C0802F9F2D0E948510B1
:104EB000C817D90768F68EEF9FEFCDB7DEB7E5E0EC
:104EC000FCC2812F902F0E948510C817D907B8F611
:104ED000F2CF8FEF9FEFF1CF1092B9008CE080936B
:104EE000B80008950F931F93CF93DF93EB01809346
:104EF000BB0084E88093BC000E947910182F092F12
:104F00008091BC0087FF11C02091B900287F81E00B
:104F100090E0283211F490E080E09195819591091C
:104F2000DF91CF911F910F910895CF3FDC0741F39F
:104F3000812F902F0E948510C817D90708F78EEF90
:104F40009FEFEECFB0E0A0E0E7EAF7E292C2782E62
:104F50005B016A0189010E9479107C018824839495
:104F6000912C0431110558F085E0882E912C0F3FCB
:104F7000100729F0C80164E170E062D24B01B4016E
:104F8000872D56DFEC0197FF09C00F3F1007B9F3DB
:104F9000C7010E9485100817190788F77501CA0C08
:104FA000DB1CEC14FD0411F0D7FF08C084E98093EA
:104FB000BC00CE01CDB7DEB7EDE077C2B801F70196
:104FC00081917F018FDFEC01ECCFB0E0A0E0EAEE51
:104FD000F7E24FC2782E5B016A0189010E947910C5
:104FE0007C0188248394912C0431110558F085E0CC
:104FF000882E912C0F3F100729F0C80164E170E062
:105000001FD24B01B401872D13DFEC0197FF09C0BC
:105010000F3F1007B9F3C7010E9485100817190741
:1050200088F77501CA0CDB1CEC14FD0411F0D7FFE6
:1050300008C084E98093BC00CE01CDB7DEB7EDE0B7
:1050400034C2F7018491B8014DDFEC01FFEFEF1A94
:10505000FF0AEACFB0E0A0E0EFE2F8E209C2682E72
:10506000962E5A01690178010E947910782E892EB6
:1050700001E010E084E1E816F10458F005E010E0EA
:10508000EFEFEE16FE0629F0C70164E170E0D8D11B
:105090008B01B801862DCCDEEC0197FF1FC0FFEF1E
:1050A000EF16FF06B1F3872D982D0E948510E816A4
:1050B000F90678F784E98093BC00CE01CDB7DEB75E
:1050C000EEE0F2C1B701F80181918F010BDFEC0135
:1050D000C016D10679F3D7FFF5CFECCFB701892DF4
:1050E00001DFEC018501CA0CDB1CF2CF8EE14A9B8B
:1050F00002C08150E1F74A9BFECF08955A9880E2A2
:105100008A95F1F75A9A0895FC013BE03A95F1F738
:1051100098E020E080E031E040E14A95F1F7880F27
:105120004A9B02C08160232742E04A95F1F70000C4
:1051300040E14A95F1F7915079F790E19A95F1F7AE
:1051400099B132E03A95F1F7000040E14A95F1F764
:1051500092FB992790F992272081920F90830895CE
:10516000A1E0B0E0E5EBF8E28BC119828C017C0193
:10517000E60EF11C0E151F0539F481E0998191119D
:1051800080E02196E6E098C1B1DFCE010196BCDF58
:10519000F80181938F01EECF529A5A9A089552984E
:1051A0005A9AEA9AE9E6F0E080818F7C808308953C
:1051B0006150770B91E001C0990F6A95EAF720E002
:1051C00031E0911108C0222391F05A9A80E28A9529
:1051D000F1F75A980895492F482339F05A9A23270E
:1051E00040E24A95F1F79695ECCF5A98F9CF5A9844
:1051F000EDCFFF920F931F93CF93DF93EC018C01C0
:10520000060F111DC017D10721F4CDB7DEB7E5E0B9
:1052100054C1F99073DF68E08F2DCADFF3CF1F927E
:105220000F920FB60F9211240F931F932F933F935A
:105230004F935F936F937F938F939F93AF93BF939E
:10524000EF93FF93CF93DF930F92CDB7DEB7198221
:105250004DDFCE01019658DF282F082F06950695C1
:105260000695982F92959570802F8570980F892FAD
:10527000837096959695890F822787709981892BDF
:1052800009F058C0073008F055C080E18A95F1F761
:105290005A9A529A82E08A95F1F700C05A9888E0AB
:1052A000089F80011124D801A050BF4F1696ED91A0
:1052B000FC9117973097A9F06091C4017091C501D6
:1052C00014962D913C911597260F371F11968D91AD
:1052D0009C911297680F791F13964C9113978C919C
:1052E0000995F801E050FF4F6381662349F0209152
:1052F000C4013091C50184819581820F931F79DFAC
:10530000FDDE80E18A95F1F75A9852985A9A80E129
:105310008A95F1F7F801E050FF4F6081662349F06C
:105320002091C4013091C50181819281820F931F28
:1053300017DFDCDE0F90DF91CF91FF91EF91BF91EE
:10534000AF919F918F917F916F915F914F913F911D
:105350002F911F910F910F900FBE0F901F901895D6
:105360000F931F93CF93DF93EC0107970CF049C085
:10537000F894529A5A9885E08A95F1F700008C2F9C
:10538000869585709C2F9570890F982F93708695C0
:10539000869523E0CC0FDD1F2A95E1F7890F8E015A
:1053A000082BACDE00C068E0802F02DF80E18A9528
:1053B000F1F752985A9A4A9B1DC087E090E04A99AB
:1053C0001BC0FE01E050FF4F63816623F1F0209186
:1053D000C4013091C50184819581820F931FC0DE85
:1053E000811113C0529A5A9A7894DF91CF911F91EC
:1053F0000F91089500C0DFCF019729F4529A5A9A6D
:10540000789480E0F2CF00C0DACF70DE80E28A9537
:10541000F1F75A98529A80E18A95F1F7C050DF4F20
:105420006881662349F02091C4013091C5018981CA
:105430009A81820F931FDDDE61DE789481E0D5CF03
:10544000AA1BBB1B51E107C0AA1FBB1FA617B707AA
:1054500010F0A61BB70B881F991F5A95A9F78095C6
:105460009095BC01CD0108952F923F924F925F928B
:105470006F927F928F929F92AF92BF92CF92DF9264
:10548000EF92FF920F931F93CF93DF93CDB7DEB7C9
:10549000CA1BDB0B0FB6F894DEBF0FBECDBF09945D
:1054A0002A88398848885F846E847D848C849B84B4
:1054B000AA84B984C884DF80EE80FD800C811B81C2
:1054C000AA81B981CE0FD11D0FB6F894DEBF0FBEF1
:1054D000CDBFED010895991B79E004C0991F96177F
:1054E00008F0961B881F7A95C9F780950895EE0FEE
:1054F000FF1F0590F491E02D0994FB01DC0102C02F
:1055000005900D9241505040D8F70895FB01DC0101
:1055100004C08D910190801921F441505040C8F78A
:10552000881B990B0895FB01DC0102C001900D92CC
:1055300041505040D8F70895F999FECF92BD81BDF2
:10554000F89A992780B50895A6E1B0E044E050E0CC
:1055500025C0A8E1B0E042E050E020C0262FF99934
:10556000FECF92BD81BDF89A019700B4021639F0C2
:105570001FBA20BD0FB6F894FA9AF99A0FBE089593
:105580000396272FECDFEADF252FE9DF242FE7CF73
:105590000196272FE4DFE2CFDC01CB01FC01F99972
:1055A000FECF06C0F2BDE1BDF89A319600B40D926F
:1055B00041505040B8F70895F894FFCFF2131A14F1
:1055C000BB151A14BB154D146E14BB156D157A1549
:1055D000C6192F1ACE1999199D19D219A119D619C0
:1055E000E219AD19281AB119E619B519EA19111AF3
:1055F000B919EE19181ABE19F319FB19A519DA19F8
:10560000A919DE19C219F719071A201A261A9319AF
:10561000CA19361A7119751967196D1979197D1911
:025620008119EE
:105622000000000100000000000000040100000072
:105632000405000000000000040900000000000052
:10564200020D000000000000020F00000000000038
:105652008906E20CDD0C5A06D80C200021007F22BC
:10566200000301E2002D02000000DC002D0000001A
:1056720000D6003302000000D0002E00000000CA55
:10568200002E02000000C4002800000000BE002C12
:1056920000000000B8002A00000000B2002900004B
:1056A2000000AC002B000000000100000100E2003D
:1056B200E900EA00B500B600B700CD008301CC00D6
:1056C2008A01920194012102230224022502260268
:1056D20027022A02B300B4006F0070009F01CB01C1
:1056E2009F02A0026B02946697C6F4F5F6F7313377
:0856F200000810181810080050
:00000001FF
