:1000000051C500006CC500006AC500000C94F42FB7
:1000100066C5000064C5000062C5000060C5000040
:100020005EC500005CC500000C94AF140C94311B3D
:100030000C94CF2854C5000052C5000050C50000E4
:100040004EC500004CC500004AC5000048C5000070
:1000500046C500000C94971542C5000040C500003D
:100060003EC500003CC500003AC5000038C5000090
:1000700036C5000034C5000032C5000030C50000A0
:100080002EC500002CC500002AC5000028C50000B0
:1000900026C5000024C5000022C5000020C50000C0
:1000A0001EC500001CC500001AC500000400150094
:1000B00000001A00090000000C00120000001600E9
:1000C00017000000110008000000090013000000E4
:1000D0000F00180000000B003600000008000C00A4
:1000E00000001500160000002020202061626364DB
:1000F00065666768696A6B6C6D6E6F707172737438
:1001000075767778797A3132333435363738393015
:10011000524542545F2D3D5B5D5C233B27602C2E96
:100120002F2020202B0014001A00090013000500C6
:10013000A15204001500160017000A00A2521D006B
:100140001B00060007001900000000000000777C7B
:1001500006282C00310033001C0018000F000D0091
:10016000340012000C000800110010001932380091
:10017000370036000B000E00000000000000787C05
:100180002A00280029003A003B003C003D003E00C8
:10019000A1521E001F00200021002200A2520100D7
:1001A00001000100A4520100000000000000010055
:1001B000E3002C00350243004200410040003F00B4
:1001C00035002700260025002400230019323002C4
:1001D0002F0231022E022D0200000000000001005B
:1001E0004C00280029001E021F02200221022202C8
:1001F000A15201000100AE00AC00AB00A252010010
:100200000100A800AA00A9000000000000000100F1
:10021000E3002C00010027022602550024022302DD
:1002200035004F00510052005000010019323000DB
:100230002F0001002E002D00000000000000010032
:100240002A002800290044004500010001000100A7
:10025000A15242784378457849784A78A252407E44
:100260000100010001000100000000000000010089
:10027000E3002C000100010001004D004A00210AAA
:100280000100010001005101520150010100010073
:1002900001004B004E004F01000000000000010073
:1002A0002A00280000DA0281FFD9F1DB20A4A62E63
:1002B000AF00A0C0D30000A1C8D30000AED580A875
:1002C0001F408D142000554E4B4E4F574E00414459
:1002D0004A5553540053594D424F4C004E554D42D0
:1002E000455200434F4C454D414B004C617965727E
:1002F0000A004B4545424D414B45520A0A00808158
:1003000082838485868788898A8B8C8D8E8F909155
:10031000929394A0A1A2A3A4A5A6A7A8A9AAABACB6
:10032000ADAEAFB0B1B2B3B4C0C1C2C3C4C5C6C72D
:10033000C8C9CACBCCCDCECFD0D1D2D3D400000146
:100340000101010101010101020202020202020295
:100350000203030303030303030404040404040467
:10036000050505050506060606060707070707082B
:10037000080808090909090A0A0A0B0B0B0C0C0CDE
:100380000D0D0D0E0E0E0F0F0F1010111111121278
:1003900013131414151516161717181819191A1AF5
:1003A0001B1B1C1D1D1E1E1F202021222223242456
:1003B000252626272829292A2B2C2D2D2E2F303192
:1003C0003232333435363738393A3B3C3D3E3F40A4
:1003D0004142434445464748494A4C4D4E4F50518F
:1003E0005354555658595A5B5D5E5F616264656649
:1003F00068696B6C6D6F7072737577787A7B7D7ED0
:100400008082838587888A8C8E8F91939596989A1F
:100410009C9EA0A2A3A5A7A9ABADAFB1B3B5B7BA37
:10042000BCBEC0C2C4C6C9CBCDCFD1D4D6D8DBDD0B
:10043000DFE2E4E7E9EBEEF0F3F5F8FAFDFF00AFF9
:1004400000AE05010980A101850319012AB7001535
:100450000126B700950175108100C0050C0901A1A6
:1004600001850419012AA002150126A00295017533
:10047000108100C005010906A1018506050719E0E4
:1004800029E7150025019508750181020507190066
:1004900029EF1500250195F0750181020508190164
:1004A0002905950575019102950175039101C00516
:1004B000010906A101050719E029E71500250195A5
:1004C0000875018102950175088101050719002948
:1004D000FF150026FF009506750881000508190123
:1004E00029051500250195057501910295017503F2
:1004F0009101C009023B00020100A0FA09040000BA
:100500000103010100092111010001224400070536
:100510008103080001090401000103000000092112
:1005200011010001226D0007058203200001120164
:100530000002000000085346010001000102000112
:100540000C0343006F0072006E0065000000100392
:1005500066006F006F007300740061006E000000A1
:10056000040309040000000000003E5B4F5B3E00F6
:100570003E6B4F6B3E001C3E7C3E1C00183C7E3C9C
:1005800018001C577D571C001C5E7F5E1C00001865
:100590003C180000FFE7C3E7FF0000182418000024
:1005A000FFE7DBE7FF0030483A060E0026297929ED
:1005B0002600407F05050700407F05253F005A3C87
:1005C000E73C5A007F3E1C1C0800081C1C3E7F00B4
:1005D00014227F2214005F5F005F5F0006097F0125
:1005E0007F00006689956A0060606060600094A288
:1005F000FFA2940008047E04080010207E20100052
:1006000008082A1C0800081C2A0808001E101010E0
:1006100010000C1E0C1E0C0030383E383000060E48
:100620003E0E060000000000000000005F00000019
:10063000000700070000147F147F1400242A7F2A7B
:100640001200231308646200364956205000000847
:1006500007030000001C224100000041221C000092
:100660002A1C7F1C2A0008083E0808000080703001
:100670000000080808080800000060600000201062
:10068000080402003E5149453E0000427F40000000
:100690007249494946002141494D33001814127FDF
:1006A00010002745454539003C4A49493100412160
:1006B00011090700364949493600464949291E00B3
:1006C0000000140000000040340000000008142264
:1006D00041001414141414000041221408000201F3
:1006E000590906003E415D594E007C1211127C00F2
:1006F0007F49494936003E41414122007F41414105
:100700003E007F49494941007F09090901003E41F6
:10071000415173007F0808087F0000417F410000BD
:100720002040413F01007F08142241007F404040AB
:1007300040007F021C027F007F0408107F003E41C2
:1007400041413E007F09090906003E4151215E00FA
:100750007F091929460026494949320003017F01D2
:1007600003003F4040403F001F2040201F003F400B
:1007700038403F0063140814630003047804030046
:100780006159494D4300007F414141000204081076
:100790002000004141417F0004020102040040406A
:1007A00040404000000307080000205454784000F7
:1007B0007F284444380038444444280038444428BE
:1007C0007F0038545454180000087E090200182491
:1007D000241C78007F080404780000447D40000059
:1007E0002040403D00007F102844000000417F4031
:1007F00000007C04780478007C0804047800384405
:10080000444438007C1824241800182424187C0040
:100810007C080404080048545454240004043F4451
:1008200024003C4040207C001C2040201C003C4018
:1008300030403C004428102844004C9090907C00AC
:100840004464544C44000008364100000000770026
:1008500000000041360800000201020402003C26AC
:1008600023263C0000000000000000000000000003
:1008700000000000C0E0F0F8F81800C0F0FCFEFF37
:10088000FFFFFFFFFFFF7E000000000000000000F0
:1008900080C0E0E0E0E0E0E0E0E0C08000000000D8
:1008A00080C0E0E0E0E0E0E0E0E0C080000000E0E8
:1008B000E0C0C0E0E0E0E00000E0E0C0C0E0E0E078
:1008C000E0E0C0800000000080C0E0E0E0E0E0E0A8
:1008D000E0E0C08000000000000000000000000018
:1008E0000000E0F0F0F0E0ECEEF7F37020007C7C2C
:1008F0007C7E007E7E7E7F7F7F000080C0E07E5B0E
:100900004F5BFEC00000C000DCD7DEDEDED7DC00BF
:10091000C000000000000000000000000000000017
:1009200000000000000000000000000000F8FCFED5
:10093000FFE000FFFFFFFFFFFF80FFFFFFFFFFFF64
:10094000FFFFFF1F0701000000000000000000FF84
:10095000FFFF8100000000000081C3C3C30000FF4F
:10096000FFFF8100000000000081FFFFFF0000FF8B
:10097000FFFF01000000000000FFFFFF010000007A
:100980000001FFFFFF0000FFFFFF9D1C1C1C1C1C43
:100990001C9DDFDFDF000000000000000000000001
:1009A00000000F1F3F7F7F7F7F7F3F1E0C001F1FB8
:1009B0001F3F003F3F3F7F7F7F00307B7F783020AD
:1009C0002030787F3B0003000F7F0F0F0F7F0F0059
:1009D0000300000000000000000000000000000014
:1009E00000000000000000000000000000030F1FD6
:1009F0003F3F3F3F1F1F3F3F7F7F7F3F3F1F3F7F67
:100A00007F7F7F7C7878381C0F000000000000009A
:100A10000103070707070707070703010000000096
:100A2000010307070707070707070301000000077F
:100A30000707000000000000000707070000000093
:100A40000000070707000000010307070707070763
:100A50000707030100000000000000000000000084
:100A60000000000000000000000000000000000086
:100A70000000000000000000000000000000000076
:100A80000000000000000000000000000000000066
:100A90000000000000000000000000000000000056
:100AA0000000000011241FBECFEFDAE0DEBFCDBF93
:100AB00012E0A0E0B1E0EAEBF4E602C005900D928E
:100AC000A83CB107D9F728E0A8ECB2E001C01D921C
:100AD000AA30B207E1F70E94F6280C940E3290CAB1
:100AE0008091FE0581608093FE0508959091F60542
:100AF000937051F08093F7056093F805413508F045
:100B000040E54093F905ECCF08959091F605937078
:100B100041F0811107C094609093F60510929B01FB
:100B2000DFCF0895863010F09461F6CF880F880FDC
:100B3000982BF2CF982FE091F2054091A90559E04A
:100B4000E41302C080E008952E2F30E05E9FF00194
:100B50001124E655FA4F8181681306C080819813ED
:100B600003C085818111EFCFF9013196E770E8CF9D
:100B7000FC01AC014C5F5F4F8FEF91E32191822725
:100B800028E030E087FF09C0880F8927215031090C
:100B9000C9F7E417F50791F70895880FF7CFE8ED47
:100BA000F0E080818E7F80831092E2001092DA0064
:100BB0001092E100A0EEB0E08C9181608C93808176
:100BC0008F77808319BCA7EDB0E08C918E7F8C93DA
:100BD00080818F7E808310928E0508952091E4009D
:100BE0003091E50095E6A9012091EC00822F8170FB
:100BF00020FF06C08091E80080FF06C080E00895D5
:100C00002091E80022FD1AC080919905882389F07F
:100C1000853089F08091EB0085FD0FC02091E400C4
:100C20003091E50042175307F9F29150E1F684E064
:100C3000089582E0089583E0089581E00895809109
:100C40009B0587FF13C08091E80082FF06C080915A
:100C5000E8008B778093E80004C0809199058111AA
:100C6000F2CF0895809199058823D9F38091E80007
:100C700080FFF8CF8091E8008E77ECCF982F90938B
:100C8000E900242F762F50E0891731F07091EC00A5
:100C90002091ED005091F00021FD07C09F5F97303B
:100CA00071F78093E90081E008953091EB003E7F79
:100CB0003093EB003091ED003D7F3093ED003091AB
:100CC000EB0031603093EB007093EC002093ED006B
:100CD0005093F0002091EE0027FDE0CF80E00895D2
:100CE000B0E0A0E0E6E7F6E00C942331C8EDD0E0F8
:100CF00088818F7E8883E7EDF0E08081816080834A
:100D000084E082BF81E080938E0588818E7F888316
:100D100002EE10E0F80110821092DA0081EEC82E87
:100D2000D12CF601108288818F7788838881806832
:100D3000888388818F7D888319BC109299051092D1
:100D40009A05109298051092970590EEE92EF12CD5
:100D5000F70180818B7F808388818160888342E076
:100D600060E080E08BDFF60180818E7F8083F80178
:100D7000808181608083808188608083F7018081A9
:100D80008E7F8083888180618883CDB7DEB7E8E07D
:100D90000C943F31FC01CB012091A1053091A205BB
:100DA0002617370790F0009729F42091E8002E7756
:100DB0002093E80040E0009751F4411108C0809171
:100DC000E80082FF31C080E00895C901F3CF20918F
:100DD00099052223A9F12530A9F12091E80023FDEE
:100DE0002DC02091E80022FDEACF2091E80020FFED
:100DF000E2CF3091F3002091F200009719F02830F3
:100E0000310558F041E02830310509F040E02091EB
:100E1000E8002E772093E800CECF41914093F10077
:100E200001972F5F3F4FE9CF80919905882341F0CB
:100E3000853041F08091E80083FFC1CF81E00895C3
:100E400082E0089583E00895089587E797E79093F7
:100E500001088093000888E19AE00FB6F894A895FD
:100E6000809360000FBE90936000FFCFA4E0B0E0DD
:100E7000ECE3F7E00C9429318FB7F89420918A05C0
:100E800030918B0540918C0550918D0529833A83D3
:100E90004B835C838FBF69817A818B819C8124968F
:100EA000E2E00C944531809195010895909196016E
:100EB0009130E1F49091870597FF18C0E82FE695EF
:100EC000E695E695803FF0F4F0E0EE52FD4F877036
:100ED00021E030E0A90102C0440F551F8A95E2F7D6
:100EE000CA0180959281892382830895ECECF2E017
:100EF0009191891303C0DF0111971C9252E0E23DEA
:100F0000F507B1F70895909196019130C1F4909151
:100F1000870597FF14C0E82FE695E695E695803F94
:100F2000F8F4F0E0EE52FD4F877021E030E001C0B0
:100F3000220F8A95EAF78281822B82830895ACEC96
:100F4000B2E0EFEF90E02D91821751F0EF3F19F4EE
:100F5000211101C0E92F9F5F9630A9F7EF3F09F4F7
:100F600008950E2E000CFF0BE653FD4FE6CFA3E0D5
:100F7000B0E0EDEBF7E00C9429319C018091850500
:100F80009091860582179307B1F0309386052093E0
:100F90008505E0918305F0918405309761F0008428
:100FA000F185E02D309739F084E089833B832A83F3
:100FB000CE01019609952396E2E00C944531A3E019
:100FC000B0E0E5EEF7E00C9429319C0180918105B9
:100FD0009091820582179307B1F030938205209398
:100FE0008105E0918305F0918405309761F00084DC
:100FF000F185E02D309739F083E089833B832A83A4
:10100000CE01019609952396E2E00C94453180913A
:10101000A305882369F0E0918305F091840530975A
:1010200039F00190F081E02D309711F00995089585
:1010300080E008959C0150917D0560917E05452FCB
:10104000641301C00895842F90E0FC01EE0FFF1F90
:10105000EB58FA4F0190F081E02DE217F307B9F455
:10106000F0E0E0E02A30310540F467E0629FF001F3
:10107000639FF00D1124E35BFE4F21E024834513B1
:10108000E1CF01968370992780937D05089501969D
:10109000482F4370D5CF1092090510920805EDE452
:1010A000F1E083E991E02581211102C014821682CA
:1010B00037968E179F07B9F70895FC01EE0FFF1FB3
:1010C000E80FF91FEF5BFB4F618340832283089594
:1010D000539A0895E091FB05EF3F89F0E53069F000
:1010E000E23019F0E1110DC0E3E0E150F0E0EF5023
:1010F000FE4F80818093FB05F3CCE1E0F6CFE3E087
:10110000F5CFE0E0F3CFE091FB05EF3F61F0E53094
:1011100061F0E23061F4EF5FF0E0EF50FE4F80816C
:101120008093FB05DDCCE0E0F6CFE1E0F4CFE0E03A
:10113000F3CFE6EFF5E024813AE0231B08F420E04A
:101140002483CECCE6EFF5E024813AE0230F08F4C7
:101150002FEF2483C5CCE6EFF5E0438128E0421B66
:1011600008F440E08181628190E0C0CCE6EFF5E0D8
:10117000438128E0420F08F44FEF8181628190E0C3
:10118000B5CCE6EFF5E0628128E0621B08F460E090
:101190008181438190E0AACCE6EFF5E0628128E00E
:1011A000620F08F46FEF8181438190E09FCCE6EFFE
:1011B000F5E08181438162818850990B97CCE6EFFD
:1011C000F5E0818190E04381628108968FCC909117
:1011D000F605969596958FEF890F913009F485E085
:1011E00094CC8091F605869586958F5F863008F0C1
:1011F00081E08BCCE6EFF5E0808191E08927808368
:1012000010929B016DCC9BE0899F802D1124980F3B
:10121000973308F096E32091A405222321F09C3116
:1012200028F09BE108958B3108F48BE108958093B9
:101230004B018091F605837080934A01D2D783E0F9
:1012400080939B010895E42FF0E0EE0FFF1FEB5D0C
:10125000FD4F6081621B0895622F08953091A405AF
:10126000332321F08B3191052CF008958B319105BA
:1012700014F04B9722CF0895FF920F931F93CF93B3
:10128000DF93182F062FF42ED0E0C0E02F2D402F33
:10129000612FCE01E3DF2196C633D105B9F7CDB773
:1012A000DEB7E5E00C9442311F93182F9A014F3FAF
:1012B000510519F010F02FEF30E02095219F020E1C
:1012C00020E0211D1124822F1F910895482F26957B
:1012D000E22F26FDE0953E2F3F7026FD3F5FE6950D
:1012E000E695E695E670F0E0E751FE4F9181939F19
:1012F000902D312D112492959F703295307F932B34
:101300008081980F27FD919597FD9195990F292F31
:10131000249F020E20E0211D1124822F0895B0E0A9
:10132000A0E0E5E9F9E00C942131262FD72EE82F33
:10133000F0E0E25CFC4F71110AC0E4918E2F9E2F09
:101340006E2F792FCDB7DEB7EAE00C943D31072F31
:1013500010E0E4914E2F56E0659F70011124CFEF0D
:10136000D0E0C701BE010E940531822F90E0880FB6
:10137000991F55E5569F9001579F300D1124821BF0
:10138000930B582F550F580FCE01801B910BE89FE0
:101390009001E99F300D1124932FD59ED001112487
:1013A000AB2FBB276E01CA1ADB0AEC9DD001ED9D65
:1013B000B00D11248B2F5E01A51AB108A09E60010B
:1013C000A19ED00CB09ED00C1124CD2CDD24CC19C4
:1013D000DD09EC9F8001ED9F100D11246330710534
:1013E000D1F05CEFE51653E0F50670F4613071055D
:1013F000B1F062307105B9F04FEFE416F10408F076
:101400009FCF832F912F9CCF6430710579F0663088
:101410007105B9F395CFE32F9B2F842F91CFEB2F3D
:10142000832F942F8DCF812FE32FFBCF8E2FE12F92
:1014300087CFEF92FF920F931F93CF93DF937C019F
:1014400080919801E0DE192F3091FA053695369596
:1014500021E0320F08F43FEF6091A5057091A605D9
:1014600050E040E0639F060E411D739F400D511DEB
:101470001124470F511D042FC82FD0E0C11748F089
:101480008091A4058823F1F081E01B31F0F080E029
:101490001CC0FE01EF56FD4F808190919901892378
:1014A00079F06091F7057091F8058091F905202F8A
:1014B0004C2FF701099533DF472F282FCE01CEDEC1
:1014C0002196DCCF81E0163310F7CDB7DEB7E6E02A
:1014D0000C944131B0E0A0E0E0E7FAE00C94233155
:1014E000C82F80914B018C1328C09091F605937002
:1014F00020914A0130E081E09217130609F480E060
:10150000817080939A018091FB05909199019817C1
:1015100031F08093990140E060E080E0ADDEC330BF
:1015200009F45EC060F4C13081F186E699E0C23012
:1015300081F0CC2309F180E00DC081E0E1CFC5301E
:1015400009F451C0CF3F09F4B1C083E299E0C4303F
:1015500091F76FDF909198019F5F909398018111AF
:10156000CEC082E080939B0180919A018111C7C017
:10157000C111C5C083E0C1C080919A01882351F395
:1015800040E060E080E078DED6CF809198013BDEDD
:10159000082FD92F6091F7057091F8058091F90512
:1015A000BEDEF62EE72ED82E10E00D1748F0809103
:1015B000A405882309F475C081E0DB3158F2BBCF64
:1015C000F801EF56FD4F808190919901892329F010
:1015D0002D2D4E2D6F2DC80141DE0F5F1F4FE5CF22
:1015E0008CE299E0B6CF809198010DDE082FD92FBB
:1015F0002091FA0531E0230F08F42FEF30E050E09E
:1016000040E06FEF7FEF80E090E00E945C31790175
:1016100010E0D12CC12C202F0D1748F6F801EF5601
:10162000FD4F808190919901892329F180910D04CA
:101630008150082E000C990B87FF20C0B701309114
:10164000FA0521E0320F08F43FEFA601639F060E72
:10165000411D739F400D511D1124470F511D609175
:10166000F7057091F8058091F9051EDE58DE472FC9
:10167000282FC801F3DD0F5F1F4FCDCFFC01E35FC3
:10168000FB4F318923130BC0FC01EE0FFF1FE35FFB
:10169000FB4F618D728D6E157F0508F4D0CF0197D9
:1016A000CBCF81E0D63308F455CF45CF8091A50547
:1016B0009091A605A091A705B091A8052AE0B6953E
:1016C000A795979587952A95D1F783709927AA278B
:1016D000BB2782309105A105B105B1F0833091059A
:1016E000A105B105A1F040E060E00197A105B105B9
:1016F00081F464E180E0C0DD82E080939B01CDB79E
:10170000DEB7E8E00C943F3144E160E0F3CF44E120
:1017100064E184E1F0CF80E00895F894E82FE29549
:10172000EF70F0E041A18F7021E030E0B90102C01C
:10173000660F771F8A95E2F7CB01962F9095942339
:1017400091A392A1892B82A378940895A4E0B0E09C
:10175000ECEAFBE00C9429318091A305882369F021
:1017600085DB69837A838B839C8369817A818B8112
:101770009C812496E2E00C94453178DB69837A837E
:101780008B839C838091860390918703A09188032B
:10179000B091890329813A814B815C81280F391FDF
:1017A0004A1F5B1F29833A834B835C83DECF909172
:1017B000870592FF10C041E0282F2471243009F0E2
:1017C00040E031E0282F2871283009F030E043173D
:1017D00011F02CE0822793FF10C041E0282F2471E4
:1017E000243109F040E031E0282F2871283109F038
:1017F00030E0431711F02CE082273091880530FF4C
:1018000010C051E0282F2171213009F050E041E053
:10181000282F2871283009F040E0541711F029E0F2
:10182000822731FF10C041E0282F2171213109F0BA
:1018300040E031E0282F2871283109F030E04317CB
:1018400011F029E0822794FF02C083FD877E08956E
:10185000803E9105C1F1C8F48133910509F47DC042
:1018600048F48932910509F46DC08A32910509F472
:101870007BC0089589339105D1F082389105B9F084
:101880008533910509F459C00895843E9105C1F14D
:1018900038F4823E910521F1833E910531F108959E
:1018A000863E9105C1F1873E9105E1F108952091B1
:1018B0008705237009F065C02091880523FF14C0B7
:1018C00089E290E008952091870520FD43C0309182
:1018D000880530FF09C024FF4EC090E080E00895E5
:1018E0002091870522FDF7CF08952091870522FDDD
:1018F00045C03091880530FD44C024FFF5CFEDCFC1
:101900002091880521FFF0CF8091870584FDE5CFE8
:1019100087EE90E008952091870523FFE5CF24FD11
:10192000DCCFF6CF2091870523FD2EC030918805AE
:1019300031FFE3CF84EE90E008952091870525FFE5
:10194000D3CFBECF2091870525FD21C020918805EA
:1019500023FFCACF89E390E0C7CF2091870526FFF8
:10196000C3CF8AE290E008952091870526FFBCCF7F
:1019700081E390E0089583EE90E0089582EE90E098
:10198000089580EE90E0089586EE90E0089585E356
:1019900090E008957830B8F46630A8F48430B0F45C
:1019A000E62FF0E096E0799FE00DF11D112490E321
:1019B000899FE00DF11D1124EE0FFF1FEC5DFE4F1E
:1019C00085919491089580E090E0089581E0FCCFA6
:1019D0001F93CF93DF933CDFEC018115924508F014
:1019E0005CC0C11580E5D80708F0D9C0C03ED1055C
:1019F00038F5CD3CD10508F0ABC0C83AD10580F42C
:101A0000C53AD10508F0A1C0C130D10509F440C0E4
:101A1000CE010497813A9105D8F1D0E0C0E038C0FA
:101A2000CE01885A91094B97C0F7C85AD0E0CC0F25
:101A3000DD1FC156DE4F0990D881C02DD46428C067
:101A4000C11590E4D907E0F4C11520E2D20708F0EF
:101A5000C0C0C83ED105E0F0CE019A9581159F41E6
:101A6000E0F68D2FA4DE182FCE019927F1DEC12FCD
:101A7000D0E0DC2FCC27CC27DF71C82BD92B08C0B6
:101A8000CE019927E5DECC27DF70C82BD92BD06A91
:101A9000CE01DF91CF911F910895C03882E5D8071C
:101AA000B8F5C03692E5D90708F05BC0C03422E52E
:101AB000D207C8F4C03282E5D80708F04BC02C2FFB
:101AC0002695269590E2299F900111248C2F8370F2
:101AD000C1E0D0E002C0CC0FDD1F8A95E2F7C22B37
:101AE000D32BDD68D5CF2C2F26952695277080E245
:101AF000289F900111248C2F8370C1E0D0E002C098
:101B0000CC0FDD1F8A95E2F7C22BD32BDC68C0CF48
:101B1000C03C92E5D90760F48C2F8F71C03AD24552
:101B2000A8F5C82FD0E0DC2FCC27C46FD06AB0CF87
:101B3000CE01805C9245809708F06FCFDC2FCC27D8
:101B4000CC27DF71C06FD06AA3CFA497D064A0CF99
:101B5000D0659ECFCF71D0E0DC2FCC27C16FD06A8B
:101B600097CF2C2F26952695277080E2289F9001ED
:101B700011248C2F8370C1E0D0E002C0CC0FDD1F98
:101B80008A95E2F7C22BD32BDA6882CF10DEC82FFA
:101B9000D0E0DC2FCC27CC27DF71D06279CF8C2F1F
:101BA0008F7105DE55E0D695C7955A95E1F7CF7050
:101BB000D0E0DC2FCC27282F30E084FF06C044E0A3
:101BC000220F331F4A95E1F73327C22BD32BD0695D
:101BD0005FCF8D2F8F71EBDD182FCE01992738DE67
:101BE000C12FD0E0DC2FCC27CC27DF71C82BD92B1D
:101BF000D4CF80914203882331F010924203109297
:101C00004103109240030895982F90958091E3042A
:101C100089238093E30408958091F2059091A905AA
:101C2000981301C008958F5F8770FACFB0E0A0E0ED
:101C3000ECE1FEE00C9422318C01E090B803F090CE
:101C4000B9038091940390919503E82AF92ACFE093
:101C5000D0E0CC24C394D12CBC2EC6010C2E02C0E3
:101C6000880F991F0A94E2F78E219F21892B49F44E
:101C7000219790F7B12C8B2DCDB7DEB7E9E00C940E
:101C80003E31B8018C2F86DEA3DE019789F3F3CFB6
:101C9000CF93DF93D82FC92FC9DF6D2F7C2F7ADE2A
:101CA00097DEDF91CF910895983078F5863068F50A
:101CB000E82FF0E086E0989FE00DF11D11249E2FA3
:101CC000977083E0F695E7958A95E1F7EE0FFF1F91
:101CD000EE0FFF1FEC50FD4F50E040E080E02191FF
:101CE00030E0092E02C0369527950A94E2F721705C
:101CF0003327042E01C0220F0A94EAF7822B4F5F8C
:101D00005F4F4430510559F7089580E008959830A9
:101D100098F5863088F5E82FF0E086E0989FE00D92
:101D2000F11D11248E2F877041E001C0440F8A9568
:101D3000EAF783E0F695E7958A95E1F7EE0FFF1F46
:101D4000EE0FFF1FEC50FD4F30E020E070E05191AE
:101D5000DF011197CB01022E02C0969587950A9458
:101D6000E2F7817081958527842385278C932F5FE7
:101D70003F4F2430310559F708959093B90380936C
:101D8000B8030895E091B803F091B90321E030E081
:101D9000D90102C0AA0FBB1F8A95E2F7CD01D90174
:101DA00002C0AA0FBB1F6A95E2F7BD018A2B972BD1
:101DB00002C0220F331F4A95E2F7AF01482359238F
:101DC0008417950721F42E2B3F2BC901D6CF2095E0
:101DD00030952E233F23F9CF21E030E002C0220FBF
:101DE000331F8A95E2F7209530958091B803909142
:101DF000B90382239323C1CF909117038095892340
:101E000080931703282F277081F4891771F0909120
:101E1000880592FF0AC0869586958695DDDF10922B
:101E200017031092160310921503089521E030E075
:101E300002C0220F331F8A95E2F78091B803909178
:101E4000B903822B932B99CF90939503809394039E
:101E50000895FC0184818823A9F0878190850097EB
:101E600099F0B6DD282F92959F709630B1F080F4EE
:101E7000925F9F70923030F481E0203FA1F050F4E7
:101E8000283E50F080E008C08081918101DFEACFD8
:101E90009A5FEFCF243FB1F7089581E0283E20F00C
:101EA000213F81F7F9CF089508959C01892F992743
:101EB0000097E9F09C0188E0A90174E056954795E8
:101EC0007A95E1F74115510511F08C5F9A01A9014E
:101ED00056954795569547954115510511F08E5FDA
:101EE0009A0136952795232B09F08F5F089580E09E
:101EF000E3CFA6E0B0E0EFE7FFE00C9428319C01CF
:101F0000FC01878190850097C9F486E0DE01119677
:101F100001900D928A95E1F7F901258189819A81D5
:101F2000222381F0662371F081DE182F682F8981CA
:101F30009A81EDDE69817A81812F2CDD2696E3E09E
:101F40000C944431B1DE182FF5CF9C019A95811580
:101F50009F4150F5D901AA27B170F901EE27F2701F
:101F6000B90166277470A9014427587034FF0EC068
:101F700080E1AB2B09F480E0EF2B09F08062672B46
:101F800009F08064452B89F08068089581E0AB2BCF
:101F900009F480E0EF2B09F08260672B09F0846080
:101FA000452B19F08860089580E00895CF93DF9362
:101FB000682F81E06A3019F06D3029F480E082D01A
:101FC000DF91CF910895809108089091090826E04B
:101FD000FC01A2E0B8E001900D922A95E1F7603E85
:101FE00008F458C026E0FC0111922A95E9F7C09147
:101FF0000808D091090846E050E0BE0182E098E070
:102000000E94A9319E0122503640892B41F1C9011D
:1020100045E0969587954A95E1F741E050E0BA0191
:1020200002C0660F771F8A95E2F7CB016091000628
:1020300070910106862B972BB9016B5F7F4FE5E00E
:1020400076956795EA95E1F702C0440F551F6A95AA
:10205000E2F7842B952B90930106809300062A5F6C
:102060003F4F4091FF05642F70E0C9010E94053188
:10207000481B463010F4240F311D211572E037073C
:1020800010F030E020E02E5F394F309309082093A4
:10209000080896CFF6E06F9FB00111246C597A4F73
:1020A00046E050E00E94A031A2CFCF93DF93EC0135
:1020B000FE018491811103C0DF91CF91089576DFF5
:1020C0002196F6CFCF93382FE0910808F0910908B8
:1020D000E250F6402091FF05622F70E0CF010E9490
:1020E0000531281B822F332359F066E00E945031BE
:1020F000C82FC15010F4CF91089580E257DFF9CF77
:102100009F01280F311D2115324018F080E0F0E0CA
:10211000E0E08E0F9F2F911D8E5F994F90930908DD
:1021200080930808E8CFC1DF81E0CCCF0F931F93E5
:10213000CF93DF938B01EA0190919905943061F57B
:102140008093E9008FEF9091E800815095FD06C0E3
:1021500095ED9A95F1F700008111F5CF8091E80097
:1021600085FF1AC00E94EE05811111C08091E80020
:1021700085FD06C08091E8008E778093E800F2CF5D
:10218000F80181918F018093F100219779F7809177
:10219000E8008E778093E800DF91CF911F910F9137
:1021A0000895BC0143E050E082E0C0CFBC0140E2B2
:1021B00050E082E0BBCFCF93DF93D82FC92F48E008
:1021C00050E0682F792F81E0B1DF88E0ED2FFC2F00
:1021D000AFE8B5E001900D928A95E1F7DF91CF91DC
:1021E00008953BB1377F2BB128604FB7F89481E455
:1021F00094E0FC010196508168E02BB9000000C01A
:1022000057FF3BB9550F000000C000C000C03BB9EC
:1022100000C06A9591F754E0833E950751F74FBF90
:102220008FE594E00197F1F700C000000895B0E059
:10223000A0E0EDE1F1E10C942131F82EE92ED62E4B
:10224000C72E8A0180918503AA24A394B12C8A30D9
:1022500018F48AE0A82EB12CC1E0D0E06D2D7C2DC1
:102260008F2D9E2DF8010995811104C02196AC1681
:10227000BD062CF4CDB7DEB7EAE00C943D31CC9F1F
:102280009001CD9F300D300D112490E080E045E3AA
:102290004A95F1F70000019682179307C1F7DECF48
:1022A000AB0124E630E0BC0188E70E94CA2E9C0105
:1022B00081E0232B09F080E0089580913F04909104
:1022C0004004911103C091E089270895882361F0AB
:1022D00062E070E080E494E0E3DF811103C080916C
:1022E0003F04089510923F0480913F04ECCFA5E095
:1022F000B0E0EDE7F1E10C94293180913F048D834A
:10230000809140048823E9F00E943607DC01CB016C
:10231000805D9A48AF4FBF4F80933B0490933C043D
:10232000A0933D04B0933E048D81811107C062E00B
:1023300070E08EE394E0B4DF811108C080913F0427
:102340008D838D812596E2E00C94453181E0809368
:102350003F04F4CF4F925F926F927F928F929F9241
:10236000AF92BF92CF92DF92EF92FF92CF93DF9323
:1023700000D000D0CDB7DEB7C0903604D09037047F
:10238000E0903804F09039048091A305882309F483
:1023900056C00E943607DC01CB018C199D09AE099D
:1023A000BF096C017D01D2D9609336047093370464
:1023B0008093380490933904A091E403E4EEF3E0B1
:1023C0002A2F30E088248A94982CA12CB12C8C18C8
:1023D0009D08AE08BF08A31334C02093E403F09017
:1023E0003A0420919B01223009F45DC008F03CC002
:1023F00021114FC0109298016093A5057093A60516
:102400008093A7059093A80589E2E4EEF3E0ADE0A0
:10241000B4E001900D928A95E1F78091E303811178
:1024200008C08091F605282F237019F0282F2695D3
:10243000269520933A0481E080939B0117C086D9AA
:10244000AACF418D528D2A01712C612C84149504E0
:10245000A604B70420F421503F5F3296BCCF4C0D48
:102460005D1D528F418FF8CF233009F10F900F90EF
:102470000F900F90DF91CF91FF90EF90DF90CF9072
:10248000BF90AF909F908F907F906F905F904F9094
:1024900008958F2D1FD8FF2049F380919801815016
:1024A0000E940309E3CF8F2D0E941709DFCF80918F
:1024B000FE05882351F048E050E067E170E086EFC8
:1024C00095E00E94E1311092FE05C090A505D090E4
:1024D000A605E090A705F090A8058091A3058823A4
:1024E00081F00E943607DC01CB018C199D09AE09F1
:1024F000BF094097A105B10508F4B8CF10929B0120
:10250000B5CF24D9F0CFE6EFF5E081E1808380916B
:102510009C0190919D01A0919E0181839283A38350
:102520008FE784838FEF858348E050E067E170E0B8
:10253000CF010E94E1311092FE0508959091880527
:1025400092FB222720F9281771F080FB92F99093D3
:102550008805609187057091880584E090E00E946D
:102560000A3282E049CC08954F925F926F927F9237
:10257000AF92BF92CF92DF92EF92FF920F931F9391
:10258000CF93DF9300D000D000D0CDB7DEB78D83DE
:102590007B01A42EB22E3E836801DB014D905D903D
:1025A0006D907C900E94360769837A838B839C832D
:1025B000DC01CB0184199509A609B7098436910578
:1025C000A105B10510F4AA20E9F1BD810B2F0B2E56
:1025D000000C110B88E0B802F0011124E050FF4F0D
:1025E00081819281855A9C4F408150E0C416D50666
:1025F00008F4A6016B2D7E810E94B631C8010E94AD
:1026000095308983882341F00E943607D7016D9366
:102610007D938D939C931397898126960FB6F8949A
:10262000DEBF0FBECDBFDF91CF911F910F91FF9005
:10263000EF90DF90CF90BF90AF907F906F905F90C2
:102640004F900895B1E0B983E7CFA9E0B0E0EBE2A5
:10265000F3E10C94273188E0E6EFF5E0DE01119616
:1026600001900D928A95E1F78091E303898749E013
:1026700050E06CE673E0CE0101960E94A93141E082
:10268000892B09F440E009E010E09E012F5F3F4FE5
:1026900061E873E086E068DF2996E4E00C9443315A
:1026A0000F931F9341E0209168033091690380915B
:1026B000B8039091B9032817390709F440E002E004
:1026C00010E028EB33E06DE773E084E04DDF882312
:1026D000A9F041E020916A0330916B03809194034B
:1026E000909195032817390709F440E002E010E0C3
:1026F00024E933E069E773E085E036DF1F910F914D
:1027000008950F931F93CF93DF93D82FC92F44E0E1
:1027100050E060E673E00E94A93141E0892B09F4A2
:1027200040E004E010E02D2F3C2F67E573E082E0ED
:102730001BDFDF91CF911F910F910895CF92DF9210
:10274000EF92FF921F93CF93DF93CDB7DEB7289719
:102750000FB6F894DEBF0FBECDBFC0907503D0900A
:102760007603E0907703F09078030E943607DC014F
:10277000CB018C199D09AE09BF0911E08436910582
:10278000A105B10578F10E94A60BDC01CB010296F0
:10279000A11DB11D89839A83AB83BC8380911901EC
:1027A00090911A01855A9C4F20911801422F50E0B8
:1027B000253010F044E050E0BE016F5F7F4F0E9473
:1027C000B63183E090E00E949530182F882351F0B5
:1027D0000E943607609375037093760380937703A6
:1027E00090937803812F28960FB6F894DEBF0FBE22
:1027F000CDBFDF91CF911F91FF90EF90DF90CF90F1
:1028000008958F929F92AF92BF92EF92FF921F9383
:10281000CF93DF93CDB7DEB729970FB6F894DEBF1D
:102820000FBECDBF7B0190E080E00E949530182F55
:10283000882309F485C080910301482F50E0882344
:1028400011F041E050E06091040170910501655A7A
:102850007C4FCE0105960E94B63180905303909034
:102860005403A0905503B09056030E943607DC0134
:10287000CB0188199909AA09BB0984369105A105DC
:10288000B10540F48CE593E00E94B8059D8189175D
:1028900009F456C081E090E00E94953081111FC07C
:1028A00010E080914F0390915003A0915103B0919B
:1028B0005203F70180839183A283B383812F2996EA
:1028C0000FB6F894DEBF0FBECDBFDF91CF911F9141
:1028D000FF90EF90BF90AF909F908F900895809160
:1028E0000B01482F50E0853010F044E050E060913B
:1028F0000C0170910D01655A7C4FCE0101960E942A
:10290000B6318CE593E00E94B8059D818913C8CF4C
:102910000E943607609353037093540380935503CA
:102920009093560389819A81AB81BC8180934F0338
:1029300090935003A0935103B093520311E0B1CF91
:1029400080915C0390915D03A0915E03B0915F0361
:1029500089839A83AB83BC831111E4CFA2CF1F92EA
:102960000F920FB60F9211242F933F934F935F93C3
:102970006F937F938F939F93AF93BF93EF93FF9347
:102980008091E10082FF09C08091E20082FF05C0D2
:102990008091E1008B7F8093E1008091DA0080FFDD
:1029A00024C08091D80080FF20C08091DA008E7F03
:1029B0008093DA008091D90080FFA9C080E189BDB1
:1029C00082E189BD09B400FEFDCF81E080939905C5
:1029D00080918E05811109C00E94CF050E9470066A
:1029E0008091E20084608093E2008091E10080FFAA
:1029F0001AC08091E20080FF16C08091E2008E7FB5
:102A00008093E2008091E20080618093E2008091F7
:102A1000D80080628093D80019BC85E08093990526
:102A200083E0809397018091E10084FF2FC0809123
:102A3000E20084FF2BC080E189BD82E189BD09B439
:102A400000FEFDCF8091D8008F7D8093D8008091CB
:102A5000E1008F7E8093E1008091E2008F7E809381
:102A6000E2008091E20081608093E20080919A050B
:102A7000882309F452C084E08093990580919905D8
:102A8000843009F452C081E0809397018091E10085
:102A900083FF2CC08091E20083FF28C08091E10079
:102AA000877F8093E10082E08093990510929A05D8
:102AB0008091E1008E7F8093E1008091E2008E7F23
:102AC0008093E2008091E20080618093E20042E026
:102AD00060E080E00E943E068091F0008860809374
:102AE000F00081E08093970180939601FF91EF9130
:102AF000BF91AF919F918F917F916F915F914F9116
:102B00003F912F910F900FBE0F901F90189519BCF9
:102B10001092990510928E0568CF8091E30087FD91
:102B200002C081E0A9CF83E0A7CF82E0ADCF789447
:102B30001F921FB61F9211248F939F93AF93BF9341
:102B400080918A0590918B05A0918C05B0918D059F
:102B50000196A11DB11D80938A0590938B05A093CA
:102B60008C05B0938D05BF91AF919F918F911F9070
:102B70001FBE1F9018952FB7F89480918A059091E9
:102B80008B05A0918C05B0918D052FBF0895CF9333
:102B9000DF93EC01F0DF8C1B9D0BDF91CF9108954B
:102BA000A0E1B0E0E6EDF5E10C941F311A82198244
:102BB000FE01339686E0DF011D928A95E9F787EDE5
:102BC000E82E81E0F82E10E000E0CC24C394D12C54
:102BD00021EEA22E21E0B22EF70181917F018F3FDD
:102BE00009F445C0F894E82FE295EF70F0E021A1D8
:102BF0008F70A60102C0440F551F8A95E2F7CA01E3
:102C0000922F982B91A392A18095892382A37894E7
:102C100000C0EBEDF1E031E0912C21912F3F09F460
:102C2000ADC0A22FA295AF70B0E090968C9190E0CD
:102C30002F7002C0959587952A95E2F780FD9EC07A
:102C4000832F982A330FAE16BF0639F7F701319755
:102C500080818F3F11F00E948D0B50EA5A95F1F759
:102C6000E1E0F0E0EC0FFD1FE00FF11F90820F5F3D
:102C70001F4F0430110509F0AFCF48E050E0BE010E
:102C80006F5F7F4F8AE893E00E94A9319C01892BF6
:102C900049F088E0FE013196AAE8B3E001900D9278
:102CA0008A95E1F70091930310E00A561C4F232BFD
:102CB00009F466C081E0809347035DDF909346038B
:102CC00080934503F12CE090A305EE2009F4B3C0F6
:102CD0001A8619861C861B86809185038A3008F027
:102CE00074C041E054E1BE01675F7F4FC8019FDAC5
:102CF000882309F490C041E853E1BE01675F7F4F2C
:102D0000C80195DA882309F486C04EE953E1BE0173
:102D1000675F7F4FC8018BDA882309F47CC040E5E8
:102D200053E1BE01675F7F4FC80181DA882309F450
:102D300072C045E253E1BE01675F7F4FC80177DA99
:102D4000882309F468C0109285038091920390E073
:102D500044E050E0BE01675F7F4F8A569C4F0E945F
:102D6000A93121E020934E03892B09F046C0E12CC4
:102D70008E2D8F296096ECE00C943B3180E061CF82
:102D8000F0904703FF2009F49DCFC0904503D090F9
:102D90004603F1DE8C199D09059708F493CF44E0B2
:102DA00050E06AE873E0C8010E94A931892B59F00C
:102DB00084E0EAE8F3E0D80101900D928A95E1F70A
:102DC0001092470380CFF12CFBCFC0904803D090E6
:102DD0004903D1DE8C199D09843F914008F081CFD1
:102DE00080914E03882319F2FE01399684E0DF01B9
:102DF0001D928A95E9F710924E03E0919203F0E05C
:102E0000EA56FC4F89859A85AB85BC858083918382
:102E1000A283B383ADCF809185038F3F31F08F5F65
:102E2000809385038A3008F490CFA5DE9093490300
:102E300080934803D5CFC0909203D12CF601EA5677
:102E4000FC4F6F01F80180819181A281B381809351
:102E50005C0390935D03A0935E03B0935F038CE5E6
:102E600093E00E94B80580935B038091600390918A
:102E70006103A0916203B0916303F60180839183A3
:102E8000A283B3838090640390906503A09066034F
:102E9000B090670380914A0390914B03A0914C033B
:102EA000B0914D0388169906AA06BB06B1F0809230
:102EB0004A0390924B03A0924C03B0924D030E94A0
:102EC0003607861A970AA80AB90A80928603909252
:102ED0008703A0928803B092890380916803909140
:102EE00069039093B9038093B80380916A0390912A
:102EF0006B03909395038093940388E0ECE6F3E0F2
:102F0000A6EFB5E001900D928A95E1F71091740358
:102F1000112349F08091E303811105C00E946A0AE0
:102F200080E00E9417091093E30322CFCF93C82FAC
:102F30008091880582FF0BC0809142038C1739F085
:102F40001ADE9093410380934003C0934203CF91D4
:102F50000895CF93C091E30480910A05C82B809116
:102F60004203882301F107DE2091400330914103A1
:102F7000821B930B883E934010F00E94F90D8091C4
:102F80004203C82B80919601813081F4809187059E
:102F900087FF0CC02EE184ED92E030E0215050F428
:102FA00031110E94F90D8C2FCF91089526E08CEC01
:102FB00092E0F3CFFC014191CF01442379F33F5FCD
:102FC000EDCF80919601813061F58091870587FF73
:102FD00028C0BFDF8093D30240E250E068E173E095
:102FE00082ED92E00E94A931892BD1F080E2E2EDDE
:102FF000F2E0A8E1B3E001900D928A95E1F7E0914B
:103000008305F0918405309759F00480F581E02D17
:10301000309731F086E08093D20282ED92E00995FC
:10302000089597DF8093CA0248E050E068E373E0B8
:103030008AEC92E00E94A931892B91F388E0EAECB6
:10304000F2E0A8E3B3E001900D928A95E1F7E091F8
:103050008305F0918405309719F30280F381E02D08
:103060003097F1F28AEC92E0DACF80914C01877FC1
:1030700080934C0190910A059D7F90930A0584FFEF
:1030800008C08F7E80934C018091E304826080931E
:10309000E30480914C0185FF08C08F7D80934C0133
:1030A0008091E30480628093E3048BCF1092E30469
:1030B000809196018130B1F48091870587FF12C01D
:1030C000E4EDF2E08EE1DF011D928A95E9F790E0F0
:1030D00080E00E94DF0790E080E00E94B707109236
:1030E0000A056FCFECECF2E086E0EDCFAAE2B0E0AB
:1030F000ECE7F8E10C9428318BE995E0FC010196AE
:103100002091F100208325E0833A9207B9F780915E
:103110009C05893009F459C0C8F4823009F4B5C05F
:10312000833009F484C0813089F18091E80083FF05
:1031300086C280919B0590919C059A3008F07FC2D1
:10314000E92FF0E0E05FFD4C0C9478318A3009F40F
:103150008BC08B3051F780919B05813231F7809184
:103160009F059091A005892B01F78091E800877F4A
:103170008093E8000E941F0681E090919D059111C7
:1031800001C080E08093960191DFCFCF80919B05B5
:10319000813A59F68091E800877F8093E80080911A
:1031A0009F059091A005892B61F468E08FE895E078
:1031B00070E00E94CA068091E8008B778093E80057
:1031C000B4CF60E090E080E0F3CF80919B05813246
:1031D00009F0ABCF80919F059091A005029708F070
:1031E000A4CF8091E800877F8093E8008091E80079
:1031F00082FF18C09091F3008091F200029731F4A1
:103200008091F100813011F0863021F48091F1003D
:10321000809395018091E8008B778093E8000E946D
:103220001F0683CF809199058111E0CF7ECF8091D9
:103230009B05813A09F079CF80919F059091A00577
:10324000892B09F072CF8091E800877F8093E80096
:103250008091E80080FFFCCF809196018093F1007F
:103260008091E8008E77D9CF80919B05813209F05B
:103270005CCF8091E800877F8093E8000E941F0662
:1032800080919E058093940150CF80919B05813A57
:1032900009F04BCF8091E800877F8093E800809110
:1032A000E80080FFFCCF80919401D8CF803899F05E
:1032B000823809F0C4C180919F058F70873008F073
:1032C000BEC18093E9008091EB0085FB882780F9DF
:1032D0001092E90006C08091970590919805911190
:1032E00082609091E800977F9093E8008093F100CE
:1032F0001092F1008091E8008E779DC1882309F437
:103300008BC1823009F09BC180919D0581118EC1D6
:1033100080919F058F702FEF280F263008F08FC106
:103320008093E9002091EB0020FF80C1933031F4BD
:103330008091EB0080628093EB0078C19091EB006C
:1033400090619093EB0021E030E001C0220F8A955C
:10335000EAF72093EA001092EA008091EB0088607F
:10336000EACF81116CC110919D051F778091E30018
:103370008078812B8093E3008091E800877F8093A1
:10338000E8000E941F068091E80080FFFCCF80913A
:10339000E30080688093E30082E0111183E0809372
:1033A00099054DC18058823008F049C140919D0572
:1033B00050919E054C3D83E05807A1F583E08A8338
:1033C0008AE289834FB7F894DE01139620E03EE04D
:1033D00051E2E32FF0E050935700E49120FF03C047
:1033E000E295EF703F5FEF708E2F90E0EA30C0F013
:1033F000C7968D939D932F5F243159F74FBF8091CE
:10340000E800877F8093E8006AE270E0CE010196D1
:103410000E94CA068091E8008B778093E8000FC174
:10342000C096E7CF20919F053091A005852F992761
:103430008330910509F160F48130910509F472C07F
:10344000029709F0FCC08BE390E0E3EFF4E029C0C1
:103450008132910509F45AC0829709F0F0C0211514
:10346000310509F469C02130310509F0E8C08DE665
:1034700090E0E2E4F4E015C0CA0199274130B1F1CF
:103480008230910509F43AC0892B09F0D8C0E0E6F2
:10349000F5E0E4918E2F90E0E0E6F5E0009709F486
:1034A000CEC02091E800277F2093E8002091A1055D
:1034B0003091A2058217930708F49C0140E0211582
:1034C000310509F03EC041113CC08091E80082FD09
:1034D000A1CF80919905882309F49CCF853009F408
:1034E00099CF8091E80083FFF0CF94CFEEE4F5E030
:1034F000E4918E2F90E0EEE4F5E0D0CFE0E4F5E04B
:10350000E4918E2F90E0E0E4F5E0C8CF211531057D
:1035100071F02130310509F092C089E090E0EEE1D0
:10352000F5E0BFCF82E190E0EEE2F5E0BACF89E0CE
:1035300090E0E5E0F5E0B5CF84E490E0EFEAF4E078
:10354000B0CF80919905882309F464CF853009F4C0
:1035500061CF8091E80083FD5DCF8091E80082FD1E
:10356000B4CF8091E80080FFAACF9091F3008091C2
:10357000F2002115310519F08830910550F041E035
:10358000089709F040E08091E8008E778093E8008A
:1035900096CF44914093F100319621503109019624
:1035A000E8CF803809F04BC08091E800877F809396
:1035B000E80080919A058093F1009CCE81113FC074
:1035C00010919D051230D8F58091E800877F809397
:1035D000E80010939A050E941F06112311F084E061
:1035E00005C08091E30087FDFACF81E080939905C3
:1035F00042E061EC81E00E943E0642E261EC82E042
:103600000E943E0680919905843021F081E08093EC
:10361000970115C082E0FBCF80919D05813079F440
:1036200081E0933009F080E0809398051092E900E2
:103630008091E800877F8093E8000E941F068091B8
:10364000E80083FF0AC08091E800877F8093E8004C
:103650008091EB0080628093EB00AA96E3E00C94EB
:1036600044311F920F920FB60F9211242F933F9364
:103670004F935F936F937F938F939F93AF93BF937A
:10368000CF93DF93EF93FF93D091E900DF708091A8
:10369000EC00C82FC17080FDC0E81092E900809155
:1036A000F000877F8093F000789420DD1092E9008D
:1036B0008091F00088608093F000CD2BCF70C09394
:1036C000E900FF91EF91DF91CF91BF91AF919F9171
:1036D0008F917F916F915F914F913F912F910F90BB
:1036E0000FBE0F901F901895E1DC88E19AE00FB6AD
:1036F000F894A895809360000FBE90936000FFCF70
:10370000882339F0809590910A05892380930A05D2
:1037100058CC0895882331F090910A05892B809325
:103720000A054FCC0895882319F00E94040E49CC55
:103730000895882331F09091E304892B8093E3046A
:1037400040CC0895882321F19CEF980F913A18F40A
:103750000E94560736CC90E2980F983050F487704C
:1037600091E001C0990F8A95EAF7892F0E94040E13
:10377000F1CF9BE5980F933020F490E080E00C941B
:10378000DF07885A8B3120F490E080E00C94B70773
:103790000895CF93DF93EC01D5DFCE010E94A50FF2
:1037A0009E01205E31092830310510F0CD2B21F427
:1037B000BADFDF91CF910895A3DFFBCFCF93C82F5E
:1037C0008823A9F18CEF8C0F813A98F580919601AE
:1037D0008130F9F48091870587FF1BC0EC2FE695B7
:1037E000E695E695F0E0EE52FD4F828190E04C2F99
:1037F000477021E030E002C0220F331F4A95E2F704
:1038000082239323892B79F08C2F0E945607D9DBD2
:103810000AC0ECECF2E082ED92E02191C217A1F334
:103820008E179F07D1F78C2F0E948307CADBCF9199
:10383000089580E28C0F883068F4C77021E030E092
:1038400001C0220FCA95EAF78091E304822B80938E
:10385000E304ECCF8BE58C0F833038F42C2F24520B
:10386000330BC9010E94DF07E2CFC85ACB31F8F60B
:10387000EC2FF0E0EE0FFF1FE156FE4F80819181AB
:103880000E94B707D4CFEF92FF920F931F93CF936D
:10389000DF93C62FD42F122FFC018581882399F046
:1038A0006093F50568D99093F4058093F305C7708C
:1038B00081E001C0880FCA95EAF73BDFCDB7DEB7DC
:1038C000E6E00C9441318091F50568132FC0E0903B
:1038D000F305F090F4054FD98E199F09843B9105AB
:1038E00028F500E20D0FCD1799F0C770FF24F3946F
:1038F0008F2D01C0880FCA95EAF715DF083040F414
:103900008D2F877001C0FF0C8A95EAF78F2D11DF8C
:10391000812F54DF812F16DF083080F6D77081E0C9
:1039200001C0880FDA95EAF7FEDEC8CFC77081E0E4
:1039300001C0880FCA95EAF7F7CFCF93DF93EC0168
:103940000E94A50F9E01205E31092830310510F03C
:10395000209731F4EEDE8C2F31DFDF91CF91089587
:10396000D9DEF9CFB0E0A0E0E8EBFCE10C94233124
:10397000EC017B0180914C0182FF7CC00091060527
:10398000109107050C171D0719F0209709F072C058
:1039900080914C018B7F80934C01C1E081FD0CC074
:1039A00080910405909105059701281B390BC1E012
:1039B0002C3D310508F4C0E0C17080914C01C0FB82
:1039C00081F980934C016801DD24F60184E0F695CD
:1039D000E7958A95E1F7EE0FFF1FEC51FB4F208131
:1039E0003181A8014F70552781E090E002C0880F17
:1039F000991F4A95E2F7CC23C1F1822B932B918337
:103A000080838091E30481FF08C080914C01806134
:103A100080934C0182E00E94040E8091E30485FFB4
:103A200008C080914C01806280934C0180E20E942A
:103A3000040ECC2329F080910A05826080930A0548
:103A4000C80190528115904308F48601C80175DFC2
:103A500080910605909107059C0130522115304355
:103A600008F4992796DE01DB14C080959095822397
:103A70009323C5CFCE0190528115904398F4CE0187
:103A8000992787DE8091060590910705C817D90709
:103A900051F3F0920505E0920405CDB7DEB7E8E0FA
:103AA0000C943F31CE01EDCF0F931F93CF93DF9353
:103AB0008C01EB0142DF209739F4C8016ADEDF9107
:103AC000CF911F910F9108958FE99FE00197F1F732
:103AD00000C000002197EFCFB0E0A0E0E2E7FDE1F9
:103AE0000C9423318C01FC018481882309F465C581
:103AF00061E0C8010E94790FEC01F80185818823FB
:103B000009F431C591819093BD0390819093BC03DA
:103B100090E290934201D093BB03C093BA039E01FD
:103B2000305221153042C8F4F8019681907F09F493
:103B300079C5FE01FF27CD3308F483C0C93192E374
:103B4000D90709F474C5C034EEE7DE0709F47FC075
:103B5000C630F8E2DF0791F414C59E0130542115F8
:103B6000304108F05CC0F8019681907F09F464C090
:103B7000FE01FF27ED33F10508F463C00E94BB1579
:103B8000D82EE92EF8018581882309F478C0809128
:103B90004C0182FF07C04FEA53E06D2D792F90E072
:103BA00080E0E0DEC431FCE7DF0709F464C0C53122
:103BB0002CE7D20709F455C0C3313CE7D30729F4F9
:103BC00080914C01816080934C01CE01905281150F
:103BD000904308F062C01092070510920605F801A4
:103BE0009581992309F411C51092F5059E0130576E
:103BF0002332310508F0F4C484E090E00E94DC3107
:103C00009093880580938705FE01E150F047E232EA
:103C1000F10508F0DEC0E65EFD4C0C9478319E01A3
:103C20003A9521153F4108F4A3CF9E01205A324511
:103C30002032310508F487CFFE01CD33D10508F0DD
:103C400082CFE851FF4FE491E093420177CF80911A
:103C50003F04882319F00E945D11A0C40E947711CF
:103C60009DC490914C01892F8E7F90FF816080933D
:103C70004C01FBD9AACF80914C018E7FF8CF809167
:103C80004C018F7EC13ED10531F0C53ED105C1F456
:103C900080914C018F7D80934C0180914C0180FF7D
:103CA00014C0F80185819E01245031092A31310563
:103CB000B8F0882351F0109207051092060505C050
:103CC000CE0190528115904340F7FE01E851FC4728
:103CD000E730F10508F083CFE45CFD4C0C947831BB
:103CE000882309F453C080914203F090E304F82A3A
:103CF0009F2D9D7F51F11092070510920605FE0140
:103D000024E0F695E7952A95E1F7EE0FFF1FEC51B9
:103D1000FB4F9E012F70332781E090E002C0880F97
:103D2000991F2A95E2F78095909520813181822311
:103D3000932391838083CE0100DE809142038D7FA7
:103D4000F5D882E00E94FC0E29C499E0AFEAB3E006
:103D500001900D929A95E1F71092B2031092B1037F
:103D60008D7FE4D8D0930705C0930605D092040553
:103D7000E09205058F2D82708460F0904C01FF2D3C
:103D8000F97FFF2EF82AF0924C01DBCFA8016D2DB0
:103D90007E2DCE01E7DD02C426E241EE61EEC801D0
:103DA00072DDFCC327E245EE65EEF9CF26E241EE77
:103DB00060EEF5CF27E245EE64EEF1CF26E241EE6C
:103DC00062EEEDCF27E245EE66EEE9CF28E241E074
:103DD000EBCF80918705816080938705609187058F
:103DE0007091880584E090E00E940A325FD9D6C3C2
:103DF00080918805886080938805F0CF8091870541
:103E00008260EACF809187058460E6CF8091870544
:103E10008860E2CF809188058160EDCF8091880530
:103E20008260E9CF809187058061D6CF8091870538
:103E30008062D2CF809187058064CECF37D98091C0
:103E400087058068C9CF809187058C60C5CF809138
:103E500088058360D0CF809187058E7FBDCF80910C
:103E60008805877FC8CF809187058D7FB5CF8091EA
:103E700087058B7FB1CF80918705877FADCF8091FC
:103E800088058E7FB8CF809188058D7FB4CF8091D3
:103E900087058F7EA1CF809187058F7D9DCF8091F3
:103EA00087058F7B99CF02D9809187058F7794CF33
:103EB00080918705837F90CF809188058C7F9BCFF1
:103EC0008091870582FB992790F921E0922790FB4A
:103ED00082F990FB83F980CF80918805982F909587
:103EE00091708E7F892B90FB81F985CF909187050A
:103EF000892F8F7B96FF80646FCFD8D890918705EC
:103F0000892F97FB87F9805867CF61E08EE090E0BA
:103F10000E94F03163CF60E0F9CF90918705892F3F
:103F20008F7E94FF806158CF90918705892F8E7F77
:103F300090FF816051CF90918805892F877F93FFF3
:103F4000886059CF85E35CC385E369C30E94FA08A2
:103F500025C3882391F10E94E70820C3882391F1AB
:103F60000E94D7081BC3882391F10E94C10816C381
:103F7000882391F10E94AB0811C3882391F10E941C
:103F800099080CC38091F605837011F410929B017F
:103F90008091F6058C7F81608093F6050E94700504
:103FA000FDC28091F605837011F010929B01809103
:103FB000F6058C7FF1CF882371F20E94F108EEC2E2
:103FC000882371F20E94DF08E9C2882371F20E94FF
:103FD000CC08E4C2882371F20E94B608DFC28823AD
:103FE00071F20E94A208DAC2882329F00E946A08AE
:103FF000D5C28823D9F30E948308D0C2C737FCE713
:10400000DF0709F027C381E00E94EC0EE3C282E0E3
:10401000FBCF992369F180E0CB353CE7D307F1F082
:10402000CC358CE7D80799F081E0CA35ECE7DE079C
:10403000A9F0C130FCE7DF07D1F0C3302CE7D2078D
:1040400081F0C115DC47A1F431D80E942507809189
:10405000880582FB882780F991E089270E949E12BB
:104060009DC26FEF7FEF90E080E00E940A323CDB60
:10407000F801278130852115310509F456C0C901A1
:104080000E94E80CD82FC92FF801C580F680F29461
:104090009FE0F92280911703877001F1DC2CCC207E
:1040A000F1F08C2F807F803461F080E28D0F8830BA
:1040B000A8F08C2F807E803221F4D23078F0FF205F
:1040C00069F08091880582FF09C082E00E94FC0EA1
:1040D000809117038770DD24D3948111D12CEC2EAD
:1040E000E2948FE0E822F8E0EF1609F41EC1FE1515
:1040F00008F442C023E02E1570F18C2F807FCF7022
:1041000031E03E1508F04BC0803211F0C295C07FFF
:10411000DD2309F479C0D13009F4CDC0CC2009F4F5
:10412000D8C0FF2009F48CC04FC0E080F1809923F3
:1041300069F0C7010E94160EC82F682FC7010E94A0
:10414000870EB7018C2F0E94CA0C9ACFC7010E941C
:10415000540EC82FF6CF84E0E81609F4CAC0EE2D3D
:10416000E850FF0B349708F0E6C10E94070860E0B2
:10417000C8010E94790F21C299E0E91609F45FC1D4
:1041800086E08E0D8F70823050F7D23F09F065C106
:104190008C2F8F71C1105EC10E94160FE0CF882353
:1041A00011F0C295C07FCC20B9F0CC2369F080E239
:1041B0008D0F883010F0D11109C08091E304C82B15
:1041C000C093E3040E94E1178D2F2EC080910A0551
:1041D000C82BC0930A05F6CF8D2FB4DACC2309F48F
:1041E000BECF80E28D0F883010F0D11104C08C2F2B
:1041F0000E94040E06C0C09580910A05C823C09392
:104200000A050E94E117ABCF8091880582FD14C09A
:10421000CC2061F0CC2339F08091E304C82BC0930B
:10422000E3040E94E11780E0C9DA99CF80E08ADADE
:10423000CC2309F494CFDBCFCC20C9F0F11003C01C
:104240008C2F77DA8CCFE1E0FE1289CFD091420338
:104250008C2F8D23C81709F482CF0E94BB15909331
:10426000410380934003CD2BC093420378CFF110DC
:1042700076CF8C2F58DA909142038C2F892369F0E6
:104280008C2F8095892380934203882389F00E9494
:10429000BB1580934003909341038091F3029C2FC0
:1042A000982309F45CCFC095C823C093F30257CF7D
:1042B00080E090E0EECFCC2029F0F5E0FF1508F487
:1042C0004ECFBECF24E02F1508F449CF8C2F2BDA28
:1042D00046CFFF20D9F3D93349F43FEF87EE93E07F
:1042E000315080409040E1F700C000008D2F2ADA65
:1042F00036CF8C2F86958695837069F0813009F0D2
:104300002ECF8D2F9C2F9370C11002C080E090E0C3
:104310000E94B70724CF8D2F9C2F9370C11002C02D
:1043200080E090E00E94DF071ACF8C2F837009F0A5
:1043300040C0C11014CF4D2F429546954770440F91
:10434000440F2D2F2F7030E0042E02C0220F331F98
:104350000A94E2F790E080E0D4FF09C08FE090E09B
:1043600002C0880F991F4A95E2F780959095C695EF
:10437000C695C370C230A1F0C33079F04091940368
:1043800050919503C13039F0822B932B84239523D0
:104390000E94240FE4CE242B352B822B932BF8CFB5
:1043A000822B932B2091940330919503822793279E
:1043B000EFCF8695CC2011F08C2F8170882309F4E3
:1043C000CECE4D2F429546954770440F440F2D2F6A
:1043D0002F7030E0042E02C0220F331F0A94E2F740
:1043E00090E080E0D4FF09C08FE090E002C0880F29
:1043F000991F4A95E2F780959095C695C695C3702A
:10440000C230A1F0C33079F04091B8035091B903A4
:10441000C13039F0822B932B842395230E94BD0E4B
:104420009ECE242B352B822B932BF8CF822B932BD4
:104430002091B8033091B90382279327EFCFCF7033
:10444000CC2029F08C2F0E94160F8D2FFACE8D2FA5
:104450006AD98C2F0E94EC0E82CED33F60F4D03FFD
:10446000B9F0D13F81F0CC2009F455C0F110ACCEA9
:104470008C2F8F7191CED33FF9F0D43FA1F790915B
:10448000880592FD27C08C2F8F71CC2019F384CE24
:10449000CC2069F0E4E0EF1508F461CECF7181E043
:1044A00090E002C0880F991FCA95E2F7C1CFF5E0EE
:1044B000FF1508F454CEF2CF90E080E0CC2009F450
:1044C000ADCFCF7181E090E002C0880F991FCA95EF
:1044D000E2F7A4CFCC20A1F08C2F8F7192FF5CCE9D
:1044E00098E0899F900111242360209317030E9474
:1044F000160F0E94BB1590931603809315032FCEC1
:1045000081E00E94FC0EE1E0EF1508F028CE82E089
:104510000E94FC0E24CEFF2059F0D93309F0E6CEDC
:10452000FFEF27EE33E0F15020403040E1F7DCCEE2
:104530008C2F8F718FCFDD2009F419CE8091170356
:1045400080FD15CEF80115828695869586950E9488
:10455000160FC801C1DA8091170386958695869556
:104560000E94EC0E04CEC931F2E3DF0709F45FC00C
:10457000C0342EE7D20791F0C63038E2D30709F0F5
:10458000FDCAF8019681907F09F4F8CA882309F4DE
:10459000F5CA70E060E086E098E086DA8091170363
:1045A000877059F0F8018581882339F0809188055A
:1045B00082FF03C082E00E94FC0ECDB7DEB7E8E0C8
:1045C0000C943F31C7372CE7D20709F03DC081E09A
:1045D0000E94160F43E062E081E00E94C20EDECF2F
:1045E0008091E304C6313CE7D30709F054C08A7ACE
:1045F00091E009F490E09093F2028111A3CC89E25A
:104600000E9483070E94E117C9CFC6318CE7D80703
:1046100009F04DC08091F202811196CC89E20E948E
:104620005607F0CFC93192E3D90709F091CAF801D2
:104630009681907F09F4A2CA882309F49FCA70E08A
:1046400060E089E198E0A9CFC837ECE7DE0739F4EC
:1046500082E0BECFC837FCE7DF0709F4D8CC9E0163
:10466000205E32452032310508F0D3CC9111E5CCE3
:10467000CF7181E090E09C0102C0220F331FCA95E8
:10468000E2F7E901622F83E090E00E94F031CE0171
:104690000E94240F83CF8272FE01E052F847EB3074
:1046A000F10508F08FCFED5BFD4C0C9478318091D3
:1046B000E3048272FE01E054F847EF30F10508F0A0
:1046C0009DCCE25BFD4C0C947831CF93DF938091CD
:1046D0001203807F09F04CC080911103882309F4F4
:1046E00047C0E091F2055091A905C0910D03D0910A
:1046F0000C0360910E0370910F0349E05E17C1F146
:104700008E2F90E0E49FF0011124E655FA4F2481AA
:10471000222389F1489FF001499FF00D1124DF0108
:10472000A655BA4F11962C9111972C1324C02C9199
:104730002D1321C015962C91159721111CC012968E
:104740002D913C91261B370B243B3105A0F4809121
:1047500012038F70806180931203E055FA4F8081BD
:104760008F70806180838CE093E0B6D90E940C0E3C
:10477000DF91CF910895FC013196E770BFCFAFE094
:10478000B0E0E5ECF3E20C941F318C0186E0F80117
:10479000DE011A9601900D928A95E1F7F801848165
:1047A000E5809CE0A92E93E0B92E90911003911121
:1047B00026C0882309F1EE20E9F0C8010E94290FE4
:1047C000F82E8823B9F089E0F801D50101900D9207
:1047D0008A95E1F780911003813031F480910C03C8
:1047E00090910D030E94480E70DF8F2D2F96ECE004
:1047F0000C943B31C80170D9FF24F394F6CFD080DC
:10480000C18082809380F090110320910E0330913B
:104810000F03A401421B530BFF2009F4E3C0443BE8
:10482000510508F0B1C0882301F390910D038091E8
:104830001203282F207F09F05DC0C9121CC090917F
:104840000C03D91218C0409113035091140327810F
:1048500030854217530779F4E11046C08F708061AC
:10486000809312038CE093E037D980911203F80112
:104870008683F12CBACFE11037C06C2D8D2D0E94AC
:104880009A056C2D8D2D0E949A05E82E8111F1CF8D
:10489000DA86CB868A859B850E94480E292F229531
:1048A0002F70903458F49F70223080F0992391F04B
:1048B000F8019681907F71F4FE2C97CF2A5F2F70BC
:1048C000223060F0C80108D9EF2CF6CF992311F0FF
:1048D000882391F3805E883078F3F4CF803F60F3D3
:1048E000815F833048F3EECF809112038160809323
:1048F0001203BFCFC9121BC090910C03D91217C06D
:1049000040911303509114032781308542175307B8
:1049100071F4E1100CC08683C801DED889E0F8018B
:10492000ACE0B3E001900D928A95E1F75ECFC8014B
:104930000E94290F882309F45DCFEE2009F45ACF95
:10494000809112038032B0F020910C0330910D035E
:104950003A8329839C828B82909110039D831E82CF
:104960008F83809113039091140399878887CE01D8
:104970000196B2D889E0F801ACE0B3E001900D9265
:104980008A95E1F7A2DE38CF90911203292F207F7C
:1049900049F48CE093E0A0D889E0F50111928A9562
:1049A000E9F767CF882309F420CF80910D038C119C
:1049B000BECF80910C03D812BACF4091130350910F
:1049C0001403278130854217530709F0B0CFE11057
:1049D000AECF9683C80180D889E0F50111928A95FF
:1049E000E9F703CF443B5105B8F7882309F404CF16
:1049F000FE2CEE2009F4FECE80910D038C110FC029
:104A000080910C03D8120BC0209113033091140332
:104A1000878190852817390711F489E081CFC80173
:104A20000E94290F8111A6CF80911203816080938B
:104A30001203C80151D8D9CEA2E1B0E0E2E2F5E21A
:104A40000C9427310A871B872C873D874E875F8709
:104A5000688B798B8A8BCE010A9691DE81110CC00E
:104A600089E0FE013A96DE01119601900D928A9539
:104A7000E1F74E8541110BC019E08091F20590914C
:104A8000A905891332C06296E4E00C944331209169
:104A9000A90530E0C9010196877099275091F20568
:104AA00058171906A1F04D8399E0929FD001939F6A
:104AB000B00D1124A655BA4FFE01319601900D920A
:104AC0009A95E1F78093A9050E940C0ED5CF0E941C
:104AD00056181092A9051092F20589E0ECE0F3E077
:104AE000DF011D928A95E9F7C7CF819FC00111248C
:104AF00086559A4F44DE882331F28091F20590E08A
:104B00000196877099278093F205B7CFEF92FF92B5
:104B10000F931F93CF93DF9380910C05882361F04F
:104B2000E0910B058DE0F82E80910C05E81748F018
:104B300010920C0510920B05CDB7DEB7E6E00C9491
:104B40004131EE24E394EE0EE0920B05CE2FD0E03F
:104B5000EF9DF0011124E35FFA4F84818823E1F097
:104B600087819085892B21F481859285019651F466
:104B70000081118122813381448155816681778151
:104B800080855ADFFC9EF001FD9EF00D1124E35F4D
:104B9000FA4F148210920A05EE2DC6CF10928005AE
:104BA00010927F051092930180917E0580937D0580
:104BB0000E944B08ABCFA9E0B0E0E1EEF5E20C9427
:104BC00025317B01DB0112968D919C91892BC1F0DF
:104BD00087E0FE013196DF011D928A95E9F70E9478
:104BE000BB15282F8B839C83F70182819381782FBB
:104BF00009811A813C8144E05E816F81892F1CDF2D
:104C0000D70115961C922996E6E00C944131B0E04C
:104C1000A0E0EDE0F6E20C941931C0917D05E7E0EB
:104C20008E2EEE24E394F12CADE09A2EB4E02B2EE0
:104C300080917E058C1308C069DF0E944B08CDB7B8
:104C4000DEB7E2E10C943531D0E0FE01EE0FFF1F3C
:104C5000EB58FA4F00811181B0E0A0E00A30110555
:104C600038F4809ED001819EB00D1124A35BBE4F0D
:104C700014968C911497811158C030900C052DE03A
:104C800035E090E080E0412C831508F04BC0F9013D
:104C9000C384D4846D907C9011974FEF5FEF512CBB
:104CA000A52CB12CF501EE0FFF1FE60DF71D659148
:104CB0007491C616D70609F4A501672B11F0539419
:104CC000EFCF4F3F5407B1F1B70102C0660F771F16
:104CD0004A95E2F7462AA701052C02C0440F551F4A
:104CE0000A94E2F7415051094416150609F5129647
:104CF0002D913C911397989EF001999EF00D1124EF
:104D0000E35FFA4F30872783248210821182128753
:104D1000018771E015967C931597571203C0BD016A
:104D2000C80149DFC8010E941A082196C37080CFCC
:104D3000F90114820196235F3F4FA6CFAAE1B0E0AC
:104D4000E4EAF6E20C9419314B8B5C8B6D8B7E8B15
:104D50008F8B988F911110920A05188A198A1A8AD6
:104D600086E0FE017396DE011A9601900D928A95F7
:104D7000E1F78091880582FF1CC00E94BB1520913D
:104D8000150330911603821B930B883E934020F04D
:104D90008091170382FFDCC10E94BB152091400364
:104DA00030914103821B930B883E934010F00E9488
:104DB000F90D8E858823C9F061E0CE010A960E9424
:104DC000790F61E0CE010A960E94790F61E0CE0171
:104DD0000A960E94790F80354CE7940789F48F85F5
:104DE000882311F181E0809393010A851B852C852E
:104DF0003D854E855F85688979898A891DDED3C0A6
:104E000081356CE7960729F48F85882369F0C6DE23
:104E1000ECCF82359C4741F48F85882329F080911F
:104E200093018111F4CFDECF6A857B8580E00E94FB
:104E3000CA0C1C010DE411E0E12CD12CC12C8824FA
:104E40008394912CF80160817181AA24AA94BA2CD0
:104E500020E0422F50E0FA01EE0FFF1FE60FF71F90
:104E6000859194912816390609F45A01892B11F07D
:104E70002F5FEFCF80E0FFEFAF16BF0609F455C0FC
:104E8000F8014481F09093018F2D411180E0F82FBB
:104E9000F170FF2E3F85F80195818681332309F457
:104EA00006C1FF2009F403C178E2672E712CF8E0F7
:104EB000CF16D10419F46EE1662E712C911114C035
:104EC000A4010A2C01C0440F0A94EAF7842BF801CC
:104ED000868380910805909109058615970520F431
:104EE0007092090560920805C40102C0880F991FDD
:104EF0002A95E2F70197F80126812817190609F08B
:104F0000C9C0A0907F05B0908005A114B10409F438
:104F10004EC00E94BB158A199B096816790608F0D5
:104F200046C021E0F801248381E0E82AFFEFCF1A90
:104F3000DF0A095F1F4F2AE0C216D10409F082CFB1
:104F40008F85882309F4F0C0EE2009F4EDC00E949B
:104F5000BB159093800580937F0580910C05883068
:104F600010F591E0980F90930C0599E0FE013A96A8
:104F7000DE01119601900D929A95E1F73DE0839F35
:104F8000C0011124835F9A4F29E0FE013196DC01B4
:104F900001900D922A95E1F72FEF3FEFFC01328748
:104FA0002187348623866A96E2E10C94353160913C
:104FB0007D05B0907E05762FF0E0E0E06B1115C026
:104FC00070937D05E017F10709F464C070E0FB0100
:104FD000EE0FFF1FEB58FA4FD182C0826F5F7F4FF9
:104FE0006370772760937E0555C0862F90E0FC01A3
:104FF000EE0FFF1FEB58FA4F20813181B0E0A0E0A7
:105000002A30310540F447E0429FD001439FB00D64
:105010001124A35BBE4F2D913C9111973A8F298F9C
:10502000612CA12C712CE72DF0E0EE0FFF1F298DD4
:105030003A8DE20FF31F2591349121153105B9F016
:10504000F80140805180A12C05C02417350709F4D0
:105050006F2CA394EA2DF0E0EE0FFF1FE40DF51D79
:10506000459154914115510581F77394DCCF662029
:1050700029F0A71430F0FD01109721F4F0E0E0E0F2
:1050800012C0F80121E024830E171F0729F4709342
:105090007D05F62C8F2D49CF671305C0AE17BF07CE
:1050A00011F47F5F73700196682F637087CF792E3C
:1050B00090E071101FC0B40102C0660F771F2A95DF
:1050C000E2F79B01215031092817390729F44423BD
:1050D00049F1C6010E941A08C4010A2C01C0880FB8
:1050E0000A94EAF7982F9095F801868189238683A0
:1050F000F72CD0CFAC010A2C02C0559547950A94E5
:10510000E2F79C012150310982239323892B31F44A
:1051100040FF04C0B801C6014EDDDECF742F7170B0
:10512000772EDACF7F2CD8CF90917D0580917E05A8
:10513000981731F06CDDF1E0EF1609F434CF55CE5D
:10514000E5DC1092800510927F050E944B08F3CF9A
:1051500082E00E94FC0E20CEA6E0B0E0E2EBF8E296
:105160000C9427310E94BB158C01809143039091D0
:1051700044038017910779F019821A820E94BB15A7
:10518000682F49815A81792F80E090E0D7DD109314
:105190004403009343032696E4E00C9443311F92AA
:1051A0001FB61F9211248F939F93AF93BF9380914B
:1051B0008905811113C080918A0590918B05A0917A
:1051C0008C05B0918D054196A11DB11D80938A0576
:1051D00090938B05A0938C05B0938D05BF91AF91F3
:1051E0009F918F911F901FBE1F901895CDB7DEB76E
:1051F0002E970FB6F894DEBF0FBECDBF85B780687F
:1052000085BF85B7806885BF84B7877F84BF0FB6A9
:10521000F894A89580916000886180936000109256
:1052200060000FBE80E890E00FB6F89480936100B4
:10523000909361000FBE81E0809397018BE89BE023
:105240009093C9028093C8020E94CF050E94700605
:105250008091E20084608093E200789480919905C7
:105260008823A1F01091E9001F709091EC00892F24
:10527000817090FD80E8182B1092E9008091E80081
:1052800083FD0E9476181F701093E90082E084BDB0
:1052900093E095BD9AEF97BD80936E0010928603C0
:1052A0001092870310928803109289038091D8008E
:1052B00080618093D8002AE12A95F1F700C080919F
:1052C000D900182F117080FD04C00E94CF051092E4
:1052D00099051093A3051093A405111197C094E0AC
:1052E0009093930384E0891B8093920384E90E9446
:1052F0008D0B86E60E948D0B87E90E948D0B86EC54
:105300000E948D0B0BED11E0D8018D918D018F3F27
:1053100011F00E948D0BB1E0013E1B07A9F788E058
:10532000E6E9F3E0DF01882E1D928A94E9F7EAE8C6
:10533000F3E0DF011D928A95E9F790E080E00E949A
:10534000DC31833E9E4FB1F163EE7EEF90E080E072
:105350000E940A3260E082E090E00E94F03181E039
:1053600090E0909395038093940361E083E090E054
:105370000E94F03160E074E184E090E00E940A3223
:105380000E94831240E050E0BA018FE090E00E945A
:10539000023240E050E0BA0183E190E00E94023224
:1053A00048E050E067E170E086EF95E00E94E1316F
:1053B0001092FE0582E090E0F2D78093A60384E08D
:1053C00090E0FAD790938805809387050E94D015C6
:1053D000EFEFF6E721E0E150F0402040E1F700C0B8
:1053E00000000E94D0158091A405E4E08111E0E066
:1053F000F0E0EA56FC4F808181FF10C06FEF7FEF35
:1054000090E080E00E940A320E942507AAD5809190
:10541000A405882309F463CF90E062CF83E090E095
:10542000BED790E00E94240F0E94680810920D04DD
:105430008FEF9FEF90932704809326049093290485
:105440008093280490932B0480932A0490932D0436
:1054500080932C0490932F0480932E049093310416
:1054600080933004909333048093320490933504F6
:10547000809334041092E4039093FE038093FD0321
:10548000909300048093FF0390930204809301049F
:10549000909304048093030490930604809305047E
:1054A000909308048093070490930A04809309045E
:1054B00090930C0480930B0481E08093FE0548E0F8
:1054C00050E067E170E086EF95E059D71092FE0555
:1054D0008091F6058C7F11F40E9483128091A305C0
:1054E000811155C182E08093DE0380E88093FF053F
:1054F000D8D36BE070E08BEB92E00E9450118823D0
:1055000009F43FC08091DE0365E070E081FD41C198
:1055100086EB92E00E945011882399F16DE070E0D3
:1055200084EA92E00E945011882359F10E943607C4
:10553000DC01CB01805D9A48AF4FBF4F80933B04A5
:1055400090933C04A0933D04B0933E04E2E0F6E067
:1055500080E092E0DF019C011D9221503040E1F794
:10556000F0930908E09308088FEF9FEF90930106EE
:105570008093000681E08093400480933F04109262
:10558000DF038091A305811101C0EED483E190E097
:105590000ED76F83788789879A87633177408642F1
:1055A000904249F00E94831243E157E066E270E2C4
:1055B00083E190E027D788E391E09093840580937E
:1055C00083058091990510E400E152E1F52E8530C4
:1055D00009F447C10E94D015A7EAB3E0B887AF83AA
:1055E000E6E9F3E0FC87EB87DF01E7EAF3E091917E
:1055F0008D9123E0EF3AF20709F43FC19817B9F310
:105600008090A3058E863EE9C32E33E0D32E45EF6E
:10561000842E41E0942E512CAB85BC854D90BC87E7
:10562000AB87EF81F8858191F887EF83841509F4C2
:105630009FC084258D87F12CE12C332433948D85F4
:10564000832109F488C0242C2320FE85FF2311F137
:10565000D6018C9190E021E030E00E2C02C0220FA8
:10566000331F0A94E2F782239323892B99F4E9826A
:105670005A820E94BB159C838B83B1E0BD8391E06D
:10568000211001C090E09E8349815A816B817C8109
:105690008D8154DB222039F0F401EE0DFF1D808155
:1056A0008F3F09F090C1712C072D10E08091E40329
:1056B000800F912F911D09974CF188E0A82EB12CF5
:1056C000A01AB10AB8016B517C4FA50185EE93E099
:1056D0004DD6B80163517C4FA5018DEE93E046D6BF
:1056E000A501440F551FB801660F771F63507C4F0B
:1056F0008DEF93E03BD6B8016B507C4FA50185EF51
:1057000093E034D688E087198093E4038091E40322
:1057100090E0A62DB0E09D01220F331F2B5D3D4F81
:10572000AA0FBB1FBD016A5D7D4F41E0480F971571
:1057300008F44DC18093E40321100DC081E090E096
:105740000E2C01C0880F0A94EAF7982F9095F60165
:10575000808189238083330CFFEFEF1AFF0A26E054
:10576000E216F10409F06BCFEF81F88531974082A2
:1057700053943FEFC31AD30A46E0840E911C58E0BD
:1057800055124ACF0E94A60BDD24D3947AC080E044
:10579000AACE81EB92E0BECE80919905843009F4C7
:1057A00033C00E94AA118091E303811105C00E94B9
:1057B0006A0A80E00E94170941E04093E3030E94D7
:1057C0005D111092890588E190E00FB6F894A895D4
:1057D000809360000FBE1093600083B7817F846068
:1057E00083BF83B7816083BF7894889583B78E7FAA
:1057F00083BF0FB6F894A89580916000886180936C
:105800006000109260000FBE0E94D015E6E9F3E040
:10581000AEE9B3E080E021912D9391E0211101C028
:1058200090E0892B93E0EE39F907A9F78823C9F0B6
:10583000809198058823A9F009BDF9BC09B400FE40
:10584000FDCF8091D8008F7D8093D8008091E000BB
:1058500082608093E0008091E00081FDFCCF0E9497
:10586000561880919905853009F496CF0E945618F4
:105870000E9407081092E303ADCE9813C1CE6CDCF2
:10588000D12C8091A305882309F43FC08091930116
:10589000882311F100917F051091800501151105F4
:1058A000D9F00E94BB15801B910B20910805309107
:1058B00009052817390780F490917D0580917E05B0
:1058C000981709F499C0A3D91092090510920805F8
:1058D0001092800510927F0580914C0182FF15C0C7
:1058E0000E94BB15BC018091040590910505DB0168
:1058F000A81BB90BAC3DB10540F04FEA53E08091D5
:105900000605909107050E94B21C0E94AA11809181
:105910004004882309F448C00091E0031091E1039A
:105920000E94BB15801B910BC297A0F00E94BB1573
:105930009093E1038093E00382E096E0909309085E
:10594000809308088091A30581115AC08EEF92E0E0
:105950000E9455108091000690910106892B09F054
:1059600075C080913F048823F9F00E9436076F8349
:10597000788789879A8780913B0490913C04A09115
:105980003D04B0913E042F81388549855A85281BF6
:10599000390B4A0B5B0BDA01C9018F3F9F4FAF4FA9
:1059A000BF4710F40E945D11D1100E9477110E9430
:1059B00007089091E203891709F403CE8093E2036C
:1059C0000E943607FECD682E772473946DCE90E04A
:1059D000FC01EC51FC4FD9015C915183DB015C91DE
:1059E0005187618A880F991FFC01EC51FC4F128E80
:1059F000118E842F91E099CE89D80E944B0868CFF0
:105A000082EF92E00E9455108BEE92E00E945510BA
:105A10008091B8039091B9030E94550F823081F0B4
:105A200038F481110AC083EE92E00E94931092CF65
:105A3000833049F086EC92E0F8CF8CED92E0F5CF20
:105A400085ED92E0F2CF8EEC92E0EFCF80914004B2
:105A5000882309F486CF8091DF03811182CF0E94D1
:105A6000771120910006309101062115310509F4C6
:105A700078CF80E0082F10E0EE24E394F12C082E7C
:105A800002C0EE0CFF1C0A94E2F7A7014223532345
:105A9000452B11F48F5FEECF9091DE0390FF94C001
:105AA000880F880F880F8093450110924801895F05
:105AB0008093460183E08093490124E630E047E08B
:105AC00050E063E471E088E722D1892B09F049CFE7
:105AD000A80135E0440F551F3A95E1F78091DE03A8
